{
  "contractName": "Factory",
  "abi": [
    {
      "inputs": [
        {
          "internalType": "address",
          "name": "_feeToSetter",
          "type": "address"
        }
      ],
      "stateMutability": "nonpayable",
      "type": "constructor"
    },
    {
      "anonymous": false,
      "inputs": [
        {
          "indexed": true,
          "internalType": "address",
          "name": "token0",
          "type": "address"
        },
        {
          "indexed": true,
          "internalType": "address",
          "name": "token1",
          "type": "address"
        },
        {
          "indexed": false,
          "internalType": "address",
          "name": "pair",
          "type": "address"
        },
        {
          "indexed": false,
          "internalType": "uint256",
          "name": "",
          "type": "uint256"
        }
      ],
      "name": "Pair_Created",
      "type": "event"
    },
    {
      "inputs": [
        {
          "internalType": "uint256",
          "name": "",
          "type": "uint256"
        }
      ],
      "name": "allPairs",
      "outputs": [
        {
          "internalType": "address",
          "name": "",
          "type": "address"
        }
      ],
      "stateMutability": "view",
      "type": "function"
    },
    {
      "inputs": [],
      "name": "feeTo",
      "outputs": [
        {
          "internalType": "address",
          "name": "",
          "type": "address"
        }
      ],
      "stateMutability": "view",
      "type": "function"
    },
    {
      "inputs": [],
      "name": "feeToSetter",
      "outputs": [
        {
          "internalType": "address",
          "name": "",
          "type": "address"
        }
      ],
      "stateMutability": "view",
      "type": "function"
    },
    {
      "inputs": [
        {
          "internalType": "address",
          "name": "",
          "type": "address"
        },
        {
          "internalType": "address",
          "name": "",
          "type": "address"
        }
      ],
      "name": "getPair",
      "outputs": [
        {
          "internalType": "address",
          "name": "",
          "type": "address"
        }
      ],
      "stateMutability": "view",
      "type": "function"
    },
    {
      "inputs": [],
      "name": "allPairsLength",
      "outputs": [
        {
          "internalType": "uint256",
          "name": "",
          "type": "uint256"
        }
      ],
      "stateMutability": "view",
      "type": "function"
    },
    {
      "inputs": [
        {
          "internalType": "address",
          "name": "tokenA",
          "type": "address"
        },
        {
          "internalType": "address",
          "name": "tokenB",
          "type": "address"
        }
      ],
      "name": "createPair",
      "outputs": [
        {
          "internalType": "address",
          "name": "pair",
          "type": "address"
        }
      ],
      "stateMutability": "nonpayable",
      "type": "function"
    },
    {
      "inputs": [
        {
          "internalType": "address",
          "name": "_feeTo",
          "type": "address"
        }
      ],
      "name": "setFeeTo",
      "outputs": [],
      "stateMutability": "nonpayable",
      "type": "function"
    },
    {
      "inputs": [
        {
          "internalType": "address",
          "name": "_feeToSetter",
          "type": "address"
        }
      ],
      "name": "setFeeToSetter",
      "outputs": [],
      "stateMutability": "nonpayable",
      "type": "function"
    }
  ],
  "bytecode": "0x608060405234801561001057600080fd5b506040516200518c3803806200518c833981810160405281019061003491906100de565b80600160006101000a81548173ffffffffffffffffffffffffffffffffffffffff021916908373ffffffffffffffffffffffffffffffffffffffff1602179055505061010b565b600080fd5b600073ffffffffffffffffffffffffffffffffffffffff82169050919050565b60006100ab82610080565b9050919050565b6100bb816100a0565b81146100c657600080fd5b50565b6000815190506100d8816100b2565b92915050565b6000602082840312156100f4576100f361007b565b5b6000610102848285016100c9565b91505092915050565b615071806200011b6000396000f3fe60806040523480156200001157600080fd5b5060043610620000945760003560e01c8063a2e74af61162000063578063a2e74af61462000135578063c9c653961462000155578063e6a43905146200018b578063f46901ed14620001c15762000094565b8063017e7e581462000099578063094b741514620000bb5780631e3dd18b14620000dd578063574f2ba31462000113575b600080fd5b620000a3620001e1565b604051620000b2919062000a1a565b60405180910390f35b620000c562000205565b604051620000d4919062000a1a565b60405180910390f35b620000fb6004803603810190620000f5919062000a77565b6200022b565b6040516200010a919062000a1a565b60405180910390f35b6200011d6200026b565b6040516200012c919062000aba565b60405180910390f35b6200015360048036038101906200014d919062000b08565b62000278565b005b6200017360048036038101906200016d919062000b3a565b6200034f565b60405162000182919062000a1a565b60405180910390f35b620001a96004803603810190620001a3919062000b3a565b620008af565b604051620001b8919062000a1a565b60405180910390f35b620001df6004803603810190620001d9919062000b08565b620008f1565b005b60008054906101000a900473ffffffffffffffffffffffffffffffffffffffff1681565b600160009054906101000a900473ffffffffffffffffffffffffffffffffffffffff1681565b600381815481106200023c57600080fd5b906000526020600020016000915054906101000a900473ffffffffffffffffffffffffffffffffffffffff1681565b6000600380549050905090565b600160009054906101000a900473ffffffffffffffffffffffffffffffffffffffff1673ffffffffffffffffffffffffffffffffffffffff163373ffffffffffffffffffffffffffffffffffffffff16146200030b576040517f08c379a0000000000000000000000000000000000000000000000000000000008152600401620003029062000be2565b60405180910390fd5b80600160006101000a81548173ffffffffffffffffffffffffffffffffffffffff021916908373ffffffffffffffffffffffffffffffffffffffff16021790555050565b60008173ffffffffffffffffffffffffffffffffffffffff168373ffffffffffffffffffffffffffffffffffffffff1603620003c2576040517f08c379a0000000000000000000000000000000000000000000000000000000008152600401620003b99062000c54565b60405180910390fd5b6000808373ffffffffffffffffffffffffffffffffffffffff168573ffffffffffffffffffffffffffffffffffffffff16106200040157838562000404565b84845b91509150600073ffffffffffffffffffffffffffffffffffffffff168273ffffffffffffffffffffffffffffffffffffffff16036200047a576040517f08c379a0000000000000000000000000000000000000000000000000000000008152600401620004719062000cc6565b60405180910390fd5b600073ffffffffffffffffffffffffffffffffffffffff16600260008473ffffffffffffffffffffffffffffffffffffffff1673ffffffffffffffffffffffffffffffffffffffff16815260200190815260200160002060008373ffffffffffffffffffffffffffffffffffffffff1673ffffffffffffffffffffffffffffffffffffffff16815260200190815260200160002060009054906101000a900473ffffffffffffffffffffffffffffffffffffffff1673ffffffffffffffffffffffffffffffffffffffff161462000588576040517f08c379a00000000000000000000000000000000000000000000000000000000081526004016200057f9062000d38565b60405180910390fd5b6000604051806020016200059c90620009c7565b6020820181038252601f19601f82011660405250905060008383604051602001620005c992919062000daa565b604051602081830303815290604052805190602001209050808251602084016000f594508473ffffffffffffffffffffffffffffffffffffffff1663485cc95585856040518363ffffffff1660e01b81526004016200062a92919062000dda565b600060405180830381600087803b1580156200064557600080fd5b505af11580156200065a573d6000803e3d6000fd5b5050505084600260008673ffffffffffffffffffffffffffffffffffffffff1673ffffffffffffffffffffffffffffffffffffffff16815260200190815260200160002060008573ffffffffffffffffffffffffffffffffffffffff1673ffffffffffffffffffffffffffffffffffffffff16815260200190815260200160002060006101000a81548173ffffffffffffffffffffffffffffffffffffffff021916908373ffffffffffffffffffffffffffffffffffffffff16021790555084600260008573ffffffffffffffffffffffffffffffffffffffff1673ffffffffffffffffffffffffffffffffffffffff16815260200190815260200160002060008673ffffffffffffffffffffffffffffffffffffffff1673ffffffffffffffffffffffffffffffffffffffff16815260200190815260200160002060006101000a81548173ffffffffffffffffffffffffffffffffffffffff021916908373ffffffffffffffffffffffffffffffffffffffff1602179055506003859080600181540180825580915050600190039060005260206000200160009091909190916101000a81548173ffffffffffffffffffffffffffffffffffffffff021916908373ffffffffffffffffffffffffffffffffffffffff1602179055508273ffffffffffffffffffffffffffffffffffffffff168473ffffffffffffffffffffffffffffffffffffffff167f4c13985e19b2ad69b3161f78cb09de1829f1c7a0d8993ce0c640ad1bafb7796d876003805490506040516200089d92919062000e07565b60405180910390a35050505092915050565b60026020528160005260406000206020528060005260406000206000915091509054906101000a900473ffffffffffffffffffffffffffffffffffffffff1681565b600160009054906101000a900473ffffffffffffffffffffffffffffffffffffffff1673ffffffffffffffffffffffffffffffffffffffff163373ffffffffffffffffffffffffffffffffffffffff161462000984576040517f08c379a00000000000000000000000000000000000000000000000000000000081526004016200097b9062000be2565b60405180910390fd5b806000806101000a81548173ffffffffffffffffffffffffffffffffffffffff021916908373ffffffffffffffffffffffffffffffffffffffff16021790555050565b6142078062000e3583390190565b600073ffffffffffffffffffffffffffffffffffffffff82169050919050565b600062000a0282620009d5565b9050919050565b62000a1481620009f5565b82525050565b600060208201905062000a31600083018462000a09565b92915050565b600080fd5b6000819050919050565b62000a518162000a3c565b811462000a5d57600080fd5b50565b60008135905062000a718162000a46565b92915050565b60006020828403121562000a905762000a8f62000a37565b5b600062000aa08482850162000a60565b91505092915050565b62000ab48162000a3c565b82525050565b600060208201905062000ad1600083018462000aa9565b92915050565b62000ae281620009f5565b811462000aee57600080fd5b50565b60008135905062000b028162000ad7565b92915050565b60006020828403121562000b215762000b2062000a37565b5b600062000b318482850162000af1565b91505092915050565b6000806040838503121562000b545762000b5362000a37565b5b600062000b648582860162000af1565b925050602062000b778582860162000af1565b9150509250929050565b600082825260208201905092915050565b7f42756c6c436f696e3a20464f5242494444454e00000000000000000000000000600082015250565b600062000bca60138362000b81565b915062000bd78262000b92565b602082019050919050565b6000602082019050818103600083015262000bfd8162000bbb565b9050919050565b7f42756c6c436f696e3a204944454e544943414c5f414444524553534553000000600082015250565b600062000c3c601d8362000b81565b915062000c498262000c04565b602082019050919050565b6000602082019050818103600083015262000c6f8162000c2d565b9050919050565b7f42756c6c436f696e3a205a45524f5f4144445245535300000000000000000000600082015250565b600062000cae60168362000b81565b915062000cbb8262000c76565b602082019050919050565b6000602082019050818103600083015262000ce18162000c9f565b9050919050565b7f42756c6c436f696e3a20504149525f4558495354530000000000000000000000600082015250565b600062000d2060158362000b81565b915062000d2d8262000ce8565b602082019050919050565b6000602082019050818103600083015262000d538162000d11565b9050919050565b60008160601b9050919050565b600062000d748262000d5a565b9050919050565b600062000d888262000d67565b9050919050565b62000da462000d9e82620009f5565b62000d7b565b82525050565b600062000db8828562000d8f565b60148201915062000dca828462000d8f565b6014820191508190509392505050565b600060408201905062000df1600083018562000a09565b62000e00602083018462000a09565b9392505050565b600060408201905062000e1e600083018562000a09565b62000e2d602083018462000aa9565b939250505056fe60806040526001600c553480156200001657600080fd5b5060004690507f8b73c3c69bb8fe3d512ecc4cf759cc79239f7b179b0ffacaa9a75d522b39400f6040518060400160405280600b81526020017f42756c6c4c50546f6b656e000000000000000000000000000000000000000000815250805190602001206040518060400160405280600181526020017f3100000000000000000000000000000000000000000000000000000000000000815250805190602001208330604051602001620000cf959493929190620001ae565b604051602081830303815290604052805190602001206003819055505033600560006101000a81548173ffffffffffffffffffffffffffffffffffffffff021916908373ffffffffffffffffffffffffffffffffffffffff1602179055506200020b565b6000819050919050565b620001488162000133565b82525050565b6000819050919050565b62000163816200014e565b82525050565b600073ffffffffffffffffffffffffffffffffffffffff82169050919050565b6000620001968262000169565b9050919050565b620001a88162000189565b82525050565b600060a082019050620001c560008301886200013d565b620001d460208301876200013d565b620001e360408301866200013d565b620001f2606083018562000158565b6200020160808301846200019d565b9695505050505050565b613fec806200021b6000396000f3fe608060405234801561001057600080fd5b50600436106101a95760003560e01c80636a627842116100f9578063ba9a7a5611610097578063d21220a711610071578063d21220a7146104db578063d505accf146104f9578063dd62ed3e14610515578063fff6cae914610545576101a9565b8063ba9a7a5614610483578063bc25cf77146104a1578063c45a0155146104bd576101a9565b80637ecebe00116100d35780637ecebe00146103d457806389afcb441461040457806395d89b4114610435578063a9059cbb14610453576101a9565b80636a6278421461035657806370a08231146103865780637464fc3d146103b6576101a9565b806323b872dd116101665780633644e515116101405780633644e515146102e0578063485cc955146102fe5780635909c0d51461031a5780635a3d549314610338576101a9565b806323b872dd1461027457806330adf81f146102a4578063313ce567146102c2576101a9565b8063022c0d9f146101ae57806306fdde03146101ca5780630902f1ac146101e8578063095ea7b3146102085780630dfe16811461023857806318160ddd14610256575b600080fd5b6101c860048036038101906101c39190612dcc565b61054f565b005b6101d2610ba1565b6040516101df9190612ee4565b60405180910390f35b6101f0610bda565b6040516101ff93929190612f4e565b60405180910390f35b610222600480360381019061021d9190612f85565b610c37565b60405161022f9190612fe0565b60405180910390f35b610240610c4e565b60405161024d919061300a565b60405180910390f35b61025e610c74565b60405161026b9190613034565b60405180910390f35b61028e6004803603810190610289919061304f565b610c7a565b60405161029b9190612fe0565b60405180910390f35b6102ac610e60565b6040516102b991906130bb565b60405180910390f35b6102ca610e87565b6040516102d791906130f2565b60405180910390f35b6102e8610e8c565b6040516102f591906130bb565b60405180910390f35b6103186004803603810190610313919061310d565b610e92565b005b610322610fa8565b60405161032f9190613034565b60405180910390f35b610340610fae565b60405161034d9190613034565b60405180910390f35b610370600480360381019061036b919061314d565b610fb4565b60405161037d9190613034565b60405180910390f35b6103a0600480360381019061039b919061314d565b61139d565b6040516103ad9190613034565b60405180910390f35b6103be6113b5565b6040516103cb9190613034565b60405180910390f35b6103ee60048036038101906103e9919061314d565b6113bb565b6040516103fb9190613034565b60405180910390f35b61041e6004803603810190610419919061314d565b6113d3565b60405161042c92919061317a565b60405180910390f35b61043d61187d565b60405161044a9190612ee4565b60405180910390f35b61046d60048036038101906104689190612f85565b6118b6565b60405161047a9190612fe0565b60405180910390f35b61048b6118cd565b6040516104989190613034565b60405180910390f35b6104bb60048036038101906104b6919061314d565b6118d3565b005b6104c5611aff565b6040516104d2919061300a565b60405180910390f35b6104e3611b25565b6040516104f0919061300a565b60405180910390f35b610513600480360381019061050e91906131fb565b611b4b565b005b61052f600480360381019061052a919061310d565b611d73565b60405161053c9190613034565b60405180910390f35b61054d611d98565b005b6001600c5414610594576040517f08c379a000000000000000000000000000000000000000000000000000000000815260040161058b906132e9565b60405180910390fd5b6000600c8190555060008511806105ab5750600084115b6105ea576040517f08c379a00000000000000000000000000000000000000000000000000000000081526004016105e19061337b565b60405180910390fd5b6000806105f5610bda565b5091509150816dffffffffffffffffffffffffffff16871080156106285750806dffffffffffffffffffffffffffff1686105b610667576040517f08c379a000000000000000000000000000000000000000000000000000000000815260040161065e9061340d565b60405180910390fd5b6000806000600660009054906101000a900473ffffffffffffffffffffffffffffffffffffffff1690506000600760009054906101000a900473ffffffffffffffffffffffffffffffffffffffff1690508173ffffffffffffffffffffffffffffffffffffffff168973ffffffffffffffffffffffffffffffffffffffff161415801561072057508073ffffffffffffffffffffffffffffffffffffffff168973ffffffffffffffffffffffffffffffffffffffff1614155b61075f576040517f08c379a000000000000000000000000000000000000000000000000000000000815260040161075690613479565b60405180910390fd5b60008b111561077457610773828a8d611f69565b5b60008a111561078957610788818a8c611f69565b5b6000888890501115610809578873ffffffffffffffffffffffffffffffffffffffff166310d1e85c338d8d8c8c6040518663ffffffff1660e01b81526004016107d69594939291906134e6565b600060405180830381600087803b1580156107f057600080fd5b505af1158015610804573d6000803e3d6000fd5b505050505b8173ffffffffffffffffffffffffffffffffffffffff166370a08231306040518263ffffffff1660e01b8152600401610842919061300a565b602060405180830381865afa15801561085f573d6000803e3d6000fd5b505050506040513d601f19601f820116820180604052508101906108839190613549565b93508073ffffffffffffffffffffffffffffffffffffffff166370a08231306040518263ffffffff1660e01b81526004016108be919061300a565b602060405180830381865afa1580156108db573d6000803e3d6000fd5b505050506040513d601f19601f820116820180604052508101906108ff9190613549565b92505050600089856dffffffffffffffffffffffffffff1661092191906135a5565b831161092e576000610956565b89856dffffffffffffffffffffffffffff1661094a91906135a5565b8361095591906135a5565b5b9050600089856dffffffffffffffffffffffffffff1661097691906135a5565b83116109835760006109ab565b89856dffffffffffffffffffffffffffff1661099f91906135a5565b836109aa91906135a5565b5b905060008211806109bc5750600081115b6109fb576040517f08c379a00000000000000000000000000000000000000000000000000000000081526004016109f29061364b565b60405180910390fd5b6000610a37610a146003856120f390919063ffffffff16565b610a296103e8886120f390919063ffffffff16565b61210990919063ffffffff16565b90506000610a75610a526003856120f390919063ffffffff16565b610a676103e8886120f390919063ffffffff16565b61210990919063ffffffff16565b9050610abf620f4240610ab1896dffffffffffffffffffffffffffff168b6dffffffffffffffffffffffffffff166120f390919063ffffffff16565b6120f390919063ffffffff16565b610ad282846120f390919063ffffffff16565b1015610b13576040517f08c379a0000000000000000000000000000000000000000000000000000000008152600401610b0a906136b7565b60405180910390fd5b5050610b218484888861211f565b8873ffffffffffffffffffffffffffffffffffffffff163373ffffffffffffffffffffffffffffffffffffffff167fd78ad95fa46c994b6551d0da85fc275fe613ce37657fb8d5e3d130840159d82284848f8f604051610b8494939291906136d7565b60405180910390a35050505050506001600c819055505050505050565b6040518060400160405280600b81526020017f42756c6c4c50546f6b656e00000000000000000000000000000000000000000081525081565b6000806000600860009054906101000a90046dffffffffffffffffffffffffffff1692506008600e9054906101000a90046dffffffffffffffffffffffffffff1691506008601c9054906101000a900463ffffffff169050909192565b6000610c4433848461240f565b6001905092915050565b600660009054906101000a900473ffffffffffffffffffffffffffffffffffffffff1681565b60005481565b600081600260008673ffffffffffffffffffffffffffffffffffffffff1673ffffffffffffffffffffffffffffffffffffffff16815260200190815260200160002060003373ffffffffffffffffffffffffffffffffffffffff1673ffffffffffffffffffffffffffffffffffffffff168152602001908152602001600020541015610d3b576040517f08c379a0000000000000000000000000000000000000000000000000000000008152600401610d3290613768565b60405180910390fd5b610dca82600260008773ffffffffffffffffffffffffffffffffffffffff1673ffffffffffffffffffffffffffffffffffffffff16815260200190815260200160002060003373ffffffffffffffffffffffffffffffffffffffff1673ffffffffffffffffffffffffffffffffffffffff1681526020019081526020016000205461210990919063ffffffff16565b600260008673ffffffffffffffffffffffffffffffffffffffff1673ffffffffffffffffffffffffffffffffffffffff16815260200190815260200160002060003373ffffffffffffffffffffffffffffffffffffffff1673ffffffffffffffffffffffffffffffffffffffff16815260200190815260200160002081905550610e558484846124fa565b600190509392505050565b7f6e71edae12b1b97f4d1f60370fef10105fa2faae0126114a169c64845d6126c960001b81565b601281565b60035481565b600560009054906101000a900473ffffffffffffffffffffffffffffffffffffffff1673ffffffffffffffffffffffffffffffffffffffff163373ffffffffffffffffffffffffffffffffffffffff1614610f22576040517f08c379a0000000000000000000000000000000000000000000000000000000008152600401610f19906137d4565b60405180910390fd5b81600660006101000a81548173ffffffffffffffffffffffffffffffffffffffff021916908373ffffffffffffffffffffffffffffffffffffffff16021790555080600760006101000a81548173ffffffffffffffffffffffffffffffffffffffff021916908373ffffffffffffffffffffffffffffffffffffffff1602179055505050565b60095481565b600a5481565b60006001600c5414610ffb576040517f08c379a0000000000000000000000000000000000000000000000000000000008152600401610ff2906132e9565b60405180910390fd5b6000600c8190555060008061100e610bda565b50915091506000600660009054906101000a900473ffffffffffffffffffffffffffffffffffffffff1673ffffffffffffffffffffffffffffffffffffffff166370a08231306040518263ffffffff1660e01b8152600401611070919061300a565b602060405180830381865afa15801561108d573d6000803e3d6000fd5b505050506040513d601f19601f820116820180604052508101906110b19190613549565b90506000600760009054906101000a900473ffffffffffffffffffffffffffffffffffffffff1673ffffffffffffffffffffffffffffffffffffffff166370a08231306040518263ffffffff1660e01b8152600401611110919061300a565b602060405180830381865afa15801561112d573d6000803e3d6000fd5b505050506040513d601f19601f820116820180604052508101906111519190613549565b90506000611178856dffffffffffffffffffffffffffff168461210990919063ffffffff16565b9050600061119f856dffffffffffffffffffffffffffff168461210990919063ffffffff16565b905060006111ad878761268e565b905060008054905060008103611200576111ec6103e86111de6111d986886120f390919063ffffffff16565b61285f565b61210990919063ffffffff16565b98506111fb60006103e8612a0c565b611267565b611264886dffffffffffffffffffffffffffff1661122783876120f390919063ffffffff16565b6112319190613823565b886dffffffffffffffffffffffffffff1661125584876120f390919063ffffffff16565b61125f9190613823565b612b26565b98505b600089116112aa576040517f08c379a00000000000000000000000000000000000000000000000000000000081526004016112a1906138c6565b60405180910390fd5b6112b48a8a612a0c565b6112c086868a8a61211f565b8115611338576113316008600e9054906101000a90046dffffffffffffffffffffffffffff166dffffffffffffffffffffffffffff16600860009054906101000a90046dffffffffffffffffffffffffffff166dffffffffffffffffffffffffffff166120f390919063ffffffff16565b600b819055505b3373ffffffffffffffffffffffffffffffffffffffff167f4c209b5fc8ad50758f13e2e1088ba56a560dff690a1c6fef26394f4c03821c4f858560405161138092919061317a565b60405180910390a250505050505050506001600c81905550919050565b60016020528060005260406000206000915090505481565b600b5481565b60046020528060005260406000206000915090505481565b6000806001600c541461141b576040517f08c379a0000000000000000000000000000000000000000000000000000000008152600401611412906132e9565b60405180910390fd5b6000600c8190555060008061142e610bda565b50915091506000600660009054906101000a900473ffffffffffffffffffffffffffffffffffffffff1690506000600760009054906101000a900473ffffffffffffffffffffffffffffffffffffffff16905060008273ffffffffffffffffffffffffffffffffffffffff166370a08231306040518263ffffffff1660e01b81526004016114bc919061300a565b602060405180830381865afa1580156114d9573d6000803e3d6000fd5b505050506040513d601f19601f820116820180604052508101906114fd9190613549565b905060008273ffffffffffffffffffffffffffffffffffffffff166370a08231306040518263ffffffff1660e01b815260040161153a919061300a565b602060405180830381865afa158015611557573d6000803e3d6000fd5b505050506040513d601f19601f8201168201806040525081019061157b9190613549565b90506000600160003073ffffffffffffffffffffffffffffffffffffffff1673ffffffffffffffffffffffffffffffffffffffff16815260200190815260200160002054905060006115cd888861268e565b9050600080549050806115e986856120f390919063ffffffff16565b6115f39190613823565b9a508061160985856120f390919063ffffffff16565b6116139190613823565b995060008b118015611625575060008a115b611664576040517f08c379a000000000000000000000000000000000000000000000000000000000815260040161165b90613958565b60405180910390fd5b61166e3084612b3f565b611679878d8d611f69565b611684868d8c611f69565b8673ffffffffffffffffffffffffffffffffffffffff166370a08231306040518263ffffffff1660e01b81526004016116bd919061300a565b602060405180830381865afa1580156116da573d6000803e3d6000fd5b505050506040513d601f19601f820116820180604052508101906116fe9190613549565b94508573ffffffffffffffffffffffffffffffffffffffff166370a08231306040518263ffffffff1660e01b8152600401611739919061300a565b602060405180830381865afa158015611756573d6000803e3d6000fd5b505050506040513d601f19601f8201168201806040525081019061177a9190613549565b935061178885858b8b61211f565b8115611800576117f96008600e9054906101000a90046dffffffffffffffffffffffffffff166dffffffffffffffffffffffffffff16600860009054906101000a90046dffffffffffffffffffffffffffff166dffffffffffffffffffffffffffff166120f390919063ffffffff16565b600b819055505b8b73ffffffffffffffffffffffffffffffffffffffff163373ffffffffffffffffffffffffffffffffffffffff167fdccd412f0b1252819cb1fd330b93224ca42612892bb3f4f789976e6d819364968d8d60405161185f92919061317a565b60405180910390a35050505050505050506001600c81905550915091565b6040518060400160405280600381526020017f424c50000000000000000000000000000000000000000000000000000000000081525081565b60006118c33384846124fa565b6001905092915050565b6103e881565b6001600c5414611918576040517f08c379a000000000000000000000000000000000000000000000000000000000815260040161190f906132e9565b60405180910390fd5b6000600c819055506000600660009054906101000a900473ffffffffffffffffffffffffffffffffffffffff1690506000600760009054906101000a900473ffffffffffffffffffffffffffffffffffffffff169050611a308284611a2b600860009054906101000a90046dffffffffffffffffffffffffffff166dffffffffffffffffffffffffffff168673ffffffffffffffffffffffffffffffffffffffff166370a08231306040518263ffffffff1660e01b81526004016119dc919061300a565b602060405180830381865afa1580156119f9573d6000803e3d6000fd5b505050506040513d601f19601f82011682018060405250810190611a1d9190613549565b61210990919063ffffffff16565b611f69565b611af28184611aed6008600e9054906101000a90046dffffffffffffffffffffffffffff166dffffffffffffffffffffffffffff168573ffffffffffffffffffffffffffffffffffffffff166370a08231306040518263ffffffff1660e01b8152600401611a9e919061300a565b602060405180830381865afa158015611abb573d6000803e3d6000fd5b505050506040513d601f19601f82011682018060405250810190611adf9190613549565b61210990919063ffffffff16565b611f69565b50506001600c8190555050565b600560009054906101000a900473ffffffffffffffffffffffffffffffffffffffff1681565b600760009054906101000a900473ffffffffffffffffffffffffffffffffffffffff1681565b42841015611b8e576040517f08c379a0000000000000000000000000000000000000000000000000000000008152600401611b85906139c4565b60405180910390fd5b60006003547f6e71edae12b1b97f4d1f60370fef10105fa2faae0126114a169c64845d6126c960001b898989600460008e73ffffffffffffffffffffffffffffffffffffffff1673ffffffffffffffffffffffffffffffffffffffff1681526020019081526020016000206000815480929190611c0a906139e4565b919050558a604051602001611c2496959493929190613a2c565b60405160208183030381529060405280519060200120604051602001611c4b929190613b05565b604051602081830303815290604052805190602001209050600060018286868660405160008152602001604052604051611c889493929190613b3c565b6020604051602081039080840390855afa158015611caa573d6000803e3d6000fd5b505050602060405103519050600073ffffffffffffffffffffffffffffffffffffffff168173ffffffffffffffffffffffffffffffffffffffff1614158015611d1e57508873ffffffffffffffffffffffffffffffffffffffff168173ffffffffffffffffffffffffffffffffffffffff16145b611d5d576040517f08c379a0000000000000000000000000000000000000000000000000000000008152600401611d5490613bcd565b60405180910390fd5b611d6889898961240f565b505050505050505050565b6002602052816000526040600020602052806000526040600020600091509150505481565b6001600c5414611ddd576040517f08c379a0000000000000000000000000000000000000000000000000000000008152600401611dd4906132e9565b60405180910390fd5b6000600c81905550611f5f600660009054906101000a900473ffffffffffffffffffffffffffffffffffffffff1673ffffffffffffffffffffffffffffffffffffffff166370a08231306040518263ffffffff1660e01b8152600401611e43919061300a565b602060405180830381865afa158015611e60573d6000803e3d6000fd5b505050506040513d601f19601f82011682018060405250810190611e849190613549565b600760009054906101000a900473ffffffffffffffffffffffffffffffffffffffff1673ffffffffffffffffffffffffffffffffffffffff166370a08231306040518263ffffffff1660e01b8152600401611edf919061300a565b602060405180830381865afa158015611efc573d6000803e3d6000fd5b505050506040513d601f19601f82011682018060405250810190611f209190613549565b600860009054906101000a90046dffffffffffffffffffffffffffff166008600e9054906101000a90046dffffffffffffffffffffffffffff1661211f565b6001600c81905550565b6000808473ffffffffffffffffffffffffffffffffffffffff166040518060400160405280601981526020017f7472616e7366657228616464726573732c75696e743235362900000000000000815250805190602001208585604051602401611fd3929190613bed565b604051602081830303815290604052907bffffffffffffffffffffffffffffffffffffffffffffffffffffffff19166020820180517bffffffffffffffffffffffffffffffffffffffffffffffffffffffff838183161783525050505060405161203d9190613c5d565b6000604051808303816000865af19150503d806000811461207a576040519150601f19603f3d011682016040523d82523d6000602084013e61207f565b606091505b50915091508180156120ad57506000815114806120ac5750808060200190518101906120ab9190613ca0565b5b5b6120ec576040517f08c379a00000000000000000000000000000000000000000000000000000000081526004016120e390613d19565b60405180910390fd5b5050505050565b600081836121019190613d39565b905092915050565b6000818361211791906135a5565b905092915050565b6dffffffffffffffffffffffffffff841115801561214b57506dffffffffffffffffffffffffffff8311155b61218a576040517f08c379a000000000000000000000000000000000000000000000000000000000815260040161218190613ddf565b60405180910390fd5b60006401000000004261219d9190613dff565b905060006008601c9054906101000a900463ffffffff16826121bf9190613e30565b905060008163ffffffff161180156121e857506000846dffffffffffffffffffffffffffff1614155b801561220557506000836dffffffffffffffffffffffffffff1614155b1561230b578063ffffffff1661224a8561221e86612c59565b7bffffffffffffffffffffffffffffffffffffffffffffffffffffffff16612c8d90919063ffffffff16565b7bffffffffffffffffffffffffffffffffffffffffffffffffffffffff166122729190613d39565b600960008282546122839190613e68565b925050819055508063ffffffff166122ca8461229e87612c59565b7bffffffffffffffffffffffffffffffffffffffffffffffffffffffff16612c8d90919063ffffffff16565b7bffffffffffffffffffffffffffffffffffffffffffffffffffffffff166122f29190613d39565b600a60008282546123039190613e68565b925050819055505b85600860006101000a8154816dffffffffffffffffffffffffffff02191690836dffffffffffffffffffffffffffff160217905550846008600e6101000a8154816dffffffffffffffffffffffffffff02191690836dffffffffffffffffffffffffffff160217905550816008601c6101000a81548163ffffffff021916908363ffffffff1602179055507f1c411e9a96e071241c2f21f7726b17ae89e3cab4c78be50e062b03a9fffbbad1600860009054906101000a90046dffffffffffffffffffffffffffff166008600e9054906101000a90046dffffffffffffffffffffffffffff166040516123ff929190613e9c565b60405180910390a1505050505050565b80600260008573ffffffffffffffffffffffffffffffffffffffff1673ffffffffffffffffffffffffffffffffffffffff16815260200190815260200160002060008473ffffffffffffffffffffffffffffffffffffffff1673ffffffffffffffffffffffffffffffffffffffff168152602001908152602001600020819055508173ffffffffffffffffffffffffffffffffffffffff168373ffffffffffffffffffffffffffffffffffffffff167f8c5be1e5ebec7d5bd14f71427d1e84f3dd0314c0f7b2291e5b200ac8c7c3b925836040516124ed9190613034565b60405180910390a3505050565b61254c81600160008673ffffffffffffffffffffffffffffffffffffffff1673ffffffffffffffffffffffffffffffffffffffff1681526020019081526020016000205461210990919063ffffffff16565b600160008573ffffffffffffffffffffffffffffffffffffffff1673ffffffffffffffffffffffffffffffffffffffff168152602001908152602001600020819055506125e181600160008573ffffffffffffffffffffffffffffffffffffffff1673ffffffffffffffffffffffffffffffffffffffff16815260200190815260200160002054612cb390919063ffffffff16565b600160008473ffffffffffffffffffffffffffffffffffffffff1673ffffffffffffffffffffffffffffffffffffffff168152602001908152602001600020819055508173ffffffffffffffffffffffffffffffffffffffff168373ffffffffffffffffffffffffffffffffffffffff167fddf252ad1be2c89b69c2b068fc378daa952ba7f163c4a11628f55a4df523b3ef836040516126819190613034565b60405180910390a3505050565b600080600560009054906101000a900473ffffffffffffffffffffffffffffffffffffffff1673ffffffffffffffffffffffffffffffffffffffff1663017e7e586040518163ffffffff1660e01b8152600401602060405180830381865afa1580156126fe573d6000803e3d6000fd5b505050506040513d601f19601f820116820180604052508101906127229190613eda565b9050600073ffffffffffffffffffffffffffffffffffffffff168173ffffffffffffffffffffffffffffffffffffffff16141591506000600b549050821561284557600081146128405760006127a96127a4866dffffffffffffffffffffffffffff16886dffffffffffffffffffffffffffff166120f390919063ffffffff16565b61285f565b905060006127b68361285f565b90508082111561283d5760006127e96127d8838561210990919063ffffffff16565b6000546120f390919063ffffffff16565b90506000612813836128056005876120f390919063ffffffff16565b612cb390919063ffffffff16565b9050600081836128239190613823565b90506000811115612839576128388782612a0c565b5b5050505b50505b612857565b60008114612856576000600b819055505b5b505092915050565b60008082036128715760009050612a07565b60006001905060008390506000608082901c111561289857608081901c9050604082901b91505b6000604082901c11156128b457604081901c9050602082901b91505b6000602082901c11156128d057602081901c9050601082901b91505b6000601082901c11156128ec57601081901c9050600882901b91505b6000600882901c111561290857600881901c9050600482901b91505b6000600482901c111561292457600481901c9050600282901b91505b6000600282901c111561293957600182901b91505b600182858161294b5761294a6137f4565b5b048301901c91506001828581612964576129636137f4565b5b048301901c9150600182858161297d5761297c6137f4565b5b048301901c91506001828581612996576129956137f4565b5b048301901c915060018285816129af576129ae6137f4565b5b048301901c915060018285816129c8576129c76137f4565b5b048301901c915060018285816129e1576129e06137f4565b5b048301901c9150612a02828386816129fc576129fb6137f4565b5b04612b26565b925050505b919050565b612a2181600054612cb390919063ffffffff16565b600081905550612a7981600160008573ffffffffffffffffffffffffffffffffffffffff1673ffffffffffffffffffffffffffffffffffffffff16815260200190815260200160002054612cb390919063ffffffff16565b600160008473ffffffffffffffffffffffffffffffffffffffff1673ffffffffffffffffffffffffffffffffffffffff168152602001908152602001600020819055508173ffffffffffffffffffffffffffffffffffffffff16600073ffffffffffffffffffffffffffffffffffffffff167fddf252ad1be2c89b69c2b068fc378daa952ba7f163c4a11628f55a4df523b3ef83604051612b1a9190613034565b60405180910390a35050565b6000818310612b355781612b37565b825b905092915050565b612b9181600160008573ffffffffffffffffffffffffffffffffffffffff1673ffffffffffffffffffffffffffffffffffffffff1681526020019081526020016000205461210990919063ffffffff16565b600160008473ffffffffffffffffffffffffffffffffffffffff1673ffffffffffffffffffffffffffffffffffffffff16815260200190815260200160002081905550612be98160005461210990919063ffffffff16565b600081905550600073ffffffffffffffffffffffffffffffffffffffff168273ffffffffffffffffffffffffffffffffffffffff167fddf252ad1be2c89b69c2b068fc378daa952ba7f163c4a11628f55a4df523b3ef83604051612c4d9190613034565b60405180910390a35050565b60006e010000000000000000000000000000826dffffffffffffffffffffffffffff16612c869190613f2f565b9050919050565b6000816dffffffffffffffffffffffffffff1683612cab9190613f85565b905092915050565b60008183612cc19190613e68565b905092915050565b600080fd5b600080fd5b6000819050919050565b612ce681612cd3565b8114612cf157600080fd5b50565b600081359050612d0381612cdd565b92915050565b600073ffffffffffffffffffffffffffffffffffffffff82169050919050565b6000612d3482612d09565b9050919050565b612d4481612d29565b8114612d4f57600080fd5b50565b600081359050612d6181612d3b565b92915050565b600080fd5b600080fd5b600080fd5b60008083601f840112612d8c57612d8b612d67565b5b8235905067ffffffffffffffff811115612da957612da8612d6c565b5b602083019150836001820283011115612dc557612dc4612d71565b5b9250929050565b600080600080600060808688031215612de857612de7612cc9565b5b6000612df688828901612cf4565b9550506020612e0788828901612cf4565b9450506040612e1888828901612d52565b935050606086013567ffffffffffffffff811115612e3957612e38612cce565b5b612e4588828901612d76565b92509250509295509295909350565b600081519050919050565b600082825260208201905092915050565b60005b83811015612e8e578082015181840152602081019050612e73565b60008484015250505050565b6000601f19601f8301169050919050565b6000612eb682612e54565b612ec08185612e5f565b9350612ed0818560208601612e70565b612ed981612e9a565b840191505092915050565b60006020820190508181036000830152612efe8184612eab565b905092915050565b60006dffffffffffffffffffffffffffff82169050919050565b612f2981612f06565b82525050565b600063ffffffff82169050919050565b612f4881612f2f565b82525050565b6000606082019050612f636000830186612f20565b612f706020830185612f20565b612f7d6040830184612f3f565b949350505050565b60008060408385031215612f9c57612f9b612cc9565b5b6000612faa85828601612d52565b9250506020612fbb85828601612cf4565b9150509250929050565b60008115159050919050565b612fda81612fc5565b82525050565b6000602082019050612ff56000830184612fd1565b92915050565b61300481612d29565b82525050565b600060208201905061301f6000830184612ffb565b92915050565b61302e81612cd3565b82525050565b60006020820190506130496000830184613025565b92915050565b60008060006060848603121561306857613067612cc9565b5b600061307686828701612d52565b935050602061308786828701612d52565b925050604061309886828701612cf4565b9150509250925092565b6000819050919050565b6130b5816130a2565b82525050565b60006020820190506130d060008301846130ac565b92915050565b600060ff82169050919050565b6130ec816130d6565b82525050565b600060208201905061310760008301846130e3565b92915050565b6000806040838503121561312457613123612cc9565b5b600061313285828601612d52565b925050602061314385828601612d52565b9150509250929050565b60006020828403121561316357613162612cc9565b5b600061317184828501612d52565b91505092915050565b600060408201905061318f6000830185613025565b61319c6020830184613025565b9392505050565b6131ac816130d6565b81146131b757600080fd5b50565b6000813590506131c9816131a3565b92915050565b6131d8816130a2565b81146131e357600080fd5b50565b6000813590506131f5816131cf565b92915050565b600080600080600080600060e0888a03121561321a57613219612cc9565b5b60006132288a828b01612d52565b97505060206132398a828b01612d52565b965050604061324a8a828b01612cf4565b955050606061325b8a828b01612cf4565b945050608061326c8a828b016131ba565b93505060a061327d8a828b016131e6565b92505060c061328e8a828b016131e6565b91505092959891949750929550565b7f42756c6c436f696e506169723a204c4f434b4544000000000000000000000000600082015250565b60006132d3601483612e5f565b91506132de8261329d565b602082019050919050565b60006020820190508181036000830152613302816132c6565b9050919050565b7f42756c6c436f696e506169723a20494e53554646494349454e545f4f5554505560008201527f545f414d4f554e54000000000000000000000000000000000000000000000000602082015250565b6000613365602883612e5f565b915061337082613309565b604082019050919050565b6000602082019050818103600083015261339481613358565b9050919050565b7f42756c6c436f696e506169723a20494e53554646494349454e545f4c4951554960008201527f4449545900000000000000000000000000000000000000000000000000000000602082015250565b60006133f7602483612e5f565b91506134028261339b565b604082019050919050565b60006020820190508181036000830152613426816133ea565b9050919050565b7f42756c6c436f696e506169723a20494e56414c49445f544f0000000000000000600082015250565b6000613463601883612e5f565b915061346e8261342d565b602082019050919050565b6000602082019050818103600083015261349281613456565b9050919050565b600082825260208201905092915050565b82818337600083830152505050565b60006134c58385613499565b93506134d28385846134aa565b6134db83612e9a565b840190509392505050565b60006080820190506134fb6000830188612ffb565b6135086020830187613025565b6135156040830186613025565b81810360608301526135288184866134b9565b90509695505050505050565b60008151905061354381612cdd565b92915050565b60006020828403121561355f5761355e612cc9565b5b600061356d84828501613534565b91505092915050565b7f4e487b7100000000000000000000000000000000000000000000000000000000600052601160045260246000fd5b60006135b082612cd3565b91506135bb83612cd3565b92508282039050818111156135d3576135d2613576565b5b92915050565b7f42756c6c436f696e506169723a20494e53554646494349454e545f494e50555460008201527f5f414d4f554e5400000000000000000000000000000000000000000000000000602082015250565b6000613635602783612e5f565b9150613640826135d9565b604082019050919050565b6000602082019050818103600083015261366481613628565b9050919050565b7f42756c6c436f696e506169723a204b0000000000000000000000000000000000600082015250565b60006136a1600f83612e5f565b91506136ac8261366b565b602082019050919050565b600060208201905081810360008301526136d081613694565b9050919050565b60006080820190506136ec6000830187613025565b6136f96020830186613025565b6137066040830185613025565b6137136060830184613025565b95945050505050565b7f706c6561736520617070726f7665206669727374000000000000000000000000600082015250565b6000613752601483612e5f565b915061375d8261371c565b602082019050919050565b6000602082019050818103600083015261378181613745565b9050919050565b7f42756c6c436f696e506169723a20464f5242494444454e000000000000000000600082015250565b60006137be601783612e5f565b91506137c982613788565b602082019050919050565b600060208201905081810360008301526137ed816137b1565b9050919050565b7f4e487b7100000000000000000000000000000000000000000000000000000000600052601260045260246000fd5b600061382e82612cd3565b915061383983612cd3565b925082613849576138486137f4565b5b828204905092915050565b7f42756c6c436f696e506169723a20494e53554646494349454e545f4c4951554960008201527f444954595f4d494e544544000000000000000000000000000000000000000000602082015250565b60006138b0602b83612e5f565b91506138bb82613854565b604082019050919050565b600060208201905081810360008301526138df816138a3565b9050919050565b7f42756c6c436f696e506169723a20494e53554646494349454e545f4c4951554960008201527f444954595f4255524e4544000000000000000000000000000000000000000000602082015250565b6000613942602b83612e5f565b915061394d826138e6565b604082019050919050565b6000602082019050818103600083015261397181613935565b9050919050565b7f556e697377617056323a20455850495245440000000000000000000000000000600082015250565b60006139ae601283612e5f565b91506139b982613978565b602082019050919050565b600060208201905081810360008301526139dd816139a1565b9050919050565b60006139ef82612cd3565b91507fffffffffffffffffffffffffffffffffffffffffffffffffffffffffffffffff8203613a2157613a20613576565b5b600182019050919050565b600060c082019050613a4160008301896130ac565b613a4e6020830188612ffb565b613a5b6040830187612ffb565b613a686060830186613025565b613a756080830185613025565b613a8260a0830184613025565b979650505050505050565b600081905092915050565b7f1901000000000000000000000000000000000000000000000000000000000000600082015250565b6000613ace600283613a8d565b9150613ad982613a98565b600282019050919050565b6000819050919050565b613aff613afa826130a2565b613ae4565b82525050565b6000613b1082613ac1565b9150613b1c8285613aee565b602082019150613b2c8284613aee565b6020820191508190509392505050565b6000608082019050613b5160008301876130ac565b613b5e60208301866130e3565b613b6b60408301856130ac565b613b7860608301846130ac565b95945050505050565b7f556e697377617056323a20494e56414c49445f5349474e415455524500000000600082015250565b6000613bb7601c83612e5f565b9150613bc282613b81565b602082019050919050565b60006020820190508181036000830152613be681613baa565b9050919050565b6000604082019050613c026000830185612ffb565b613c0f6020830184613025565b9392505050565b600081519050919050565b600081905092915050565b6000613c3782613c16565b613c418185613c21565b9350613c51818560208601612e70565b80840191505092915050565b6000613c698284613c2c565b915081905092915050565b613c7d81612fc5565b8114613c8857600080fd5b50565b600081519050613c9a81613c74565b92915050565b600060208284031215613cb657613cb5612cc9565b5b6000613cc484828501613c8b565b91505092915050565b7f42756c6c436f696e506169723a205452414e534645525f4641494c4544000000600082015250565b6000613d03601d83612e5f565b9150613d0e82613ccd565b602082019050919050565b60006020820190508181036000830152613d3281613cf6565b9050919050565b6000613d4482612cd3565b9150613d4f83612cd3565b9250817fffffffffffffffffffffffffffffffffffffffffffffffffffffffffffffffff0483118215151615613d8857613d87613576565b5b828202905092915050565b7f42756c6c436f696e506169723a204f564552464c4f5700000000000000000000600082015250565b6000613dc9601683612e5f565b9150613dd482613d93565b602082019050919050565b60006020820190508181036000830152613df881613dbc565b9050919050565b6000613e0a82612cd3565b9150613e1583612cd3565b925082613e2557613e246137f4565b5b828206905092915050565b6000613e3b82612f2f565b9150613e4683612f2f565b9250828203905063ffffffff811115613e6257613e61613576565b5b92915050565b6000613e7382612cd3565b9150613e7e83612cd3565b9250828201905080821115613e9657613e95613576565b5b92915050565b6000604082019050613eb16000830185612f20565b613ebe6020830184612f20565b9392505050565b600081519050613ed481612d3b565b92915050565b600060208284031215613ef057613eef612cc9565b5b6000613efe84828501613ec5565b91505092915050565b60007bffffffffffffffffffffffffffffffffffffffffffffffffffffffff82169050919050565b6000613f3a82613f07565b9150613f4583613f07565b9250817bffffffffffffffffffffffffffffffffffffffffffffffffffffffff0483118215151615613f7a57613f79613576565b5b828202905092915050565b6000613f9082613f07565b9150613f9b83613f07565b925082613fab57613faa6137f4565b5b82820490509291505056fea26469706673582212204ce665bf74a6fdabefdbf06cf9b2dfc056aec5cfd11b8cbbaced043e47e65fc764736f6c63430008100033a2646970667358221220bd8eca7f119130aa7facf7dd5b47be34199ac84bf30dacacf49685f7076581b164736f6c63430008100033",
  "immutableReferences": {},
  "source": "// SPDX-License-Identifier: MIT\r\npragma solidity ^0.8.0;\r\n\r\nimport \"@uniswap/v2-core/contracts/interfaces/IUniswapV2Factory.sol\";\r\nimport \"./Pair.sol\";\r\n\r\ncontract Factory {\r\n    address public feeTo;\r\n    address public feeToSetter;\r\n\r\n    mapping(address => mapping(address => address)) public getPair;\r\n    address[] public allPairs;\r\n\r\n    event Pair_Created(\r\n        address indexed token0,\r\n        address indexed token1,\r\n        address pair,\r\n        uint256\r\n    );\r\n\r\n    constructor(address _feeToSetter) {\r\n        feeToSetter = _feeToSetter;\r\n    }\r\n\r\n    function allPairsLength() external view returns (uint256) {\r\n        return allPairs.length;\r\n    }\r\n\r\n    function createPair(address tokenA, address tokenB)\r\n        external\r\n        returns (address pair)\r\n    {\r\n        require(tokenA != tokenB, \"BullCoin: IDENTICAL_ADDRESSES\");\r\n        (address token0, address token1) = tokenA < tokenB\r\n            ? (tokenA, tokenB)\r\n            : (tokenB, tokenA);\r\n        require(token0 != address(0), \"BullCoin: ZERO_ADDRESS\");\r\n        require(getPair[token0][token1] == address(0), \"BullCoin: PAIR_EXISTS\"); // single check is sufficient\r\n        bytes memory bytecode = type(Pair).creationCode;\r\n        bytes32 salt = keccak256(abi.encodePacked(token0, token1));\r\n        assembly {\r\n            pair := create2(0, add(bytecode, 32), mload(bytecode), salt)\r\n        }\r\n        IUniswapV2Pair(pair).initialize(token0, token1);\r\n        getPair[token0][token1] = pair;\r\n        getPair[token1][token0] = pair; // populate mapping in the reverse direction\r\n        allPairs.push(pair);\r\n        emit Pair_Created(token0, token1, pair, allPairs.length);\r\n    }\r\n\r\n    function setFeeTo(address _feeTo) external {\r\n        require(msg.sender == feeToSetter, \"BullCoin: FORBIDDEN\");\r\n        feeTo = _feeTo;\r\n    }\r\n\r\n    function setFeeToSetter(address _feeToSetter) external {\r\n        require(msg.sender == feeToSetter, \"BullCoin: FORBIDDEN\");\r\n        feeToSetter = _feeToSetter;\r\n    }\r\n}\r\n",
  "sourcePath": "F:\\github\\bullcoinSwap\\contracts\\Factory.sol",
  "compiler": {
    "name": "solc",
    "version": "0.8.16+commit.07a7930e.Emscripten.clang"
  },
  "schemaVersion": "3.4.8",
  "updatedAt": "2022-08-16T09:38:21.467Z",
  "devdoc": {
    "kind": "dev",
    "methods": {},
    "version": 1
  },
  "userdoc": {
    "kind": "user",
    "methods": {},
    "version": 1
  }
}