{
  "contractName": "Pair",
  "abi": [
    {
      "inputs": [],
      "stateMutability": "nonpayable",
      "type": "constructor"
    },
    {
      "anonymous": false,
      "inputs": [
        {
          "indexed": true,
          "internalType": "address",
          "name": "owner",
          "type": "address"
        },
        {
          "indexed": true,
          "internalType": "address",
          "name": "spender",
          "type": "address"
        },
        {
          "indexed": false,
          "internalType": "uint256",
          "name": "value",
          "type": "uint256"
        }
      ],
      "name": "Approval",
      "type": "event"
    },
    {
      "anonymous": false,
      "inputs": [
        {
          "indexed": true,
          "internalType": "address",
          "name": "sender",
          "type": "address"
        },
        {
          "indexed": false,
          "internalType": "uint256",
          "name": "amount0",
          "type": "uint256"
        },
        {
          "indexed": false,
          "internalType": "uint256",
          "name": "amount1",
          "type": "uint256"
        },
        {
          "indexed": true,
          "internalType": "address",
          "name": "to",
          "type": "address"
        }
      ],
      "name": "Burn",
      "type": "event"
    },
    {
      "anonymous": false,
      "inputs": [
        {
          "indexed": true,
          "internalType": "address",
          "name": "sender",
          "type": "address"
        },
        {
          "indexed": false,
          "internalType": "uint256",
          "name": "amount0",
          "type": "uint256"
        },
        {
          "indexed": false,
          "internalType": "uint256",
          "name": "amount1",
          "type": "uint256"
        }
      ],
      "name": "Mint",
      "type": "event"
    },
    {
      "anonymous": false,
      "inputs": [
        {
          "indexed": true,
          "internalType": "address",
          "name": "sender",
          "type": "address"
        },
        {
          "indexed": false,
          "internalType": "uint256",
          "name": "amount0In",
          "type": "uint256"
        },
        {
          "indexed": false,
          "internalType": "uint256",
          "name": "amount1In",
          "type": "uint256"
        },
        {
          "indexed": false,
          "internalType": "uint256",
          "name": "amount0Out",
          "type": "uint256"
        },
        {
          "indexed": false,
          "internalType": "uint256",
          "name": "amount1Out",
          "type": "uint256"
        },
        {
          "indexed": true,
          "internalType": "address",
          "name": "to",
          "type": "address"
        }
      ],
      "name": "Swap",
      "type": "event"
    },
    {
      "anonymous": false,
      "inputs": [
        {
          "indexed": false,
          "internalType": "uint112",
          "name": "reserve0",
          "type": "uint112"
        },
        {
          "indexed": false,
          "internalType": "uint112",
          "name": "reserve1",
          "type": "uint112"
        }
      ],
      "name": "Sync",
      "type": "event"
    },
    {
      "anonymous": false,
      "inputs": [
        {
          "indexed": true,
          "internalType": "address",
          "name": "from",
          "type": "address"
        },
        {
          "indexed": true,
          "internalType": "address",
          "name": "to",
          "type": "address"
        },
        {
          "indexed": false,
          "internalType": "uint256",
          "name": "value",
          "type": "uint256"
        }
      ],
      "name": "Transfer",
      "type": "event"
    },
    {
      "inputs": [],
      "name": "DOMAIN_SEPARATOR",
      "outputs": [
        {
          "internalType": "bytes32",
          "name": "",
          "type": "bytes32"
        }
      ],
      "stateMutability": "view",
      "type": "function"
    },
    {
      "inputs": [],
      "name": "MINIMUM_LIQUIDITY",
      "outputs": [
        {
          "internalType": "uint256",
          "name": "",
          "type": "uint256"
        }
      ],
      "stateMutability": "view",
      "type": "function"
    },
    {
      "inputs": [],
      "name": "PERMIT_TYPEHASH",
      "outputs": [
        {
          "internalType": "bytes32",
          "name": "",
          "type": "bytes32"
        }
      ],
      "stateMutability": "view",
      "type": "function"
    },
    {
      "inputs": [
        {
          "internalType": "address",
          "name": "",
          "type": "address"
        },
        {
          "internalType": "address",
          "name": "",
          "type": "address"
        }
      ],
      "name": "allowance",
      "outputs": [
        {
          "internalType": "uint256",
          "name": "",
          "type": "uint256"
        }
      ],
      "stateMutability": "view",
      "type": "function"
    },
    {
      "inputs": [
        {
          "internalType": "address",
          "name": "spender",
          "type": "address"
        },
        {
          "internalType": "uint256",
          "name": "value",
          "type": "uint256"
        }
      ],
      "name": "approve",
      "outputs": [
        {
          "internalType": "bool",
          "name": "",
          "type": "bool"
        }
      ],
      "stateMutability": "nonpayable",
      "type": "function"
    },
    {
      "inputs": [
        {
          "internalType": "address",
          "name": "",
          "type": "address"
        }
      ],
      "name": "balanceOf",
      "outputs": [
        {
          "internalType": "uint256",
          "name": "",
          "type": "uint256"
        }
      ],
      "stateMutability": "view",
      "type": "function"
    },
    {
      "inputs": [],
      "name": "decimals",
      "outputs": [
        {
          "internalType": "uint8",
          "name": "",
          "type": "uint8"
        }
      ],
      "stateMutability": "view",
      "type": "function"
    },
    {
      "inputs": [],
      "name": "factory",
      "outputs": [
        {
          "internalType": "address",
          "name": "",
          "type": "address"
        }
      ],
      "stateMutability": "view",
      "type": "function"
    },
    {
      "inputs": [],
      "name": "kLast",
      "outputs": [
        {
          "internalType": "uint256",
          "name": "",
          "type": "uint256"
        }
      ],
      "stateMutability": "view",
      "type": "function"
    },
    {
      "inputs": [],
      "name": "name",
      "outputs": [
        {
          "internalType": "string",
          "name": "",
          "type": "string"
        }
      ],
      "stateMutability": "view",
      "type": "function"
    },
    {
      "inputs": [
        {
          "internalType": "address",
          "name": "",
          "type": "address"
        }
      ],
      "name": "nonces",
      "outputs": [
        {
          "internalType": "uint256",
          "name": "",
          "type": "uint256"
        }
      ],
      "stateMutability": "view",
      "type": "function"
    },
    {
      "inputs": [
        {
          "internalType": "address",
          "name": "owner",
          "type": "address"
        },
        {
          "internalType": "address",
          "name": "spender",
          "type": "address"
        },
        {
          "internalType": "uint256",
          "name": "value",
          "type": "uint256"
        },
        {
          "internalType": "uint256",
          "name": "deadline",
          "type": "uint256"
        },
        {
          "internalType": "uint8",
          "name": "v",
          "type": "uint8"
        },
        {
          "internalType": "bytes32",
          "name": "r",
          "type": "bytes32"
        },
        {
          "internalType": "bytes32",
          "name": "s",
          "type": "bytes32"
        }
      ],
      "name": "permit",
      "outputs": [],
      "stateMutability": "nonpayable",
      "type": "function"
    },
    {
      "inputs": [],
      "name": "price0CumulativeLast",
      "outputs": [
        {
          "internalType": "uint256",
          "name": "",
          "type": "uint256"
        }
      ],
      "stateMutability": "view",
      "type": "function"
    },
    {
      "inputs": [],
      "name": "price1CumulativeLast",
      "outputs": [
        {
          "internalType": "uint256",
          "name": "",
          "type": "uint256"
        }
      ],
      "stateMutability": "view",
      "type": "function"
    },
    {
      "inputs": [],
      "name": "symbol",
      "outputs": [
        {
          "internalType": "string",
          "name": "",
          "type": "string"
        }
      ],
      "stateMutability": "view",
      "type": "function"
    },
    {
      "inputs": [],
      "name": "token0",
      "outputs": [
        {
          "internalType": "address",
          "name": "",
          "type": "address"
        }
      ],
      "stateMutability": "view",
      "type": "function"
    },
    {
      "inputs": [],
      "name": "token1",
      "outputs": [
        {
          "internalType": "address",
          "name": "",
          "type": "address"
        }
      ],
      "stateMutability": "view",
      "type": "function"
    },
    {
      "inputs": [],
      "name": "tokenAddress",
      "outputs": [
        {
          "internalType": "address",
          "name": "",
          "type": "address"
        }
      ],
      "stateMutability": "view",
      "type": "function"
    },
    {
      "inputs": [],
      "name": "totalSupply",
      "outputs": [
        {
          "internalType": "uint256",
          "name": "",
          "type": "uint256"
        }
      ],
      "stateMutability": "view",
      "type": "function"
    },
    {
      "inputs": [
        {
          "internalType": "address",
          "name": "to",
          "type": "address"
        },
        {
          "internalType": "uint256",
          "name": "value",
          "type": "uint256"
        }
      ],
      "name": "transfer",
      "outputs": [
        {
          "internalType": "bool",
          "name": "",
          "type": "bool"
        }
      ],
      "stateMutability": "nonpayable",
      "type": "function"
    },
    {
      "inputs": [
        {
          "internalType": "address",
          "name": "from",
          "type": "address"
        },
        {
          "internalType": "address",
          "name": "to",
          "type": "address"
        },
        {
          "internalType": "uint256",
          "name": "value",
          "type": "uint256"
        }
      ],
      "name": "transferFrom",
      "outputs": [
        {
          "internalType": "bool",
          "name": "",
          "type": "bool"
        }
      ],
      "stateMutability": "nonpayable",
      "type": "function"
    },
    {
      "inputs": [],
      "name": "getReserves",
      "outputs": [
        {
          "internalType": "uint112",
          "name": "_reserve0",
          "type": "uint112"
        },
        {
          "internalType": "uint112",
          "name": "_reserve1",
          "type": "uint112"
        },
        {
          "internalType": "uint32",
          "name": "_blockTimestampLast",
          "type": "uint32"
        }
      ],
      "stateMutability": "view",
      "type": "function"
    },
    {
      "inputs": [
        {
          "internalType": "address",
          "name": "_token0",
          "type": "address"
        },
        {
          "internalType": "address",
          "name": "_token1",
          "type": "address"
        }
      ],
      "name": "initialize",
      "outputs": [],
      "stateMutability": "nonpayable",
      "type": "function"
    },
    {
      "inputs": [
        {
          "internalType": "address",
          "name": "to",
          "type": "address"
        }
      ],
      "name": "mint",
      "outputs": [
        {
          "internalType": "uint256",
          "name": "liquidity",
          "type": "uint256"
        }
      ],
      "stateMutability": "nonpayable",
      "type": "function"
    },
    {
      "inputs": [
        {
          "internalType": "address",
          "name": "to",
          "type": "address"
        }
      ],
      "name": "burn",
      "outputs": [
        {
          "internalType": "uint256",
          "name": "amount0",
          "type": "uint256"
        },
        {
          "internalType": "uint256",
          "name": "amount1",
          "type": "uint256"
        }
      ],
      "stateMutability": "nonpayable",
      "type": "function"
    },
    {
      "inputs": [
        {
          "internalType": "uint256",
          "name": "amount0Out",
          "type": "uint256"
        },
        {
          "internalType": "uint256",
          "name": "amount1Out",
          "type": "uint256"
        },
        {
          "internalType": "address",
          "name": "to",
          "type": "address"
        },
        {
          "internalType": "bytes",
          "name": "data",
          "type": "bytes"
        }
      ],
      "name": "swap",
      "outputs": [],
      "stateMutability": "nonpayable",
      "type": "function"
    },
    {
      "inputs": [
        {
          "internalType": "address",
          "name": "to",
          "type": "address"
        }
      ],
      "name": "skim",
      "outputs": [],
      "stateMutability": "nonpayable",
      "type": "function"
    },
    {
      "inputs": [],
      "name": "sync",
      "outputs": [],
      "stateMutability": "nonpayable",
      "type": "function"
    }
  ],
  "bytecode": "0x6080604052306000806101000a81548173ffffffffffffffffffffffffffffffffffffffff021916908373ffffffffffffffffffffffffffffffffffffffff1602179055506001600d553480156200005657600080fd5b5060004690507f8b73c3c69bb8fe3d512ecc4cf759cc79239f7b179b0ffacaa9a75d522b39400f6040518060400160405280600a81526020017f556e697377617020563200000000000000000000000000000000000000000000815250805190602001206040518060400160405280600181526020017f31000000000000000000000000000000000000000000000000000000000000008152508051906020012083306040516020016200010f959493929190620001ee565b604051602081830303815290604052805190602001206004819055505033600660006101000a81548173ffffffffffffffffffffffffffffffffffffffff021916908373ffffffffffffffffffffffffffffffffffffffff1602179055506200024b565b6000819050919050565b620001888162000173565b82525050565b6000819050919050565b620001a3816200018e565b82525050565b600073ffffffffffffffffffffffffffffffffffffffff82169050919050565b6000620001d682620001a9565b9050919050565b620001e881620001c9565b82525050565b600060a0820190506200020560008301886200017d565b6200021460208301876200017d565b6200022360408301866200017d565b62000232606083018562000198565b620002416080830184620001dd565b9695505050505050565b614072806200025b6000396000f3fe608060405234801561001057600080fd5b50600436106101c45760003560e01c806370a08231116100f9578063ba9a7a5611610097578063d21220a711610071578063d21220a714610514578063d505accf14610532578063dd62ed3e1461054e578063fff6cae91461057e576101c4565b8063ba9a7a56146104bc578063bc25cf77146104da578063c45a0155146104f6576101c4565b806389afcb44116100d357806389afcb441461041f57806395d89b41146104505780639d76ea581461046e578063a9059cbb1461048c576101c4565b806370a08231146103a15780637464fc3d146103d15780637ecebe00146103ef576101c4565b806330adf81f11610166578063485cc95511610140578063485cc955146103195780635909c0d5146103355780635a3d5493146103535780636a62784214610371576101c4565b806330adf81f146102bf578063313ce567146102dd5780633644e515146102fb576101c4565b8063095ea7b3116101a2578063095ea7b3146102235780630dfe16811461025357806318160ddd1461027157806323b872dd1461028f576101c4565b8063022c0d9f146101c957806306fdde03146101e55780630902f1ac14610203575b600080fd5b6101e360048036038101906101de9190612e2b565b610588565b005b6101ed610bda565b6040516101fa9190612f4c565b60405180910390f35b61020b610c13565b60405161021a93929190612fb6565b60405180910390f35b61023d60048036038101906102389190612fed565b610c70565b60405161024a9190613048565b60405180910390f35b61025b610c87565b6040516102689190613072565b60405180910390f35b610279610cad565b604051610286919061309c565b60405180910390f35b6102a960048036038101906102a491906130b7565b610cb3565b6040516102b69190613048565b60405180910390f35b6102c7610e99565b6040516102d49190613123565b60405180910390f35b6102e5610ec0565b6040516102f2919061315a565b60405180910390f35b610303610ec5565b6040516103109190613123565b60405180910390f35b610333600480360381019061032e9190613175565b610ecb565b005b61033d610fe1565b60405161034a919061309c565b60405180910390f35b61035b610fe7565b604051610368919061309c565b60405180910390f35b61038b600480360381019061038691906131b5565b610fed565b604051610398919061309c565b60405180910390f35b6103bb60048036038101906103b691906131b5565b6113d7565b6040516103c8919061309c565b60405180910390f35b6103d96113ef565b6040516103e6919061309c565b60405180910390f35b610409600480360381019061040491906131b5565b6113f5565b604051610416919061309c565b60405180910390f35b610439600480360381019061043491906131b5565b61140d565b6040516104479291906131e2565b60405180910390f35b6104586118b8565b6040516104659190612f4c565b60405180910390f35b6104766118f1565b6040516104839190613072565b60405180910390f35b6104a660048036038101906104a19190612fed565b611915565b6040516104b39190613048565b60405180910390f35b6104c461192c565b6040516104d1919061309c565b60405180910390f35b6104f460048036038101906104ef91906131b5565b611932565b005b6104fe611b5e565b60405161050b9190613072565b60405180910390f35b61051c611b84565b6040516105299190613072565b60405180910390f35b61054c60048036038101906105479190613263565b611baa565b005b61056860048036038101906105639190613175565b611dd2565b604051610575919061309c565b60405180910390f35b610586611df7565b005b6001600d54146105cd576040517f08c379a00000000000000000000000000000000000000000000000000000000081526004016105c490613351565b60405180910390fd5b6000600d8190555060008511806105e45750600084115b610623576040517f08c379a000000000000000000000000000000000000000000000000000000000815260040161061a906133e3565b60405180910390fd5b60008061062e610c13565b5091509150816dffffffffffffffffffffffffffff16871080156106615750806dffffffffffffffffffffffffffff1686105b6106a0576040517f08c379a000000000000000000000000000000000000000000000000000000000815260040161069790613475565b60405180910390fd5b6000806000600760009054906101000a900473ffffffffffffffffffffffffffffffffffffffff1690506000600860009054906101000a900473ffffffffffffffffffffffffffffffffffffffff1690508173ffffffffffffffffffffffffffffffffffffffff168973ffffffffffffffffffffffffffffffffffffffff161415801561075957508073ffffffffffffffffffffffffffffffffffffffff168973ffffffffffffffffffffffffffffffffffffffff1614155b610798576040517f08c379a000000000000000000000000000000000000000000000000000000000815260040161078f906134e1565b60405180910390fd5b60008b11156107ad576107ac828a8d611fc8565b5b60008a11156107c2576107c1818a8c611fc8565b5b6000888890501115610842578873ffffffffffffffffffffffffffffffffffffffff166310d1e85c338d8d8c8c6040518663ffffffff1660e01b815260040161080f95949392919061354e565b600060405180830381600087803b15801561082957600080fd5b505af115801561083d573d6000803e3d6000fd5b505050505b8173ffffffffffffffffffffffffffffffffffffffff166370a08231306040518263ffffffff1660e01b815260040161087b9190613072565b602060405180830381865afa158015610898573d6000803e3d6000fd5b505050506040513d601f19601f820116820180604052508101906108bc91906135b1565b93508073ffffffffffffffffffffffffffffffffffffffff166370a08231306040518263ffffffff1660e01b81526004016108f79190613072565b602060405180830381865afa158015610914573d6000803e3d6000fd5b505050506040513d601f19601f8201168201806040525081019061093891906135b1565b92505050600089856dffffffffffffffffffffffffffff1661095a919061360d565b831161096757600061098f565b89856dffffffffffffffffffffffffffff16610983919061360d565b8361098e919061360d565b5b9050600089856dffffffffffffffffffffffffffff166109af919061360d565b83116109bc5760006109e4565b89856dffffffffffffffffffffffffffff166109d8919061360d565b836109e3919061360d565b5b905060008211806109f55750600081115b610a34576040517f08c379a0000000000000000000000000000000000000000000000000000000008152600401610a2b906136b3565b60405180910390fd5b6000610a70610a4d60038561215290919063ffffffff16565b610a626103e88861215290919063ffffffff16565b61216890919063ffffffff16565b90506000610aae610a8b60038561215290919063ffffffff16565b610aa06103e88861215290919063ffffffff16565b61216890919063ffffffff16565b9050610af8620f4240610aea896dffffffffffffffffffffffffffff168b6dffffffffffffffffffffffffffff1661215290919063ffffffff16565b61215290919063ffffffff16565b610b0b828461215290919063ffffffff16565b1015610b4c576040517f08c379a0000000000000000000000000000000000000000000000000000000008152600401610b439061371f565b60405180910390fd5b5050610b5a8484888861217e565b8873ffffffffffffffffffffffffffffffffffffffff163373ffffffffffffffffffffffffffffffffffffffff167fd78ad95fa46c994b6551d0da85fc275fe613ce37657fb8d5e3d130840159d82284848f8f604051610bbd949392919061373f565b60405180910390a35050505050506001600d819055505050505050565b6040518060400160405280600a81526020017f556e69737761702056320000000000000000000000000000000000000000000081525081565b6000806000600960009054906101000a90046dffffffffffffffffffffffffffff1692506009600e9054906101000a90046dffffffffffffffffffffffffffff1691506009601c9054906101000a900463ffffffff169050909192565b6000610c7d33848461246e565b6001905092915050565b600760009054906101000a900473ffffffffffffffffffffffffffffffffffffffff1681565b60015481565b600081600360008673ffffffffffffffffffffffffffffffffffffffff1673ffffffffffffffffffffffffffffffffffffffff16815260200190815260200160002060003373ffffffffffffffffffffffffffffffffffffffff1673ffffffffffffffffffffffffffffffffffffffff168152602001908152602001600020541015610d74576040517f08c379a0000000000000000000000000000000000000000000000000000000008152600401610d6b906137d0565b60405180910390fd5b610e0382600360008773ffffffffffffffffffffffffffffffffffffffff1673ffffffffffffffffffffffffffffffffffffffff16815260200190815260200160002060003373ffffffffffffffffffffffffffffffffffffffff1673ffffffffffffffffffffffffffffffffffffffff1681526020019081526020016000205461216890919063ffffffff16565b600360008673ffffffffffffffffffffffffffffffffffffffff1673ffffffffffffffffffffffffffffffffffffffff16815260200190815260200160002060003373ffffffffffffffffffffffffffffffffffffffff1673ffffffffffffffffffffffffffffffffffffffff16815260200190815260200160002081905550610e8e848484612559565b600190509392505050565b7f6e71edae12b1b97f4d1f60370fef10105fa2faae0126114a169c64845d6126c960001b81565b601281565b60045481565b600660009054906101000a900473ffffffffffffffffffffffffffffffffffffffff1673ffffffffffffffffffffffffffffffffffffffff163373ffffffffffffffffffffffffffffffffffffffff1614610f5b576040517f08c379a0000000000000000000000000000000000000000000000000000000008152600401610f529061383c565b60405180910390fd5b81600760006101000a81548173ffffffffffffffffffffffffffffffffffffffff021916908373ffffffffffffffffffffffffffffffffffffffff16021790555080600860006101000a81548173ffffffffffffffffffffffffffffffffffffffff021916908373ffffffffffffffffffffffffffffffffffffffff1602179055505050565b600a5481565b600b5481565b60006001600d5414611034576040517f08c379a000000000000000000000000000000000000000000000000000000000815260040161102b90613351565b60405180910390fd5b6000600d81905550600080611047610c13565b50915091506000600760009054906101000a900473ffffffffffffffffffffffffffffffffffffffff1673ffffffffffffffffffffffffffffffffffffffff166370a08231306040518263ffffffff1660e01b81526004016110a99190613072565b602060405180830381865afa1580156110c6573d6000803e3d6000fd5b505050506040513d601f19601f820116820180604052508101906110ea91906135b1565b90506000600860009054906101000a900473ffffffffffffffffffffffffffffffffffffffff1673ffffffffffffffffffffffffffffffffffffffff166370a08231306040518263ffffffff1660e01b81526004016111499190613072565b602060405180830381865afa158015611166573d6000803e3d6000fd5b505050506040513d601f19601f8201168201806040525081019061118a91906135b1565b905060006111b1856dffffffffffffffffffffffffffff168461216890919063ffffffff16565b905060006111d8856dffffffffffffffffffffffffffff168461216890919063ffffffff16565b905060006111e687876126ed565b9050600060015490506000810361123a576112266103e8611218611213868861215290919063ffffffff16565b6128be565b61216890919063ffffffff16565b985061123560006103e8612a6b565b6112a1565b61129e886dffffffffffffffffffffffffffff16611261838761215290919063ffffffff16565b61126b919061388b565b886dffffffffffffffffffffffffffff1661128f848761215290919063ffffffff16565b611299919061388b565b612b85565b98505b600089116112e4576040517f08c379a00000000000000000000000000000000000000000000000000000000081526004016112db9061392e565b60405180910390fd5b6112ee8a8a612a6b565b6112fa86868a8a61217e565b81156113725761136b6009600e9054906101000a90046dffffffffffffffffffffffffffff166dffffffffffffffffffffffffffff16600960009054906101000a90046dffffffffffffffffffffffffffff166dffffffffffffffffffffffffffff1661215290919063ffffffff16565b600c819055505b3373ffffffffffffffffffffffffffffffffffffffff167f4c209b5fc8ad50758f13e2e1088ba56a560dff690a1c6fef26394f4c03821c4f85856040516113ba9291906131e2565b60405180910390a250505050505050506001600d81905550919050565b60026020528060005260406000206000915090505481565b600c5481565b60056020528060005260406000206000915090505481565b6000806001600d5414611455576040517f08c379a000000000000000000000000000000000000000000000000000000000815260040161144c90613351565b60405180910390fd5b6000600d81905550600080611468610c13565b50915091506000600760009054906101000a900473ffffffffffffffffffffffffffffffffffffffff1690506000600860009054906101000a900473ffffffffffffffffffffffffffffffffffffffff16905060008273ffffffffffffffffffffffffffffffffffffffff166370a08231306040518263ffffffff1660e01b81526004016114f69190613072565b602060405180830381865afa158015611513573d6000803e3d6000fd5b505050506040513d601f19601f8201168201806040525081019061153791906135b1565b905060008273ffffffffffffffffffffffffffffffffffffffff166370a08231306040518263ffffffff1660e01b81526004016115749190613072565b602060405180830381865afa158015611591573d6000803e3d6000fd5b505050506040513d601f19601f820116820180604052508101906115b591906135b1565b90506000600260003073ffffffffffffffffffffffffffffffffffffffff1673ffffffffffffffffffffffffffffffffffffffff168152602001908152602001600020549050600061160788886126ed565b90506000600154905080611624868561215290919063ffffffff16565b61162e919061388b565b9a5080611644858561215290919063ffffffff16565b61164e919061388b565b995060008b118015611660575060008a115b61169f576040517f08c379a0000000000000000000000000000000000000000000000000000000008152600401611696906139c0565b60405180910390fd5b6116a93084612b9e565b6116b4878d8d611fc8565b6116bf868d8c611fc8565b8673ffffffffffffffffffffffffffffffffffffffff166370a08231306040518263ffffffff1660e01b81526004016116f89190613072565b602060405180830381865afa158015611715573d6000803e3d6000fd5b505050506040513d601f19601f8201168201806040525081019061173991906135b1565b94508573ffffffffffffffffffffffffffffffffffffffff166370a08231306040518263ffffffff1660e01b81526004016117749190613072565b602060405180830381865afa158015611791573d6000803e3d6000fd5b505050506040513d601f19601f820116820180604052508101906117b591906135b1565b93506117c385858b8b61217e565b811561183b576118346009600e9054906101000a90046dffffffffffffffffffffffffffff166dffffffffffffffffffffffffffff16600960009054906101000a90046dffffffffffffffffffffffffffff166dffffffffffffffffffffffffffff1661215290919063ffffffff16565b600c819055505b8b73ffffffffffffffffffffffffffffffffffffffff163373ffffffffffffffffffffffffffffffffffffffff167fdccd412f0b1252819cb1fd330b93224ca42612892bb3f4f789976e6d819364968d8d60405161189a9291906131e2565b60405180910390a35050505050505050506001600d81905550915091565b6040518060400160405280600681526020017f554e492d5632000000000000000000000000000000000000000000000000000081525081565b60008054906101000a900473ffffffffffffffffffffffffffffffffffffffff1681565b6000611922338484612559565b6001905092915050565b6103e881565b6001600d5414611977576040517f08c379a000000000000000000000000000000000000000000000000000000000815260040161196e90613351565b60405180910390fd5b6000600d819055506000600760009054906101000a900473ffffffffffffffffffffffffffffffffffffffff1690506000600860009054906101000a900473ffffffffffffffffffffffffffffffffffffffff169050611a8f8284611a8a600960009054906101000a90046dffffffffffffffffffffffffffff166dffffffffffffffffffffffffffff168673ffffffffffffffffffffffffffffffffffffffff166370a08231306040518263ffffffff1660e01b8152600401611a3b9190613072565b602060405180830381865afa158015611a58573d6000803e3d6000fd5b505050506040513d601f19601f82011682018060405250810190611a7c91906135b1565b61216890919063ffffffff16565b611fc8565b611b518184611b4c6009600e9054906101000a90046dffffffffffffffffffffffffffff166dffffffffffffffffffffffffffff168573ffffffffffffffffffffffffffffffffffffffff166370a08231306040518263ffffffff1660e01b8152600401611afd9190613072565b602060405180830381865afa158015611b1a573d6000803e3d6000fd5b505050506040513d601f19601f82011682018060405250810190611b3e91906135b1565b61216890919063ffffffff16565b611fc8565b50506001600d8190555050565b600660009054906101000a900473ffffffffffffffffffffffffffffffffffffffff1681565b600860009054906101000a900473ffffffffffffffffffffffffffffffffffffffff1681565b42841015611bed576040517f08c379a0000000000000000000000000000000000000000000000000000000008152600401611be490613a2c565b60405180910390fd5b60006004547f6e71edae12b1b97f4d1f60370fef10105fa2faae0126114a169c64845d6126c960001b898989600560008e73ffffffffffffffffffffffffffffffffffffffff1673ffffffffffffffffffffffffffffffffffffffff1681526020019081526020016000206000815480929190611c6990613a4c565b919050558a604051602001611c8396959493929190613a94565b60405160208183030381529060405280519060200120604051602001611caa929190613b6d565b604051602081830303815290604052805190602001209050600060018286868660405160008152602001604052604051611ce79493929190613ba4565b6020604051602081039080840390855afa158015611d09573d6000803e3d6000fd5b505050602060405103519050600073ffffffffffffffffffffffffffffffffffffffff168173ffffffffffffffffffffffffffffffffffffffff1614158015611d7d57508873ffffffffffffffffffffffffffffffffffffffff168173ffffffffffffffffffffffffffffffffffffffff16145b611dbc576040517f08c379a0000000000000000000000000000000000000000000000000000000008152600401611db390613c35565b60405180910390fd5b611dc789898961246e565b505050505050505050565b6003602052816000526040600020602052806000526040600020600091509150505481565b6001600d5414611e3c576040517f08c379a0000000000000000000000000000000000000000000000000000000008152600401611e3390613351565b60405180910390fd5b6000600d81905550611fbe600760009054906101000a900473ffffffffffffffffffffffffffffffffffffffff1673ffffffffffffffffffffffffffffffffffffffff166370a08231306040518263ffffffff1660e01b8152600401611ea29190613072565b602060405180830381865afa158015611ebf573d6000803e3d6000fd5b505050506040513d601f19601f82011682018060405250810190611ee391906135b1565b600860009054906101000a900473ffffffffffffffffffffffffffffffffffffffff1673ffffffffffffffffffffffffffffffffffffffff166370a08231306040518263ffffffff1660e01b8152600401611f3e9190613072565b602060405180830381865afa158015611f5b573d6000803e3d6000fd5b505050506040513d601f19601f82011682018060405250810190611f7f91906135b1565b600960009054906101000a90046dffffffffffffffffffffffffffff166009600e9054906101000a90046dffffffffffffffffffffffffffff1661217e565b6001600d81905550565b6000808473ffffffffffffffffffffffffffffffffffffffff166040518060400160405280601981526020017f7472616e7366657228616464726573732c75696e743235362900000000000000815250805190602001208585604051602401612032929190613c55565b604051602081830303815290604052907bffffffffffffffffffffffffffffffffffffffffffffffffffffffff19166020820180517bffffffffffffffffffffffffffffffffffffffffffffffffffffffff838183161783525050505060405161209c9190613cc5565b6000604051808303816000865af19150503d80600081146120d9576040519150601f19603f3d011682016040523d82523d6000602084013e6120de565b606091505b509150915081801561210c575060008151148061210b57508080602001905181019061210a9190613d08565b5b5b61214b576040517f08c379a000000000000000000000000000000000000000000000000000000000815260040161214290613d81565b60405180910390fd5b5050505050565b600081836121609190613da1565b905092915050565b60008183612176919061360d565b905092915050565b6dffffffffffffffffffffffffffff84111580156121aa57506dffffffffffffffffffffffffffff8311155b6121e9576040517f08c379a00000000000000000000000000000000000000000000000000000000081526004016121e090613e47565b60405180910390fd5b6000640100000000426121fc9190613e67565b905060006009601c9054906101000a900463ffffffff168261221e9190613e98565b905060008163ffffffff1611801561224757506000846dffffffffffffffffffffffffffff1614155b801561226457506000836dffffffffffffffffffffffffffff1614155b1561236a578063ffffffff166122a98561227d86612cb8565b7bffffffffffffffffffffffffffffffffffffffffffffffffffffffff16612cec90919063ffffffff16565b7bffffffffffffffffffffffffffffffffffffffffffffffffffffffff166122d19190613da1565b600a60008282546122e29190613ecc565b925050819055508063ffffffff16612329846122fd87612cb8565b7bffffffffffffffffffffffffffffffffffffffffffffffffffffffff16612cec90919063ffffffff16565b7bffffffffffffffffffffffffffffffffffffffffffffffffffffffff166123519190613da1565b600b60008282546123629190613ecc565b925050819055505b85600960006101000a8154816dffffffffffffffffffffffffffff02191690836dffffffffffffffffffffffffffff160217905550846009600e6101000a8154816dffffffffffffffffffffffffffff02191690836dffffffffffffffffffffffffffff160217905550816009601c6101000a81548163ffffffff021916908363ffffffff1602179055507f1c411e9a96e071241c2f21f7726b17ae89e3cab4c78be50e062b03a9fffbbad1600960009054906101000a90046dffffffffffffffffffffffffffff166009600e9054906101000a90046dffffffffffffffffffffffffffff1660405161245e929190613f22565b60405180910390a1505050505050565b80600360008573ffffffffffffffffffffffffffffffffffffffff1673ffffffffffffffffffffffffffffffffffffffff16815260200190815260200160002060008473ffffffffffffffffffffffffffffffffffffffff1673ffffffffffffffffffffffffffffffffffffffff168152602001908152602001600020819055508173ffffffffffffffffffffffffffffffffffffffff168373ffffffffffffffffffffffffffffffffffffffff167f8c5be1e5ebec7d5bd14f71427d1e84f3dd0314c0f7b2291e5b200ac8c7c3b9258360405161254c919061309c565b60405180910390a3505050565b6125ab81600260008673ffffffffffffffffffffffffffffffffffffffff1673ffffffffffffffffffffffffffffffffffffffff1681526020019081526020016000205461216890919063ffffffff16565b600260008573ffffffffffffffffffffffffffffffffffffffff1673ffffffffffffffffffffffffffffffffffffffff1681526020019081526020016000208190555061264081600260008573ffffffffffffffffffffffffffffffffffffffff1673ffffffffffffffffffffffffffffffffffffffff16815260200190815260200160002054612d1290919063ffffffff16565b600260008473ffffffffffffffffffffffffffffffffffffffff1673ffffffffffffffffffffffffffffffffffffffff168152602001908152602001600020819055508173ffffffffffffffffffffffffffffffffffffffff168373ffffffffffffffffffffffffffffffffffffffff167fddf252ad1be2c89b69c2b068fc378daa952ba7f163c4a11628f55a4df523b3ef836040516126e0919061309c565b60405180910390a3505050565b600080600660009054906101000a900473ffffffffffffffffffffffffffffffffffffffff1673ffffffffffffffffffffffffffffffffffffffff1663017e7e586040518163ffffffff1660e01b8152600401602060405180830381865afa15801561275d573d6000803e3d6000fd5b505050506040513d601f19601f820116820180604052508101906127819190613f60565b9050600073ffffffffffffffffffffffffffffffffffffffff168173ffffffffffffffffffffffffffffffffffffffff16141591506000600c54905082156128a4576000811461289f576000612808612803866dffffffffffffffffffffffffffff16886dffffffffffffffffffffffffffff1661215290919063ffffffff16565b6128be565b90506000612815836128be565b90508082111561289c576000612848612837838561216890919063ffffffff16565b60015461215290919063ffffffff16565b905060006128728361286460058761215290919063ffffffff16565b612d1290919063ffffffff16565b905060008183612882919061388b565b90506000811115612898576128978782612a6b565b5b5050505b50505b6128b6565b600081146128b5576000600c819055505b5b505092915050565b60008082036128d05760009050612a66565b60006001905060008390506000608082901c11156128f757608081901c9050604082901b91505b6000604082901c111561291357604081901c9050602082901b91505b6000602082901c111561292f57602081901c9050601082901b91505b6000601082901c111561294b57601081901c9050600882901b91505b6000600882901c111561296757600881901c9050600482901b91505b6000600482901c111561298357600481901c9050600282901b91505b6000600282901c111561299857600182901b91505b60018285816129aa576129a961385c565b5b048301901c915060018285816129c3576129c261385c565b5b048301901c915060018285816129dc576129db61385c565b5b048301901c915060018285816129f5576129f461385c565b5b048301901c91506001828581612a0e57612a0d61385c565b5b048301901c91506001828581612a2757612a2661385c565b5b048301901c91506001828581612a4057612a3f61385c565b5b048301901c9150612a6182838681612a5b57612a5a61385c565b5b04612b85565b925050505b919050565b612a8081600154612d1290919063ffffffff16565b600181905550612ad881600260008573ffffffffffffffffffffffffffffffffffffffff1673ffffffffffffffffffffffffffffffffffffffff16815260200190815260200160002054612d1290919063ffffffff16565b600260008473ffffffffffffffffffffffffffffffffffffffff1673ffffffffffffffffffffffffffffffffffffffff168152602001908152602001600020819055508173ffffffffffffffffffffffffffffffffffffffff16600073ffffffffffffffffffffffffffffffffffffffff167fddf252ad1be2c89b69c2b068fc378daa952ba7f163c4a11628f55a4df523b3ef83604051612b79919061309c565b60405180910390a35050565b6000818310612b945781612b96565b825b905092915050565b612bf081600260008573ffffffffffffffffffffffffffffffffffffffff1673ffffffffffffffffffffffffffffffffffffffff1681526020019081526020016000205461216890919063ffffffff16565b600260008473ffffffffffffffffffffffffffffffffffffffff1673ffffffffffffffffffffffffffffffffffffffff16815260200190815260200160002081905550612c488160015461216890919063ffffffff16565b600181905550600073ffffffffffffffffffffffffffffffffffffffff168273ffffffffffffffffffffffffffffffffffffffff167fddf252ad1be2c89b69c2b068fc378daa952ba7f163c4a11628f55a4df523b3ef83604051612cac919061309c565b60405180910390a35050565b60006e010000000000000000000000000000826dffffffffffffffffffffffffffff16612ce59190613fb5565b9050919050565b6000816dffffffffffffffffffffffffffff1683612d0a919061400b565b905092915050565b60008183612d209190613ecc565b905092915050565b600080fd5b600080fd5b6000819050919050565b612d4581612d32565b8114612d5057600080fd5b50565b600081359050612d6281612d3c565b92915050565b600073ffffffffffffffffffffffffffffffffffffffff82169050919050565b6000612d9382612d68565b9050919050565b612da381612d88565b8114612dae57600080fd5b50565b600081359050612dc081612d9a565b92915050565b600080fd5b600080fd5b600080fd5b60008083601f840112612deb57612dea612dc6565b5b8235905067ffffffffffffffff811115612e0857612e07612dcb565b5b602083019150836001820283011115612e2457612e23612dd0565b5b9250929050565b600080600080600060808688031215612e4757612e46612d28565b5b6000612e5588828901612d53565b9550506020612e6688828901612d53565b9450506040612e7788828901612db1565b935050606086013567ffffffffffffffff811115612e9857612e97612d2d565b5b612ea488828901612dd5565b92509250509295509295909350565b600081519050919050565b600082825260208201905092915050565b60005b83811015612eed578082015181840152602081019050612ed2565b83811115612efc576000848401525b50505050565b6000601f19601f8301169050919050565b6000612f1e82612eb3565b612f288185612ebe565b9350612f38818560208601612ecf565b612f4181612f02565b840191505092915050565b60006020820190508181036000830152612f668184612f13565b905092915050565b60006dffffffffffffffffffffffffffff82169050919050565b612f9181612f6e565b82525050565b600063ffffffff82169050919050565b612fb081612f97565b82525050565b6000606082019050612fcb6000830186612f88565b612fd86020830185612f88565b612fe56040830184612fa7565b949350505050565b6000806040838503121561300457613003612d28565b5b600061301285828601612db1565b925050602061302385828601612d53565b9150509250929050565b60008115159050919050565b6130428161302d565b82525050565b600060208201905061305d6000830184613039565b92915050565b61306c81612d88565b82525050565b60006020820190506130876000830184613063565b92915050565b61309681612d32565b82525050565b60006020820190506130b1600083018461308d565b92915050565b6000806000606084860312156130d0576130cf612d28565b5b60006130de86828701612db1565b93505060206130ef86828701612db1565b925050604061310086828701612d53565b9150509250925092565b6000819050919050565b61311d8161310a565b82525050565b60006020820190506131386000830184613114565b92915050565b600060ff82169050919050565b6131548161313e565b82525050565b600060208201905061316f600083018461314b565b92915050565b6000806040838503121561318c5761318b612d28565b5b600061319a85828601612db1565b92505060206131ab85828601612db1565b9150509250929050565b6000602082840312156131cb576131ca612d28565b5b60006131d984828501612db1565b91505092915050565b60006040820190506131f7600083018561308d565b613204602083018461308d565b9392505050565b6132148161313e565b811461321f57600080fd5b50565b6000813590506132318161320b565b92915050565b6132408161310a565b811461324b57600080fd5b50565b60008135905061325d81613237565b92915050565b600080600080600080600060e0888a03121561328257613281612d28565b5b60006132908a828b01612db1565b97505060206132a18a828b01612db1565b96505060406132b28a828b01612d53565b95505060606132c38a828b01612d53565b94505060806132d48a828b01613222565b93505060a06132e58a828b0161324e565b92505060c06132f68a828b0161324e565b91505092959891949750929550565b7f556e697377617056323a204c4f434b4544000000000000000000000000000000600082015250565b600061333b601183612ebe565b915061334682613305565b602082019050919050565b6000602082019050818103600083015261336a8161332e565b9050919050565b7f556e697377617056323a20494e53554646494349454e545f4f55545055545f4160008201527f4d4f554e54000000000000000000000000000000000000000000000000000000602082015250565b60006133cd602583612ebe565b91506133d882613371565b604082019050919050565b600060208201905081810360008301526133fc816133c0565b9050919050565b7f556e697377617056323a20494e53554646494349454e545f4c4951554944495460008201527f5900000000000000000000000000000000000000000000000000000000000000602082015250565b600061345f602183612ebe565b915061346a82613403565b604082019050919050565b6000602082019050818103600083015261348e81613452565b9050919050565b7f556e697377617056323a20494e56414c49445f544f0000000000000000000000600082015250565b60006134cb601583612ebe565b91506134d682613495565b602082019050919050565b600060208201905081810360008301526134fa816134be565b9050919050565b600082825260208201905092915050565b82818337600083830152505050565b600061352d8385613501565b935061353a838584613512565b61354383612f02565b840190509392505050565b60006080820190506135636000830188613063565b613570602083018761308d565b61357d604083018661308d565b8181036060830152613590818486613521565b90509695505050505050565b6000815190506135ab81612d3c565b92915050565b6000602082840312156135c7576135c6612d28565b5b60006135d58482850161359c565b91505092915050565b7f4e487b7100000000000000000000000000000000000000000000000000000000600052601160045260246000fd5b600061361882612d32565b915061362383612d32565b925082821015613636576136356135de565b5b828203905092915050565b7f556e697377617056323a20494e53554646494349454e545f494e5055545f414d60008201527f4f554e5400000000000000000000000000000000000000000000000000000000602082015250565b600061369d602483612ebe565b91506136a882613641565b604082019050919050565b600060208201905081810360008301526136cc81613690565b9050919050565b7f556e697377617056323a204b0000000000000000000000000000000000000000600082015250565b6000613709600c83612ebe565b9150613714826136d3565b602082019050919050565b60006020820190508181036000830152613738816136fc565b9050919050565b6000608082019050613754600083018761308d565b613761602083018661308d565b61376e604083018561308d565b61377b606083018461308d565b95945050505050565b7f706c6561736520617070726f7665206669727374000000000000000000000000600082015250565b60006137ba601483612ebe565b91506137c582613784565b602082019050919050565b600060208201905081810360008301526137e9816137ad565b9050919050565b7f556e697377617056323a20464f5242494444454e000000000000000000000000600082015250565b6000613826601483612ebe565b9150613831826137f0565b602082019050919050565b6000602082019050818103600083015261385581613819565b9050919050565b7f4e487b7100000000000000000000000000000000000000000000000000000000600052601260045260246000fd5b600061389682612d32565b91506138a183612d32565b9250826138b1576138b061385c565b5b828204905092915050565b7f556e697377617056323a20494e53554646494349454e545f4c4951554944495460008201527f595f4d494e544544000000000000000000000000000000000000000000000000602082015250565b6000613918602883612ebe565b9150613923826138bc565b604082019050919050565b600060208201905081810360008301526139478161390b565b9050919050565b7f556e697377617056323a20494e53554646494349454e545f4c4951554944495460008201527f595f4255524e4544000000000000000000000000000000000000000000000000602082015250565b60006139aa602883612ebe565b91506139b58261394e565b604082019050919050565b600060208201905081810360008301526139d98161399d565b9050919050565b7f556e697377617056323a20455850495245440000000000000000000000000000600082015250565b6000613a16601283612ebe565b9150613a21826139e0565b602082019050919050565b60006020820190508181036000830152613a4581613a09565b9050919050565b6000613a5782612d32565b91507fffffffffffffffffffffffffffffffffffffffffffffffffffffffffffffffff8203613a8957613a886135de565b5b600182019050919050565b600060c082019050613aa96000830189613114565b613ab66020830188613063565b613ac36040830187613063565b613ad0606083018661308d565b613add608083018561308d565b613aea60a083018461308d565b979650505050505050565b600081905092915050565b7f1901000000000000000000000000000000000000000000000000000000000000600082015250565b6000613b36600283613af5565b9150613b4182613b00565b600282019050919050565b6000819050919050565b613b67613b628261310a565b613b4c565b82525050565b6000613b7882613b29565b9150613b848285613b56565b602082019150613b948284613b56565b6020820191508190509392505050565b6000608082019050613bb96000830187613114565b613bc6602083018661314b565b613bd36040830185613114565b613be06060830184613114565b95945050505050565b7f556e697377617056323a20494e56414c49445f5349474e415455524500000000600082015250565b6000613c1f601c83612ebe565b9150613c2a82613be9565b602082019050919050565b60006020820190508181036000830152613c4e81613c12565b9050919050565b6000604082019050613c6a6000830185613063565b613c77602083018461308d565b9392505050565b600081519050919050565b600081905092915050565b6000613c9f82613c7e565b613ca98185613c89565b9350613cb9818560208601612ecf565b80840191505092915050565b6000613cd18284613c94565b915081905092915050565b613ce58161302d565b8114613cf057600080fd5b50565b600081519050613d0281613cdc565b92915050565b600060208284031215613d1e57613d1d612d28565b5b6000613d2c84828501613cf3565b91505092915050565b7f556e697377617056323a205452414e534645525f4641494c4544000000000000600082015250565b6000613d6b601a83612ebe565b9150613d7682613d35565b602082019050919050565b60006020820190508181036000830152613d9a81613d5e565b9050919050565b6000613dac82612d32565b9150613db783612d32565b9250817fffffffffffffffffffffffffffffffffffffffffffffffffffffffffffffffff0483118215151615613df057613def6135de565b5b828202905092915050565b7f556e697377617056323a204f564552464c4f5700000000000000000000000000600082015250565b6000613e31601383612ebe565b9150613e3c82613dfb565b602082019050919050565b60006020820190508181036000830152613e6081613e24565b9050919050565b6000613e7282612d32565b9150613e7d83612d32565b925082613e8d57613e8c61385c565b5b828206905092915050565b6000613ea382612f97565b9150613eae83612f97565b925082821015613ec157613ec06135de565b5b828203905092915050565b6000613ed782612d32565b9150613ee283612d32565b9250827fffffffffffffffffffffffffffffffffffffffffffffffffffffffffffffffff03821115613f1757613f166135de565b5b828201905092915050565b6000604082019050613f376000830185612f88565b613f446020830184612f88565b9392505050565b600081519050613f5a81612d9a565b92915050565b600060208284031215613f7657613f75612d28565b5b6000613f8484828501613f4b565b91505092915050565b60007bffffffffffffffffffffffffffffffffffffffffffffffffffffffff82169050919050565b6000613fc082613f8d565b9150613fcb83613f8d565b9250817bffffffffffffffffffffffffffffffffffffffffffffffffffffffff048311821515161561400057613fff6135de565b5b828202905092915050565b600061401682613f8d565b915061402183613f8d565b9250826140315761403061385c565b5b82820490509291505056fea2646970667358221220eb0e0c5d4ea2b91d110b98eb88561c8c55886f17d86e6fa7ad38527d425a659064736f6c634300080f0033",
  "immutableReferences": {},
  "source": "//SPDX-License-Identifier: MIT\npragma solidity ^0.8.0;\n\nimport \"./PoolToken.sol\";\nimport \"@openzeppelin/contracts/token/ERC20/IERC20.sol\";\nimport \"@uniswap/v2-core/contracts/interfaces/IUniswapV2Factory.sol\";\nimport \"@uniswap/v2-core/contracts/interfaces/IUniswapV2Callee.sol\";\nimport \"@uniswap/v2-core/contracts/interfaces/IUniswapV2Pair.sol\";\nimport \"@uniswap/v2-core/contracts/libraries/UQ112x112.sol\";\nimport \"@openzeppelin/contracts/utils/math/Math.sol\";\n\ncontract Pair is PoolToken {\n    using SafeMath for uint256;\n    using UQ112x112 for uint224;\n\n    uint256 public constant MINIMUM_LIQUIDITY = 10**3;\n    bytes4 private constant SELECTOR =\n        bytes4(keccak256(bytes(\"transfer(address,uint256)\")));\n\n    address public factory;\n    address public token0;\n    address public token1;\n\n    uint112 private reserve0; // uses single storage slot, accessible via getReserves\n    uint112 private reserve1; // uses single storage slot, accessible via getReserves\n    uint32 private blockTimestampLast; // uses single storage slot, accessible via getReserves\n\n    uint256 public price0CumulativeLast;\n    uint256 public price1CumulativeLast;\n    uint256 public kLast; // reserve0 * reserve1, as of immediately after the most recent liquidity event\n\n    uint256 private unlocked = 1;\n    modifier lock() {\n        require(unlocked == 1, \"UniswapV2: LOCKED\");\n        unlocked = 0;\n        _;\n        unlocked = 1;\n    }\n\n    function getReserves()\n        public\n        view\n        returns (\n            uint112 _reserve0,\n            uint112 _reserve1,\n            uint32 _blockTimestampLast\n        )\n    {\n        _reserve0 = reserve0;\n        _reserve1 = reserve1;\n        _blockTimestampLast = blockTimestampLast;\n    }\n\n    function _safeTransfer(\n        address token,\n        address to,\n        uint256 value\n    ) private {\n        (bool success, bytes memory data) = token.call(\n            abi.encodeWithSelector(SELECTOR, to, value)\n        );\n        require(\n            success && (data.length == 0 || abi.decode(data, (bool))),\n            \"UniswapV2: TRANSFER_FAILED\"\n        );\n    }\n\n    event Mint(address indexed sender, uint256 amount0, uint256 amount1);\n    event Burn(\n        address indexed sender,\n        uint256 amount0,\n        uint256 amount1,\n        address indexed to\n    );\n    event Swap(\n        address indexed sender,\n        uint256 amount0In,\n        uint256 amount1In,\n        uint256 amount0Out,\n        uint256 amount1Out,\n        address indexed to\n    );\n    event Sync(uint112 reserve0, uint112 reserve1);\n\n    constructor() {\n        factory = msg.sender;\n    }\n\n    // called once by the factory at time of deployment\n    function initialize(address _token0, address _token1) external {\n        require(msg.sender == factory, \"UniswapV2: FORBIDDEN\"); // sufficient check\n        token0 = _token0;\n        token1 = _token1;\n    }\n\n    // update reserves and, on the first call per block, price accumulators\n    function _update(\n        uint256 balance0,\n        uint256 balance1,\n        uint112 _reserve0,\n        uint112 _reserve1\n    ) private {\n        require(\n            balance0 <= (2**112 - 1) && balance1 <= (2**112 - 1),\n            \"UniswapV2: OVERFLOW\"\n        );\n        uint32 blockTimestamp = uint32(block.timestamp % 2**32);\n        uint32 timeElapsed = blockTimestamp - blockTimestampLast; // overflow is desired\n        if (timeElapsed > 0 && _reserve0 != 0 && _reserve1 != 0) {\n            // * never overflows, and + overflow is desired\n            price0CumulativeLast +=\n                uint256(UQ112x112.encode(_reserve1).uqdiv(_reserve0)) *\n                timeElapsed;\n            price1CumulativeLast +=\n                uint256(UQ112x112.encode(_reserve0).uqdiv(_reserve1)) *\n                timeElapsed;\n        }\n        reserve0 = uint112(balance0);\n        reserve1 = uint112(balance1);\n        blockTimestampLast = blockTimestamp;\n        emit Sync(reserve0, reserve1);\n    }\n\n    // if fee is on, mint liquidity equivalent to 1/6th of the growth in sqrt(k)\n    function _mintFee(uint112 _reserve0, uint112 _reserve1)\n        private\n        returns (bool feeOn)\n    {\n        address feeTo = IUniswapV2Factory(factory).feeTo();\n        feeOn = feeTo != address(0);\n        uint256 _kLast = kLast; // gas savings\n        if (feeOn) {\n            if (_kLast != 0) {\n                uint256 rootK = Math.sqrt(uint256(_reserve0).mul(_reserve1));\n                uint256 rootKLast = Math.sqrt(_kLast);\n                if (rootK > rootKLast) {\n                    uint256 numerator = totalSupply.mul(rootK.sub(rootKLast));\n                    uint256 denominator = rootK.mul(5).add(rootKLast);\n                    uint256 liquidity = numerator / denominator;\n                    if (liquidity > 0) _mint(feeTo, liquidity);\n                }\n            }\n        } else if (_kLast != 0) {\n            kLast = 0;\n        }\n    }\n\n    // this low-level function should be called from a contract which performs important safety checks\n    function mint(address to) external lock returns (uint256 liquidity) {\n        (uint112 _reserve0, uint112 _reserve1, ) = getReserves(); // gas savings\n        uint256 balance0 = IERC20(token0).balanceOf(address(this));\n        uint256 balance1 = IERC20(token1).balanceOf(address(this));\n        uint256 amount0 = balance0.sub(_reserve0);\n        uint256 amount1 = balance1.sub(_reserve1);\n\n        bool feeOn = _mintFee(_reserve0, _reserve1);\n        uint256 _totalSupply = totalSupply; // gas savings, must be defined here since totalSupply can update in _mintFee\n        if (_totalSupply == 0) {\n            liquidity = Math.sqrt(amount0.mul(amount1)).sub(MINIMUM_LIQUIDITY);\n            _mint(address(0), MINIMUM_LIQUIDITY); // permanently lock the first MINIMUM_LIQUIDITY tokens\n        } else {\n            liquidity = Math.min(\n                amount0.mul(_totalSupply) / _reserve0,\n                amount1.mul(_totalSupply) / _reserve1\n            );\n        }\n        require(liquidity > 0, \"UniswapV2: INSUFFICIENT_LIQUIDITY_MINTED\");\n        _mint(to, liquidity);\n\n        _update(balance0, balance1, _reserve0, _reserve1);\n        if (feeOn) kLast = uint256(reserve0).mul(reserve1); // reserve0 and reserve1 are up-to-date\n        emit Mint(msg.sender, amount0, amount1);\n    }\n\n    // this low-level function should be called from a contract which performs important safety checks\n    function burn(address to)\n        external\n        lock\n        returns (uint256 amount0, uint256 amount1)\n    {\n        (uint112 _reserve0, uint112 _reserve1, ) = getReserves(); // gas savings\n        address _token0 = token0; // gas savings\n        address _token1 = token1; // gas savings\n        uint256 balance0 = IERC20(_token0).balanceOf(address(this));\n        uint256 balance1 = IERC20(_token1).balanceOf(address(this));\n        uint256 liquidity = balanceOf[address(this)];\n\n        bool feeOn = _mintFee(_reserve0, _reserve1);\n        uint256 _totalSupply = totalSupply; // gas savings, must be defined here since totalSupply can update in _mintFee\n        amount0 = liquidity.mul(balance0) / _totalSupply; // using balances ensures pro-rata distribution\n        amount1 = liquidity.mul(balance1) / _totalSupply; // using balances ensures pro-rata distribution\n        require(\n            amount0 > 0 && amount1 > 0,\n            \"UniswapV2: INSUFFICIENT_LIQUIDITY_BURNED\"\n        );\n        _burn(address(this), liquidity);\n        _safeTransfer(_token0, to, amount0);\n        _safeTransfer(_token1, to, amount1);\n        balance0 = IERC20(_token0).balanceOf(address(this));\n        balance1 = IERC20(_token1).balanceOf(address(this));\n\n        _update(balance0, balance1, _reserve0, _reserve1);\n        if (feeOn) kLast = uint256(reserve0).mul(reserve1); // reserve0 and reserve1 are up-to-date\n        emit Burn(msg.sender, amount0, amount1, to);\n    }\n\n    // this low-level function should be called from a contract which performs important safety checks\n    function swap(\n        uint256 amount0Out,\n        uint256 amount1Out,\n        address to,\n        bytes calldata data\n    ) external lock {\n        require(\n            amount0Out > 0 || amount1Out > 0,\n            \"UniswapV2: INSUFFICIENT_OUTPUT_AMOUNT\"\n        );\n        (uint112 _reserve0, uint112 _reserve1, ) = getReserves(); // gas savings\n        require(\n            amount0Out < _reserve0 && amount1Out < _reserve1,\n            \"UniswapV2: INSUFFICIENT_LIQUIDITY\"\n        );\n\n        uint256 balance0;\n        uint256 balance1;\n        {\n            // scope for _token{0,1}, avoids stack too deep errors\n            address _token0 = token0;\n            address _token1 = token1;\n            require(to != _token0 && to != _token1, \"UniswapV2: INVALID_TO\");\n            if (amount0Out > 0) _safeTransfer(_token0, to, amount0Out); // optimistically transfer tokens\n            if (amount1Out > 0) _safeTransfer(_token1, to, amount1Out); // optimistically transfer tokens\n            if (data.length > 0)\n                IUniswapV2Callee(to).uniswapV2Call(\n                    msg.sender,\n                    amount0Out,\n                    amount1Out,\n                    data\n                );\n            balance0 = IERC20(_token0).balanceOf(address(this));\n            balance1 = IERC20(_token1).balanceOf(address(this));\n        }\n        uint256 amount0In = balance0 > _reserve0 - amount0Out\n            ? balance0 - (_reserve0 - amount0Out)\n            : 0;\n        uint256 amount1In = balance1 > _reserve1 - amount1Out\n            ? balance1 - (_reserve1 - amount1Out)\n            : 0;\n        require(\n            amount0In > 0 || amount1In > 0,\n            \"UniswapV2: INSUFFICIENT_INPUT_AMOUNT\"\n        );\n        {\n            // scope for reserve{0,1}Adjusted, avoids stack too deep errors\n            uint256 balance0Adjusted = balance0.mul(1000).sub(amount0In.mul(3));\n            uint256 balance1Adjusted = balance1.mul(1000).sub(amount1In.mul(3));\n            require(\n                balance0Adjusted.mul(balance1Adjusted) >=\n                    uint256(_reserve0).mul(_reserve1).mul(1000**2),\n                \"UniswapV2: K\"\n            );\n        }\n\n        _update(balance0, balance1, _reserve0, _reserve1);\n        emit Swap(msg.sender, amount0In, amount1In, amount0Out, amount1Out, to);\n    }\n\n    // force balances to match reserves\n    function skim(address to) external lock {\n        address _token0 = token0; // gas savings\n        address _token1 = token1; // gas savings\n        _safeTransfer(\n            _token0,\n            to,\n            IERC20(_token0).balanceOf(address(this)).sub(reserve0)\n        );\n        _safeTransfer(\n            _token1,\n            to,\n            IERC20(_token1).balanceOf(address(this)).sub(reserve1)\n        );\n    }\n\n    // force reserves to match balances\n    function sync() external lock {\n        _update(\n            IERC20(token0).balanceOf(address(this)),\n            IERC20(token1).balanceOf(address(this)),\n            reserve0,\n            reserve1\n        );\n    }\n}\n",
  "sourcePath": "/Users/istore/Downloads/swapFinal/contracts/Pair.sol",
  "compiler": {
    "name": "solc",
    "version": "0.8.15+commit.e14f2714.Emscripten.clang"
  },
  "schemaVersion": "3.4.3",
  "updatedAt": "2022-07-14T10:21:38.912Z",
  "devdoc": {
    "kind": "dev",
    "methods": {},
    "version": 1
  },
  "userdoc": {
    "kind": "user",
    "methods": {},
    "version": 1
  }
}