{
  "contractName": "PoolToken",
  "abi": [
    {
      "inputs": [],
      "stateMutability": "nonpayable",
      "type": "constructor"
    },
    {
      "anonymous": false,
      "inputs": [
        {
          "indexed": true,
          "internalType": "address",
          "name": "owner",
          "type": "address"
        },
        {
          "indexed": true,
          "internalType": "address",
          "name": "spender",
          "type": "address"
        },
        {
          "indexed": false,
          "internalType": "uint256",
          "name": "value",
          "type": "uint256"
        }
      ],
      "name": "Approval",
      "type": "event"
    },
    {
      "anonymous": false,
      "inputs": [
        {
          "indexed": true,
          "internalType": "address",
          "name": "from",
          "type": "address"
        },
        {
          "indexed": true,
          "internalType": "address",
          "name": "to",
          "type": "address"
        },
        {
          "indexed": false,
          "internalType": "uint256",
          "name": "value",
          "type": "uint256"
        }
      ],
      "name": "Transfer",
      "type": "event"
    },
    {
      "inputs": [],
      "name": "DOMAIN_SEPARATOR",
      "outputs": [
        {
          "internalType": "bytes32",
          "name": "",
          "type": "bytes32"
        }
      ],
      "stateMutability": "view",
      "type": "function"
    },
    {
      "inputs": [],
      "name": "PERMIT_TYPEHASH",
      "outputs": [
        {
          "internalType": "bytes32",
          "name": "",
          "type": "bytes32"
        }
      ],
      "stateMutability": "view",
      "type": "function"
    },
    {
      "inputs": [
        {
          "internalType": "address",
          "name": "",
          "type": "address"
        },
        {
          "internalType": "address",
          "name": "",
          "type": "address"
        }
      ],
      "name": "allowance",
      "outputs": [
        {
          "internalType": "uint256",
          "name": "",
          "type": "uint256"
        }
      ],
      "stateMutability": "view",
      "type": "function"
    },
    {
      "inputs": [
        {
          "internalType": "address",
          "name": "",
          "type": "address"
        }
      ],
      "name": "balanceOf",
      "outputs": [
        {
          "internalType": "uint256",
          "name": "",
          "type": "uint256"
        }
      ],
      "stateMutability": "view",
      "type": "function"
    },
    {
      "inputs": [],
      "name": "decimals",
      "outputs": [
        {
          "internalType": "uint8",
          "name": "",
          "type": "uint8"
        }
      ],
      "stateMutability": "view",
      "type": "function"
    },
    {
      "inputs": [],
      "name": "name",
      "outputs": [
        {
          "internalType": "string",
          "name": "",
          "type": "string"
        }
      ],
      "stateMutability": "view",
      "type": "function"
    },
    {
      "inputs": [
        {
          "internalType": "address",
          "name": "",
          "type": "address"
        }
      ],
      "name": "nonces",
      "outputs": [
        {
          "internalType": "uint256",
          "name": "",
          "type": "uint256"
        }
      ],
      "stateMutability": "view",
      "type": "function"
    },
    {
      "inputs": [],
      "name": "symbol",
      "outputs": [
        {
          "internalType": "string",
          "name": "",
          "type": "string"
        }
      ],
      "stateMutability": "view",
      "type": "function"
    },
    {
      "inputs": [],
      "name": "tokenAddress",
      "outputs": [
        {
          "internalType": "address",
          "name": "",
          "type": "address"
        }
      ],
      "stateMutability": "view",
      "type": "function"
    },
    {
      "inputs": [],
      "name": "totalSupply",
      "outputs": [
        {
          "internalType": "uint256",
          "name": "",
          "type": "uint256"
        }
      ],
      "stateMutability": "view",
      "type": "function"
    },
    {
      "inputs": [
        {
          "internalType": "address",
          "name": "spender",
          "type": "address"
        },
        {
          "internalType": "uint256",
          "name": "value",
          "type": "uint256"
        }
      ],
      "name": "approve",
      "outputs": [
        {
          "internalType": "bool",
          "name": "",
          "type": "bool"
        }
      ],
      "stateMutability": "nonpayable",
      "type": "function"
    },
    {
      "inputs": [
        {
          "internalType": "address",
          "name": "to",
          "type": "address"
        },
        {
          "internalType": "uint256",
          "name": "value",
          "type": "uint256"
        }
      ],
      "name": "transfer",
      "outputs": [
        {
          "internalType": "bool",
          "name": "",
          "type": "bool"
        }
      ],
      "stateMutability": "nonpayable",
      "type": "function"
    },
    {
      "inputs": [
        {
          "internalType": "address",
          "name": "from",
          "type": "address"
        },
        {
          "internalType": "address",
          "name": "to",
          "type": "address"
        },
        {
          "internalType": "uint256",
          "name": "value",
          "type": "uint256"
        }
      ],
      "name": "transferFrom",
      "outputs": [
        {
          "internalType": "bool",
          "name": "",
          "type": "bool"
        }
      ],
      "stateMutability": "nonpayable",
      "type": "function"
    },
    {
      "inputs": [
        {
          "internalType": "address",
          "name": "owner",
          "type": "address"
        },
        {
          "internalType": "address",
          "name": "spender",
          "type": "address"
        },
        {
          "internalType": "uint256",
          "name": "value",
          "type": "uint256"
        },
        {
          "internalType": "uint256",
          "name": "deadline",
          "type": "uint256"
        },
        {
          "internalType": "uint8",
          "name": "v",
          "type": "uint8"
        },
        {
          "internalType": "bytes32",
          "name": "r",
          "type": "bytes32"
        },
        {
          "internalType": "bytes32",
          "name": "s",
          "type": "bytes32"
        }
      ],
      "name": "permit",
      "outputs": [],
      "stateMutability": "nonpayable",
      "type": "function"
    }
  ],
  "bytecode": "0x6080604052306000806101000a81548173ffffffffffffffffffffffffffffffffffffffff021916908373ffffffffffffffffffffffffffffffffffffffff1602179055503480156200005157600080fd5b5060004690507f8b73c3c69bb8fe3d512ecc4cf759cc79239f7b179b0ffacaa9a75d522b39400f6040518060400160405280600a81526020017f556e697377617020563200000000000000000000000000000000000000000000815250805190602001206040518060400160405280600181526020017f31000000000000000000000000000000000000000000000000000000000000008152508051906020012083306040516020016200010a959493929190620001a8565b604051602081830303815290604052805190602001206004819055505062000205565b6000819050919050565b62000142816200012d565b82525050565b6000819050919050565b6200015d8162000148565b82525050565b600073ffffffffffffffffffffffffffffffffffffffff82169050919050565b6000620001908262000163565b9050919050565b620001a28162000183565b82525050565b600060a082019050620001bf600083018862000137565b620001ce602083018762000137565b620001dd604083018662000137565b620001ec606083018562000152565b620001fb608083018462000197565b9695505050505050565b61131a80620002156000396000f3fe608060405234801561001057600080fd5b50600436106100ea5760003560e01c806370a082311161008c5780639d76ea58116100665780639d76ea5814610263578063a9059cbb14610281578063d505accf146102b1578063dd62ed3e146102cd576100ea565b806370a08231146101e55780637ecebe001461021557806395d89b4114610245576100ea565b806323b872dd116100c857806323b872dd1461015b57806330adf81f1461018b578063313ce567146101a95780633644e515146101c7576100ea565b806306fdde03146100ef578063095ea7b31461010d57806318160ddd1461013d575b600080fd5b6100f76102fd565b6040516101049190610ba0565b60405180910390f35b61012760048036038101906101229190610c5b565b610336565b6040516101349190610cb6565b60405180910390f35b61014561034d565b6040516101529190610ce0565b60405180910390f35b61017560048036038101906101709190610cfb565b610353565b6040516101829190610cb6565b60405180910390f35b610193610539565b6040516101a09190610d67565b60405180910390f35b6101b1610560565b6040516101be9190610d9e565b60405180910390f35b6101cf610565565b6040516101dc9190610d67565b60405180910390f35b6101ff60048036038101906101fa9190610db9565b61056b565b60405161020c9190610ce0565b60405180910390f35b61022f600480360381019061022a9190610db9565b610583565b60405161023c9190610ce0565b60405180910390f35b61024d61059b565b60405161025a9190610ba0565b60405180910390f35b61026b6105d4565b6040516102789190610df5565b60405180910390f35b61029b60048036038101906102969190610c5b565b6105f8565b6040516102a89190610cb6565b60405180910390f35b6102cb60048036038101906102c69190610e68565b61060f565b005b6102e760048036038101906102e29190610f0a565b610837565b6040516102f49190610ce0565b60405180910390f35b6040518060400160405280600a81526020017f556e69737761702056320000000000000000000000000000000000000000000081525081565b600061034333848461085c565b6001905092915050565b60015481565b600081600360008673ffffffffffffffffffffffffffffffffffffffff1673ffffffffffffffffffffffffffffffffffffffff16815260200190815260200160002060003373ffffffffffffffffffffffffffffffffffffffff1673ffffffffffffffffffffffffffffffffffffffff168152602001908152602001600020541015610414576040517f08c379a000000000000000000000000000000000000000000000000000000000815260040161040b90610f96565b60405180910390fd5b6104a382600360008773ffffffffffffffffffffffffffffffffffffffff1673ffffffffffffffffffffffffffffffffffffffff16815260200190815260200160002060003373ffffffffffffffffffffffffffffffffffffffff1673ffffffffffffffffffffffffffffffffffffffff1681526020019081526020016000205461094790919063ffffffff16565b600360008673ffffffffffffffffffffffffffffffffffffffff1673ffffffffffffffffffffffffffffffffffffffff16815260200190815260200160002060003373ffffffffffffffffffffffffffffffffffffffff1673ffffffffffffffffffffffffffffffffffffffff1681526020019081526020016000208190555061052e84848461095d565b600190509392505050565b7f6e71edae12b1b97f4d1f60370fef10105fa2faae0126114a169c64845d6126c960001b81565b601281565b60045481565b60026020528060005260406000206000915090505481565b60056020528060005260406000206000915090505481565b6040518060400160405280600681526020017f554e492d5632000000000000000000000000000000000000000000000000000081525081565b60008054906101000a900473ffffffffffffffffffffffffffffffffffffffff1681565b600061060533848461095d565b6001905092915050565b42841015610652576040517f08c379a000000000000000000000000000000000000000000000000000000000815260040161064990611002565b60405180910390fd5b60006004547f6e71edae12b1b97f4d1f60370fef10105fa2faae0126114a169c64845d6126c960001b898989600560008e73ffffffffffffffffffffffffffffffffffffffff1673ffffffffffffffffffffffffffffffffffffffff16815260200190815260200160002060008154809291906106ce90611051565b919050558a6040516020016106e896959493929190611099565b6040516020818303038152906040528051906020012060405160200161070f929190611172565b60405160208183030381529060405280519060200120905060006001828686866040516000815260200160405260405161074c94939291906111a9565b6020604051602081039080840390855afa15801561076e573d6000803e3d6000fd5b505050602060405103519050600073ffffffffffffffffffffffffffffffffffffffff168173ffffffffffffffffffffffffffffffffffffffff16141580156107e257508873ffffffffffffffffffffffffffffffffffffffff168173ffffffffffffffffffffffffffffffffffffffff16145b610821576040517f08c379a00000000000000000000000000000000000000000000000000000000081526004016108189061123a565b60405180910390fd5b61082c89898961085c565b505050505050505050565b6003602052816000526040600020602052806000526040600020600091509150505481565b80600360008573ffffffffffffffffffffffffffffffffffffffff1673ffffffffffffffffffffffffffffffffffffffff16815260200190815260200160002060008473ffffffffffffffffffffffffffffffffffffffff1673ffffffffffffffffffffffffffffffffffffffff168152602001908152602001600020819055508173ffffffffffffffffffffffffffffffffffffffff168373ffffffffffffffffffffffffffffffffffffffff167f8c5be1e5ebec7d5bd14f71427d1e84f3dd0314c0f7b2291e5b200ac8c7c3b9258360405161093a9190610ce0565b60405180910390a3505050565b60008183610955919061125a565b905092915050565b6109af81600260008673ffffffffffffffffffffffffffffffffffffffff1673ffffffffffffffffffffffffffffffffffffffff1681526020019081526020016000205461094790919063ffffffff16565b600260008573ffffffffffffffffffffffffffffffffffffffff1673ffffffffffffffffffffffffffffffffffffffff16815260200190815260200160002081905550610a4481600260008573ffffffffffffffffffffffffffffffffffffffff1673ffffffffffffffffffffffffffffffffffffffff16815260200190815260200160002054610af190919063ffffffff16565b600260008473ffffffffffffffffffffffffffffffffffffffff1673ffffffffffffffffffffffffffffffffffffffff168152602001908152602001600020819055508173ffffffffffffffffffffffffffffffffffffffff168373ffffffffffffffffffffffffffffffffffffffff167fddf252ad1be2c89b69c2b068fc378daa952ba7f163c4a11628f55a4df523b3ef83604051610ae49190610ce0565b60405180910390a3505050565b60008183610aff919061128e565b905092915050565b600081519050919050565b600082825260208201905092915050565b60005b83811015610b41578082015181840152602081019050610b26565b83811115610b50576000848401525b50505050565b6000601f19601f8301169050919050565b6000610b7282610b07565b610b7c8185610b12565b9350610b8c818560208601610b23565b610b9581610b56565b840191505092915050565b60006020820190508181036000830152610bba8184610b67565b905092915050565b600080fd5b600073ffffffffffffffffffffffffffffffffffffffff82169050919050565b6000610bf282610bc7565b9050919050565b610c0281610be7565b8114610c0d57600080fd5b50565b600081359050610c1f81610bf9565b92915050565b6000819050919050565b610c3881610c25565b8114610c4357600080fd5b50565b600081359050610c5581610c2f565b92915050565b60008060408385031215610c7257610c71610bc2565b5b6000610c8085828601610c10565b9250506020610c9185828601610c46565b9150509250929050565b60008115159050919050565b610cb081610c9b565b82525050565b6000602082019050610ccb6000830184610ca7565b92915050565b610cda81610c25565b82525050565b6000602082019050610cf56000830184610cd1565b92915050565b600080600060608486031215610d1457610d13610bc2565b5b6000610d2286828701610c10565b9350506020610d3386828701610c10565b9250506040610d4486828701610c46565b9150509250925092565b6000819050919050565b610d6181610d4e565b82525050565b6000602082019050610d7c6000830184610d58565b92915050565b600060ff82169050919050565b610d9881610d82565b82525050565b6000602082019050610db36000830184610d8f565b92915050565b600060208284031215610dcf57610dce610bc2565b5b6000610ddd84828501610c10565b91505092915050565b610def81610be7565b82525050565b6000602082019050610e0a6000830184610de6565b92915050565b610e1981610d82565b8114610e2457600080fd5b50565b600081359050610e3681610e10565b92915050565b610e4581610d4e565b8114610e5057600080fd5b50565b600081359050610e6281610e3c565b92915050565b600080600080600080600060e0888a031215610e8757610e86610bc2565b5b6000610e958a828b01610c10565b9750506020610ea68a828b01610c10565b9650506040610eb78a828b01610c46565b9550506060610ec88a828b01610c46565b9450506080610ed98a828b01610e27565b93505060a0610eea8a828b01610e53565b92505060c0610efb8a828b01610e53565b91505092959891949750929550565b60008060408385031215610f2157610f20610bc2565b5b6000610f2f85828601610c10565b9250506020610f4085828601610c10565b9150509250929050565b7f706c6561736520617070726f7665206669727374000000000000000000000000600082015250565b6000610f80601483610b12565b9150610f8b82610f4a565b602082019050919050565b60006020820190508181036000830152610faf81610f73565b9050919050565b7f556e697377617056323a20455850495245440000000000000000000000000000600082015250565b6000610fec601283610b12565b9150610ff782610fb6565b602082019050919050565b6000602082019050818103600083015261101b81610fdf565b9050919050565b7f4e487b7100000000000000000000000000000000000000000000000000000000600052601160045260246000fd5b600061105c82610c25565b91507fffffffffffffffffffffffffffffffffffffffffffffffffffffffffffffffff820361108e5761108d611022565b5b600182019050919050565b600060c0820190506110ae6000830189610d58565b6110bb6020830188610de6565b6110c86040830187610de6565b6110d56060830186610cd1565b6110e26080830185610cd1565b6110ef60a0830184610cd1565b979650505050505050565b600081905092915050565b7f1901000000000000000000000000000000000000000000000000000000000000600082015250565b600061113b6002836110fa565b915061114682611105565b600282019050919050565b6000819050919050565b61116c61116782610d4e565b611151565b82525050565b600061117d8261112e565b9150611189828561115b565b602082019150611199828461115b565b6020820191508190509392505050565b60006080820190506111be6000830187610d58565b6111cb6020830186610d8f565b6111d86040830185610d58565b6111e56060830184610d58565b95945050505050565b7f556e697377617056323a20494e56414c49445f5349474e415455524500000000600082015250565b6000611224601c83610b12565b915061122f826111ee565b602082019050919050565b6000602082019050818103600083015261125381611217565b9050919050565b600061126582610c25565b915061127083610c25565b92508282101561128357611282611022565b5b828203905092915050565b600061129982610c25565b91506112a483610c25565b9250827fffffffffffffffffffffffffffffffffffffffffffffffffffffffffffffffff038211156112d9576112d8611022565b5b82820190509291505056fea2646970667358221220fb6bba3d1b04eff75dc6f5135a9d808b5c44dd3575b5570ebb5941ab3b9eba6864736f6c634300080f0033",
  "immutableReferences": {},
  "source": "pragma solidity ^0.8.0;\n//SPDX-License-Identifier: MIT\n\nimport \"@uniswap/v2-core/contracts/interfaces/IUniswapV2ERC20.sol\";\nimport \"@openzeppelin/contracts/utils/math/SafeMath.sol\";\n\ncontract PoolToken {\n    using SafeMath for uint256;\n    address public tokenAddress = address(this);\n    string public constant name = \"Uniswap V2\";\n    string public constant symbol = \"UNI-V2\";\n    uint8 public constant decimals = 18;\n    uint256 public totalSupply;\n    mapping(address => uint256) public balanceOf;\n    mapping(address => mapping(address => uint256)) public allowance;\n\n    bytes32 public DOMAIN_SEPARATOR;\n    // keccak256(\"Permit(address owner,address spender,uint256 value,uint256 nonce,uint256 deadline)\");\n    bytes32 public constant PERMIT_TYPEHASH =\n        0x6e71edae12b1b97f4d1f60370fef10105fa2faae0126114a169c64845d6126c9;\n    mapping(address => uint256) public nonces;\n\n    event Approval(\n        address indexed owner,\n        address indexed spender,\n        uint256 value\n    );\n    event Transfer(address indexed from, address indexed to, uint256 value);\n\n    constructor() {\n        uint256 chainId;\n        assembly {\n            chainId := chainid()\n        }\n        DOMAIN_SEPARATOR = keccak256(\n            abi.encode(\n                keccak256(\n                    \"EIP712Domain(string name,string version,uint256 chainId,address verifyingContract)\"\n                ),\n                keccak256(bytes(name)),\n                keccak256(bytes(\"1\")),\n                chainId,\n                address(this)\n            )\n        );\n    }\n\n    function _mint(address to, uint256 value) internal {\n        totalSupply = totalSupply.add(value);\n        balanceOf[to] = balanceOf[to].add(value);\n        emit Transfer(address(0), to, value);\n    }\n\n    function _burn(address from, uint256 value) internal {\n        balanceOf[from] = balanceOf[from].sub(value);\n        totalSupply = totalSupply.sub(value);\n        emit Transfer(from, address(0), value);\n    }\n\n    function _approve(\n        address owner,\n        address spender,\n        uint256 value\n    ) private {\n        allowance[owner][spender] = value;\n        emit Approval(owner, spender, value);\n    }\n\n    function _transfer(\n        address from,\n        address to,\n        uint256 value\n    ) private {\n        balanceOf[from] = balanceOf[from].sub(value);\n        balanceOf[to] = balanceOf[to].add(value);\n        emit Transfer(from, to, value);\n    }\n\n    function approve(address spender, uint256 value) external returns (bool) {\n        _approve(msg.sender, spender, value);\n        return true;\n    }\n\n    function transfer(address to, uint256 value) external returns (bool) {\n        _transfer(msg.sender, to, value);\n        return true;\n    }\n\n    function transferFrom(\n        address from,\n        address to,\n        uint256 value\n    ) external returns (bool) {\n        require(allowance[from][msg.sender] >= value, \"please approve first\");\n        allowance[from][msg.sender] = allowance[from][msg.sender].sub(value);\n\n        _transfer(from, to, value);\n        return true;\n    }\n\n    function permit(\n        address owner,\n        address spender,\n        uint256 value,\n        uint256 deadline,\n        uint8 v,\n        bytes32 r,\n        bytes32 s\n    ) external {\n        require(deadline >= block.timestamp, \"UniswapV2: EXPIRED\");\n        bytes32 digest = keccak256(\n            abi.encodePacked(\n                \"\\x19\\x01\",\n                DOMAIN_SEPARATOR,\n                keccak256(\n                    abi.encode(\n                        PERMIT_TYPEHASH,\n                        owner,\n                        spender,\n                        value,\n                        nonces[owner]++,\n                        deadline\n                    )\n                )\n            )\n        );\n        address recoveredAddress = ecrecover(digest, v, r, s);\n        require(\n            recoveredAddress != address(0) && recoveredAddress == owner,\n            \"UniswapV2: INVALID_SIGNATURE\"\n        );\n        _approve(owner, spender, value);\n    }\n}\n",
  "sourcePath": "/Users/istore/Downloads/swapFinal/contracts/PoolToken.sol",
  "compiler": {
    "name": "solc",
    "version": "0.8.15+commit.e14f2714.Emscripten.clang"
  },
  "schemaVersion": "3.4.3",
  "updatedAt": "2022-07-14T10:21:38.990Z",
  "devdoc": {
    "kind": "dev",
    "methods": {},
    "version": 1
  },
  "userdoc": {
    "kind": "user",
    "methods": {},
    "version": 1
  }
}