{
  "contractName": "Staking",
  "abi": [
    {
      "inputs": [
        {
          "internalType": "address",
          "name": "_stakingToken",
          "type": "address"
        },
        {
          "internalType": "address",
          "name": "_rewardToken",
          "type": "address"
        }
      ],
      "stateMutability": "nonpayable",
      "type": "constructor"
    },
    {
      "anonymous": false,
      "inputs": [
        {
          "indexed": true,
          "internalType": "address",
          "name": "user",
          "type": "address"
        },
        {
          "indexed": false,
          "internalType": "uint256",
          "name": "reward",
          "type": "uint256"
        }
      ],
      "name": "Distribute",
      "type": "event"
    },
    {
      "anonymous": false,
      "inputs": [
        {
          "indexed": true,
          "internalType": "address",
          "name": "previousOwner",
          "type": "address"
        },
        {
          "indexed": true,
          "internalType": "address",
          "name": "newOwner",
          "type": "address"
        }
      ],
      "name": "OwnershipTransferred",
      "type": "event"
    },
    {
      "anonymous": false,
      "inputs": [
        {
          "indexed": true,
          "internalType": "address",
          "name": "user",
          "type": "address"
        },
        {
          "indexed": false,
          "internalType": "uint256",
          "name": "amount",
          "type": "uint256"
        },
        {
          "indexed": false,
          "internalType": "uint256",
          "name": "endTime",
          "type": "uint256"
        }
      ],
      "name": "Stake",
      "type": "event"
    },
    {
      "anonymous": false,
      "inputs": [
        {
          "indexed": true,
          "internalType": "address",
          "name": "user",
          "type": "address"
        },
        {
          "indexed": false,
          "internalType": "uint256",
          "name": "amount",
          "type": "uint256"
        },
        {
          "indexed": false,
          "internalType": "uint256",
          "name": "reward",
          "type": "uint256"
        }
      ],
      "name": "Unstake",
      "type": "event"
    },
    {
      "inputs": [
        {
          "internalType": "address",
          "name": "",
          "type": "address"
        }
      ],
      "name": "AllStakedBalance",
      "outputs": [
        {
          "internalType": "uint256",
          "name": "",
          "type": "uint256"
        }
      ],
      "stateMutability": "view",
      "type": "function"
    },
    {
      "inputs": [],
      "name": "StakedReward",
      "outputs": [
        {
          "internalType": "uint256",
          "name": "",
          "type": "uint256"
        }
      ],
      "stateMutability": "view",
      "type": "function"
    },
    {
      "inputs": [],
      "name": "StakedRewardFreezed",
      "outputs": [
        {
          "internalType": "uint256",
          "name": "",
          "type": "uint256"
        }
      ],
      "stateMutability": "view",
      "type": "function"
    },
    {
      "inputs": [
        {
          "internalType": "address",
          "name": "",
          "type": "address"
        },
        {
          "internalType": "uint128",
          "name": "",
          "type": "uint128"
        }
      ],
      "name": "luckTime",
      "outputs": [
        {
          "internalType": "uint128",
          "name": "",
          "type": "uint128"
        }
      ],
      "stateMutability": "view",
      "type": "function"
    },
    {
      "inputs": [],
      "name": "owner",
      "outputs": [
        {
          "internalType": "address",
          "name": "",
          "type": "address"
        }
      ],
      "stateMutability": "view",
      "type": "function"
    },
    {
      "inputs": [],
      "name": "pair",
      "outputs": [
        {
          "internalType": "contract IUniswapV2Pair",
          "name": "",
          "type": "address"
        }
      ],
      "stateMutability": "view",
      "type": "function"
    },
    {
      "inputs": [
        {
          "internalType": "address",
          "name": "",
          "type": "address"
        }
      ],
      "name": "positions",
      "outputs": [
        {
          "internalType": "uint64",
          "name": "",
          "type": "uint64"
        }
      ],
      "stateMutability": "view",
      "type": "function"
    },
    {
      "inputs": [],
      "name": "renounceOwnership",
      "outputs": [],
      "stateMutability": "nonpayable",
      "type": "function"
    },
    {
      "inputs": [],
      "name": "rewardToken",
      "outputs": [
        {
          "internalType": "contract IERC20",
          "name": "",
          "type": "address"
        }
      ],
      "stateMutability": "view",
      "type": "function"
    },
    {
      "inputs": [
        {
          "internalType": "address",
          "name": "",
          "type": "address"
        },
        {
          "internalType": "uint32",
          "name": "",
          "type": "uint32"
        }
      ],
      "name": "stakedBalance",
      "outputs": [
        {
          "internalType": "uint256",
          "name": "",
          "type": "uint256"
        }
      ],
      "stateMutability": "view",
      "type": "function"
    },
    {
      "inputs": [
        {
          "internalType": "address",
          "name": "",
          "type": "address"
        },
        {
          "internalType": "uint32",
          "name": "",
          "type": "uint32"
        }
      ],
      "name": "stakedChoise",
      "outputs": [
        {
          "internalType": "uint8",
          "name": "",
          "type": "uint8"
        }
      ],
      "stateMutability": "view",
      "type": "function"
    },
    {
      "inputs": [],
      "name": "stakingToken",
      "outputs": [
        {
          "internalType": "contract IERC20",
          "name": "",
          "type": "address"
        }
      ],
      "stateMutability": "view",
      "type": "function"
    },
    {
      "inputs": [],
      "name": "timestamp",
      "outputs": [
        {
          "internalType": "uint256",
          "name": "",
          "type": "uint256"
        }
      ],
      "stateMutability": "view",
      "type": "function"
    },
    {
      "inputs": [],
      "name": "totalValueLockBUSD",
      "outputs": [
        {
          "internalType": "uint256",
          "name": "",
          "type": "uint256"
        }
      ],
      "stateMutability": "view",
      "type": "function"
    },
    {
      "inputs": [],
      "name": "totalValueLockLPToken",
      "outputs": [
        {
          "internalType": "uint256",
          "name": "",
          "type": "uint256"
        }
      ],
      "stateMutability": "view",
      "type": "function"
    },
    {
      "inputs": [
        {
          "internalType": "address",
          "name": "newOwner",
          "type": "address"
        }
      ],
      "name": "transferOwnership",
      "outputs": [],
      "stateMutability": "nonpayable",
      "type": "function"
    },
    {
      "inputs": [
        {
          "internalType": "uint256",
          "name": "_amountBusd",
          "type": "uint256"
        }
      ],
      "name": "calculateAmountBulc",
      "outputs": [
        {
          "internalType": "uint256",
          "name": "",
          "type": "uint256"
        }
      ],
      "stateMutability": "view",
      "type": "function"
    },
    {
      "inputs": [
        {
          "internalType": "uint256",
          "name": "_BulcAmount",
          "type": "uint256"
        }
      ],
      "name": "calculateAmountBusd",
      "outputs": [
        {
          "internalType": "uint256",
          "name": "",
          "type": "uint256"
        }
      ],
      "stateMutability": "view",
      "type": "function"
    },
    {
      "inputs": [
        {
          "internalType": "uint256",
          "name": "_LpTokenAmount",
          "type": "uint256"
        }
      ],
      "name": "calculateValue",
      "outputs": [
        {
          "internalType": "uint256",
          "name": "valueLpPerBusd",
          "type": "uint256"
        }
      ],
      "stateMutability": "view",
      "type": "function"
    },
    {
      "inputs": [
        {
          "internalType": "uint256",
          "name": "amount_",
          "type": "uint256"
        },
        {
          "internalType": "uint8",
          "name": "choice_",
          "type": "uint8"
        }
      ],
      "name": "calculatePermit",
      "outputs": [
        {
          "internalType": "uint256",
          "name": "exactAmount",
          "type": "uint256"
        }
      ],
      "stateMutability": "pure",
      "type": "function"
    },
    {
      "inputs": [
        {
          "internalType": "uint256",
          "name": "_LPamount",
          "type": "uint256"
        },
        {
          "internalType": "uint8",
          "name": "choice",
          "type": "uint8"
        }
      ],
      "name": "calculate",
      "outputs": [
        {
          "internalType": "uint256",
          "name": "permitPerBulc",
          "type": "uint256"
        }
      ],
      "stateMutability": "view",
      "type": "function"
    },
    {
      "inputs": [
        {
          "internalType": "uint256",
          "name": "_amount",
          "type": "uint256"
        },
        {
          "internalType": "uint8",
          "name": "_Choise",
          "type": "uint8"
        }
      ],
      "name": "stake",
      "outputs": [],
      "stateMutability": "nonpayable",
      "type": "function"
    },
    {
      "inputs": [
        {
          "internalType": "uint32",
          "name": "position",
          "type": "uint32"
        }
      ],
      "name": "unstake",
      "outputs": [],
      "stateMutability": "nonpayable",
      "type": "function"
    },
    {
      "inputs": [
        {
          "internalType": "uint256",
          "name": "_reward",
          "type": "uint256"
        }
      ],
      "name": "distribute",
      "outputs": [],
      "stateMutability": "nonpayable",
      "type": "function"
    },
    {
      "inputs": [
        {
          "internalType": "uint256",
          "name": "rewardTokenAmount",
          "type": "uint256"
        }
      ],
      "name": "witdraw",
      "outputs": [],
      "stateMutability": "nonpayable",
      "type": "function"
    },
    {
      "inputs": [
        {
          "internalType": "address",
          "name": "_account",
          "type": "address"
        },
        {
          "internalType": "uint32",
          "name": "position",
          "type": "uint32"
        }
      ],
      "name": "rewardOf",
      "outputs": [
        {
          "internalType": "uint256",
          "name": "",
          "type": "uint256"
        }
      ],
      "stateMutability": "view",
      "type": "function"
    },
    {
      "inputs": [
        {
          "internalType": "address",
          "name": "sender_",
          "type": "address"
        },
        {
          "internalType": "uint8",
          "name": "position",
          "type": "uint8"
        }
      ],
      "name": "getAll",
      "outputs": [
        {
          "internalType": "uint256",
          "name": "deadLine",
          "type": "uint256"
        },
        {
          "internalType": "uint256",
          "name": "reward",
          "type": "uint256"
        },
        {
          "internalType": "uint256",
          "name": "choise",
          "type": "uint256"
        },
        {
          "internalType": "uint256",
          "name": "LPTokenBalnce",
          "type": "uint256"
        }
      ],
      "stateMutability": "view",
      "type": "function"
    }
  ],
  "bytecode": "0x608060405260006008553480156200001657600080fd5b5060405162004b0938038062004b0983398181016040528101906200003c919062000264565b6200005c620000506200012e60201b60201c565b6200013660201b60201c565b6001808190555081600560006101000a81548173ffffffffffffffffffffffffffffffffffffffff021916908373ffffffffffffffffffffffffffffffffffffffff16021790555081600760006101000a81548173ffffffffffffffffffffffffffffffffffffffff021916908373ffffffffffffffffffffffffffffffffffffffff16021790555080600660006101000a81548173ffffffffffffffffffffffffffffffffffffffff021916908373ffffffffffffffffffffffffffffffffffffffff1602179055505050620002ab565b600033905090565b60008060009054906101000a900473ffffffffffffffffffffffffffffffffffffffff169050816000806101000a81548173ffffffffffffffffffffffffffffffffffffffff021916908373ffffffffffffffffffffffffffffffffffffffff1602179055508173ffffffffffffffffffffffffffffffffffffffff168173ffffffffffffffffffffffffffffffffffffffff167f8be0079c531659141344cd1fd0a4f28419497f9722a3daafe3b4186f6b6457e060405160405180910390a35050565b600080fd5b600073ffffffffffffffffffffffffffffffffffffffff82169050919050565b60006200022c82620001ff565b9050919050565b6200023e816200021f565b81146200024a57600080fd5b50565b6000815190506200025e8162000233565b92915050565b600080604083850312156200027e576200027d620001fa565b5b60006200028e858286016200024d565b9250506020620002a1858286016200024d565b9150509250929050565b61484e80620002bb6000396000f3fe608060405234801561001057600080fd5b50600436106101a95760003560e01c806391c05b0b116100f9578063bd9edebe11610097578063e0186f2911610071578063e0186f29146104fb578063f2fde38b1461052b578063f61a7bb514610547578063f7c618c114610577576101a9565b8063bd9edebe1461047d578063c0087e8f146104ad578063c08f50b4146104cb576101a9565b80639e6e1906116100d35780639e6e190614610407578063a8aa1b3114610425578063b404930e14610443578063b80777ea1461045f576101a9565b806391c05b0b1461038b57806391c75a2e146103a757806399a557ec146103d7576101a9565b806355f575101161016657806372f702f31161014057806372f702f314610303578063809ee57d146103215780638ac6afd61461033d5780638da5cb5b1461036d576101a9565b806355f57510146102965780636dcea398146102c6578063715018a6146102f9576101a9565b8063010f2395146101ae5780630c892d3e146101de57806310087fb1146101fc57806321d16896146102185780632cdad85f146102485780634796de4b14610266575b600080fd5b6101c860048036038101906101c39190613673565b610595565b6040516101d591906136b9565b60405180910390f35b6101e66105ad565b6040516101f391906136b9565b60405180910390f35b61021660048036038101906102119190613739565b6105b3565b005b610232600480360381019061022d9190613779565b610cc3565b60405161023f91906136b9565b60405180910390f35b610250610f4d565b60405161025d91906136b9565b60405180910390f35b610280600480360381019061027b9190613739565b610f53565b60405161028d91906136b9565b60405180910390f35b6102b060048036038101906102ab9190613673565b610ff7565b6040516102bd91906137c9565b60405180910390f35b6102e060048036038101906102db91906137e4565b61101e565b6040516102f09493929190613824565b60405180910390f35b610301611300565b005b61030b611314565b60405161031891906138c8565b60405180910390f35b61033b6004803603810190610336919061391f565b61133a565b005b6103576004803603810190610352919061394c565b6118cf565b60405161036491906136b9565b60405180910390f35b6103756118f4565b604051610382919061399b565b60405180910390f35b6103a560048036038101906103a09190613779565b61191d565b005b6103c160048036038101906103bc9190613779565b611a21565b6040516103ce91906136b9565b60405180910390f35b6103f160048036038101906103ec9190613739565b611d3f565b6040516103fe91906136b9565b60405180910390f35b61040f611d6e565b60405161041c91906136b9565b60405180910390f35b61042d611d74565b60405161043a91906139d7565b60405180910390f35b61045d60048036038101906104589190613779565b611d9a565b005b610467611f35565b60405161047491906136b9565b60405180910390f35b6104976004803603810190610492919061394c565b611f3d565b6040516104a49190613a01565b60405180910390f35b6104b5611f6c565b6040516104c291906136b9565b60405180910390f35b6104e560048036038101906104e09190613779565b611f72565b6040516104f291906136b9565b60405180910390f35b6105156004803603810190610510919061394c565b6121fc565b60405161052291906136b9565b60405180910390f35b61054560048036038101906105409190613673565b6122e0565b005b610561600480360381019061055c9190613a64565b612363565b60405161056e9190613ab3565b60405180910390f35b61057f6123a1565b60405161058c91906138c8565b60405180910390f35b600c6020528060005260406000206000915090505481565b600b5481565b8060ff166000816fffffffffffffffffffffffffffffffff161180156105ec57506004816fffffffffffffffffffffffffffffffff1611155b61062b576040517f08c379a000000000000000000000000000000000000000000000000000000000815260040161062290613b2b565b60405180910390fd5b600260015403610670576040517f08c379a000000000000000000000000000000000000000000000000000000000815260040161066790613b97565b60405180910390fd5b6002600181905550600083116106bb576040517f08c379a00000000000000000000000000000000000000000000000000000000081526004016106b290613c03565b60405180910390fd5b60006106c78484611d3f565b9050806009541161070d576040517f08c379a000000000000000000000000000000000000000000000000000000000815260040161070490613c95565b60405180910390fd5b600080600660009054906101000a900473ffffffffffffffffffffffffffffffffffffffff1673ffffffffffffffffffffffffffffffffffffffff16600560009054906101000a900473ffffffffffffffffffffffffffffffffffffffff1673ffffffffffffffffffffffffffffffffffffffff16630dfe16816040518163ffffffff1660e01b8152600401602060405180830381865afa1580156107b6573d6000803e3d6000fd5b505050506040513d601f19601f820116820180604052508101906107da9190613cca565b73ffffffffffffffffffffffffffffffffffffffff1614159050801561089257600560009054906101000a900473ffffffffffffffffffffffffffffffffffffffff1673ffffffffffffffffffffffffffffffffffffffff16630dfe16816040518163ffffffff1660e01b8152600401602060405180830381865afa158015610867573d6000803e3d6000fd5b505050506040513d601f19601f8201168201806040525081019061088b9190613cca565b9150610926565b600560009054906101000a900473ffffffffffffffffffffffffffffffffffffffff1673ffffffffffffffffffffffffffffffffffffffff1663d21220a76040518163ffffffff1660e01b8152600401602060405180830381865afa1580156108ff573d6000803e3d6000fd5b505050506040513d601f19601f820116820180604052508101906109239190613cca565b91505b6000606461093388611a21565b61093d9190613d55565b90508273ffffffffffffffffffffffffffffffffffffffff166323b872dd336109646118f4565b846040518463ffffffff1660e01b815260040161098393929190613d86565b6020604051808303816000875af11580156109a2573d6000803e3d6000fd5b505050506040513d601f19601f820116820180604052508101906109c69190613df5565b5083600960008282546109d99190613e22565b9250508190555083600860008282546109f29190613e56565b92505081905550610a48333089600760009054906101000a900473ffffffffffffffffffffffffffffffffffffffff1673ffffffffffffffffffffffffffffffffffffffff166123c7909392919063ffffffff16565b86600c60003373ffffffffffffffffffffffffffffffffffffffff1673ffffffffffffffffffffffffffffffffffffffff1681526020019081526020016000206000828254610a979190613e56565b9250508190555086600d60003373ffffffffffffffffffffffffffffffffffffffff1673ffffffffffffffffffffffffffffffffffffffff1681526020019081526020016000206000600460003373ffffffffffffffffffffffffffffffffffffffff1673ffffffffffffffffffffffffffffffffffffffff16815260200190815260200160002060009054906101000a900467ffffffffffffffff1663ffffffff1663ffffffff1681526020019081526020016000208190555085600e60003373ffffffffffffffffffffffffffffffffffffffff1673ffffffffffffffffffffffffffffffffffffffff1681526020019081526020016000206000600460003373ffffffffffffffffffffffffffffffffffffffff1673ffffffffffffffffffffffffffffffffffffffff16815260200190815260200160002060009054906101000a900467ffffffffffffffff1663ffffffff1663ffffffff16815260200190815260200160002060006101000a81548160ff021916908360ff16021790555086600a6000828254610c2c9190613e56565b92505081905550610c3c87611a21565b600b6000828254610c4d9190613e56565b925050819055506000610c608733612450565b90503373ffffffffffffffffffffffffffffffffffffffff167f5af417134f72a9d41143ace85b0a26dce6f550f894f2cbc1eeee8810603d91b68983604051610caa929190613e8a565b60405180910390a2505050505060018081905550505050565b600080600660009054906101000a900473ffffffffffffffffffffffffffffffffffffffff1673ffffffffffffffffffffffffffffffffffffffff16600560009054906101000a900473ffffffffffffffffffffffffffffffffffffffff1673ffffffffffffffffffffffffffffffffffffffff16630dfe16816040518163ffffffff1660e01b8152600401602060405180830381865afa158015610d6c573d6000803e3d6000fd5b505050506040513d601f19601f82011682018060405250810190610d909190613cca565b73ffffffffffffffffffffffffffffffffffffffff161415905060008082610e7757600560009054906101000a900473ffffffffffffffffffffffffffffffffffffffff1673ffffffffffffffffffffffffffffffffffffffff16630902f1ac6040518163ffffffff1660e01b8152600401606060405180830381865afa158015610e1f573d6000803e3d6000fd5b505050506040513d601f19601f82011682018060405250810190610e439190613f0e565b826dffffffffffffffffffffffffffff169250816dffffffffffffffffffffffffffff169150508092508193505050610f38565b600560009054906101000a900473ffffffffffffffffffffffffffffffffffffffff1673ffffffffffffffffffffffffffffffffffffffff16630902f1ac6040518163ffffffff1660e01b8152600401606060405180830381865afa158015610ee4573d6000803e3d6000fd5b505050506040513d601f19601f82011682018060405250810190610f089190613f0e565b826dffffffffffffffffffffffffffff169250816dffffffffffffffffffffffffffff1691505080935081925050505b610f43858383612a51565b9350505050919050565b60085481565b60008083905060018360ff1603610f7f57610f7c603c82610f749190613f61565b6104b0612b0b565b91505b60028360ff1603610fa557610fa2607882610f9a9190613f61565b610190612b0b565b91505b60038360ff1603610fca57610fc760a082610fc09190613f61565b60c8612b0b565b91505b60048360ff1603610ff057610fed61012c82610fe69190613f61565b6064612b0b565b91505b5092915050565b60046020528060005260406000206000915054906101000a900467ffffffffffffffff1681565b6000806000808460ff166000600360003373ffffffffffffffffffffffffffffffffffffffff1673ffffffffffffffffffffffffffffffffffffffff1681526020019081526020016000206000836fffffffffffffffffffffffffffffffff166fffffffffffffffffffffffffffffffff16815260200190815260200160002060009054906101000a90046fffffffffffffffffffffffffffffffff166fffffffffffffffffffffffffffffffff161415801561114a5750600460003373ffffffffffffffffffffffffffffffffffffffff1673ffffffffffffffffffffffffffffffffffffffff16815260200190815260200160002060009054906101000a900467ffffffffffffffff1667ffffffffffffffff16816fffffffffffffffffffffffffffffffff1611155b611189576040517f08c379a000000000000000000000000000000000000000000000000000000000815260040161118090614007565b60405180910390fd5b600360008873ffffffffffffffffffffffffffffffffffffffff1673ffffffffffffffffffffffffffffffffffffffff16815260200190815260200160002060008760ff166fffffffffffffffffffffffffffffffff16815260200190815260200160002060009054906101000a90046fffffffffffffffffffffffffffffffff166fffffffffffffffffffffffffffffffff16945061122c878760ff166121fc565b9350600e60008873ffffffffffffffffffffffffffffffffffffffff1673ffffffffffffffffffffffffffffffffffffffff16815260200190815260200160002060008760ff1663ffffffff16815260200190815260200160002060009054906101000a900460ff1660ff169250600d60008873ffffffffffffffffffffffffffffffffffffffff1673ffffffffffffffffffffffffffffffffffffffff16815260200190815260200160002060008760ff1663ffffffff1681526020019081526020016000205491505092959194509250565b611308612b48565b6113126000612bc6565b565b600760009054906101000a900473ffffffffffffffffffffffffffffffffffffffff1681565b8063ffffffff166000600360003373ffffffffffffffffffffffffffffffffffffffff1673ffffffffffffffffffffffffffffffffffffffff1681526020019081526020016000206000836fffffffffffffffffffffffffffffffff166fffffffffffffffffffffffffffffffff16815260200190815260200160002060009054906101000a90046fffffffffffffffffffffffffffffffff166fffffffffffffffffffffffffffffffff16141580156114635750600460003373ffffffffffffffffffffffffffffffffffffffff1673ffffffffffffffffffffffffffffffffffffffff16815260200190815260200160002060009054906101000a900467ffffffffffffffff1667ffffffffffffffff16816fffffffffffffffffffffffffffffffff1611155b6114a2576040517f08c379a000000000000000000000000000000000000000000000000000000000815260040161149990614007565b60405180910390fd5b8163ffffffff1642600360003373ffffffffffffffffffffffffffffffffffffffff1673ffffffffffffffffffffffffffffffffffffffff1681526020019081526020016000206000836fffffffffffffffffffffffffffffffff166fffffffffffffffffffffffffffffffff16815260200190815260200160002060009054906101000a90046fffffffffffffffffffffffffffffffff166fffffffffffffffffffffffffffffffff161061158d576040517f08c379a000000000000000000000000000000000000000000000000000000000815260040161158490614099565b60405180910390fd5b6002600154036115d2576040517f08c379a00000000000000000000000000000000000000000000000000000000081526004016115c990613b97565b60405180910390fd5b60026001819055506000600d60003373ffffffffffffffffffffffffffffffffffffffff1673ffffffffffffffffffffffffffffffffffffffff16815260200190815260200160002060008563ffffffff1663ffffffff1681526020019081526020016000205490506000600d60003373ffffffffffffffffffffffffffffffffffffffff1673ffffffffffffffffffffffffffffffffffffffff16815260200190815260200160002060008663ffffffff1663ffffffff168152602001908152602001600020819055506000600e60003373ffffffffffffffffffffffffffffffffffffffff1673ffffffffffffffffffffffffffffffffffffffff16815260200190815260200160002060008663ffffffff1663ffffffff16815260200190815260200160002060009054906101000a900460ff16905060006117178383611d3f565b905060008111156117705761176f3382600660009054906101000a900473ffffffffffffffffffffffffffffffffffffffff1673ffffffffffffffffffffffffffffffffffffffff16612c8a9092919063ffffffff16565b5b6117bd3384600760009054906101000a900473ffffffffffffffffffffffffffffffffffffffff1673ffffffffffffffffffffffffffffffffffffffff16612c8a9092919063ffffffff16565b80600860008282546117cf9190613e22565b9250508190555082600a60008282546117e89190613e22565b925050819055506117f883611a21565b600b60008282546118099190613e22565b9250508190555082600c60003373ffffffffffffffffffffffffffffffffffffffff1673ffffffffffffffffffffffffffffffffffffffff168152602001908152602001600020600082825461185f9190613e22565b925050819055506118708633612d10565b3373ffffffffffffffffffffffffffffffffffffffff167ff960dbf9e5d0682f7a298ed974e33a28b4464914b7a2bfac12ae419a9afeb28084836040516118b8929190613e8a565b60405180910390a250505060018081905550505050565b600d602052816000526040600020602052806000526040600020600091509150505481565b60008060009054906101000a900473ffffffffffffffffffffffffffffffffffffffff16905090565b611925612b48565b60008111611968576040517f08c379a000000000000000000000000000000000000000000000000000000000815260040161195f90614105565b60405180910390fd5b6119b7333083600660009054906101000a900473ffffffffffffffffffffffffffffffffffffffff1673ffffffffffffffffffffffffffffffffffffffff166123c7909392919063ffffffff16565b80600960008282546119c99190613e56565b925050819055503373ffffffffffffffffffffffffffffffffffffffff167fc1d32ad5cca423e7dda2123dbf8c482f8e77d00b631c06e903a47f2cec1334df82604051611a1691906136b9565b60405180910390a250565b600080600560009054906101000a900473ffffffffffffffffffffffffffffffffffffffff1673ffffffffffffffffffffffffffffffffffffffff166318160ddd6040518163ffffffff1660e01b8152600401602060405180830381865afa158015611a91573d6000803e3d6000fd5b505050506040513d601f19601f82011682018060405250810190611ab5919061413a565b90506000600660009054906101000a900473ffffffffffffffffffffffffffffffffffffffff1673ffffffffffffffffffffffffffffffffffffffff16600560009054906101000a900473ffffffffffffffffffffffffffffffffffffffff1673ffffffffffffffffffffffffffffffffffffffff16630dfe16816040518163ffffffff1660e01b8152600401602060405180830381865afa158015611b5f573d6000803e3d6000fd5b505050506040513d601f19601f82011682018060405250810190611b839190613cca565b73ffffffffffffffffffffffffffffffffffffffff161415905060008115611c5557600560009054906101000a900473ffffffffffffffffffffffffffffffffffffffff1673ffffffffffffffffffffffffffffffffffffffff16630902f1ac6040518163ffffffff1660e01b8152600401606060405180830381865afa158015611c12573d6000803e3d6000fd5b505050506040513d601f19601f82011682018060405250810190611c369190613f0e565b826dffffffffffffffffffffffffffff16925090505080915050611d02565b600560009054906101000a900473ffffffffffffffffffffffffffffffffffffffff1673ffffffffffffffffffffffffffffffffffffffff16630902f1ac6040518163ffffffff1660e01b8152600401606060405180830381865afa158015611cc2573d6000803e3d6000fd5b505050506040513d601f19601f82011682018060405250810190611ce69190613f0e565b909150816dffffffffffffffffffffffffffff16915050809150505b60008190506000600282611d169190613f61565b90506000611d248287612b0b565b90508088611d329190613f61565b9650505050505050919050565b600080611d4b84611a21565b90506000611d598285610f53565b9050611d6481611f72565b9250505092915050565b60095481565b600560009054906101000a900473ffffffffffffffffffffffffffffffffffffffff1681565b611da2612b48565b60008114611de5576040517f08c379a0000000000000000000000000000000000000000000000000000000008152600401611ddc906141b3565b60405180910390fd5b600954811115611e2a576040517f08c379a0000000000000000000000000000000000000000000000000000000008152600401611e219061421f565b60405180910390fd5b600660009054906101000a900473ffffffffffffffffffffffffffffffffffffffff1673ffffffffffffffffffffffffffffffffffffffff1663a9059cbb33836040518363ffffffff1660e01b8152600401611e8792919061423f565b6020604051808303816000875af1158015611ea6573d6000803e3d6000fd5b505050506040513d601f19601f82011682018060405250810190611eca9190613df5565b508060096000828254611edd9190613e22565b925050819055503373ffffffffffffffffffffffffffffffffffffffff167fc1d32ad5cca423e7dda2123dbf8c482f8e77d00b631c06e903a47f2cec1334df82604051611f2a91906136b9565b60405180910390a250565b600042905090565b600e6020528160005260406000206020528060005260406000206000915091509054906101000a900460ff1681565b600a5481565b600080600660009054906101000a900473ffffffffffffffffffffffffffffffffffffffff1673ffffffffffffffffffffffffffffffffffffffff16600560009054906101000a900473ffffffffffffffffffffffffffffffffffffffff1673ffffffffffffffffffffffffffffffffffffffff16630dfe16816040518163ffffffff1660e01b8152600401602060405180830381865afa15801561201b573d6000803e3d6000fd5b505050506040513d601f19601f8201168201806040525081019061203f9190613cca565b73ffffffffffffffffffffffffffffffffffffffff16149050600080821561212657600560009054906101000a900473ffffffffffffffffffffffffffffffffffffffff1673ffffffffffffffffffffffffffffffffffffffff16630902f1ac6040518163ffffffff1660e01b8152600401606060405180830381865afa1580156120ce573d6000803e3d6000fd5b505050506040513d601f19601f820116820180604052508101906120f29190613f0e565b826dffffffffffffffffffffffffffff169250816dffffffffffffffffffffffffffff1691505080925081935050506121e7565b600560009054906101000a900473ffffffffffffffffffffffffffffffffffffffff1673ffffffffffffffffffffffffffffffffffffffff16630902f1ac6040518163ffffffff1660e01b8152600401606060405180830381865afa158015612193573d6000803e3d6000fd5b505050506040513d601f19601f820116820180604052508101906121b79190613f0e565b826dffffffffffffffffffffffffffff169250816dffffffffffffffffffffffffffff1691505080935081925050505b6121f2858284612a51565b9350505050919050565b600080600d60008573ffffffffffffffffffffffffffffffffffffffff1673ffffffffffffffffffffffffffffffffffffffff16815260200190815260200160002060008463ffffffff1663ffffffff1681526020019081526020016000205490506000600e60008673ffffffffffffffffffffffffffffffffffffffff1673ffffffffffffffffffffffffffffffffffffffff16815260200190815260200160002060008563ffffffff1663ffffffff16815260200190815260200160002060009054906101000a900460ff1690506122d68282611d3f565b9250505092915050565b6122e8612b48565b600073ffffffffffffffffffffffffffffffffffffffff168173ffffffffffffffffffffffffffffffffffffffff1603612357576040517f08c379a000000000000000000000000000000000000000000000000000000000815260040161234e906142da565b60405180910390fd5b61236081612bc6565b50565b60036020528160005260406000206020528060005260406000206000915091509054906101000a90046fffffffffffffffffffffffffffffffff1681565b600660009054906101000a900473ffffffffffffffffffffffffffffffffffffffff1681565b61244a846323b872dd60e01b8585856040516024016123e893929190613d86565b604051602081830303815290604052907bffffffffffffffffffffffffffffffffffffffffffffffffffffffff19166020820180517bffffffffffffffffffffffffffffffffffffffffffffffffffffffff8381831617835250505050613375565b50505050565b60008260ff166000816fffffffffffffffffffffffffffffffff1611801561248b57506004816fffffffffffffffffffffffffffffffff1611155b6124ca576040517f08c379a00000000000000000000000000000000000000000000000000000000081526004016124c190613b2b565b60405180910390fd5b8360ff1660048111156124e0576124df6142fa565b5b600260006101000a81548160ff02191690836004811115612504576125036142fa565b5b02179055506000600460008573ffffffffffffffffffffffffffffffffffffffff1673ffffffffffffffffffffffffffffffffffffffff16815260200190815260200160002060009054906101000a900467ffffffffffffffff1667ffffffffffffffff169050600060016004811115612581576125806142fa565b5b6004811115612593576125926142fa565b5b600260009054906101000a900460ff1660048111156125b5576125b46142fa565b5b036126795762278d00426125c99190613e56565b600360008773ffffffffffffffffffffffffffffffffffffffff1673ffffffffffffffffffffffffffffffffffffffff1681526020019081526020016000206000846fffffffffffffffffffffffffffffffff166fffffffffffffffffffffffffffffffff16815260200190815260200160002060006101000a8154816fffffffffffffffffffffffffffffffff02191690836fffffffffffffffffffffffffffffffff160217905590506129a9565b6002600481111561268d5761268c6142fa565b5b600481111561269f5761269e6142fa565b5b600260009054906101000a900460ff1660048111156126c1576126c06142fa565b5b03612785576276a700426126d59190613e56565b600360008773ffffffffffffffffffffffffffffffffffffffff1673ffffffffffffffffffffffffffffffffffffffff1681526020019081526020016000206000846fffffffffffffffffffffffffffffffff166fffffffffffffffffffffffffffffffff16815260200190815260200160002060006101000a8154816fffffffffffffffffffffffffffffffff02191690836fffffffffffffffffffffffffffffffff160217905590506129a8565b60036004811115612799576127986142fa565b5b60048111156127ab576127aa6142fa565b5b600260009054906101000a900460ff1660048111156127cd576127cc6142fa565b5b0361289e5761a8c062eff100426127e49190613e56565b6127ee9190613e56565b600360008773ffffffffffffffffffffffffffffffffffffffff1673ffffffffffffffffffffffffffffffffffffffff1681526020019081526020016000206000846fffffffffffffffffffffffffffffffff166fffffffffffffffffffffffffffffffff16815260200190815260200160002060006101000a8154816fffffffffffffffffffffffffffffffff02191690836fffffffffffffffffffffffffffffffff160217905590506129a7565b6004808111156128b1576128b06142fa565b5b60048111156128c3576128c26142fa565b5b600260009054906101000a900460ff1660048111156128e5576128e46142fa565b5b036129a6576301e13380426128fa9190613e56565b600360008773ffffffffffffffffffffffffffffffffffffffff1673ffffffffffffffffffffffffffffffffffffffff1681526020019081526020016000206000846fffffffffffffffffffffffffffffffff166fffffffffffffffffffffffffffffffff16815260200190815260200160002060006101000a8154816fffffffffffffffffffffffffffffffff02191690836fffffffffffffffffffffffffffffffff160217905590505b5b5b5b600460008673ffffffffffffffffffffffffffffffffffffffff1673ffffffffffffffffffffffffffffffffffffffff168152602001908152602001600020600081819054906101000a900467ffffffffffffffff1680929190612a0c90614329565b91906101000a81548167ffffffffffffffff021916908367ffffffffffffffff16021790555050806fffffffffffffffffffffffffffffffff16935050505092915050565b6000808411612a95576040517f08c379a0000000000000000000000000000000000000000000000000000000008152600401612a8c906143cb565b60405180910390fd5b600083118015612aa55750600082115b612ae4576040517f08c379a0000000000000000000000000000000000000000000000000000000008152600401612adb9061445d565b60405180910390fd5b82612af8838661343c90919063ffffffff16565b612b029190613d55565b90509392505050565b6000808314612b3d57600182600185612b249190613e22565b612b2e9190613d55565b612b389190613e56565b612b40565b60005b905092915050565b612b50613452565b73ffffffffffffffffffffffffffffffffffffffff16612b6e6118f4565b73ffffffffffffffffffffffffffffffffffffffff1614612bc4576040517f08c379a0000000000000000000000000000000000000000000000000000000008152600401612bbb906144c9565b60405180910390fd5b565b60008060009054906101000a900473ffffffffffffffffffffffffffffffffffffffff169050816000806101000a81548173ffffffffffffffffffffffffffffffffffffffff021916908373ffffffffffffffffffffffffffffffffffffffff1602179055508173ffffffffffffffffffffffffffffffffffffffff168173ffffffffffffffffffffffffffffffffffffffff167f8be0079c531659141344cd1fd0a4f28419497f9722a3daafe3b4186f6b6457e060405160405180910390a35050565b612d0b8363a9059cbb60e01b8484604051602401612ca992919061423f565b604051602081830303815290604052907bffffffffffffffffffffffffffffffffffffffffffffffffffffffff19166020820180517bffffffffffffffffffffffffffffffffffffffffffffffffffffffff8381831617835250505050613375565b505050565b60008290505b600460008373ffffffffffffffffffffffffffffffffffffffff1673ffffffffffffffffffffffffffffffffffffffff16815260200190815260200160002060009054906101000a900467ffffffffffffffff1667ffffffffffffffff168163ffffffff16101561307657600e60003373ffffffffffffffffffffffffffffffffffffffff1673ffffffffffffffffffffffffffffffffffffffff1681526020019081526020016000206000600183612dcf91906144e9565b63ffffffff1663ffffffff16815260200190815260200160002060009054906101000a900460ff16600e60003373ffffffffffffffffffffffffffffffffffffffff1673ffffffffffffffffffffffffffffffffffffffff16815260200190815260200160002060008363ffffffff1663ffffffff16815260200190815260200160002060006101000a81548160ff021916908360ff160217905550600d60003373ffffffffffffffffffffffffffffffffffffffff1673ffffffffffffffffffffffffffffffffffffffff1681526020019081526020016000206000600183612eb991906144e9565b63ffffffff1663ffffffff16815260200190815260200160002054600d60003373ffffffffffffffffffffffffffffffffffffffff1673ffffffffffffffffffffffffffffffffffffffff16815260200190815260200160002060008363ffffffff1663ffffffff16815260200190815260200160002081905550600360003373ffffffffffffffffffffffffffffffffffffffff1673ffffffffffffffffffffffffffffffffffffffff1681526020019081526020016000206000600183612f8291906144e9565b63ffffffff166fffffffffffffffffffffffffffffffff16815260200190815260200160002060009054906101000a90046fffffffffffffffffffffffffffffffff16600360003373ffffffffffffffffffffffffffffffffffffffff1673ffffffffffffffffffffffffffffffffffffffff16815260200190815260200160002060008363ffffffff166fffffffffffffffffffffffffffffffff16815260200190815260200160002060006101000a8154816fffffffffffffffffffffffffffffffff02191690836fffffffffffffffffffffffffffffffff160217905550808061306e90614521565b915050612d16565b506000600d60003373ffffffffffffffffffffffffffffffffffffffff1673ffffffffffffffffffffffffffffffffffffffff1681526020019081526020016000206000600460008573ffffffffffffffffffffffffffffffffffffffff1673ffffffffffffffffffffffffffffffffffffffff16815260200190815260200160002060009054906101000a900467ffffffffffffffff1663ffffffff1663ffffffff168152602001908152602001600020819055506000600e60003373ffffffffffffffffffffffffffffffffffffffff1673ffffffffffffffffffffffffffffffffffffffff1681526020019081526020016000206000600460008573ffffffffffffffffffffffffffffffffffffffff1673ffffffffffffffffffffffffffffffffffffffff16815260200190815260200160002060009054906101000a900467ffffffffffffffff1663ffffffff1663ffffffff16815260200190815260200160002060006101000a81548160ff021916908360ff1602179055506000600360003373ffffffffffffffffffffffffffffffffffffffff1673ffffffffffffffffffffffffffffffffffffffff1681526020019081526020016000206000600460008573ffffffffffffffffffffffffffffffffffffffff1673ffffffffffffffffffffffffffffffffffffffff16815260200190815260200160002060009054906101000a900467ffffffffffffffff1663ffffffff166fffffffffffffffffffffffffffffffff16815260200190815260200160002060006101000a8154816fffffffffffffffffffffffffffffffff02191690836fffffffffffffffffffffffffffffffff1602179055506001600460008373ffffffffffffffffffffffffffffffffffffffff1673ffffffffffffffffffffffffffffffffffffffff16815260200190815260200160002060008282829054906101000a900467ffffffffffffffff1661334b919061454d565b92506101000a81548167ffffffffffffffff021916908367ffffffffffffffff1602179055505050565b60006133d7826040518060400160405280602081526020017f5361666545524332303a206c6f772d6c6576656c2063616c6c206661696c65648152508573ffffffffffffffffffffffffffffffffffffffff1661345a9092919063ffffffff16565b905060008151111561343757808060200190518101906133f79190613df5565b613436576040517f08c379a000000000000000000000000000000000000000000000000000000000815260040161342d906145fb565b60405180910390fd5b5b505050565b6000818361344a9190613f61565b905092915050565b600033905090565b60606134698484600085613472565b90509392505050565b6060824710156134b7576040517f08c379a00000000000000000000000000000000000000000000000000000000081526004016134ae9061468d565b60405180910390fd5b6134c085613586565b6134ff576040517f08c379a00000000000000000000000000000000000000000000000000000000081526004016134f6906146f9565b60405180910390fd5b6000808673ffffffffffffffffffffffffffffffffffffffff168587604051613528919061478a565b60006040518083038185875af1925050503d8060008114613565576040519150601f19603f3d011682016040523d82523d6000602084013e61356a565b606091505b509150915061357a8282866135a9565b92505050949350505050565b6000808273ffffffffffffffffffffffffffffffffffffffff163b119050919050565b606083156135b957829050613609565b6000835111156135cc5782518084602001fd5b816040517f08c379a000000000000000000000000000000000000000000000000000000000815260040161360091906147f6565b60405180910390fd5b9392505050565b600080fd5b600073ffffffffffffffffffffffffffffffffffffffff82169050919050565b600061364082613615565b9050919050565b61365081613635565b811461365b57600080fd5b50565b60008135905061366d81613647565b92915050565b60006020828403121561368957613688613610565b5b60006136978482850161365e565b91505092915050565b6000819050919050565b6136b3816136a0565b82525050565b60006020820190506136ce60008301846136aa565b92915050565b6136dd816136a0565b81146136e857600080fd5b50565b6000813590506136fa816136d4565b92915050565b600060ff82169050919050565b61371681613700565b811461372157600080fd5b50565b6000813590506137338161370d565b92915050565b600080604083850312156137505761374f613610565b5b600061375e858286016136eb565b925050602061376f85828601613724565b9150509250929050565b60006020828403121561378f5761378e613610565b5b600061379d848285016136eb565b91505092915050565b600067ffffffffffffffff82169050919050565b6137c3816137a6565b82525050565b60006020820190506137de60008301846137ba565b92915050565b600080604083850312156137fb576137fa613610565b5b60006138098582860161365e565b925050602061381a85828601613724565b9150509250929050565b600060808201905061383960008301876136aa565b61384660208301866136aa565b61385360408301856136aa565b61386060608301846136aa565b95945050505050565b6000819050919050565b600061388e61388961388484613615565b613869565b613615565b9050919050565b60006138a082613873565b9050919050565b60006138b282613895565b9050919050565b6138c2816138a7565b82525050565b60006020820190506138dd60008301846138b9565b92915050565b600063ffffffff82169050919050565b6138fc816138e3565b811461390757600080fd5b50565b600081359050613919816138f3565b92915050565b60006020828403121561393557613934613610565b5b60006139438482850161390a565b91505092915050565b6000806040838503121561396357613962613610565b5b60006139718582860161365e565b92505060206139828582860161390a565b9150509250929050565b61399581613635565b82525050565b60006020820190506139b0600083018461398c565b92915050565b60006139c182613895565b9050919050565b6139d1816139b6565b82525050565b60006020820190506139ec60008301846139c8565b92915050565b6139fb81613700565b82525050565b6000602082019050613a1660008301846139f2565b92915050565b60006fffffffffffffffffffffffffffffffff82169050919050565b613a4181613a1c565b8114613a4c57600080fd5b50565b600081359050613a5e81613a38565b92915050565b60008060408385031215613a7b57613a7a613610565b5b6000613a898582860161365e565b9250506020613a9a85828601613a4f565b9150509250929050565b613aad81613a1c565b82525050565b6000602082019050613ac86000830184613aa4565b92915050565b600082825260208201905092915050565b7f77726f6e672043686f6973652121210000000000000000000000000000000000600082015250565b6000613b15600f83613ace565b9150613b2082613adf565b602082019050919050565b60006020820190508181036000830152613b4481613b08565b9050919050565b7f5265656e7472616e637947756172643a207265656e7472616e742063616c6c00600082015250565b6000613b81601f83613ace565b9150613b8c82613b4b565b602082019050919050565b60006020820190508181036000830152613bb081613b74565b9050919050565b7f43616e6e6f74207374616b652030000000000000000000000000000000000000600082015250565b6000613bed600e83613ace565b9150613bf882613bb7565b602082019050919050565b60006020820190508181036000830152613c1c81613be0565b9050919050565b7f6f776e65722068617665206e6f7420656e6f7567682062756c6320746f20706160008201527f7921000000000000000000000000000000000000000000000000000000000000602082015250565b6000613c7f602283613ace565b9150613c8a82613c23565b604082019050919050565b60006020820190508181036000830152613cae81613c72565b9050919050565b600081519050613cc481613647565b92915050565b600060208284031215613ce057613cdf613610565b5b6000613cee84828501613cb5565b91505092915050565b7f4e487b7100000000000000000000000000000000000000000000000000000000600052601260045260246000fd5b7f4e487b7100000000000000000000000000000000000000000000000000000000600052601160045260246000fd5b6000613d60826136a0565b9150613d6b836136a0565b925082613d7b57613d7a613cf7565b5b828204905092915050565b6000606082019050613d9b600083018661398c565b613da8602083018561398c565b613db560408301846136aa565b949350505050565b60008115159050919050565b613dd281613dbd565b8114613ddd57600080fd5b50565b600081519050613def81613dc9565b92915050565b600060208284031215613e0b57613e0a613610565b5b6000613e1984828501613de0565b91505092915050565b6000613e2d826136a0565b9150613e38836136a0565b9250828203905081811115613e5057613e4f613d26565b5b92915050565b6000613e61826136a0565b9150613e6c836136a0565b9250828201905080821115613e8457613e83613d26565b5b92915050565b6000604082019050613e9f60008301856136aa565b613eac60208301846136aa565b9392505050565b60006dffffffffffffffffffffffffffff82169050919050565b613ed681613eb3565b8114613ee157600080fd5b50565b600081519050613ef381613ecd565b92915050565b600081519050613f08816138f3565b92915050565b600080600060608486031215613f2757613f26613610565b5b6000613f3586828701613ee4565b9350506020613f4686828701613ee4565b9250506040613f5786828701613ef9565b9150509250925092565b6000613f6c826136a0565b9150613f77836136a0565b9250817fffffffffffffffffffffffffffffffffffffffffffffffffffffffffffffffff0483118215151615613fb057613faf613d26565b5b828202905092915050565b7f7468697320706f736974696f6e20646f7365206e6f7420657869737421000000600082015250565b6000613ff1601d83613ace565b9150613ffc82613fbb565b602082019050919050565b6000602082019050818103600083015261402081613fe4565b9050919050565b7f74686973207374616b6520706f736974696f6e20646f7365206e6f7420656e6460008201527f2079657421212100000000000000000000000000000000000000000000000000602082015250565b6000614083602783613ace565b915061408e82614027565b604082019050919050565b600060208201905081810360008301526140b281614076565b9050919050565b7f43616e6e6f742064697374726962757465203000000000000000000000000000600082015250565b60006140ef601383613ace565b91506140fa826140b9565b602082019050919050565b6000602082019050818103600083015261411e816140e2565b9050919050565b600081519050614134816136d4565b92915050565b6000602082840312156141505761414f613610565b5b600061415e84828501614125565b91505092915050565b7f3020616d6f756e74000000000000000000000000000000000000000000000000600082015250565b600061419d600883613ace565b91506141a882614167565b602082019050919050565b600060208201905081810360008301526141cc81614190565b9050919050565b7f796f752063616e207769746472617720726577617264467265657a6400000000600082015250565b6000614209601c83613ace565b9150614214826141d3565b602082019050919050565b60006020820190508181036000830152614238816141fc565b9050919050565b6000604082019050614254600083018561398c565b61426160208301846136aa565b9392505050565b7f4f776e61626c653a206e6577206f776e657220697320746865207a65726f206160008201527f6464726573730000000000000000000000000000000000000000000000000000602082015250565b60006142c4602683613ace565b91506142cf82614268565b604082019050919050565b600060208201905081810360008301526142f3816142b7565b9050919050565b7f4e487b7100000000000000000000000000000000000000000000000000000000600052602160045260246000fd5b6000614334826137a6565b915067ffffffffffffffff820361434e5761434d613d26565b5b600182019050919050565b7f42756c6c436f696e4c6962726172793a20494e53554646494349454e545f414d60008201527f4f554e5400000000000000000000000000000000000000000000000000000000602082015250565b60006143b5602483613ace565b91506143c082614359565b604082019050919050565b600060208201905081810360008301526143e4816143a8565b9050919050565b7f42756c6c436f696e4c6962726172793a20494e53554646494349454e545f4c4960008201527f5155494449545900000000000000000000000000000000000000000000000000602082015250565b6000614447602783613ace565b9150614452826143eb565b604082019050919050565b600060208201905081810360008301526144768161443a565b9050919050565b7f4f776e61626c653a2063616c6c6572206973206e6f7420746865206f776e6572600082015250565b60006144b3602083613ace565b91506144be8261447d565b602082019050919050565b600060208201905081810360008301526144e2816144a6565b9050919050565b60006144f4826138e3565b91506144ff836138e3565b9250828201905063ffffffff81111561451b5761451a613d26565b5b92915050565b600061452c826138e3565b915063ffffffff820361454257614541613d26565b5b600182019050919050565b6000614558826137a6565b9150614563836137a6565b9250828203905067ffffffffffffffff81111561458357614582613d26565b5b92915050565b7f5361666545524332303a204552433230206f7065726174696f6e20646964206e60008201527f6f74207375636365656400000000000000000000000000000000000000000000602082015250565b60006145e5602a83613ace565b91506145f082614589565b604082019050919050565b60006020820190508181036000830152614614816145d8565b9050919050565b7f416464726573733a20696e73756666696369656e742062616c616e636520666f60008201527f722063616c6c0000000000000000000000000000000000000000000000000000602082015250565b6000614677602683613ace565b91506146828261461b565b604082019050919050565b600060208201905081810360008301526146a68161466a565b9050919050565b7f416464726573733a2063616c6c20746f206e6f6e2d636f6e7472616374000000600082015250565b60006146e3601d83613ace565b91506146ee826146ad565b602082019050919050565b60006020820190508181036000830152614712816146d6565b9050919050565b600081519050919050565b600081905092915050565b60005b8381101561474d578082015181840152602081019050614732565b60008484015250505050565b600061476482614719565b61476e8185614724565b935061477e81856020860161472f565b80840191505092915050565b60006147968284614759565b915081905092915050565b600081519050919050565b6000601f19601f8301169050919050565b60006147c8826147a1565b6147d28185613ace565b93506147e281856020860161472f565b6147eb816147ac565b840191505092915050565b6000602082019050818103600083015261481081846147bd565b90509291505056fea26469706673582212207399007fb77c2a611ef81aac706a53354029a027d51f2c3277098f07992fbbe564736f6c63430008100033",
  "immutableReferences": {},
  "source": "// SPDX-License-Identifier: MIT\r\npragma solidity ^0.8.0;\r\n\r\nimport \"@uniswap/v2-core/contracts/interfaces/IUniswapV2Pair.sol\";\r\nimport \"./libraries/BullCoinLibrary.sol\";\r\nimport \"@openzeppelin/contracts/token/ERC20/IERC20.sol\";\r\nimport \"@openzeppelin/contracts/token/ERC20/utils/SafeERC20.sol\";\r\nimport \"@openzeppelin/contracts/access/Ownable.sol\";\r\nimport \"@openzeppelin/contracts/security/ReentrancyGuard.sol\";\r\nimport \"@openzeppelin/contracts/utils/math/Math.sol\";\r\n import \"./Deadline.sol\";\r\n\r\ncontract Staking is Ownable, ReentrancyGuard, Deadline {\r\n    using SafeERC20 for IERC20;\r\n\r\n    /* ========== STATE VARIABLES ========== */\r\n    IUniswapV2Pair public pair; //PAIR ADDRESS\r\n    IERC20 public rewardToken; //REWARD TOKEN ADDRESS\r\n    IERC20 public stakingToken; //LP TOKEN ADDRESS\r\n\r\n    uint256 public StakedRewardFreezed = 0; //FREEZED STAKE REWARD\r\n    uint256 public StakedReward; //FREE STAKE REWAED\r\n    uint256 public totalValueLockLPToken; // LP TOKEN LOCKED\r\n    uint256 public totalValueLockBUSD; //LP TOKEN LOCKED PER BUSD\r\n    mapping(address => uint256) public AllStakedBalance; // stake = {};\r\n    mapping(address => mapping(uint32 => uint256)) public stakedBalance; // stake = {};\r\n    mapping(address => mapping(uint32 => uint8)) public stakedChoise; // choise = {};\r\n\r\n    event Stake(address indexed user, uint256 amount, uint256 endTime);\r\n    event Unstake(address indexed user, uint256 amount, uint256 reward);\r\n    event Distribute(address indexed user, uint256 reward);\r\n\r\n    constructor(address _stakingToken, address _rewardToken) {\r\n        /* ======= PAIR AND LPTOKEN HAVE SAVE ADDRESSES ======= */\r\n        pair = IUniswapV2Pair(_stakingToken); //PAIR ADDRESS\r\n        stakingToken = IERC20(_stakingToken); //LP TOKEN ADDRESS\r\n        rewardToken = IERC20(_rewardToken); //REWARD ADDRESS\r\n    }\r\n\r\n    /* ========== FUNCTIONS ========== */\r\n\r\n    function calculateAmountBulc(uint256 _amountBusd)\r\n        public\r\n        view\r\n        returns (uint256)\r\n    {\r\n        bool trueToken = (pair.token0() == address(rewardToken)); //CHECK WHICH TOKEN ADDRESS IS REWARD ADDRESS\r\n\r\n        uint256 reserveBulc; //REWARD ADDRESS\r\n        uint256 reserveBusd; //FEE TOKEN ADDRESS\r\n        if (trueToken) {\r\n            (reserveBulc, reserveBusd, ) = pair.getReserves(); //GET RESERVES\r\n        } else {\r\n            (reserveBusd, reserveBulc, ) = pair.getReserves(); //GET RESERVES\r\n        }\r\n        return BullCoinLibrary.quote(_amountBusd, reserveBusd, reserveBulc);\r\n    }\r\n\r\n    function calculateAmountBusd(uint256 _BulcAmount)\r\n        public\r\n        view\r\n        returns (uint256)\r\n    {\r\n        bool trueToken = (pair.token0() != address(rewardToken)); //CHECK WHICH ADDRESS IS NOT REWARD ADDRESS\r\n\r\n        uint256 reserveBulc; //REWARD TOKEN ADDRESS\r\n        uint256 reserveBusd; //FEE TOKEN ADDRESS\r\n        if (!trueToken) {\r\n            (reserveBulc, reserveBusd, ) = pair.getReserves(); //GET RESERVES\r\n        } else {\r\n            (reserveBusd, reserveBulc, ) = pair.getReserves(); //GET RESERVES\r\n        }\r\n        return BullCoinLibrary.quote(_BulcAmount, reserveBulc, reserveBusd);\r\n    }\r\n\r\n    function calculateValue(uint256 _LpTokenAmount)\r\n        public\r\n        view\r\n        returns (uint256 valueLpPerBusd)\r\n    {\r\n        uint256 LPBalancePair = pair.totalSupply(); //\r\n        bool trueToken = (pair.token0() != address(rewardToken));\r\n        uint256 BusdAmount;\r\n\r\n        if (trueToken) {\r\n            (BusdAmount, , ) = pair.getReserves();\r\n        } else {\r\n            (, BusdAmount, ) = pair.getReserves();\r\n        }\r\n        uint256 BusdBalancePair = BusdAmount;\r\n\r\n        uint256 pairValue = BusdBalancePair * 2;\r\n        uint256 LpTokenPerBusdValue = Math.ceilDiv(pairValue, LPBalancePair);\r\n        valueLpPerBusd = _LpTokenAmount * LpTokenPerBusdValue;\r\n    }\r\n\r\n    function calculatePermit(uint256 amount_, uint8 choice_)\r\n        public\r\n        pure\r\n        returns (uint256 exactAmount)\r\n    {\r\n        uint256 amount = amount_; //GAS SAVING\r\n\r\n        if (choice_ == 1) {\r\n            exactAmount = Math.ceilDiv((amount * 60), (12 * 100)); //60APR\r\n        }\r\n        if (choice_ == 2) {\r\n            exactAmount = Math.ceilDiv((amount * 120), (4 * 100)); //120APR\r\n        }\r\n        if (choice_ == 3) {\r\n            exactAmount = Math.ceilDiv((amount * 160), (2 * 100)); //160APR\r\n        }\r\n        if (choice_ == 4) {\r\n            exactAmount = Math.ceilDiv((amount * 300), 100); //300APR\r\n        }\r\n    }\r\n\r\n    function calculate(uint256 _LPamount, uint8 choice)\r\n        public\r\n        view\r\n        returns (uint256 permitPerBulc)\r\n    {\r\n        uint256 BusdAmount = calculateValue(_LPamount);\r\n        uint256 permitPerBusd = calculatePermit(BusdAmount, choice);\r\n        permitPerBulc = calculateAmountBulc(permitPerBusd);\r\n    }\r\n\r\n    function stake(uint256 _amount, uint8 _Choise)\r\n        external\r\n        checkChoice(_Choise)\r\n        nonReentrant\r\n    {\r\n        require(_amount > 0, \"Cannot stake 0\");\r\n        uint256 lock = calculate(_amount, _Choise);\r\n        require(StakedReward > lock, \"owner have not enough bulc to pay!\");\r\n        IERC20 Busd;\r\n        bool trueToken = (pair.token0() != address(rewardToken));\r\n        if (trueToken) {\r\n            Busd = IERC20(pair.token0());\r\n        } else {\r\n            Busd = IERC20(pair.token1());\r\n        }\r\n\r\n        uint256 fee = calculateValue(_amount) / 100;\r\n        Busd.transferFrom(msg.sender, owner(), fee);\r\n        StakedReward -= lock;\r\n        StakedRewardFreezed += lock;\r\n        stakingToken.safeTransferFrom(msg.sender, address(this), _amount);\r\n        AllStakedBalance[msg.sender] += _amount; // stake[address] = amount;\r\n        stakedBalance[msg.sender][uint32(positions[msg.sender])] = _amount; // stake[address] = amount;\r\n        stakedChoise[msg.sender][uint32(positions[msg.sender])] = _Choise;\r\n        totalValueLockLPToken += _amount; // T = T + amount;\r\n        totalValueLockBUSD += calculateValue(_amount);\r\n        uint256 endTime = stakeFor(_Choise, msg.sender);\r\n        emit Stake(msg.sender, _amount, endTime);\r\n    }\r\n\r\n    function unstake(uint32 position)\r\n        external\r\n        isExist(position)\r\n        isDone(position)\r\n        nonReentrant\r\n    {\r\n        uint256 deposited = stakedBalance[msg.sender][position]; // deposited = stake[address];\r\n        stakedBalance[msg.sender][position] = 0; // stake[address] = 0;\r\n\r\n        uint8 choise = stakedChoise[msg.sender][position];\r\n        uint256 reward = calculate(deposited, choise);\r\n\r\n        if (reward > 0) {\r\n            rewardToken.safeTransfer(msg.sender, reward);\r\n        }\r\n        stakingToken.safeTransfer(msg.sender, deposited);\r\n\r\n        StakedRewardFreezed -= reward;\r\n        totalValueLockLPToken -= deposited; // T = T - deposited;\r\n        totalValueLockBUSD -= calculateValue(deposited);\r\n\r\n        AllStakedBalance[msg.sender] -= deposited; // stake[address] - deposited ;\r\n        update(position, msg.sender); //update positions\r\n\r\n        emit Unstake(msg.sender, deposited, reward);\r\n    }\r\n\r\n    function distribute(uint256 _reward) external onlyOwner {\r\n        require(_reward > 0, \"Cannot distribute 0\");\r\n\r\n        rewardToken.safeTransferFrom(msg.sender, address(this), _reward);\r\n        StakedReward += _reward;\r\n        emit Distribute(msg.sender, _reward);\r\n    }\r\n\r\n    function witdraw(uint256 rewardTokenAmount) external onlyOwner {\r\n        require(rewardTokenAmount == 0, \"0 amount\");\r\n        require(\r\n            rewardTokenAmount <= StakedReward,\r\n            \"you can witdraw rewardFreezd\"\r\n        );\r\n        rewardToken.transfer(msg.sender, rewardTokenAmount);\r\n        StakedReward -= rewardTokenAmount;\r\n        emit Distribute(msg.sender, rewardTokenAmount);\r\n    }\r\n\r\n    function rewardOf(address _account, uint32 position)\r\n        public\r\n        view\r\n        returns (uint256)\r\n    {\r\n        uint256 deposited = stakedBalance[_account][position];\r\n        uint8 choice = stakedChoise[_account][position];\r\n        return calculate(deposited, choice);\r\n    }\r\n\r\n    function update(uint32 position_, address sender) internal {\r\n        for (uint32 i = position_; i < positions[sender]; i++) {\r\n            stakedChoise[msg.sender][i] = stakedChoise[msg.sender][i + 1];\r\n            stakedBalance[msg.sender][i] = stakedBalance[msg.sender][i + 1];\r\n            luckTime[msg.sender][i] = luckTime[msg.sender][i + 1];\r\n        }\r\n        stakedBalance[msg.sender][uint32(positions[sender])] = 0;\r\n        stakedChoise[msg.sender][uint32(positions[sender])] = 0;\r\n        luckTime[msg.sender][uint32(positions[sender])] = 0;\r\n        positions[sender] -= 1;\r\n    }\r\n\r\n    function getAll(address sender_, uint8 position)\r\n        external\r\n        view\r\n        isExist(position)\r\n        returns (\r\n            uint256 deadLine,\r\n            uint256 reward,\r\n            uint256 choise,\r\n            uint256 LPTokenBalnce\r\n        )\r\n    {\r\n        deadLine = luckTime[sender_][position];\r\n        reward = rewardOf(sender_, position);\r\n        choise = stakedChoise[sender_][position];\r\n        LPTokenBalnce = stakedBalance[sender_][position];\r\n    }\r\n}\r\n",
  "sourcePath": "F:\\github\\bullcoinSwap\\contracts\\Staking.sol",
  "compiler": {
    "name": "solc",
    "version": "0.8.16+commit.07a7930e.Emscripten.clang"
  },
  "schemaVersion": "3.4.8",
  "updatedAt": "2022-08-16T09:38:21.488Z",
  "devdoc": {
    "kind": "dev",
    "methods": {
      "owner()": {
        "details": "Returns the address of the current owner."
      },
      "renounceOwnership()": {
        "details": "Leaves the contract without owner. It will not be possible to call `onlyOwner` functions anymore. Can only be called by the current owner. NOTE: Renouncing ownership will leave the contract without an owner, thereby removing any functionality that is only available to the owner."
      },
      "transferOwnership(address)": {
        "details": "Transfers ownership of the contract to a new account (`newOwner`). Can only be called by the current owner."
      }
    },
    "version": 1
  },
  "userdoc": {
    "kind": "user",
    "methods": {},
    "version": 1
  }
}