{
  "contractName": "Staking",
  "abi": [
    {
      "inputs": [
        {
          "internalType": "address",
          "name": "_stakingToken",
          "type": "address"
        },
        {
          "internalType": "address",
          "name": "_rewardToken",
          "type": "address"
        }
      ],
      "stateMutability": "nonpayable",
      "type": "constructor"
    },
    {
      "anonymous": false,
      "inputs": [
        {
          "indexed": true,
          "internalType": "address",
          "name": "previousOwner",
          "type": "address"
        },
        {
          "indexed": true,
          "internalType": "address",
          "name": "newOwner",
          "type": "address"
        }
      ],
      "name": "OwnershipTransferred",
      "type": "event"
    },
    {
      "anonymous": false,
      "inputs": [
        {
          "indexed": false,
          "internalType": "address",
          "name": "user",
          "type": "address"
        },
        {
          "indexed": false,
          "internalType": "uint256",
          "name": "reward",
          "type": "uint256"
        }
      ],
      "name": "SetReward",
      "type": "event"
    },
    {
      "anonymous": false,
      "inputs": [
        {
          "indexed": true,
          "internalType": "address",
          "name": "user",
          "type": "address"
        },
        {
          "indexed": false,
          "internalType": "uint256",
          "name": "amount",
          "type": "uint256"
        },
        {
          "indexed": false,
          "internalType": "uint256",
          "name": "endTime",
          "type": "uint256"
        }
      ],
      "name": "Stake",
      "type": "event"
    },
    {
      "anonymous": false,
      "inputs": [
        {
          "indexed": true,
          "internalType": "address",
          "name": "user",
          "type": "address"
        },
        {
          "indexed": false,
          "internalType": "uint256",
          "name": "amountStaked",
          "type": "uint256"
        },
        {
          "indexed": false,
          "internalType": "uint256",
          "name": "shares",
          "type": "uint256"
        }
      ],
      "name": "Unstake",
      "type": "event"
    },
    {
      "anonymous": false,
      "inputs": [
        {
          "indexed": true,
          "internalType": "address",
          "name": "user",
          "type": "address"
        },
        {
          "indexed": false,
          "internalType": "uint256",
          "name": "reward",
          "type": "uint256"
        }
      ],
      "name": "rewardAmount",
      "type": "event"
    },
    {
      "inputs": [],
      "name": "LpBalanceOfMonth",
      "outputs": [
        {
          "internalType": "uint256",
          "name": "",
          "type": "uint256"
        }
      ],
      "stateMutability": "view",
      "type": "function"
    },
    {
      "inputs": [],
      "name": "StakedReward",
      "outputs": [
        {
          "internalType": "uint256",
          "name": "",
          "type": "uint256"
        }
      ],
      "stateMutability": "view",
      "type": "function"
    },
    {
      "inputs": [
        {
          "internalType": "uint256",
          "name": "",
          "type": "uint256"
        }
      ],
      "name": "allRewards",
      "outputs": [
        {
          "internalType": "uint256",
          "name": "",
          "type": "uint256"
        }
      ],
      "stateMutability": "view",
      "type": "function"
    },
    {
      "inputs": [],
      "name": "allStakedBalance",
      "outputs": [
        {
          "internalType": "uint256",
          "name": "",
          "type": "uint256"
        }
      ],
      "stateMutability": "view",
      "type": "function"
    },
    {
      "inputs": [
        {
          "internalType": "uint256",
          "name": "",
          "type": "uint256"
        }
      ],
      "name": "allStakedBalances",
      "outputs": [
        {
          "internalType": "uint256",
          "name": "",
          "type": "uint256"
        }
      ],
      "stateMutability": "view",
      "type": "function"
    },
    {
      "inputs": [],
      "name": "endStakeTimestamp",
      "outputs": [
        {
          "internalType": "uint256",
          "name": "",
          "type": "uint256"
        }
      ],
      "stateMutability": "view",
      "type": "function"
    },
    {
      "inputs": [],
      "name": "endWitdrawTimestamp",
      "outputs": [
        {
          "internalType": "uint256",
          "name": "",
          "type": "uint256"
        }
      ],
      "stateMutability": "view",
      "type": "function"
    },
    {
      "inputs": [
        {
          "internalType": "uint256",
          "name": "",
          "type": "uint256"
        }
      ],
      "name": "endWitdrawTimestamps",
      "outputs": [
        {
          "internalType": "uint256",
          "name": "",
          "type": "uint256"
        }
      ],
      "stateMutability": "view",
      "type": "function"
    },
    {
      "inputs": [],
      "name": "lastEndStake",
      "outputs": [
        {
          "internalType": "uint256",
          "name": "",
          "type": "uint256"
        }
      ],
      "stateMutability": "view",
      "type": "function"
    },
    {
      "inputs": [],
      "name": "owner",
      "outputs": [
        {
          "internalType": "address",
          "name": "",
          "type": "address"
        }
      ],
      "stateMutability": "view",
      "type": "function"
    },
    {
      "inputs": [],
      "name": "renounceOwnership",
      "outputs": [],
      "stateMutability": "nonpayable",
      "type": "function"
    },
    {
      "inputs": [],
      "name": "rewardToken",
      "outputs": [
        {
          "internalType": "contract IERC20",
          "name": "",
          "type": "address"
        }
      ],
      "stateMutability": "view",
      "type": "function"
    },
    {
      "inputs": [
        {
          "internalType": "address",
          "name": "",
          "type": "address"
        }
      ],
      "name": "stakedBalance",
      "outputs": [
        {
          "internalType": "uint256",
          "name": "",
          "type": "uint256"
        }
      ],
      "stateMutability": "view",
      "type": "function"
    },
    {
      "inputs": [],
      "name": "stakingToken",
      "outputs": [
        {
          "internalType": "contract IERC20",
          "name": "",
          "type": "address"
        }
      ],
      "stateMutability": "view",
      "type": "function"
    },
    {
      "inputs": [],
      "name": "startStakeTimestamp",
      "outputs": [
        {
          "internalType": "uint256",
          "name": "",
          "type": "uint256"
        }
      ],
      "stateMutability": "view",
      "type": "function"
    },
    {
      "inputs": [],
      "name": "startWitdrawTimestamp",
      "outputs": [
        {
          "internalType": "uint256",
          "name": "",
          "type": "uint256"
        }
      ],
      "stateMutability": "view",
      "type": "function"
    },
    {
      "inputs": [],
      "name": "timeSet",
      "outputs": [
        {
          "internalType": "bool",
          "name": "",
          "type": "bool"
        }
      ],
      "stateMutability": "view",
      "type": "function"
    },
    {
      "inputs": [
        {
          "internalType": "address",
          "name": "newOwner",
          "type": "address"
        }
      ],
      "name": "transferOwnership",
      "outputs": [],
      "stateMutability": "nonpayable",
      "type": "function"
    },
    {
      "inputs": [
        {
          "internalType": "address",
          "name": "sender",
          "type": "address"
        }
      ],
      "name": "showReward",
      "outputs": [
        {
          "internalType": "uint256",
          "name": "rewards",
          "type": "uint256"
        }
      ],
      "stateMutability": "view",
      "type": "function"
    },
    {
      "inputs": [
        {
          "internalType": "address",
          "name": "sender",
          "type": "address"
        }
      ],
      "name": "getReward",
      "outputs": [
        {
          "internalType": "uint256",
          "name": "shares",
          "type": "uint256"
        }
      ],
      "stateMutability": "nonpayable",
      "type": "function"
    },
    {
      "inputs": [
        {
          "internalType": "uint256",
          "name": "_amount",
          "type": "uint256"
        }
      ],
      "name": "stake",
      "outputs": [],
      "stateMutability": "nonpayable",
      "type": "function"
    },
    {
      "inputs": [],
      "name": "unstake",
      "outputs": [],
      "stateMutability": "nonpayable",
      "type": "function"
    },
    {
      "inputs": [
        {
          "internalType": "uint256",
          "name": "_reward",
          "type": "uint256"
        }
      ],
      "name": "setReward",
      "outputs": [],
      "stateMutability": "nonpayable",
      "type": "function"
    },
    {
      "inputs": [
        {
          "internalType": "uint256",
          "name": "_reward",
          "type": "uint256"
        }
      ],
      "name": "addReward",
      "outputs": [],
      "stateMutability": "nonpayable",
      "type": "function"
    },
    {
      "inputs": [],
      "name": "setStake",
      "outputs": [],
      "stateMutability": "nonpayable",
      "type": "function"
    },
    {
      "inputs": [],
      "name": "setWitdraw",
      "outputs": [],
      "stateMutability": "nonpayable",
      "type": "function"
    },
    {
      "inputs": [
        {
          "internalType": "uint256",
          "name": "amount",
          "type": "uint256"
        }
      ],
      "name": "witdrawOwnerLP",
      "outputs": [],
      "stateMutability": "nonpayable",
      "type": "function"
    },
    {
      "inputs": [
        {
          "internalType": "uint256",
          "name": "amount",
          "type": "uint256"
        }
      ],
      "name": "witdrawOwnerReward",
      "outputs": [],
      "stateMutability": "nonpayable",
      "type": "function"
    },
    {
      "inputs": [
        {
          "internalType": "uint256",
          "name": "deposited",
          "type": "uint256"
        },
        {
          "internalType": "uint256",
          "name": "Balance",
          "type": "uint256"
        }
      ],
      "name": "calculate",
      "outputs": [
        {
          "internalType": "uint256",
          "name": "percentShares",
          "type": "uint256"
        }
      ],
      "stateMutability": "pure",
      "type": "function"
    },
    {
      "inputs": [
        {
          "internalType": "address",
          "name": "_sender",
          "type": "address"
        }
      ],
      "name": "percentageShare",
      "outputs": [
        {
          "internalType": "uint256",
          "name": "",
          "type": "uint256"
        }
      ],
      "stateMutability": "view",
      "type": "function"
    },
    {
      "inputs": [
        {
          "internalType": "uint256",
          "name": "_LpTokenAmount",
          "type": "uint256"
        }
      ],
      "name": "calculateValue",
      "outputs": [
        {
          "internalType": "uint256",
          "name": "valueLpPerBusd",
          "type": "uint256"
        }
      ],
      "stateMutability": "view",
      "type": "function"
    },
    {
      "inputs": [
        {
          "internalType": "address",
          "name": "sender",
          "type": "address"
        }
      ],
      "name": "getAll",
      "outputs": [
        {
          "internalType": "uint256",
          "name": "percentShares",
          "type": "uint256"
        },
        {
          "internalType": "uint256",
          "name": "shares",
          "type": "uint256"
        },
        {
          "internalType": "uint256",
          "name": "value",
          "type": "uint256"
        },
        {
          "internalType": "uint256",
          "name": "reward",
          "type": "uint256"
        }
      ],
      "stateMutability": "view",
      "type": "function"
    },
    {
      "inputs": [],
      "name": "isStartedStake",
      "outputs": [
        {
          "internalType": "bool",
          "name": "start",
          "type": "bool"
        }
      ],
      "stateMutability": "view",
      "type": "function"
    },
    {
      "inputs": [],
      "name": "isStartedWitdraw",
      "outputs": [
        {
          "internalType": "bool",
          "name": "start",
          "type": "bool"
        }
      ],
      "stateMutability": "view",
      "type": "function"
    }
  ],
  "bytecode": "0x60806040526000600c60006101000a81548160ff0219169083151502179055503480156200002c57600080fd5b5060405162002ec338038062002ec3833981810160405281019062000052919062000239565b62000072620000666200010360201b60201c565b6200010b60201b60201c565b6001808190555081600360006101000a81548173ffffffffffffffffffffffffffffffffffffffff021916908373ffffffffffffffffffffffffffffffffffffffff16021790555080600260006101000a81548173ffffffffffffffffffffffffffffffffffffffff021916908373ffffffffffffffffffffffffffffffffffffffff160217905550505062000280565b600033905090565b60008060009054906101000a900473ffffffffffffffffffffffffffffffffffffffff169050816000806101000a81548173ffffffffffffffffffffffffffffffffffffffff021916908373ffffffffffffffffffffffffffffffffffffffff1602179055508173ffffffffffffffffffffffffffffffffffffffff168173ffffffffffffffffffffffffffffffffffffffff167f8be0079c531659141344cd1fd0a4f28419497f9722a3daafe3b4186f6b6457e060405160405180910390a35050565b600080fd5b600073ffffffffffffffffffffffffffffffffffffffff82169050919050565b60006200020182620001d4565b9050919050565b6200021381620001f4565b81146200021f57600080fd5b50565b600081519050620002338162000208565b92915050565b60008060408385031215620002535762000252620001cf565b5b6000620002638582860162000222565b9250506020620002768582860162000222565b9150509250929050565b612c3380620002906000396000f3fe608060405234801561001057600080fd5b50600436106102055760003560e01c80638992e9601161011a578063bd63e4b3116100ad578063eb0773421161007c578063eb07734214610594578063f2fde38b146105c7578063f7c618c1146105e3578063f8a4f93f14610601578063fbd75b8d1461063157610205565b8063bd63e4b3146104e6578063c00007b014610504578063c45af5d814610534578063c92a51431461056457610205565b806397a6db70116100e957806397a6db70146104705780639e6e19061461048e578063a694fc3a146104ac578063b4cb6cca146104c857610205565b80638992e960146103e85780638da5cb5b146103f25780638dfa43631461041057806391c75a2e1461044057610205565b8063602172671161019d57806376da89081161016c57806376da8908146103685780637afc93a81461038657806380fd22d2146103a45780638356c74c146103c0578063881a8454146103ca57610205565b806360217267146102f4578063715018a61461032457806372f702f31461032e57806374de4ec41461034c57610205565b80632def6620116101d95780632def6620146102925780634ba066eb1461029c57806350b237ea146102ba57806351107ac5146102d657610205565b8062d799a01461020a578063136de4c0146102285780631fb5daf514610258578063293be45614610276575b600080fd5b610212610661565b60405161021f919061201c565b60405180910390f35b610242600480360381019061023d9190612068565b610667565b60405161024f919061201c565b60405180910390f35b61026061068b565b60405161026d919061201c565b60405180910390f35b610290600480360381019061028b9190612068565b610691565b005b61029a6107cf565b005b6102a4610b01565b6040516102b1919061201c565b60405180910390f35b6102d460048036038101906102cf9190612068565b610b07565b005b6102de610c01565b6040516102eb919061201c565b60405180910390f35b61030e600480360381019061030991906120f3565b610c07565b60405161031b919061201c565b60405180910390f35b61032c610c1f565b005b610336610c33565b604051610343919061217f565b60405180910390f35b61036660048036038101906103619190612068565b610c59565b005b610370610d9c565b60405161037d919061201c565b60405180910390f35b61038e610da2565b60405161039b919061201c565b60405180910390f35b6103be60048036038101906103b99190612068565b610da8565b005b6103c8610edd565b005b6103d2610f75565b6040516103df91906121b5565b60405180910390f35b6103f0610f98565b005b6103fa6110c1565b60405161040791906121df565b60405180910390f35b61042a600480360381019061042591906121fa565b6110ea565b604051610437919061201c565b60405180910390f35b61045a60048036038101906104559190612068565b611117565b604051610467919061201c565b60405180910390f35b6104786113d5565b604051610485919061201c565b60405180910390f35b6104966113db565b6040516104a3919061201c565b60405180910390f35b6104c660048036038101906104c19190612068565b6113e1565b005b6104d0611762565b6040516104dd91906121b5565b60405180910390f35b6104ee611775565b6040516104fb91906121b5565b60405180910390f35b61051e600480360381019061051991906120f3565b611798565b60405161052b919061201c565b60405180910390f35b61054e600480360381019061054991906120f3565b611add565b60405161055b919061201c565b60405180910390f35b61057e60048036038101906105799190612068565b611b74565b60405161058b919061201c565b60405180910390f35b6105ae60048036038101906105a991906120f3565b611b98565b6040516105be949392919061223a565b60405180910390f35b6105e160048036038101906105dc91906120f3565b611c08565b005b6105eb611c8b565b6040516105f8919061217f565b60405180910390f35b61061b60048036038101906106169190612068565b611cb1565b604051610628919061201c565b60405180910390f35b61064b600480360381019061064691906120f3565b611cd5565b604051610658919061201c565b60405180910390f35b60045481565b600a818154811061067757600080fd5b906000526020600020016000915090505481565b60065481565b610699611d2e565b600081116106dc576040517f08c379a00000000000000000000000000000000000000000000000000000000081526004016106d3906122dc565b60405180910390fd5b600260009054906101000a900473ffffffffffffffffffffffffffffffffffffffff1673ffffffffffffffffffffffffffffffffffffffff166323b872dd3330610bb88561072a919061232b565b6040518463ffffffff1660e01b81526004016107489392919061235f565b6020604051808303816000875af1158015610767573d6000803e3d6000fd5b505050506040513d601f19601f8201168201806040525081019061078b91906123c2565b5080600d819055507f47df87b2d8295190528d53d2aa17482e79c609a908425cea226c34b69733dd3833826040516107c49291906123ef565b60405180910390a150565b600260015403610814576040517f08c379a000000000000000000000000000000000000000000000000000000000815260040161080b90612464565b60405180910390fd5b600260018190555033600554421015801561083157506007544211155b610870576040517f08c379a0000000000000000000000000000000000000000000000000000000008152600401610867906124d0565b60405180910390fd5b336000600e60008373ffffffffffffffffffffffffffffffffffffffff1673ffffffffffffffffffffffffffffffffffffffff16815260200190815260200160002054036108f3576040517f08c379a00000000000000000000000000000000000000000000000000000000081526004016108ea9061253c565b60405180910390fd5b6000600e60003373ffffffffffffffffffffffffffffffffffffffff1673ffffffffffffffffffffffffffffffffffffffff1681526020019081526020016000205490506000610945826011546110ea565b90508160116000828254610959919061255c565b925050819055508160126000828254610972919061255c565b925050819055506000600e60003373ffffffffffffffffffffffffffffffffffffffff1673ffffffffffffffffffffffffffffffffffffffff168152602001908152602001600020819055506000601060003373ffffffffffffffffffffffffffffffffffffffff1673ffffffffffffffffffffffffffffffffffffffff168152602001908152602001600020819055503373ffffffffffffffffffffffffffffffffffffffff167ff960dbf9e5d0682f7a298ed974e33a28b4464914b7a2bfac12ae419a9afeb2808383604051610a4b929190612590565b60405180910390a2600360009054906101000a900473ffffffffffffffffffffffffffffffffffffffff1673ffffffffffffffffffffffffffffffffffffffff1663a9059cbb33846040518363ffffffff1660e01b8152600401610ab09291906123ef565b6020604051808303816000875af1158015610acf573d6000803e3d6000fd5b505050506040513d601f19601f82011682018060405250810190610af391906123c2565b505050505060018081905550565b60055481565b610b0f611d2e565b8060008103610b53576040517f08c379a0000000000000000000000000000000000000000000000000000000008152600401610b4a9061253c565b60405180910390fd5b600360009054906101000a900473ffffffffffffffffffffffffffffffffffffffff1673ffffffffffffffffffffffffffffffffffffffff166323b872dd30610b9a6110c1565b856040518463ffffffff1660e01b8152600401610bb99392919061235f565b6020604051808303816000875af1158015610bd8573d6000803e3d6000fd5b505050506040513d601f19601f82011682018060405250810190610bfc91906123c2565b505050565b60115481565b600e6020528060005260406000206000915090505481565b610c27611d2e565b610c316000611dac565b565b600360009054906101000a900473ffffffffffffffffffffffffffffffffffffffff1681565b610c61611d2e565b60008111610ca4576040517f08c379a0000000000000000000000000000000000000000000000000000000008152600401610c9b906122dc565b60405180910390fd5b600260009054906101000a900473ffffffffffffffffffffffffffffffffffffffff1673ffffffffffffffffffffffffffffffffffffffff166323b872dd3330846040518463ffffffff1660e01b8152600401610d039392919061235f565b6020604051808303816000875af1158015610d22573d6000803e3d6000fd5b505050506040513d601f19601f82011682018060405250810190610d4691906123c2565b5080600d6000828254610d59919061232b565b925050819055507f47df87b2d8295190528d53d2aa17482e79c609a908425cea226c34b69733dd383382604051610d919291906123ef565b60405180910390a150565b60075481565b60125481565b610db0611d2e565b8060008103610df4576040517f08c379a0000000000000000000000000000000000000000000000000000000008152600401610deb9061253c565b60405180910390fd5b600b6001600b80549050610e08919061255c565b81548110610e1957610e186125b9565b5b90600052602060002001548210610e2f57600080fd5b600260009054906101000a900473ffffffffffffffffffffffffffffffffffffffff1673ffffffffffffffffffffffffffffffffffffffff166323b872dd30610e766110c1565b856040518463ffffffff1660e01b8152600401610e959392919061235f565b6020604051808303816000875af1158015610eb4573d6000803e3d6000fd5b505050506040513d601f19601f82011682018060405250810190610ed891906123c2565b505050565b610ee5611d2e565b600c60009054906101000a900460ff1615610f35576040517f08c379a0000000000000000000000000000000000000000000000000000000008152600401610f2c9061265a565b60405180910390fd5b60006012819055504260048190555061025842610f52919061232b565b6006819055506001600c60006101000a81548160ff021916908315150217905550565b60006004544210158015610f8b57506006544211155b15610f9557600190505b90565b610fa0611d2e565b600c60009054906101000a900460ff16610fef576040517f08c379a0000000000000000000000000000000000000000000000000000000008152600401610fe6906126ec565b60405180910390fd5b60006004819055506000600681905550600b600d549080600181540180825580915050600190039060005260206000200160009091909190915055600654600881905550600a60115490806001815401808255809150506001900390600052602060002001600090919091909150556000600c60006101000a81548160ff021916908315150217905550426005819055506102584261108e919061232b565b60078190555060096007549080600181540180825580915050600190039060005260206000200160009091909190915055565b60008060009054906101000a900473ffffffffffffffffffffffffffffffffffffffff16905090565b60008068056bc75e2d63100000905061110e8185611108919061270c565b84611e70565b91505092915050565b600080600360009054906101000a900473ffffffffffffffffffffffffffffffffffffffff16905060008173ffffffffffffffffffffffffffffffffffffffff166318160ddd6040518163ffffffff1660e01b8152600401602060405180830381865afa15801561118c573d6000803e3d6000fd5b505050506040513d601f19601f820116820180604052508101906111b09190612763565b90506000600260009054906101000a900473ffffffffffffffffffffffffffffffffffffffff1673ffffffffffffffffffffffffffffffffffffffff168373ffffffffffffffffffffffffffffffffffffffff16630dfe16816040518163ffffffff1660e01b8152600401602060405180830381865afa158015611238573d6000803e3d6000fd5b505050506040513d601f19601f8201168201806040525081019061125c91906127a5565b73ffffffffffffffffffffffffffffffffffffffff16141590506000811561130c578373ffffffffffffffffffffffffffffffffffffffff16630902f1ac6040518163ffffffff1660e01b8152600401606060405180830381865afa1580156112c9573d6000803e3d6000fd5b505050506040513d601f19601f820116820180604052508101906112ed9190612854565b826dffffffffffffffffffffffffffff16925090505080915050611397565b8373ffffffffffffffffffffffffffffffffffffffff16630902f1ac6040518163ffffffff1660e01b8152600401606060405180830381865afa158015611357573d6000803e3d6000fd5b505050506040513d601f19601f8201168201806040525081019061137b9190612854565b909150816dffffffffffffffffffffffffffff16915050809150505b600081905060006002826113ab919061270c565b905060006113b98287611e70565b905080896113c7919061270c565b975050505050505050919050565b60085481565b600d5481565b600260015403611426576040517f08c379a000000000000000000000000000000000000000000000000000000000815260040161141d90612464565b60405180910390fd5b6002600181905550600454421015801561144257506006544211155b611481576040517f08c379a0000000000000000000000000000000000000000000000000000000008152600401611478906128f3565b60405180910390fd5b80600081036114c5576040517f08c379a00000000000000000000000000000000000000000000000000000000081526004016114bc9061253c565b60405180910390fd5b6000600e60003373ffffffffffffffffffffffffffffffffffffffff1673ffffffffffffffffffffffffffffffffffffffff168152602001908152602001600020541461159057600454601060003373ffffffffffffffffffffffffffffffffffffffff1673ffffffffffffffffffffffffffffffffffffffff168152602001908152602001600020541461158f576040517f08c379a00000000000000000000000000000000000000000000000000000000081526004016115869061295f565b60405180910390fd5b5b600454601060003373ffffffffffffffffffffffffffffffffffffffff1673ffffffffffffffffffffffffffffffffffffffff16815260200190815260200160002081905550600360009054906101000a900473ffffffffffffffffffffffffffffffffffffffff1673ffffffffffffffffffffffffffffffffffffffff166323b872dd3330856040518463ffffffff1660e01b81526004016116359392919061235f565b6020604051808303816000875af1158015611654573d6000803e3d6000fd5b505050506040513d601f19601f8201168201806040525081019061167891906123c2565b50816012600082825461168b919061232b565b9250508190555081600e60003373ffffffffffffffffffffffffffffffffffffffff1673ffffffffffffffffffffffffffffffffffffffff16815260200190815260200160002060008282546116e1919061232b565b9250508190555081600f60003373ffffffffffffffffffffffffffffffffffffffff1673ffffffffffffffffffffffffffffffffffffffff1681526020019081526020016000206000828254611737919061232b565b925050819055508160116000828254611750919061232b565b92505081905550506001808190555050565b600c60009054906101000a900460ff1681565b6000600554421015801561178b57506007544211155b1561179557600190505b90565b6000336000600f60008373ffffffffffffffffffffffffffffffffffffffff1673ffffffffffffffffffffffffffffffffffffffff168152602001908152602001600020540361181d576040517f08c379a0000000000000000000000000000000000000000000000000000000008152600401611814906129cb565b60405180910390fd5b600754601060003373ffffffffffffffffffffffffffffffffffffffff1673ffffffffffffffffffffffffffffffffffffffff168152602001908152602001600020540361186a57600080fd5b3373ffffffffffffffffffffffffffffffffffffffff168373ffffffffffffffffffffffffffffffffffffffff16146118a257600080fd5b6118ab83611ead565b9150600082036118f0576040517f08c379a00000000000000000000000000000000000000000000000000000000081526004016118e790612a37565b60405180910390fd5b6000600e60008573ffffffffffffffffffffffffffffffffffffffff1673ffffffffffffffffffffffffffffffffffffffff168152602001908152602001600020540361197d576000600f60008573ffffffffffffffffffffffffffffffffffffffff1673ffffffffffffffffffffffffffffffffffffffff168152602001908152602001600020819055505b600754601060008573ffffffffffffffffffffffffffffffffffffffff1673ffffffffffffffffffffffffffffffffffffffff16815260200190815260200160002081905550600260009054906101000a900473ffffffffffffffffffffffffffffffffffffffff1673ffffffffffffffffffffffffffffffffffffffff1663a9059cbb84846040518363ffffffff1660e01b8152600401611a209291906123ef565b6020604051808303816000875af1158015611a3f573d6000803e3d6000fd5b505050506040513d601f19601f82011682018060405250810190611a6391906123c2565b50600d548211611a805781600d54611a7b919061255c565b611a83565b60005b600d819055508273ffffffffffffffffffffffffffffffffffffffff167fc85e4d49c642d412e31d95e6a51686ccecb6350892dd4b22d1f10dbf8e1ff15983604051611acf919061201c565b60405180910390a250919050565b600080600e60008473ffffffffffffffffffffffffffffffffffffffff1673ffffffffffffffffffffffffffffffffffffffff1681526020019081526020016000205490506000611b30826012546110ea565b90506000611b3d85611ead565b905080611b60600d5484611b51919061270c565b68056bc75e2d63100000611e70565b611b6a919061232b565b9350505050919050565b60098181548110611b8457600080fd5b906000526020600020016000915090505481565b600080600080611ba785611cd5565b9350600e60008673ffffffffffffffffffffffffffffffffffffffff1673ffffffffffffffffffffffffffffffffffffffff168152602001908152602001600020549250611bf483611117565b9150611bff85611ead565b90509193509193565b611c10611d2e565b600073ffffffffffffffffffffffffffffffffffffffff168173ffffffffffffffffffffffffffffffffffffffff1603611c7f576040517f08c379a0000000000000000000000000000000000000000000000000000000008152600401611c7690612ac9565b60405180910390fd5b611c8881611dac565b50565b600260009054906101000a900473ffffffffffffffffffffffffffffffffffffffff1681565b600b8181548110611cc157600080fd5b906000526020600020016000915090505481565b600080600e60008473ffffffffffffffffffffffffffffffffffffffff1673ffffffffffffffffffffffffffffffffffffffff168152602001908152602001600020549050611d26816011546110ea565b915050919050565b611d36611ffb565b73ffffffffffffffffffffffffffffffffffffffff16611d546110c1565b73ffffffffffffffffffffffffffffffffffffffff1614611daa576040517f08c379a0000000000000000000000000000000000000000000000000000000008152600401611da190612b35565b60405180910390fd5b565b60008060009054906101000a900473ffffffffffffffffffffffffffffffffffffffff169050816000806101000a81548173ffffffffffffffffffffffffffffffffffffffff021916908373ffffffffffffffffffffffffffffffffffffffff1602179055508173ffffffffffffffffffffffffffffffffffffffff168173ffffffffffffffffffffffffffffffffffffffff167f8be0079c531659141344cd1fd0a4f28419497f9722a3daafe3b4186f6b6457e060405160405180910390a35050565b6000808314611ea257600182600185611e89919061255c565b611e939190612b84565b611e9d919061232b565b611ea5565b60005b905092915050565b600080600080600090505b600980549050811015611ff057601060008673ffffffffffffffffffffffffffffffffffffffff1673ffffffffffffffffffffffffffffffffffffffff1681526020019081526020016000205460098281548110611f1957611f186125b9565b5b90600052602060002001541115611fdd57611f91600f60008773ffffffffffffffffffffffffffffffffffffffff1673ffffffffffffffffffffffffffffffffffffffff16815260200190815260200160002054600a8381548110611f8157611f806125b9565b5b90600052602060002001546110ea565b9150611fcf600b8281548110611faa57611fa96125b9565b5b906000526020600020015483611fc0919061270c565b68056bc75e2d63100000611e70565b83611fda919061232b565b92505b8080611fe890612bb5565b915050611eb8565b508192505050919050565b600033905090565b6000819050919050565b61201681612003565b82525050565b6000602082019050612031600083018461200d565b92915050565b600080fd5b61204581612003565b811461205057600080fd5b50565b6000813590506120628161203c565b92915050565b60006020828403121561207e5761207d612037565b5b600061208c84828501612053565b91505092915050565b600073ffffffffffffffffffffffffffffffffffffffff82169050919050565b60006120c082612095565b9050919050565b6120d0816120b5565b81146120db57600080fd5b50565b6000813590506120ed816120c7565b92915050565b60006020828403121561210957612108612037565b5b6000612117848285016120de565b91505092915050565b6000819050919050565b600061214561214061213b84612095565b612120565b612095565b9050919050565b60006121578261212a565b9050919050565b60006121698261214c565b9050919050565b6121798161215e565b82525050565b60006020820190506121946000830184612170565b92915050565b60008115159050919050565b6121af8161219a565b82525050565b60006020820190506121ca60008301846121a6565b92915050565b6121d9816120b5565b82525050565b60006020820190506121f460008301846121d0565b92915050565b6000806040838503121561221157612210612037565b5b600061221f85828601612053565b925050602061223085828601612053565b9150509250929050565b600060808201905061224f600083018761200d565b61225c602083018661200d565b612269604083018561200d565b612276606083018461200d565b95945050505050565b600082825260208201905092915050565b7f43616e6e6f742073657452657761726420300000000000000000000000000000600082015250565b60006122c660128361227f565b91506122d182612290565b602082019050919050565b600060208201905081810360008301526122f5816122b9565b9050919050565b7f4e487b7100000000000000000000000000000000000000000000000000000000600052601160045260246000fd5b600061233682612003565b915061234183612003565b9250828201905080821115612359576123586122fc565b5b92915050565b600060608201905061237460008301866121d0565b61238160208301856121d0565b61238e604083018461200d565b949350505050565b61239f8161219a565b81146123aa57600080fd5b50565b6000815190506123bc81612396565b92915050565b6000602082840312156123d8576123d7612037565b5b60006123e6848285016123ad565b91505092915050565b600060408201905061240460008301856121d0565b612411602083018461200d565b9392505050565b7f5265656e7472616e637947756172643a207265656e7472616e742063616c6c00600082015250565b600061244e601f8361227f565b915061245982612418565b602082019050919050565b6000602082019050818103600083015261247d81612441565b9050919050565b7f796f752063616e74207769746472617720617420746869732074696d65000000600082015250565b60006124ba601d8361227f565b91506124c582612484565b602082019050919050565b600060208201905081810360008301526124e9816124ad565b9050919050565b7f796f752068617665206e6f207368617265730000000000000000000000000000600082015250565b600061252660128361227f565b9150612531826124f0565b602082019050919050565b6000602082019050818103600083015261255581612519565b9050919050565b600061256782612003565b915061257283612003565b925082820390508181111561258a576125896122fc565b5b92915050565b60006040820190506125a5600083018561200d565b6125b2602083018461200d565b9392505050565b7f4e487b7100000000000000000000000000000000000000000000000000000000600052603260045260246000fd5b7f796f752063616e277420736574207374616b6520756e74696c2077697464726160008201527f77206973207374696c6c20676f696e67206f6e20000000000000000000000000602082015250565b600061264460348361227f565b915061264f826125e8565b604082019050919050565b6000602082019050818103600083015261267381612637565b9050919050565b7f796f752063616e277420736574207769746472617720756e74696c207374616b60008201527f65206973207374696c6c20676f696e67206f6e00000000000000000000000000602082015250565b60006126d660338361227f565b91506126e18261267a565b604082019050919050565b60006020820190508181036000830152612705816126c9565b9050919050565b600061271782612003565b915061272283612003565b925082820261273081612003565b91508282048414831517612747576127466122fc565b5b5092915050565b60008151905061275d8161203c565b92915050565b60006020828403121561277957612778612037565b5b60006127878482850161274e565b91505092915050565b60008151905061279f816120c7565b92915050565b6000602082840312156127bb576127ba612037565b5b60006127c984828501612790565b91505092915050565b60006dffffffffffffffffffffffffffff82169050919050565b6127f5816127d2565b811461280057600080fd5b50565b600081519050612812816127ec565b92915050565b600063ffffffff82169050919050565b61283181612818565b811461283c57600080fd5b50565b60008151905061284e81612828565b92915050565b60008060006060848603121561286d5761286c612037565b5b600061287b86828701612803565b935050602061288c86828701612803565b925050604061289d8682870161283f565b9150509250925092565b7f796f752063616e74207374616b6520617420746869732074696d650000000000600082015250565b60006128dd601b8361227f565b91506128e8826128a7565b602082019050919050565b6000602082019050818103600083015261290c816128d0565b9050919050565b7f796f75206861766520616c7265616479207374616b656420616d6f756e740000600082015250565b6000612949601e8361227f565b915061295482612913565b602082019050919050565b600060208201905081810360008301526129788161293c565b9050919050565b7f796f752068617665206e6f207265776172640000000000000000000000000000600082015250565b60006129b560128361227f565b91506129c08261297f565b602082019050919050565b600060208201905081810360008301526129e4816129a8565b9050919050565b7f6e6f2072657761726420746f2072656369657665000000000000000000000000600082015250565b6000612a2160148361227f565b9150612a2c826129eb565b602082019050919050565b60006020820190508181036000830152612a5081612a14565b9050919050565b7f4f776e61626c653a206e6577206f776e657220697320746865207a65726f206160008201527f6464726573730000000000000000000000000000000000000000000000000000602082015250565b6000612ab360268361227f565b9150612abe82612a57565b604082019050919050565b60006020820190508181036000830152612ae281612aa6565b9050919050565b7f4f776e61626c653a2063616c6c6572206973206e6f7420746865206f776e6572600082015250565b6000612b1f60208361227f565b9150612b2a82612ae9565b602082019050919050565b60006020820190508181036000830152612b4e81612b12565b9050919050565b7f4e487b7100000000000000000000000000000000000000000000000000000000600052601260045260246000fd5b6000612b8f82612003565b9150612b9a83612003565b925082612baa57612ba9612b55565b5b828204905092915050565b6000612bc082612003565b91507fffffffffffffffffffffffffffffffffffffffffffffffffffffffffffffffff8203612bf257612bf16122fc565b5b60018201905091905056fea26469706673582212209ce41af44d039124f4942be9c35232e2a47d03a0789b8e17415962d925ca0e7964736f6c63430008110033",
  "immutableReferences": {},
  "source": "// SPDX-License-Identifier: MIT\r\npragma solidity ^0.8.0;\r\n\r\nimport \"@openzeppelin/contracts/token/ERC20/IERC20.sol\";\r\nimport \"@openzeppelin/contracts/access/Ownable.sol\";\r\nimport \"@openzeppelin/contracts/security/ReentrancyGuard.sol\";\r\nimport \"@openzeppelin/contracts/utils/math/Math.sol\";\r\nimport \"@uniswap/v2-core/contracts/interfaces/IUniswapV2Pair.sol\";\r\n\r\ncontract Staking is Ownable, ReentrancyGuard {\r\n    /* ========== STATE VARIABLES ========== */\r\n    IERC20 public rewardToken; //REWARD TOKEN ADDRESS\r\n    IERC20 public stakingToken; //LP TOKEN ADDRESS\r\n    uint256 public startStakeTimestamp; //TIMESTAMP STAKE START\r\n    uint256 public startWitdrawTimestamp; //TIMESTAMP WITDRAW START\r\n    uint256 public endStakeTimestamp; //TIMESTAMP STAKE END\r\n    uint256 public endWitdrawTimestamp; //TIMESTAMP WITDRAW END\r\n    uint256 public lastEndStake; //LAST END WITDRAW TIMESTAMP\r\n    uint256[] public endWitdrawTimestamps; //ALL ENDS STAKE TIMESTAMP\r\n    uint256[] public allStakedBalances; //ALL STAKES BALANCES FROM BEGINNING\r\n    uint256[] public allRewards; //ALL REWARDS FROM BEGINNING\r\n    bool public timeSet = false; //BOOLEAN FOR SET THE TIME\r\n\r\n    uint256 public StakedReward; //REWARD\r\n\r\n    mapping(address => uint256) public stakedBalance; // stake = {};\r\n    mapping(address => uint256) private stakeProfit; // stake = {};\r\n    mapping(address => uint256) private stakedTime; // stake = {};\r\n\r\n    uint256 public allStakedBalance; // stake = {};\r\n    uint256 public LpBalanceOfMonth; // stake = {};\r\n    event rewardAmount(address indexed user, uint256 reward);\r\n\r\n    event Stake(address indexed user, uint256 amount, uint256 endTime);\r\n    event Unstake(address indexed user, uint256 amountStaked, uint256 shares);\r\n    event SetReward(address user, uint256 reward);\r\n\r\n    constructor(address _stakingToken, address _rewardToken) {\r\n        /* ======= PAIR AND LPTOKEN HAVE SAVE ADDRESSES ======= */\r\n        stakingToken = IERC20(_stakingToken); //LP TOKEN ADDRESS\r\n        rewardToken = IERC20(_rewardToken);\r\n    }\r\n\r\n    modifier haveReward(address sender) {\r\n        require(stakeProfit[sender] != 0, \"you have no reward\");\r\n        require(stakedTime[msg.sender] != endWitdrawTimestamp);\r\n        _;\r\n    }\r\n    modifier startStake() {\r\n        require(\r\n            block.timestamp >= startStakeTimestamp &&\r\n                block.timestamp <= endStakeTimestamp,\r\n            \"you cant stake at this time\"\r\n        );\r\n\r\n        _;\r\n    }\r\n    modifier zeroAmount(uint256 amount) {\r\n        require(amount != 0, \"you have no shares\");\r\n        _;\r\n    }\r\n    modifier haveShares(address sender) {\r\n        require(stakedBalance[sender] != 0, \"you have no shares\");\r\n\r\n        _;\r\n    }\r\n    modifier startWitdraw(address sender) {\r\n        require(\r\n            block.timestamp >= startWitdrawTimestamp &&\r\n                block.timestamp <= endWitdrawTimestamp,\r\n            \"you cant witdraw at this time\"\r\n        );\r\n\r\n        _;\r\n    }\r\n\r\n    function _getReward(address sender) internal view returns (uint256) {\r\n        uint256 shares;\r\n        uint256 percentShares;\r\n        for (uint256 i = 0; i < endWitdrawTimestamps.length; i++) {\r\n            //0 //5 //3\r\n            if (endWitdrawTimestamps[i] > stakedTime[sender]) {\r\n                //200 > //300//false //300>=300//true//true//true\r\n                percentShares = calculate(\r\n                    stakeProfit[sender],\r\n                    allStakedBalances[i]\r\n                );\r\n\r\n                shares += Math.ceilDiv(\r\n                    (percentShares * allRewards[i]),\r\n                    100 * 10**18\r\n                );\r\n            }\r\n        }\r\n\r\n        return shares;\r\n    }\r\n\r\n    function showReward(address sender) public view returns (uint256 rewards) {\r\n        uint256 deposited = stakedBalance[sender];\r\n        uint256 percentShares = calculate(deposited, LpBalanceOfMonth);\r\n        uint256 shares = _getReward(sender);\r\n        rewards =\r\n            Math.ceilDiv((percentShares * StakedReward), 100 * 10**18) +\r\n            shares;\r\n    }\r\n\r\n    function getReward(address sender)\r\n        public\r\n        haveReward(msg.sender)\r\n        returns (uint256 shares)\r\n    {\r\n        require(sender == msg.sender);\r\n        shares = _getReward(sender);\r\n        require(shares != 0, \"no reward to recieve\");\r\n        if (stakedBalance[sender] == 0) stakeProfit[sender] = 0;\r\n        stakedTime[sender] = endWitdrawTimestamp;\r\n        rewardToken.transfer(sender, shares);\r\n        StakedReward = (shares > StakedReward ? 0 : StakedReward - shares);\r\n        emit rewardAmount(sender, shares);\r\n    }\r\n\r\n    function stake(uint256 _amount)\r\n        external\r\n        nonReentrant\r\n        startStake\r\n        zeroAmount(_amount)\r\n    {\r\n        if (stakedBalance[msg.sender] != 0) {\r\n            require(\r\n                stakedTime[msg.sender] == startStakeTimestamp,\r\n                \"you have already staked amount\"\r\n            );\r\n        }\r\n        stakedTime[msg.sender] = startStakeTimestamp;\r\n        stakingToken.transferFrom(msg.sender, address(this), _amount);\r\n        LpBalanceOfMonth += _amount;\r\n        stakedBalance[msg.sender] += _amount; // stake[address] = amount;\r\n        stakeProfit[msg.sender] += _amount;\r\n        allStakedBalance += _amount;\r\n    }\r\n\r\n    function unstake()\r\n        external\r\n        nonReentrant\r\n        startWitdraw(msg.sender)\r\n        haveShares(msg.sender)\r\n    {\r\n        uint256 deposited = stakedBalance[msg.sender];\r\n        uint256 shares = calculate(deposited, allStakedBalance);\r\n        allStakedBalance -= deposited;\r\n        LpBalanceOfMonth -= deposited;\r\n        stakedBalance[msg.sender] = 0;\r\n        stakedTime[msg.sender] = 0;\r\n\r\n        emit Unstake(msg.sender, deposited, shares);\r\n        stakingToken.transfer(msg.sender, deposited);\r\n    }\r\n\r\n    //33,333333,333333,333334\r\n    function setReward(uint256 _reward) external onlyOwner {\r\n        require(_reward > 0, \"Cannot setReward 0\");\r\n\r\n        rewardToken.transferFrom(msg.sender, address(this), _reward + 3000);\r\n        StakedReward = _reward;\r\n        emit SetReward(msg.sender, _reward);\r\n    }\r\n\r\n    function addReward(uint256 _reward) external onlyOwner {\r\n        require(_reward > 0, \"Cannot setReward 0\");\r\n\r\n        rewardToken.transferFrom(msg.sender, address(this), _reward);\r\n        StakedReward += _reward;\r\n\r\n        emit SetReward(msg.sender, _reward);\r\n    }\r\n\r\n    function setStake() external onlyOwner {\r\n        require(\r\n            !timeSet,\r\n            \"you can't set stake until witdraw is still going on \"\r\n        );\r\n        LpBalanceOfMonth = 0;\r\n        startStakeTimestamp = block.timestamp;\r\n        endStakeTimestamp = block.timestamp + 10 minutes;\r\n\r\n        timeSet = true;\r\n    }\r\n\r\n    function setWitdraw() external onlyOwner {\r\n        require(timeSet, \"you can't set witdraw until stake is still going on\");\r\n        startStakeTimestamp = 0;\r\n        endStakeTimestamp = 0;\r\n\r\n        allRewards.push(StakedReward);\r\n        lastEndStake = endStakeTimestamp;\r\n        allStakedBalances.push(allStakedBalance);\r\n        timeSet = false;\r\n        startWitdrawTimestamp = block.timestamp;\r\n        endWitdrawTimestamp = block.timestamp + 10 minutes;\r\n        endWitdrawTimestamps.push(endWitdrawTimestamp);\r\n    }\r\n\r\n    // you did not stake\r\n    function witdrawOwnerLP(uint256 amount)\r\n        external\r\n        onlyOwner\r\n        zeroAmount(amount)\r\n    {\r\n        stakingToken.transferFrom(address(this), owner(), amount);\r\n    }\r\n\r\n    function witdrawOwnerReward(uint256 amount)\r\n        external\r\n        onlyOwner\r\n        zeroAmount(amount)\r\n    {\r\n        require(amount < allRewards[allRewards.length - 1]);\r\n        rewardToken.transferFrom(address(this), owner(), amount);\r\n    }\r\n\r\n    function calculate(uint256 deposited, uint256 Balance)\r\n        public\r\n        pure\r\n        returns (uint256 percentShares)\r\n    {\r\n        uint256 div = 100 * 10**18;\r\n        percentShares = Math.ceilDiv(deposited * div, Balance);\r\n    }\r\n\r\n    function percentageShare(address _sender) public view returns (uint256) {\r\n        uint256 deposited = stakedBalance[_sender];\r\n        return calculate(deposited, allStakedBalance);\r\n    }\r\n\r\n    function calculateValue(uint256 _LpTokenAmount)\r\n        public\r\n        view\r\n        returns (uint256 valueLpPerBusd)\r\n    {\r\n        IUniswapV2Pair pair = IUniswapV2Pair(address(stakingToken));\r\n        uint256 LPBalancePair = pair.totalSupply(); //\r\n        bool trueToken = (pair.token0() != address(rewardToken));\r\n        uint256 BusdAmount;\r\n\r\n        if (trueToken) {\r\n            (BusdAmount, , ) = pair.getReserves();\r\n        } else {\r\n            (, BusdAmount, ) = pair.getReserves();\r\n        }\r\n        uint256 BusdBalancePair = BusdAmount;\r\n\r\n        uint256 pairValue = BusdBalancePair * 2;\r\n        uint256 LpTokenPerBusdValue = Math.ceilDiv(pairValue, LPBalancePair);\r\n        valueLpPerBusd = _LpTokenAmount * LpTokenPerBusdValue;\r\n    }\r\n\r\n    function getAll(address sender)\r\n        public\r\n        view\r\n        returns (\r\n            uint256 percentShares,\r\n            uint256 shares,\r\n            uint256 value,\r\n            uint256 reward\r\n        )\r\n    {\r\n        percentShares = percentageShare(sender);\r\n        shares = stakedBalance[sender];\r\n        value = calculateValue(shares);\r\n        reward = _getReward(sender);\r\n    }\r\n\r\n    function isStartedStake() public view returns (bool start) {\r\n        start = false;\r\n        if (\r\n            block.timestamp >= startStakeTimestamp &&\r\n            block.timestamp <= endStakeTimestamp\r\n        ) start = true;\r\n    }\r\n\r\n    function isStartedWitdraw() public view returns (bool start) {\r\n        start = false;\r\n        if (\r\n            block.timestamp >= startWitdrawTimestamp &&\r\n            block.timestamp <= endWitdrawTimestamp\r\n        ) start = true;\r\n    }\r\n}\r\n",
  "sourcePath": "G:\\github\\Stake\\contracts\\Staking.sol",
  "compiler": {
    "name": "solc",
    "version": "0.8.17+commit.8df45f5f.Emscripten.clang"
  },
  "schemaVersion": "3.4.8",
  "updatedAt": "2022-09-21T07:48:54.232Z",
  "devdoc": {
    "kind": "dev",
    "methods": {
      "owner()": {
        "details": "Returns the address of the current owner."
      },
      "renounceOwnership()": {
        "details": "Leaves the contract without owner. It will not be possible to call `onlyOwner` functions anymore. Can only be called by the current owner. NOTE: Renouncing ownership will leave the contract without an owner, thereby removing any functionality that is only available to the owner."
      },
      "transferOwnership(address)": {
        "details": "Transfers ownership of the contract to a new account (`newOwner`). Can only be called by the current owner."
      }
    },
    "version": 1
  },
  "userdoc": {
    "kind": "user",
    "methods": {},
    "version": 1
  }
}