{
  "contractName": "Staking",
  "abi": [
    {
      "inputs": [
        {
          "internalType": "address",
          "name": "_stakingToken",
          "type": "address"
        },
        {
          "internalType": "address",
          "name": "_rewardToken",
          "type": "address"
        }
      ],
      "stateMutability": "nonpayable",
      "type": "constructor"
    },
    {
      "anonymous": false,
      "inputs": [
        {
          "indexed": true,
          "internalType": "address",
          "name": "user",
          "type": "address"
        },
        {
          "indexed": false,
          "internalType": "uint256",
          "name": "reward",
          "type": "uint256"
        }
      ],
      "name": "ClaimReward",
      "type": "event"
    },
    {
      "anonymous": false,
      "inputs": [
        {
          "indexed": true,
          "internalType": "address",
          "name": "user",
          "type": "address"
        },
        {
          "indexed": false,
          "internalType": "uint256",
          "name": "reward",
          "type": "uint256"
        }
      ],
      "name": "Distribute",
      "type": "event"
    },
    {
      "anonymous": false,
      "inputs": [
        {
          "indexed": true,
          "internalType": "address",
          "name": "previousOwner",
          "type": "address"
        },
        {
          "indexed": true,
          "internalType": "address",
          "name": "newOwner",
          "type": "address"
        }
      ],
      "name": "OwnershipTransferred",
      "type": "event"
    },
    {
      "anonymous": false,
      "inputs": [
        {
          "indexed": true,
          "internalType": "address",
          "name": "user",
          "type": "address"
        },
        {
          "indexed": false,
          "internalType": "uint256",
          "name": "amount",
          "type": "uint256"
        },
        {
          "indexed": false,
          "internalType": "uint256",
          "name": "endTime",
          "type": "uint256"
        }
      ],
      "name": "Stake",
      "type": "event"
    },
    {
      "anonymous": false,
      "inputs": [
        {
          "indexed": true,
          "internalType": "address",
          "name": "user",
          "type": "address"
        },
        {
          "indexed": false,
          "internalType": "uint256",
          "name": "amount",
          "type": "uint256"
        },
        {
          "indexed": false,
          "internalType": "uint256",
          "name": "reward",
          "type": "uint256"
        }
      ],
      "name": "Unstake",
      "type": "event"
    },
    {
      "inputs": [
        {
          "internalType": "address",
          "name": "",
          "type": "address"
        }
      ],
      "name": "AllStakedBalance",
      "outputs": [
        {
          "internalType": "uint256",
          "name": "",
          "type": "uint256"
        }
      ],
      "stateMutability": "view",
      "type": "function"
    },
    {
      "inputs": [],
      "name": "StakedReward",
      "outputs": [
        {
          "internalType": "uint256",
          "name": "",
          "type": "uint256"
        }
      ],
      "stateMutability": "view",
      "type": "function"
    },
    {
      "inputs": [],
      "name": "StakedRewardFreezed",
      "outputs": [
        {
          "internalType": "uint256",
          "name": "",
          "type": "uint256"
        }
      ],
      "stateMutability": "view",
      "type": "function"
    },
    {
      "inputs": [
        {
          "internalType": "address",
          "name": "",
          "type": "address"
        },
        {
          "internalType": "uint128",
          "name": "",
          "type": "uint128"
        }
      ],
      "name": "luckTime",
      "outputs": [
        {
          "internalType": "uint128",
          "name": "",
          "type": "uint128"
        }
      ],
      "stateMutability": "view",
      "type": "function"
    },
    {
      "inputs": [],
      "name": "owner",
      "outputs": [
        {
          "internalType": "address",
          "name": "",
          "type": "address"
        }
      ],
      "stateMutability": "view",
      "type": "function"
    },
    {
      "inputs": [],
      "name": "pair",
      "outputs": [
        {
          "internalType": "address",
          "name": "",
          "type": "address"
        }
      ],
      "stateMutability": "view",
      "type": "function"
    },
    {
      "inputs": [
        {
          "internalType": "address",
          "name": "",
          "type": "address"
        }
      ],
      "name": "positions",
      "outputs": [
        {
          "internalType": "uint64",
          "name": "",
          "type": "uint64"
        }
      ],
      "stateMutability": "view",
      "type": "function"
    },
    {
      "inputs": [],
      "name": "renounceOwnership",
      "outputs": [],
      "stateMutability": "nonpayable",
      "type": "function"
    },
    {
      "inputs": [],
      "name": "rewardToken",
      "outputs": [
        {
          "internalType": "contract IERC20",
          "name": "",
          "type": "address"
        }
      ],
      "stateMutability": "view",
      "type": "function"
    },
    {
      "inputs": [
        {
          "internalType": "address",
          "name": "",
          "type": "address"
        },
        {
          "internalType": "uint32",
          "name": "",
          "type": "uint32"
        }
      ],
      "name": "stakedBalance",
      "outputs": [
        {
          "internalType": "uint256",
          "name": "",
          "type": "uint256"
        }
      ],
      "stateMutability": "view",
      "type": "function"
    },
    {
      "inputs": [
        {
          "internalType": "address",
          "name": "",
          "type": "address"
        },
        {
          "internalType": "uint32",
          "name": "",
          "type": "uint32"
        }
      ],
      "name": "stakedChoise",
      "outputs": [
        {
          "internalType": "uint8",
          "name": "",
          "type": "uint8"
        }
      ],
      "stateMutability": "view",
      "type": "function"
    },
    {
      "inputs": [],
      "name": "stakingToken",
      "outputs": [
        {
          "internalType": "contract IERC20",
          "name": "",
          "type": "address"
        }
      ],
      "stateMutability": "view",
      "type": "function"
    },
    {
      "inputs": [],
      "name": "timestamp",
      "outputs": [
        {
          "internalType": "uint256",
          "name": "",
          "type": "uint256"
        }
      ],
      "stateMutability": "view",
      "type": "function"
    },
    {
      "inputs": [],
      "name": "totalValueLuckBUSD",
      "outputs": [
        {
          "internalType": "uint256",
          "name": "",
          "type": "uint256"
        }
      ],
      "stateMutability": "view",
      "type": "function"
    },
    {
      "inputs": [],
      "name": "totalValueLuckLPToken",
      "outputs": [
        {
          "internalType": "uint256",
          "name": "",
          "type": "uint256"
        }
      ],
      "stateMutability": "view",
      "type": "function"
    },
    {
      "inputs": [
        {
          "internalType": "address",
          "name": "newOwner",
          "type": "address"
        }
      ],
      "name": "transferOwnership",
      "outputs": [],
      "stateMutability": "nonpayable",
      "type": "function"
    },
    {
      "inputs": [
        {
          "internalType": "uint256",
          "name": "_amountBusd",
          "type": "uint256"
        }
      ],
      "name": "calculateAmountBulc",
      "outputs": [
        {
          "internalType": "uint256",
          "name": "",
          "type": "uint256"
        }
      ],
      "stateMutability": "view",
      "type": "function"
    },
    {
      "inputs": [
        {
          "internalType": "uint256",
          "name": "_BulcAmount",
          "type": "uint256"
        }
      ],
      "name": "calculateAmountBusd",
      "outputs": [
        {
          "internalType": "uint256",
          "name": "",
          "type": "uint256"
        }
      ],
      "stateMutability": "view",
      "type": "function"
    },
    {
      "inputs": [
        {
          "internalType": "uint256",
          "name": "_LpTokenAmount",
          "type": "uint256"
        }
      ],
      "name": "calculateValue",
      "outputs": [
        {
          "internalType": "uint256",
          "name": "valueLpPerBusd",
          "type": "uint256"
        }
      ],
      "stateMutability": "view",
      "type": "function"
    },
    {
      "inputs": [
        {
          "internalType": "uint256",
          "name": "amount_",
          "type": "uint256"
        },
        {
          "internalType": "uint8",
          "name": "choice_",
          "type": "uint8"
        }
      ],
      "name": "calculatePermit",
      "outputs": [
        {
          "internalType": "uint256",
          "name": "exactAmount",
          "type": "uint256"
        }
      ],
      "stateMutability": "pure",
      "type": "function"
    },
    {
      "inputs": [
        {
          "internalType": "uint256",
          "name": "_LPamount",
          "type": "uint256"
        },
        {
          "internalType": "uint8",
          "name": "choice",
          "type": "uint8"
        }
      ],
      "name": "calculate",
      "outputs": [
        {
          "internalType": "uint256",
          "name": "permitPerBulc",
          "type": "uint256"
        }
      ],
      "stateMutability": "view",
      "type": "function"
    },
    {
      "inputs": [
        {
          "internalType": "uint256",
          "name": "_amount",
          "type": "uint256"
        },
        {
          "internalType": "uint8",
          "name": "_Choise",
          "type": "uint8"
        }
      ],
      "name": "stake",
      "outputs": [],
      "stateMutability": "nonpayable",
      "type": "function"
    },
    {
      "inputs": [
        {
          "internalType": "uint32",
          "name": "position",
          "type": "uint32"
        }
      ],
      "name": "unstake",
      "outputs": [],
      "stateMutability": "nonpayable",
      "type": "function"
    },
    {
      "inputs": [
        {
          "internalType": "uint256",
          "name": "_reward",
          "type": "uint256"
        }
      ],
      "name": "distribute",
      "outputs": [],
      "stateMutability": "nonpayable",
      "type": "function"
    },
    {
      "inputs": [
        {
          "internalType": "uint256",
          "name": "rewardTokenAmount",
          "type": "uint256"
        }
      ],
      "name": "witdraw",
      "outputs": [],
      "stateMutability": "nonpayable",
      "type": "function"
    },
    {
      "inputs": [
        {
          "internalType": "address",
          "name": "_account",
          "type": "address"
        },
        {
          "internalType": "uint32",
          "name": "position",
          "type": "uint32"
        }
      ],
      "name": "rewardOf",
      "outputs": [
        {
          "internalType": "uint256",
          "name": "",
          "type": "uint256"
        }
      ],
      "stateMutability": "view",
      "type": "function"
    },
    {
      "inputs": [
        {
          "internalType": "address",
          "name": "sender_",
          "type": "address"
        },
        {
          "internalType": "uint8",
          "name": "position",
          "type": "uint8"
        }
      ],
      "name": "getAll",
      "outputs": [
        {
          "internalType": "uint256",
          "name": "remainedTime",
          "type": "uint256"
        },
        {
          "internalType": "uint256",
          "name": "reward",
          "type": "uint256"
        },
        {
          "internalType": "uint256",
          "name": "choise",
          "type": "uint256"
        },
        {
          "internalType": "uint256",
          "name": "LPTokenBalnce",
          "type": "uint256"
        }
      ],
      "stateMutability": "view",
      "type": "function"
    }
  ],
  "bytecode": "0x608060405260006008553480156200001657600080fd5b50604051620045143803806200451483398181016040528101906200003c919062000264565b6200005c620000506200012e60201b60201c565b6200013660201b60201c565b6001808190555081600560006101000a81548173ffffffffffffffffffffffffffffffffffffffff021916908373ffffffffffffffffffffffffffffffffffffffff16021790555081600760006101000a81548173ffffffffffffffffffffffffffffffffffffffff021916908373ffffffffffffffffffffffffffffffffffffffff16021790555080600660006101000a81548173ffffffffffffffffffffffffffffffffffffffff021916908373ffffffffffffffffffffffffffffffffffffffff1602179055505050620002ab565b600033905090565b60008060009054906101000a900473ffffffffffffffffffffffffffffffffffffffff169050816000806101000a81548173ffffffffffffffffffffffffffffffffffffffff021916908373ffffffffffffffffffffffffffffffffffffffff1602179055508173ffffffffffffffffffffffffffffffffffffffff168173ffffffffffffffffffffffffffffffffffffffff167f8be0079c531659141344cd1fd0a4f28419497f9722a3daafe3b4186f6b6457e060405160405180910390a35050565b600080fd5b600073ffffffffffffffffffffffffffffffffffffffff82169050919050565b60006200022c82620001ff565b9050919050565b6200023e816200021f565b81146200024a57600080fd5b50565b6000815190506200025e8162000233565b92915050565b600080604083850312156200027e576200027d620001fa565b5b60006200028e858286016200024d565b9250506020620002a1858286016200024d565b9150509250929050565b61425980620002bb6000396000f3fe608060405234801561001057600080fd5b50600436106101a95760003560e01c80638da5cb5b116100f9578063b80777ea11610097578063e0186f2911610071578063e0186f29146104fb578063f2fde38b1461052b578063f61a7bb514610547578063f7c618c114610577576101a9565b8063b80777ea1461047d578063bd9edebe1461049b578063c08f50b4146104cb576101a9565b806399a557ec116100d357806399a557ec146103f55780639e6e190614610425578063a8aa1b3114610443578063b404930e14610461576101a9565b80638da5cb5b1461038b57806391c05b0b146103a957806391c75a2e146103c5576101a9565b806355f575101161016657806372f702f31161014057806372f702f314610303578063809ee57d146103215780638ac6afd61461033d5780638b2ebe411461036d576101a9565b806355f57510146102965780636dcea398146102c6578063715018a6146102f9576101a9565b8063010f2395146101ae57806310087fb1146101de57806321d16896146101fa5780632cdad85f1461022a5780634796de4b146102485780635253d6d514610278575b600080fd5b6101c860048036038101906101c3919061315b565b610595565b6040516101d591906131a1565b60405180910390f35b6101f860048036038101906101f39190613221565b6105ad565b005b610214600480360381019061020f9190613261565b610cbd565b60405161022191906131a1565b60405180910390f35b610232610fb8565b60405161023f91906131a1565b60405180910390f35b610262600480360381019061025d9190613221565b610fbe565b60405161026f91906131a1565b60405180910390f35b610280611086565b60405161028d91906131a1565b60405180910390f35b6102b060048036038101906102ab919061315b565b61108c565b6040516102bd91906132b1565b60405180910390f35b6102e060048036038101906102db91906132cc565b6110b3565b6040516102f0949392919061330c565b60405180910390f35b61030161122f565b005b61030b611243565b60405161031891906133b0565b60405180910390f35b61033b60048036038101906103369190613407565b611269565b005b61035760048036038101906103529190613434565b611816565b60405161036491906131a1565b60405180910390f35b61037561183b565b60405161038291906131a1565b60405180910390f35b610393611841565b6040516103a09190613483565b60405180910390f35b6103c360048036038101906103be9190613261565b61186a565b005b6103df60048036038101906103da9190613261565b61196e565b6040516103ec91906131a1565b60405180910390f35b61040f600480360381019061040a9190613221565b611c8c565b60405161041c91906131a1565b60405180910390f35b61042d611cbb565b60405161043a91906131a1565b60405180910390f35b61044b611cc1565b6040516104589190613483565b60405180910390f35b61047b60048036038101906104769190613261565b611ce7565b005b610485611e82565b60405161049291906131a1565b60405180910390f35b6104b560048036038101906104b09190613434565b611e8a565b6040516104c291906134ad565b60405180910390f35b6104e560048036038101906104e09190613261565b611eb9565b6040516104f291906131a1565b60405180910390f35b61051560048036038101906105109190613434565b6121b4565b60405161052291906131a1565b60405180910390f35b6105456004803603810190610540919061315b565b612298565b005b610561600480360381019061055c9190613510565b61231b565b60405161056e919061355f565b60405180910390f35b61057f612359565b60405161058c91906133b0565b60405180910390f35b600c6020528060005260406000206000915090505481565b8060ff166000816fffffffffffffffffffffffffffffffff161180156105e657506005816fffffffffffffffffffffffffffffffff1611155b610625576040517f08c379a000000000000000000000000000000000000000000000000000000000815260040161061c906135d7565b60405180910390fd5b60026001540361066a576040517f08c379a000000000000000000000000000000000000000000000000000000000815260040161066190613643565b60405180910390fd5b6002600181905550600083116106b5576040517f08c379a00000000000000000000000000000000000000000000000000000000081526004016106ac906136af565b60405180910390fd5b60006106c18484611c8c565b90508060095411610707576040517f08c379a00000000000000000000000000000000000000000000000000000000081526004016106fe90613741565b60405180910390fd5b600080600660009054906101000a900473ffffffffffffffffffffffffffffffffffffffff1673ffffffffffffffffffffffffffffffffffffffff16600560009054906101000a900473ffffffffffffffffffffffffffffffffffffffff1673ffffffffffffffffffffffffffffffffffffffff16630dfe16816040518163ffffffff1660e01b8152600401602060405180830381865afa1580156107b0573d6000803e3d6000fd5b505050506040513d601f19601f820116820180604052508101906107d49190613776565b73ffffffffffffffffffffffffffffffffffffffff1614159050801561088c57600560009054906101000a900473ffffffffffffffffffffffffffffffffffffffff1673ffffffffffffffffffffffffffffffffffffffff16630dfe16816040518163ffffffff1660e01b8152600401602060405180830381865afa158015610861573d6000803e3d6000fd5b505050506040513d601f19601f820116820180604052508101906108859190613776565b9150610920565b600560009054906101000a900473ffffffffffffffffffffffffffffffffffffffff1673ffffffffffffffffffffffffffffffffffffffff1663d21220a76040518163ffffffff1660e01b8152600401602060405180830381865afa1580156108f9573d6000803e3d6000fd5b505050506040513d601f19601f8201168201806040525081019061091d9190613776565b91505b6000606461092d8861196e565b6109379190613801565b90508273ffffffffffffffffffffffffffffffffffffffff166323b872dd3361095e611841565b846040518463ffffffff1660e01b815260040161097d93929190613832565b6020604051808303816000875af115801561099c573d6000803e3d6000fd5b505050506040513d601f19601f820116820180604052508101906109c091906138a1565b5083600960008282546109d391906138ce565b9250508190555083600860008282546109ec9190613902565b92505081905550610a42333089600760009054906101000a900473ffffffffffffffffffffffffffffffffffffffff1673ffffffffffffffffffffffffffffffffffffffff1661237f909392919063ffffffff16565b86600c60003373ffffffffffffffffffffffffffffffffffffffff1673ffffffffffffffffffffffffffffffffffffffff1681526020019081526020016000206000828254610a919190613902565b9250508190555086600d60003373ffffffffffffffffffffffffffffffffffffffff1673ffffffffffffffffffffffffffffffffffffffff1681526020019081526020016000206000600460003373ffffffffffffffffffffffffffffffffffffffff1673ffffffffffffffffffffffffffffffffffffffff16815260200190815260200160002060009054906101000a900467ffffffffffffffff1663ffffffff1663ffffffff1681526020019081526020016000208190555085600e60003373ffffffffffffffffffffffffffffffffffffffff1673ffffffffffffffffffffffffffffffffffffffff1681526020019081526020016000206000600460003373ffffffffffffffffffffffffffffffffffffffff1673ffffffffffffffffffffffffffffffffffffffff16815260200190815260200160002060009054906101000a900467ffffffffffffffff1663ffffffff1663ffffffff16815260200190815260200160002060006101000a81548160ff021916908360ff16021790555086600a6000828254610c269190613902565b92505081905550610c368761196e565b600b6000828254610c479190613902565b925050819055506000610c5a8733612408565b90503373ffffffffffffffffffffffffffffffffffffffff167f5af417134f72a9d41143ace85b0a26dce6f550f894f2cbc1eeee8810603d91b68983604051610ca4929190613958565b60405180910390a2505050505060018081905550505050565b600080600660009054906101000a900473ffffffffffffffffffffffffffffffffffffffff1673ffffffffffffffffffffffffffffffffffffffff16600560009054906101000a900473ffffffffffffffffffffffffffffffffffffffff1673ffffffffffffffffffffffffffffffffffffffff16630dfe16816040518163ffffffff1660e01b8152600401602060405180830381865afa158015610d66573d6000803e3d6000fd5b505050506040513d601f19601f82011682018060405250810190610d8a9190613776565b73ffffffffffffffffffffffffffffffffffffffff161415905060008082610e7157600560009054906101000a900473ffffffffffffffffffffffffffffffffffffffff1673ffffffffffffffffffffffffffffffffffffffff16630902f1ac6040518163ffffffff1660e01b8152600401606060405180830381865afa158015610e19573d6000803e3d6000fd5b505050506040513d601f19601f82011682018060405250810190610e3d91906139dc565b826dffffffffffffffffffffffffffff169250816dffffffffffffffffffffffffffff169150508092508193505050610f32565b600560009054906101000a900473ffffffffffffffffffffffffffffffffffffffff1673ffffffffffffffffffffffffffffffffffffffff16630902f1ac6040518163ffffffff1660e01b8152600401606060405180830381865afa158015610ede573d6000803e3d6000fd5b505050506040513d601f19601f82011682018060405250810190610f0291906139dc565b826dffffffffffffffffffffffffffff169250816dffffffffffffffffffffffffffff1691505080935081925050505b73__UniswapV2Library______________________63ad615dec8684846040518463ffffffff1660e01b8152600401610f6d93929190613a3e565b602060405180830381865af4158015610f8a573d6000803e3d6000fd5b505050506040513d601f19601f82011682018060405250810190610fae9190613a8a565b9350505050919050565b60085481565b60008083905060018360ff1603610fea57610fe7603c82610fdf9190613ab7565b6104b0612a09565b91505b60028360ff16036110105761100d6078826110059190613ab7565b610190612a09565b91505b60038360ff16036110355761103260a08261102b9190613ab7565b60c8612a09565b91505b60048360ff160361105a5761105760c8826110509190613ab7565b6064612a09565b91505b60058360ff160361107f5761107c60c8826110759190613ab7565b6064612a09565b91505b5092915050565b600a5481565b60046020528060005260406000206000915054906101000a900467ffffffffffffffff1681565b600080600080600360008773ffffffffffffffffffffffffffffffffffffffff1673ffffffffffffffffffffffffffffffffffffffff16815260200190815260200160002060008660ff166fffffffffffffffffffffffffffffffff16815260200190815260200160002060009054906101000a90046fffffffffffffffffffffffffffffffff166fffffffffffffffffffffffffffffffff16935061115c868660ff166121b4565b9250600e60008773ffffffffffffffffffffffffffffffffffffffff1673ffffffffffffffffffffffffffffffffffffffff16815260200190815260200160002060008660ff1663ffffffff16815260200190815260200160002060009054906101000a900460ff1660ff169150600d60008773ffffffffffffffffffffffffffffffffffffffff1673ffffffffffffffffffffffffffffffffffffffff16815260200190815260200160002060008660ff1663ffffffff16815260200190815260200160002054905092959194509250565b611237612a46565b6112416000612ac4565b565b600760009054906101000a900473ffffffffffffffffffffffffffffffffffffffff1681565b8063ffffffff166000600360003373ffffffffffffffffffffffffffffffffffffffff1673ffffffffffffffffffffffffffffffffffffffff1681526020019081526020016000206000836fffffffffffffffffffffffffffffffff166fffffffffffffffffffffffffffffffff16815260200190815260200160002060009054906101000a90046fffffffffffffffffffffffffffffffff166fffffffffffffffffffffffffffffffff16141580156113925750600460003373ffffffffffffffffffffffffffffffffffffffff1673ffffffffffffffffffffffffffffffffffffffff16815260200190815260200160002060009054906101000a900467ffffffffffffffff1667ffffffffffffffff16816fffffffffffffffffffffffffffffffff1611155b6113d1576040517f08c379a00000000000000000000000000000000000000000000000000000000081526004016113c890613b5d565b60405180910390fd5b8163ffffffff1642600360003373ffffffffffffffffffffffffffffffffffffffff1673ffffffffffffffffffffffffffffffffffffffff1681526020019081526020016000206000836fffffffffffffffffffffffffffffffff166fffffffffffffffffffffffffffffffff16815260200190815260200160002060009054906101000a90046fffffffffffffffffffffffffffffffff166fffffffffffffffffffffffffffffffff16106114bc576040517f08c379a00000000000000000000000000000000000000000000000000000000081526004016114b390613bef565b60405180910390fd5b600260015403611501576040517f08c379a00000000000000000000000000000000000000000000000000000000081526004016114f890613643565b60405180910390fd5b60026001819055506000600d60003373ffffffffffffffffffffffffffffffffffffffff1673ffffffffffffffffffffffffffffffffffffffff16815260200190815260200160002060008563ffffffff1663ffffffff1681526020019081526020016000205490506115b73382600760009054906101000a900473ffffffffffffffffffffffffffffffffffffffff1673ffffffffffffffffffffffffffffffffffffffff16612b889092919063ffffffff16565b6000600e60003373ffffffffffffffffffffffffffffffffffffffff1673ffffffffffffffffffffffffffffffffffffffff16815260200190815260200160002060008663ffffffff1663ffffffff16815260200190815260200160002060009054906101000a900460ff16905060006116318383611c8c565b9050600081111561168a576116893382600660009054906101000a900473ffffffffffffffffffffffffffffffffffffffff1673ffffffffffffffffffffffffffffffffffffffff16612b889092919063ffffffff16565b5b806008600082825461169c91906138ce565b9250508190555082600a60008282546116b591906138ce565b925050819055506116c58361196e565b600b60008282546116d691906138ce565b925050819055506000600d60003373ffffffffffffffffffffffffffffffffffffffff1673ffffffffffffffffffffffffffffffffffffffff16815260200190815260200160002060008863ffffffff1663ffffffff168152602001908152602001600020600082825461174a91906138ce565b9250508190555082600c60003373ffffffffffffffffffffffffffffffffffffffff1673ffffffffffffffffffffffffffffffffffffffff16815260200190815260200160002060008282546117a091906138ce565b925050819055506117b78663ffffffff1633612c0e565b3373ffffffffffffffffffffffffffffffffffffffff167ff960dbf9e5d0682f7a298ed974e33a28b4464914b7a2bfac12ae419a9afeb28084836040516117ff929190613958565b60405180910390a250505060018081905550505050565b600d602052816000526040600020602052806000526040600020600091509150505481565b600b5481565b60008060009054906101000a900473ffffffffffffffffffffffffffffffffffffffff16905090565b611872612a46565b600081116118b5576040517f08c379a00000000000000000000000000000000000000000000000000000000081526004016118ac90613c5b565b60405180910390fd5b611904333083600660009054906101000a900473ffffffffffffffffffffffffffffffffffffffff1673ffffffffffffffffffffffffffffffffffffffff1661237f909392919063ffffffff16565b80600960008282546119169190613902565b925050819055503373ffffffffffffffffffffffffffffffffffffffff167fc1d32ad5cca423e7dda2123dbf8c482f8e77d00b631c06e903a47f2cec1334df8260405161196391906131a1565b60405180910390a250565b600080600560009054906101000a900473ffffffffffffffffffffffffffffffffffffffff1673ffffffffffffffffffffffffffffffffffffffff166318160ddd6040518163ffffffff1660e01b8152600401602060405180830381865afa1580156119de573d6000803e3d6000fd5b505050506040513d601f19601f82011682018060405250810190611a029190613a8a565b90506000600660009054906101000a900473ffffffffffffffffffffffffffffffffffffffff1673ffffffffffffffffffffffffffffffffffffffff16600560009054906101000a900473ffffffffffffffffffffffffffffffffffffffff1673ffffffffffffffffffffffffffffffffffffffff16630dfe16816040518163ffffffff1660e01b8152600401602060405180830381865afa158015611aac573d6000803e3d6000fd5b505050506040513d601f19601f82011682018060405250810190611ad09190613776565b73ffffffffffffffffffffffffffffffffffffffff161415905060008115611ba257600560009054906101000a900473ffffffffffffffffffffffffffffffffffffffff1673ffffffffffffffffffffffffffffffffffffffff16630902f1ac6040518163ffffffff1660e01b8152600401606060405180830381865afa158015611b5f573d6000803e3d6000fd5b505050506040513d601f19601f82011682018060405250810190611b8391906139dc565b826dffffffffffffffffffffffffffff16925090505080915050611c4f565b600560009054906101000a900473ffffffffffffffffffffffffffffffffffffffff1673ffffffffffffffffffffffffffffffffffffffff16630902f1ac6040518163ffffffff1660e01b8152600401606060405180830381865afa158015611c0f573d6000803e3d6000fd5b505050506040513d601f19601f82011682018060405250810190611c3391906139dc565b909150816dffffffffffffffffffffffffffff16915050809150505b60008190506000600282611c639190613ab7565b90506000611c718287612a09565b90508088611c7f9190613ab7565b9650505050505050919050565b600080611c988461196e565b90506000611ca68285610fbe565b9050611cb181611eb9565b9250505092915050565b60095481565b600560009054906101000a900473ffffffffffffffffffffffffffffffffffffffff1681565b611cef612a46565b60008114611d32576040517f08c379a0000000000000000000000000000000000000000000000000000000008152600401611d2990613cc7565b60405180910390fd5b600954811115611d77576040517f08c379a0000000000000000000000000000000000000000000000000000000008152600401611d6e90613d33565b60405180910390fd5b600660009054906101000a900473ffffffffffffffffffffffffffffffffffffffff1673ffffffffffffffffffffffffffffffffffffffff1663a9059cbb33836040518363ffffffff1660e01b8152600401611dd4929190613d53565b6020604051808303816000875af1158015611df3573d6000803e3d6000fd5b505050506040513d601f19601f82011682018060405250810190611e1791906138a1565b508060096000828254611e2a91906138ce565b925050819055503373ffffffffffffffffffffffffffffffffffffffff167fc1d32ad5cca423e7dda2123dbf8c482f8e77d00b631c06e903a47f2cec1334df82604051611e7791906131a1565b60405180910390a250565b600042905090565b600e6020528160005260406000206020528060005260406000206000915091509054906101000a900460ff1681565b600080600660009054906101000a900473ffffffffffffffffffffffffffffffffffffffff1673ffffffffffffffffffffffffffffffffffffffff16600560009054906101000a900473ffffffffffffffffffffffffffffffffffffffff1673ffffffffffffffffffffffffffffffffffffffff16630dfe16816040518163ffffffff1660e01b8152600401602060405180830381865afa158015611f62573d6000803e3d6000fd5b505050506040513d601f19601f82011682018060405250810190611f869190613776565b73ffffffffffffffffffffffffffffffffffffffff16149050600080821561206d57600560009054906101000a900473ffffffffffffffffffffffffffffffffffffffff1673ffffffffffffffffffffffffffffffffffffffff16630902f1ac6040518163ffffffff1660e01b8152600401606060405180830381865afa158015612015573d6000803e3d6000fd5b505050506040513d601f19601f8201168201806040525081019061203991906139dc565b826dffffffffffffffffffffffffffff169250816dffffffffffffffffffffffffffff16915050809250819350505061212e565b600560009054906101000a900473ffffffffffffffffffffffffffffffffffffffff1673ffffffffffffffffffffffffffffffffffffffff16630902f1ac6040518163ffffffff1660e01b8152600401606060405180830381865afa1580156120da573d6000803e3d6000fd5b505050506040513d601f19601f820116820180604052508101906120fe91906139dc565b826dffffffffffffffffffffffffffff169250816dffffffffffffffffffffffffffff1691505080935081925050505b73__UniswapV2Library______________________63ad615dec8683856040518463ffffffff1660e01b815260040161216993929190613a3e565b602060405180830381865af4158015612186573d6000803e3d6000fd5b505050506040513d601f19601f820116820180604052508101906121aa9190613a8a565b9350505050919050565b600080600d60008573ffffffffffffffffffffffffffffffffffffffff1673ffffffffffffffffffffffffffffffffffffffff16815260200190815260200160002060008463ffffffff1663ffffffff1681526020019081526020016000205490506000600e60008673ffffffffffffffffffffffffffffffffffffffff1673ffffffffffffffffffffffffffffffffffffffff16815260200190815260200160002060008563ffffffff1663ffffffff16815260200190815260200160002060009054906101000a900460ff16905061228e8282611c8c565b9250505092915050565b6122a0612a46565b600073ffffffffffffffffffffffffffffffffffffffff168173ffffffffffffffffffffffffffffffffffffffff160361230f576040517f08c379a000000000000000000000000000000000000000000000000000000000815260040161230690613dee565b60405180910390fd5b61231881612ac4565b50565b60036020528160005260406000206020528060005260406000206000915091509054906101000a90046fffffffffffffffffffffffffffffffff1681565b600660009054906101000a900473ffffffffffffffffffffffffffffffffffffffff1681565b612402846323b872dd60e01b8585856040516024016123a093929190613832565b604051602081830303815290604052907bffffffffffffffffffffffffffffffffffffffffffffffffffffffff19166020820180517bffffffffffffffffffffffffffffffffffffffffffffffffffffffff8381831617835250505050612e73565b50505050565b60008260ff166000816fffffffffffffffffffffffffffffffff1611801561244357506005816fffffffffffffffffffffffffffffffff1611155b612482576040517f08c379a0000000000000000000000000000000000000000000000000000000008152600401612479906135d7565b60405180910390fd5b8360ff16600481111561249857612497613e0e565b5b600260006101000a81548160ff021916908360048111156124bc576124bb613e0e565b5b02179055506000600460008573ffffffffffffffffffffffffffffffffffffffff1673ffffffffffffffffffffffffffffffffffffffff16815260200190815260200160002060009054906101000a900467ffffffffffffffff1667ffffffffffffffff16905060006001600481111561253957612538613e0e565b5b600481111561254b5761254a613e0e565b5b600260009054906101000a900460ff16600481111561256d5761256c613e0e565b5b036126315762278d00426125819190613902565b600360008773ffffffffffffffffffffffffffffffffffffffff1673ffffffffffffffffffffffffffffffffffffffff1681526020019081526020016000206000846fffffffffffffffffffffffffffffffff166fffffffffffffffffffffffffffffffff16815260200190815260200160002060006101000a8154816fffffffffffffffffffffffffffffffff02191690836fffffffffffffffffffffffffffffffff16021790559050612961565b6002600481111561264557612644613e0e565b5b600481111561265757612656613e0e565b5b600260009054906101000a900460ff16600481111561267957612678613e0e565b5b0361273d576276a7004261268d9190613902565b600360008773ffffffffffffffffffffffffffffffffffffffff1673ffffffffffffffffffffffffffffffffffffffff1681526020019081526020016000206000846fffffffffffffffffffffffffffffffff166fffffffffffffffffffffffffffffffff16815260200190815260200160002060006101000a8154816fffffffffffffffffffffffffffffffff02191690836fffffffffffffffffffffffffffffffff16021790559050612960565b6003600481111561275157612750613e0e565b5b600481111561276357612762613e0e565b5b600260009054906101000a900460ff16600481111561278557612784613e0e565b5b036128565761a8c062eff1004261279c9190613902565b6127a69190613902565b600360008773ffffffffffffffffffffffffffffffffffffffff1673ffffffffffffffffffffffffffffffffffffffff1681526020019081526020016000206000846fffffffffffffffffffffffffffffffff166fffffffffffffffffffffffffffffffff16815260200190815260200160002060006101000a8154816fffffffffffffffffffffffffffffffff02191690836fffffffffffffffffffffffffffffffff1602179055905061295f565b60048081111561286957612868613e0e565b5b600481111561287b5761287a613e0e565b5b600260009054906101000a900460ff16600481111561289d5761289c613e0e565b5b0361295e576301e13380426128b29190613902565b600360008773ffffffffffffffffffffffffffffffffffffffff1673ffffffffffffffffffffffffffffffffffffffff1681526020019081526020016000206000846fffffffffffffffffffffffffffffffff166fffffffffffffffffffffffffffffffff16815260200190815260200160002060006101000a8154816fffffffffffffffffffffffffffffffff02191690836fffffffffffffffffffffffffffffffff160217905590505b5b5b5b600460008673ffffffffffffffffffffffffffffffffffffffff1673ffffffffffffffffffffffffffffffffffffffff168152602001908152602001600020600081819054906101000a900467ffffffffffffffff16809291906129c490613e3d565b91906101000a81548167ffffffffffffffff021916908367ffffffffffffffff16021790555050806fffffffffffffffffffffffffffffffff16935050505092915050565b6000808314612a3b57600182600185612a2291906138ce565b612a2c9190613801565b612a369190613902565b612a3e565b60005b905092915050565b612a4e612f3a565b73ffffffffffffffffffffffffffffffffffffffff16612a6c611841565b73ffffffffffffffffffffffffffffffffffffffff1614612ac2576040517f08c379a0000000000000000000000000000000000000000000000000000000008152600401612ab990613eb9565b60405180910390fd5b565b60008060009054906101000a900473ffffffffffffffffffffffffffffffffffffffff169050816000806101000a81548173ffffffffffffffffffffffffffffffffffffffff021916908373ffffffffffffffffffffffffffffffffffffffff1602179055508173ffffffffffffffffffffffffffffffffffffffff168173ffffffffffffffffffffffffffffffffffffffff167f8be0079c531659141344cd1fd0a4f28419497f9722a3daafe3b4186f6b6457e060405160405180910390a35050565b612c098363a9059cbb60e01b8484604051602401612ba7929190613d53565b604051602081830303815290604052907bffffffffffffffffffffffffffffffffffffffffffffffffffffffff19166020820180517bffffffffffffffffffffffffffffffffffffffffffffffffffffffff8381831617835250505050612e73565b505050565b60008290505b600460008373ffffffffffffffffffffffffffffffffffffffff1673ffffffffffffffffffffffffffffffffffffffff16815260200190815260200160002060009054906101000a900467ffffffffffffffff1667ffffffffffffffff16816fffffffffffffffffffffffffffffffff161015612de557600360003373ffffffffffffffffffffffffffffffffffffffff1673ffffffffffffffffffffffffffffffffffffffff1681526020019081526020016000206000600183612cd99190613ed9565b6fffffffffffffffffffffffffffffffff166fffffffffffffffffffffffffffffffff16815260200190815260200160002060009054906101000a90046fffffffffffffffffffffffffffffffff16600360003373ffffffffffffffffffffffffffffffffffffffff1673ffffffffffffffffffffffffffffffffffffffff1681526020019081526020016000206000836fffffffffffffffffffffffffffffffff166fffffffffffffffffffffffffffffffff16815260200190815260200160002060006101000a8154816fffffffffffffffffffffffffffffffff02191690836fffffffffffffffffffffffffffffffff1602179055508080612ddd90613f1f565b915050612c14565b506001600460008373ffffffffffffffffffffffffffffffffffffffff1673ffffffffffffffffffffffffffffffffffffffff16815260200190815260200160002060008282829054906101000a900467ffffffffffffffff16612e499190613f57565b92506101000a81548167ffffffffffffffff021916908367ffffffffffffffff1602179055505050565b6000612ed5826040518060400160405280602081526020017f5361666545524332303a206c6f772d6c6576656c2063616c6c206661696c65648152508573ffffffffffffffffffffffffffffffffffffffff16612f429092919063ffffffff16565b9050600081511115612f355780806020019051810190612ef591906138a1565b612f34576040517f08c379a0000000000000000000000000000000000000000000000000000000008152600401612f2b90613ffd565b60405180910390fd5b5b505050565b600033905090565b6060612f518484600085612f5a565b90509392505050565b606082471015612f9f576040517f08c379a0000000000000000000000000000000000000000000000000000000008152600401612f969061408f565b60405180910390fd5b612fa88561306e565b612fe7576040517f08c379a0000000000000000000000000000000000000000000000000000000008152600401612fde906140fb565b60405180910390fd5b6000808673ffffffffffffffffffffffffffffffffffffffff1685876040516130109190614195565b60006040518083038185875af1925050503d806000811461304d576040519150601f19603f3d011682016040523d82523d6000602084013e613052565b606091505b5091509150613062828286613091565b92505050949350505050565b6000808273ffffffffffffffffffffffffffffffffffffffff163b119050919050565b606083156130a1578290506130f1565b6000835111156130b45782518084602001fd5b816040517f08c379a00000000000000000000000000000000000000000000000000000000081526004016130e89190614201565b60405180910390fd5b9392505050565b600080fd5b600073ffffffffffffffffffffffffffffffffffffffff82169050919050565b6000613128826130fd565b9050919050565b6131388161311d565b811461314357600080fd5b50565b6000813590506131558161312f565b92915050565b600060208284031215613171576131706130f8565b5b600061317f84828501613146565b91505092915050565b6000819050919050565b61319b81613188565b82525050565b60006020820190506131b66000830184613192565b92915050565b6131c581613188565b81146131d057600080fd5b50565b6000813590506131e2816131bc565b92915050565b600060ff82169050919050565b6131fe816131e8565b811461320957600080fd5b50565b60008135905061321b816131f5565b92915050565b60008060408385031215613238576132376130f8565b5b6000613246858286016131d3565b92505060206132578582860161320c565b9150509250929050565b600060208284031215613277576132766130f8565b5b6000613285848285016131d3565b91505092915050565b600067ffffffffffffffff82169050919050565b6132ab8161328e565b82525050565b60006020820190506132c660008301846132a2565b92915050565b600080604083850312156132e3576132e26130f8565b5b60006132f185828601613146565b92505060206133028582860161320c565b9150509250929050565b60006080820190506133216000830187613192565b61332e6020830186613192565b61333b6040830185613192565b6133486060830184613192565b95945050505050565b6000819050919050565b600061337661337161336c846130fd565b613351565b6130fd565b9050919050565b60006133888261335b565b9050919050565b600061339a8261337d565b9050919050565b6133aa8161338f565b82525050565b60006020820190506133c560008301846133a1565b92915050565b600063ffffffff82169050919050565b6133e4816133cb565b81146133ef57600080fd5b50565b600081359050613401816133db565b92915050565b60006020828403121561341d5761341c6130f8565b5b600061342b848285016133f2565b91505092915050565b6000806040838503121561344b5761344a6130f8565b5b600061345985828601613146565b925050602061346a858286016133f2565b9150509250929050565b61347d8161311d565b82525050565b60006020820190506134986000830184613474565b92915050565b6134a7816131e8565b82525050565b60006020820190506134c2600083018461349e565b92915050565b60006fffffffffffffffffffffffffffffffff82169050919050565b6134ed816134c8565b81146134f857600080fd5b50565b60008135905061350a816134e4565b92915050565b60008060408385031215613527576135266130f8565b5b600061353585828601613146565b9250506020613546858286016134fb565b9150509250929050565b613559816134c8565b82525050565b60006020820190506135746000830184613550565b92915050565b600082825260208201905092915050565b7f77726f6e672043686f6973652121210000000000000000000000000000000000600082015250565b60006135c1600f8361357a565b91506135cc8261358b565b602082019050919050565b600060208201905081810360008301526135f0816135b4565b9050919050565b7f5265656e7472616e637947756172643a207265656e7472616e742063616c6c00600082015250565b600061362d601f8361357a565b9150613638826135f7565b602082019050919050565b6000602082019050818103600083015261365c81613620565b9050919050565b7f43616e6e6f74207374616b652030000000000000000000000000000000000000600082015250565b6000613699600e8361357a565b91506136a482613663565b602082019050919050565b600060208201905081810360008301526136c88161368c565b9050919050565b7f6f776e65722068617665206e6f7420656e6f7567682062756c6320746f20706160008201527f7921000000000000000000000000000000000000000000000000000000000000602082015250565b600061372b60228361357a565b9150613736826136cf565b604082019050919050565b6000602082019050818103600083015261375a8161371e565b9050919050565b6000815190506137708161312f565b92915050565b60006020828403121561378c5761378b6130f8565b5b600061379a84828501613761565b91505092915050565b7f4e487b7100000000000000000000000000000000000000000000000000000000600052601260045260246000fd5b7f4e487b7100000000000000000000000000000000000000000000000000000000600052601160045260246000fd5b600061380c82613188565b915061381783613188565b925082613827576138266137a3565b5b828204905092915050565b60006060820190506138476000830186613474565b6138546020830185613474565b6138616040830184613192565b949350505050565b60008115159050919050565b61387e81613869565b811461388957600080fd5b50565b60008151905061389b81613875565b92915050565b6000602082840312156138b7576138b66130f8565b5b60006138c58482850161388c565b91505092915050565b60006138d982613188565b91506138e483613188565b9250828210156138f7576138f66137d2565b5b828203905092915050565b600061390d82613188565b915061391883613188565b9250827fffffffffffffffffffffffffffffffffffffffffffffffffffffffffffffffff0382111561394d5761394c6137d2565b5b828201905092915050565b600060408201905061396d6000830185613192565b61397a6020830184613192565b9392505050565b60006dffffffffffffffffffffffffffff82169050919050565b6139a481613981565b81146139af57600080fd5b50565b6000815190506139c18161399b565b92915050565b6000815190506139d6816133db565b92915050565b6000806000606084860312156139f5576139f46130f8565b5b6000613a03868287016139b2565b9350506020613a14868287016139b2565b9250506040613a25868287016139c7565b9150509250925092565b613a3881613188565b82525050565b6000606082019050613a536000830186613a2f565b613a606020830185613a2f565b613a6d6040830184613a2f565b949350505050565b600081519050613a84816131bc565b92915050565b600060208284031215613aa057613a9f6130f8565b5b6000613aae84828501613a75565b91505092915050565b6000613ac282613188565b9150613acd83613188565b9250817fffffffffffffffffffffffffffffffffffffffffffffffffffffffffffffffff0483118215151615613b0657613b056137d2565b5b828202905092915050565b7f7468697320706f736974696f6e20646f7365206e6f7420657869737421000000600082015250565b6000613b47601d8361357a565b9150613b5282613b11565b602082019050919050565b60006020820190508181036000830152613b7681613b3a565b9050919050565b7f74686973207374616b6520706f736974696f6e2074696d6520646f7365206e6f60008201527f7420656e64207965742121210000000000000000000000000000000000000000602082015250565b6000613bd9602c8361357a565b9150613be482613b7d565b604082019050919050565b60006020820190508181036000830152613c0881613bcc565b9050919050565b7f43616e6e6f742064697374726962757465203000000000000000000000000000600082015250565b6000613c4560138361357a565b9150613c5082613c0f565b602082019050919050565b60006020820190508181036000830152613c7481613c38565b9050919050565b7f3020616d6f756e74000000000000000000000000000000000000000000000000600082015250565b6000613cb160088361357a565b9150613cbc82613c7b565b602082019050919050565b60006020820190508181036000830152613ce081613ca4565b9050919050565b7f796f752063616e207769746472617720726577617264467265657a6400000000600082015250565b6000613d1d601c8361357a565b9150613d2882613ce7565b602082019050919050565b60006020820190508181036000830152613d4c81613d10565b9050919050565b6000604082019050613d686000830185613474565b613d756020830184613192565b9392505050565b7f4f776e61626c653a206e6577206f776e657220697320746865207a65726f206160008201527f6464726573730000000000000000000000000000000000000000000000000000602082015250565b6000613dd860268361357a565b9150613de382613d7c565b604082019050919050565b60006020820190508181036000830152613e0781613dcb565b9050919050565b7f4e487b7100000000000000000000000000000000000000000000000000000000600052602160045260246000fd5b6000613e488261328e565b915067ffffffffffffffff8203613e6257613e616137d2565b5b600182019050919050565b7f4f776e61626c653a2063616c6c6572206973206e6f7420746865206f776e6572600082015250565b6000613ea360208361357a565b9150613eae82613e6d565b602082019050919050565b60006020820190508181036000830152613ed281613e96565b9050919050565b6000613ee4826134c8565b9150613eef836134c8565b9250826fffffffffffffffffffffffffffffffff03821115613f1457613f136137d2565b5b828201905092915050565b6000613f2a826134c8565b91506fffffffffffffffffffffffffffffffff8203613f4c57613f4b6137d2565b5b600182019050919050565b6000613f628261328e565b9150613f6d8361328e565b925082821015613f8057613f7f6137d2565b5b828203905092915050565b7f5361666545524332303a204552433230206f7065726174696f6e20646964206e60008201527f6f74207375636365656400000000000000000000000000000000000000000000602082015250565b6000613fe7602a8361357a565b9150613ff282613f8b565b604082019050919050565b6000602082019050818103600083015261401681613fda565b9050919050565b7f416464726573733a20696e73756666696369656e742062616c616e636520666f60008201527f722063616c6c0000000000000000000000000000000000000000000000000000602082015250565b600061407960268361357a565b91506140848261401d565b604082019050919050565b600060208201905081810360008301526140a88161406c565b9050919050565b7f416464726573733a2063616c6c20746f206e6f6e2d636f6e7472616374000000600082015250565b60006140e5601d8361357a565b91506140f0826140af565b602082019050919050565b60006020820190508181036000830152614114816140d8565b9050919050565b600081519050919050565b600081905092915050565b60005b8381101561414f578082015181840152602081019050614134565b8381111561415e576000848401525b50505050565b600061416f8261411b565b6141798185614126565b9350614189818560208601614131565b80840191505092915050565b60006141a18284614164565b915081905092915050565b600081519050919050565b6000601f19601f8301169050919050565b60006141d3826141ac565b6141dd818561357a565b93506141ed818560208601614131565b6141f6816141b7565b840191505092915050565b6000602082019050818103600083015261421b81846141c8565b90509291505056fea2646970667358221220d52556cc3ad4cacaeceaefdc3db7561d8d18e97f243302b352b86b378bcb942e64736f6c634300080f0033",
  "immutableReferences": {},
  "source": "// SPDX-License-Identifier: MIT\r\npragma solidity ^0.8.0;\r\n\r\nimport \"@uniswap/v2-core/contracts/interfaces/IUniswapV2Pair.sol\";\r\n// import \"@uniswap/v2-periphery/contracts/libraries/UniswapV2Library.sol\";\r\nimport \"@uniswap/v2-periphery/contracts/libraries/UniswapV2Library.sol\";\r\nimport \"@openzeppelin/contracts/token/ERC20/IERC20.sol\";\r\nimport \"@openzeppelin/contracts/token/ERC20/utils/SafeERC20.sol\";\r\nimport \"@openzeppelin/contracts/access/Ownable.sol\";\r\nimport \"@openzeppelin/contracts/security/ReentrancyGuard.sol\";\r\nimport \"@openzeppelin/contracts/utils/math/Math.sol\";\r\n\r\nimport \"./CountDown.sol\";\r\n\r\n// import \"./CountDown.sol\";\r\n\r\ncontract Staking is Ownable, ReentrancyGuard, CountDown {\r\n    using SafeERC20 for IERC20;\r\n\r\n    /* ========== STATE VARIABLES ========== */\r\n    address public pair; //PAIR ADDRESS\r\n    IERC20 public rewardToken; //REWARD TOKEN ADDRESS\r\n    IERC20 public stakingToken; //LP TOKEN ADDRESS\r\n\r\n    uint256 public StakedRewardFreezed = 0; //FREEZED STAKE REWARD\r\n    uint256 public StakedReward; //FREE STAKE REWAED\r\n    uint256 public totalValueLuckLPToken; // LP TOKEN LUCKED\r\n    uint256 public totalValueLuckBUSD; //LP TOKEN LUCKED PER BUSD\r\n    mapping(address => uint256) public AllStakedBalance; // stake = {};\r\n    mapping(address => mapping(uint32 => uint256)) public stakedBalance; // stake = {};\r\n    mapping(address => mapping(uint32 => uint8)) public stakedChoise; // choise = {};\r\n\r\n    event Stake(address indexed user, uint256 amount, uint256 endTime);\r\n    event Unstake(address indexed user, uint256 amount, uint256 reward);\r\n    event ClaimReward(address indexed user, uint256 reward);\r\n    event Distribute(address indexed user, uint256 reward);\r\n\r\n    constructor(address _stakingToken, address _rewardToken) {\r\n        /* ======= PAIR AND LPTOKEN HAVE SAVE ADDRESSES ======= */\r\n        pair = _stakingToken; //PAIR ADDRESS\r\n        stakingToken = IERC20(_stakingToken); //LP TOKEN ADDRESS\r\n        rewardToken = IERC20(_rewardToken); //REWARD ADDRESS\r\n    }\r\n\r\n    /* ========== FUNCTIONS ========== */\r\n\r\n    function calculateAmountBulc(uint256 _amountBusd)\r\n        public\r\n        view\r\n        returns (uint256)\r\n    {\r\n        bool trueToken = (IUniswapV2Pair(pair).token0() ==\r\n            address(rewardToken)); //CHECK WHICH ADDRESS IS REWARD ADDRESS\r\n\r\n        uint256 reserveBulc; //REWARD ADDRESS\r\n        uint256 reserveBusd; //FEE TOKEN ADDRESS\r\n        if (trueToken) {\r\n            (reserveBulc, reserveBusd, ) = IUniswapV2Pair(pair).getReserves(); //GET RESERVES\r\n        } else {\r\n            (reserveBusd, reserveBulc, ) = IUniswapV2Pair(pair).getReserves(); //GET RESERVES\r\n        }\r\n        return UniswapV2Library.quote(_amountBusd, reserveBusd, reserveBulc);\r\n    }\r\n\r\n    function calculateAmountBusd(uint256 _BulcAmount)\r\n        public\r\n        view\r\n        returns (uint256)\r\n    {\r\n        bool trueToken = (IUniswapV2Pair(pair).token0() !=\r\n            address(rewardToken)); //CHECK WHICH ADDRESS IS NOT REWARD ADDRESS\r\n\r\n        uint256 reserveBulc; //REWARD TOKEN ADDRESS\r\n        uint256 reserveBusd; //FEE TOKEN ADDRESS\r\n        if (!trueToken) {\r\n            (reserveBulc, reserveBusd, ) = IUniswapV2Pair(pair).getReserves(); //GET RESERVES\r\n        } else {\r\n            (reserveBusd, reserveBulc, ) = IUniswapV2Pair(pair).getReserves(); //GET RESERVES\r\n        }\r\n        return UniswapV2Library.quote(_BulcAmount, reserveBulc, reserveBusd);\r\n    }\r\n\r\n    function calculateValue(uint256 _LpTokenAmount)\r\n        public\r\n        view\r\n        returns (uint256 valueLpPerBusd)\r\n    {\r\n        uint256 LPBalancePair = IUniswapV2Pair(pair).totalSupply(); //\r\n        bool trueToken = (IUniswapV2Pair(pair).token0() !=\r\n            address(rewardToken));\r\n        uint256 BusdAmount;\r\n\r\n        if (trueToken) {\r\n            (BusdAmount, , ) = IUniswapV2Pair(pair).getReserves();\r\n        } else {\r\n            (, BusdAmount, ) = IUniswapV2Pair(pair).getReserves();\r\n        }\r\n        uint256 BusdBalancePair = BusdAmount;\r\n\r\n        uint256 pairValue = BusdBalancePair * 2;\r\n        uint256 LpTokenPerBusdValue = Math.ceilDiv(pairValue, LPBalancePair);\r\n        valueLpPerBusd = _LpTokenAmount * LpTokenPerBusdValue;\r\n    }\r\n\r\n    function calculatePermit(uint256 amount_, uint8 choice_)\r\n        public\r\n        pure\r\n        returns (uint256 exactAmount)\r\n    {\r\n        uint256 amount = amount_; //GAS SAVING\r\n\r\n        if (choice_ == 1) {\r\n            exactAmount = Math.ceilDiv((amount * 60), (12 * 100)); //60APR\r\n        }\r\n        if (choice_ == 2) {\r\n            exactAmount = Math.ceilDiv((amount * 120), (4 * 100)); //120APR\r\n        }\r\n        if (choice_ == 3) {\r\n            exactAmount = Math.ceilDiv((amount * 160), (2 * 100)); //160APR\r\n        }\r\n        if (choice_ == 4) {\r\n            exactAmount = Math.ceilDiv((amount * 200), 100); //200APR\r\n        }\r\n        if (choice_ == 5) {\r\n            exactAmount = Math.ceilDiv((amount * 200), 100); //200APR\r\n        }\r\n    }\r\n\r\n    function calculate(uint256 _LPamount, uint8 choice)\r\n        public\r\n        view\r\n        returns (uint256 permitPerBulc)\r\n    {\r\n        uint256 BusdAmount = calculateValue(_LPamount);\r\n        uint256 permitPerBusd = calculatePermit(BusdAmount, choice);\r\n        permitPerBulc = calculateAmountBulc(permitPerBusd);\r\n    }\r\n\r\n    function stake(uint256 _amount, uint8 _Choise)\r\n        external\r\n        checkChoice(_Choise)\r\n        nonReentrant\r\n    {\r\n        require(_amount > 0, \"Cannot stake 0\");\r\n        uint256 luck = calculate(_amount, _Choise);\r\n        require(StakedReward > luck, \"owner have not enough bulc to pay!\");\r\n        IERC20 Busd;\r\n        bool trueToken = (IUniswapV2Pair(pair).token0() !=\r\n            address(rewardToken));\r\n        if (trueToken) {\r\n            Busd = IERC20(IUniswapV2Pair(pair).token0());\r\n        } else {\r\n            Busd = IERC20(IUniswapV2Pair(pair).token1());\r\n        }\r\n\r\n        uint256 fee = calculateValue(_amount) / 100;\r\n        Busd.transferFrom(msg.sender, owner(), fee);\r\n        StakedReward -= luck;\r\n        StakedRewardFreezed += luck;\r\n        // address BulcPairBalance=IERC20(_pair.token1()); 9999996998999999000\r\n        //        99999999999998889999004000000000000\r\n        //                                         9999996999999999000\r\n        stakingToken.safeTransferFrom(msg.sender, address(this), _amount);\r\n        AllStakedBalance[msg.sender] += _amount; // stake[address] = amount;\r\n        stakedBalance[msg.sender][uint32(positions[msg.sender])] = _amount; // stake[address] = amount;\r\n        stakedChoise[msg.sender][uint32(positions[msg.sender])] = _Choise;\r\n        totalValueLuckLPToken += _amount; // T = T + amount;\r\n        totalValueLuckBUSD += calculateValue(_amount);\r\n        uint256 endTime = stakeFor(_Choise, msg.sender);\r\n        emit Stake(msg.sender, _amount, endTime);\r\n    }\r\n\r\n    function unstake(uint32 position)\r\n        external\r\n        isExist(position)\r\n        isDone(position)\r\n        nonReentrant\r\n    {\r\n        uint256 deposited = stakedBalance[msg.sender][position]; // deposited = stake[address];\r\n        stakingToken.safeTransfer(msg.sender, deposited);\r\n        uint8 choise = stakedChoise[msg.sender][position];\r\n        uint256 reward = calculate(deposited, choise);\r\n\r\n        if (reward > 0) {\r\n            rewardToken.safeTransfer(msg.sender, reward);\r\n        }\r\n        StakedRewardFreezed -= reward;\r\n        totalValueLuckLPToken -= deposited; // T = T - deposited;\r\n        totalValueLuckBUSD -= calculateValue(deposited);\r\n\r\n        stakedBalance[msg.sender][position] -= 0; // stake[address] = 0;\r\n        AllStakedBalance[msg.sender] -= deposited; // stake[address] = 0;\r\n        updatePositions(position, msg.sender); //updatePositions\r\n\r\n        emit Unstake(msg.sender, deposited, reward);\r\n    }\r\n\r\n    function distribute(uint256 _reward) external onlyOwner {\r\n        require(_reward > 0, \"Cannot distribute 0\");\r\n\r\n        rewardToken.safeTransferFrom(msg.sender, address(this), _reward);\r\n        StakedReward += _reward;\r\n        /// r / t can be under 0\r\n        emit Distribute(msg.sender, _reward);\r\n    }\r\n\r\n    function witdraw(uint256 rewardTokenAmount) external onlyOwner {\r\n        require(rewardTokenAmount == 0, \"0 amount\");\r\n        require(\r\n            rewardTokenAmount <= StakedReward,\r\n            \"you can witdraw rewardFreezd\"\r\n        );\r\n        rewardToken.transfer(msg.sender, rewardTokenAmount);\r\n        StakedReward -= rewardTokenAmount;\r\n        emit Distribute(msg.sender, rewardTokenAmount);\r\n    }\r\n\r\n    // function notFreezedReward()public returns()\r\n\r\n    function rewardOf(address _account, uint32 position)\r\n        public\r\n        view\r\n        returns (uint256)\r\n    {\r\n        uint256 deposited = stakedBalance[_account][position];\r\n        uint8 choice = stakedChoise[_account][position];\r\n        return calculate(deposited, choice);\r\n    }\r\n\r\n    function getAll(address sender_, uint8 position)\r\n        public\r\n        view\r\n        returns (\r\n            uint256 remainedTime,\r\n            uint256 reward,\r\n            uint256 choise,\r\n            uint256 LPTokenBalnce\r\n        )\r\n    {\r\n        remainedTime = luckTime[sender_][position];\r\n        reward = rewardOf(sender_, position);\r\n        choise = stakedChoise[sender_][position];\r\n        LPTokenBalnce = stakedBalance[sender_][position];\r\n    }\r\n}\r\n",
  "sourcePath": "F:\\EXACT PROJECT\\swapFinal\\contracts\\Staking.sol",
  "compiler": {
    "name": "solc",
    "version": "0.8.15+commit.e14f2714.Emscripten.clang"
  },
  "schemaVersion": "3.4.8",
  "updatedAt": "2022-07-24T07:32:46.294Z",
  "devdoc": {
    "kind": "dev",
    "methods": {
      "owner()": {
        "details": "Returns the address of the current owner."
      },
      "renounceOwnership()": {
        "details": "Leaves the contract without owner. It will not be possible to call `onlyOwner` functions anymore. Can only be called by the current owner. NOTE: Renouncing ownership will leave the contract without an owner, thereby removing any functionality that is only available to the owner."
      },
      "transferOwnership(address)": {
        "details": "Transfers ownership of the contract to a new account (`newOwner`). Can only be called by the current owner."
      }
    },
    "version": 1
  },
  "userdoc": {
    "kind": "user",
    "methods": {},
    "version": 1
  }
}