{
  "contractName": "Staking",
  "abi": [
    {
      "inputs": [
        {
          "internalType": "address",
          "name": "_stakingToken",
          "type": "address"
        },
        {
          "internalType": "address",
          "name": "_rewardToken",
          "type": "address"
        }
      ],
      "stateMutability": "nonpayable",
      "type": "constructor"
    },
    {
      "anonymous": false,
      "inputs": [
        {
          "indexed": true,
          "internalType": "address",
          "name": "user",
          "type": "address"
        },
        {
          "indexed": false,
          "internalType": "uint256",
          "name": "reward",
          "type": "uint256"
        }
      ],
      "name": "ClaimReward",
      "type": "event"
    },
    {
      "anonymous": false,
      "inputs": [
        {
          "indexed": true,
          "internalType": "address",
          "name": "user",
          "type": "address"
        },
        {
          "indexed": false,
          "internalType": "uint256",
          "name": "reward",
          "type": "uint256"
        }
      ],
      "name": "Distribute",
      "type": "event"
    },
    {
      "anonymous": false,
      "inputs": [
        {
          "indexed": true,
          "internalType": "address",
          "name": "previousOwner",
          "type": "address"
        },
        {
          "indexed": true,
          "internalType": "address",
          "name": "newOwner",
          "type": "address"
        }
      ],
      "name": "OwnershipTransferred",
      "type": "event"
    },
    {
      "anonymous": false,
      "inputs": [
        {
          "indexed": true,
          "internalType": "address",
          "name": "user",
          "type": "address"
        },
        {
          "indexed": false,
          "internalType": "uint256",
          "name": "amount",
          "type": "uint256"
        },
        {
          "indexed": false,
          "internalType": "uint256",
          "name": "endTime",
          "type": "uint256"
        }
      ],
      "name": "Stake",
      "type": "event"
    },
    {
      "anonymous": false,
      "inputs": [
        {
          "indexed": true,
          "internalType": "address",
          "name": "user",
          "type": "address"
        },
        {
          "indexed": false,
          "internalType": "uint256",
          "name": "amount",
          "type": "uint256"
        },
        {
          "indexed": false,
          "internalType": "uint256",
          "name": "reward",
          "type": "uint256"
        }
      ],
      "name": "Unstake",
      "type": "event"
    },
    {
      "inputs": [
        {
          "internalType": "address",
          "name": "",
          "type": "address"
        }
      ],
      "name": "AllStakedBalance",
      "outputs": [
        {
          "internalType": "uint256",
          "name": "",
          "type": "uint256"
        }
      ],
      "stateMutability": "view",
      "type": "function"
    },
    {
      "inputs": [],
      "name": "StakedReward",
      "outputs": [
        {
          "internalType": "uint256",
          "name": "",
          "type": "uint256"
        }
      ],
      "stateMutability": "view",
      "type": "function"
    },
    {
      "inputs": [],
      "name": "StakedRewardFreezed",
      "outputs": [
        {
          "internalType": "uint256",
          "name": "",
          "type": "uint256"
        }
      ],
      "stateMutability": "view",
      "type": "function"
    },
    {
      "inputs": [
        {
          "internalType": "address",
          "name": "",
          "type": "address"
        },
        {
          "internalType": "uint128",
          "name": "",
          "type": "uint128"
        }
      ],
      "name": "luckTime",
      "outputs": [
        {
          "internalType": "uint128",
          "name": "",
          "type": "uint128"
        }
      ],
      "stateMutability": "view",
      "type": "function"
    },
    {
      "inputs": [],
      "name": "owner",
      "outputs": [
        {
          "internalType": "address",
          "name": "",
          "type": "address"
        }
      ],
      "stateMutability": "view",
      "type": "function"
    },
    {
      "inputs": [],
      "name": "pair",
      "outputs": [
        {
          "internalType": "address",
          "name": "",
          "type": "address"
        }
      ],
      "stateMutability": "view",
      "type": "function"
    },
    {
      "inputs": [
        {
          "internalType": "address",
          "name": "",
          "type": "address"
        }
      ],
      "name": "positions",
      "outputs": [
        {
          "internalType": "uint64",
          "name": "",
          "type": "uint64"
        }
      ],
      "stateMutability": "view",
      "type": "function"
    },
    {
      "inputs": [],
      "name": "renounceOwnership",
      "outputs": [],
      "stateMutability": "nonpayable",
      "type": "function"
    },
    {
      "inputs": [],
      "name": "rewardToken",
      "outputs": [
        {
          "internalType": "contract IERC20",
          "name": "",
          "type": "address"
        }
      ],
      "stateMutability": "view",
      "type": "function"
    },
    {
      "inputs": [
        {
          "internalType": "address",
          "name": "",
          "type": "address"
        },
        {
          "internalType": "uint32",
          "name": "",
          "type": "uint32"
        }
      ],
      "name": "stakedBalance",
      "outputs": [
        {
          "internalType": "uint256",
          "name": "",
          "type": "uint256"
        }
      ],
      "stateMutability": "view",
      "type": "function"
    },
    {
      "inputs": [
        {
          "internalType": "address",
          "name": "",
          "type": "address"
        },
        {
          "internalType": "uint32",
          "name": "",
          "type": "uint32"
        }
      ],
      "name": "stakedChoise",
      "outputs": [
        {
          "internalType": "uint8",
          "name": "",
          "type": "uint8"
        }
      ],
      "stateMutability": "view",
      "type": "function"
    },
    {
      "inputs": [],
      "name": "stakingToken",
      "outputs": [
        {
          "internalType": "contract IERC20",
          "name": "",
          "type": "address"
        }
      ],
      "stateMutability": "view",
      "type": "function"
    },
    {
      "inputs": [],
      "name": "timestamp",
      "outputs": [
        {
          "internalType": "uint256",
          "name": "",
          "type": "uint256"
        }
      ],
      "stateMutability": "view",
      "type": "function"
    },
    {
      "inputs": [],
      "name": "totalValueLuckBUSD",
      "outputs": [
        {
          "internalType": "uint256",
          "name": "",
          "type": "uint256"
        }
      ],
      "stateMutability": "view",
      "type": "function"
    },
    {
      "inputs": [],
      "name": "totalValueLuckLPToken",
      "outputs": [
        {
          "internalType": "uint256",
          "name": "",
          "type": "uint256"
        }
      ],
      "stateMutability": "view",
      "type": "function"
    },
    {
      "inputs": [
        {
          "internalType": "address",
          "name": "newOwner",
          "type": "address"
        }
      ],
      "name": "transferOwnership",
      "outputs": [],
      "stateMutability": "nonpayable",
      "type": "function"
    },
    {
      "inputs": [
        {
          "internalType": "uint256",
          "name": "_amountBusd",
          "type": "uint256"
        }
      ],
      "name": "calculateAmountBulc",
      "outputs": [
        {
          "internalType": "uint256",
          "name": "",
          "type": "uint256"
        }
      ],
      "stateMutability": "view",
      "type": "function"
    },
    {
      "inputs": [
        {
          "internalType": "uint256",
          "name": "_BulcAmount",
          "type": "uint256"
        }
      ],
      "name": "calculateAmountBusd",
      "outputs": [
        {
          "internalType": "uint256",
          "name": "",
          "type": "uint256"
        }
      ],
      "stateMutability": "view",
      "type": "function"
    },
    {
      "inputs": [
        {
          "internalType": "uint256",
          "name": "_LpTokenAmount",
          "type": "uint256"
        }
      ],
      "name": "calculateValue",
      "outputs": [
        {
          "internalType": "uint256",
          "name": "valueLpPerBusd",
          "type": "uint256"
        }
      ],
      "stateMutability": "view",
      "type": "function"
    },
    {
      "inputs": [
        {
          "internalType": "uint256",
          "name": "amount_",
          "type": "uint256"
        },
        {
          "internalType": "uint8",
          "name": "choice_",
          "type": "uint8"
        }
      ],
      "name": "calculatePermit",
      "outputs": [
        {
          "internalType": "uint256",
          "name": "exactAmount",
          "type": "uint256"
        }
      ],
      "stateMutability": "pure",
      "type": "function"
    },
    {
      "inputs": [
        {
          "internalType": "uint256",
          "name": "_LPamount",
          "type": "uint256"
        },
        {
          "internalType": "uint8",
          "name": "choice",
          "type": "uint8"
        }
      ],
      "name": "calculate",
      "outputs": [
        {
          "internalType": "uint256",
          "name": "permitPerBulc",
          "type": "uint256"
        }
      ],
      "stateMutability": "view",
      "type": "function"
    },
    {
      "inputs": [
        {
          "internalType": "uint256",
          "name": "_amount",
          "type": "uint256"
        },
        {
          "internalType": "uint8",
          "name": "_Choise",
          "type": "uint8"
        }
      ],
      "name": "stake",
      "outputs": [],
      "stateMutability": "nonpayable",
      "type": "function"
    },
    {
      "inputs": [
        {
          "internalType": "uint32",
          "name": "position",
          "type": "uint32"
        }
      ],
      "name": "unstake",
      "outputs": [],
      "stateMutability": "nonpayable",
      "type": "function"
    },
    {
      "inputs": [
        {
          "internalType": "uint256",
          "name": "_reward",
          "type": "uint256"
        }
      ],
      "name": "distribute",
      "outputs": [],
      "stateMutability": "nonpayable",
      "type": "function"
    },
    {
      "inputs": [
        {
          "internalType": "uint256",
          "name": "rewardTokenAmount",
          "type": "uint256"
        }
      ],
      "name": "witdraw",
      "outputs": [],
      "stateMutability": "nonpayable",
      "type": "function"
    },
    {
      "inputs": [
        {
          "internalType": "address",
          "name": "_account",
          "type": "address"
        },
        {
          "internalType": "uint32",
          "name": "position",
          "type": "uint32"
        }
      ],
      "name": "rewardOf",
      "outputs": [
        {
          "internalType": "uint256",
          "name": "",
          "type": "uint256"
        }
      ],
      "stateMutability": "view",
      "type": "function"
    },
    {
      "inputs": [
        {
          "internalType": "address",
          "name": "sender_",
          "type": "address"
        },
        {
          "internalType": "uint8",
          "name": "position",
          "type": "uint8"
        }
      ],
      "name": "getAll",
      "outputs": [
        {
          "internalType": "uint256",
          "name": "remainedTime",
          "type": "uint256"
        },
        {
          "internalType": "uint256",
          "name": "reward",
          "type": "uint256"
        },
        {
          "internalType": "uint256",
          "name": "choise",
          "type": "uint256"
        },
        {
          "internalType": "uint256",
          "name": "LPTokenBalnce",
          "type": "uint256"
        }
      ],
      "stateMutability": "view",
      "type": "function"
    }
  ],
  "bytecode": "0x608060405260006008553480156200001657600080fd5b50604051620047b6380380620047b683398181016040528101906200003c919062000264565b6200005c620000506200012e60201b60201c565b6200013660201b60201c565b6001808190555081600560006101000a81548173ffffffffffffffffffffffffffffffffffffffff021916908373ffffffffffffffffffffffffffffffffffffffff16021790555081600760006101000a81548173ffffffffffffffffffffffffffffffffffffffff021916908373ffffffffffffffffffffffffffffffffffffffff16021790555080600660006101000a81548173ffffffffffffffffffffffffffffffffffffffff021916908373ffffffffffffffffffffffffffffffffffffffff1602179055505050620002ab565b600033905090565b60008060009054906101000a900473ffffffffffffffffffffffffffffffffffffffff169050816000806101000a81548173ffffffffffffffffffffffffffffffffffffffff021916908373ffffffffffffffffffffffffffffffffffffffff1602179055508173ffffffffffffffffffffffffffffffffffffffff168173ffffffffffffffffffffffffffffffffffffffff167f8be0079c531659141344cd1fd0a4f28419497f9722a3daafe3b4186f6b6457e060405160405180910390a35050565b600080fd5b600073ffffffffffffffffffffffffffffffffffffffff82169050919050565b60006200022c82620001ff565b9050919050565b6200023e816200021f565b81146200024a57600080fd5b50565b6000815190506200025e8162000233565b92915050565b600080604083850312156200027e576200027d620001fa565b5b60006200028e858286016200024d565b9250506020620002a1858286016200024d565b9150509250929050565b6144fb80620002bb6000396000f3fe608060405234801561001057600080fd5b50600436106101a95760003560e01c80638da5cb5b116100f9578063b80777ea11610097578063e0186f2911610071578063e0186f29146104fb578063f2fde38b1461052b578063f61a7bb514610547578063f7c618c114610577576101a9565b8063b80777ea1461047d578063bd9edebe1461049b578063c08f50b4146104cb576101a9565b806399a557ec116100d357806399a557ec146103f55780639e6e190614610425578063a8aa1b3114610443578063b404930e14610461576101a9565b80638da5cb5b1461038b57806391c05b0b146103a957806391c75a2e146103c5576101a9565b806355f575101161016657806372f702f31161014057806372f702f314610303578063809ee57d146103215780638ac6afd61461033d5780638b2ebe411461036d576101a9565b806355f57510146102965780636dcea398146102c6578063715018a6146102f9576101a9565b8063010f2395146101ae57806310087fb1146101de57806321d16896146101fa5780632cdad85f1461022a5780634796de4b146102485780635253d6d514610278575b600080fd5b6101c860048036038101906101c39190613397565b610595565b6040516101d591906133dd565b60405180910390f35b6101f860048036038101906101f3919061345d565b6105ad565b005b610214600480360381019061020f919061349d565b610cbd565b60405161022191906133dd565b60405180910390f35b610232610fb8565b60405161023f91906133dd565b60405180910390f35b610262600480360381019061025d919061345d565b610fbe565b60405161026f91906133dd565b60405180910390f35b610280611061565b60405161028d91906133dd565b60405180910390f35b6102b060048036038101906102ab9190613397565b611067565b6040516102bd91906134ed565b60405180910390f35b6102e060048036038101906102db9190613508565b61108e565b6040516102f09493929190613548565b60405180910390f35b61030161120a565b005b61030b61121e565b60405161031891906135ec565b60405180910390f35b61033b60048036038101906103369190613643565b611244565b005b61035760048036038101906103529190613670565b6117fb565b60405161036491906133dd565b60405180910390f35b610375611820565b60405161038291906133dd565b60405180910390f35b610393611826565b6040516103a091906136bf565b60405180910390f35b6103c360048036038101906103be919061349d565b61184f565b005b6103df60048036038101906103da919061349d565b611953565b6040516103ec91906133dd565b60405180910390f35b61040f600480360381019061040a919061345d565b611c71565b60405161041c91906133dd565b60405180910390f35b61042d611ca0565b60405161043a91906133dd565b60405180910390f35b61044b611ca6565b60405161045891906136bf565b60405180910390f35b61047b6004803603810190610476919061349d565b611ccc565b005b610485611e67565b60405161049291906133dd565b60405180910390f35b6104b560048036038101906104b09190613670565b611e6f565b6040516104c291906136e9565b60405180910390f35b6104e560048036038101906104e0919061349d565b611e9e565b6040516104f291906133dd565b60405180910390f35b61051560048036038101906105109190613670565b612199565b60405161052291906133dd565b60405180910390f35b61054560048036038101906105409190613397565b61227d565b005b610561600480360381019061055c919061374c565b612300565b60405161056e919061379b565b60405180910390f35b61057f61233e565b60405161058c91906135ec565b60405180910390f35b600c6020528060005260406000206000915090505481565b8060ff166000816fffffffffffffffffffffffffffffffff161180156105e657506004816fffffffffffffffffffffffffffffffff1611155b610625576040517f08c379a000000000000000000000000000000000000000000000000000000000815260040161061c90613813565b60405180910390fd5b60026001540361066a576040517f08c379a00000000000000000000000000000000000000000000000000000000081526004016106619061387f565b60405180910390fd5b6002600181905550600083116106b5576040517f08c379a00000000000000000000000000000000000000000000000000000000081526004016106ac906138eb565b60405180910390fd5b60006106c18484611c71565b90508060095411610707576040517f08c379a00000000000000000000000000000000000000000000000000000000081526004016106fe9061397d565b60405180910390fd5b600080600660009054906101000a900473ffffffffffffffffffffffffffffffffffffffff1673ffffffffffffffffffffffffffffffffffffffff16600560009054906101000a900473ffffffffffffffffffffffffffffffffffffffff1673ffffffffffffffffffffffffffffffffffffffff16630dfe16816040518163ffffffff1660e01b8152600401602060405180830381865afa1580156107b0573d6000803e3d6000fd5b505050506040513d601f19601f820116820180604052508101906107d491906139b2565b73ffffffffffffffffffffffffffffffffffffffff1614159050801561088c57600560009054906101000a900473ffffffffffffffffffffffffffffffffffffffff1673ffffffffffffffffffffffffffffffffffffffff16630dfe16816040518163ffffffff1660e01b8152600401602060405180830381865afa158015610861573d6000803e3d6000fd5b505050506040513d601f19601f8201168201806040525081019061088591906139b2565b9150610920565b600560009054906101000a900473ffffffffffffffffffffffffffffffffffffffff1673ffffffffffffffffffffffffffffffffffffffff1663d21220a76040518163ffffffff1660e01b8152600401602060405180830381865afa1580156108f9573d6000803e3d6000fd5b505050506040513d601f19601f8201168201806040525081019061091d91906139b2565b91505b6000606461092d88611953565b6109379190613a3d565b90508273ffffffffffffffffffffffffffffffffffffffff166323b872dd3361095e611826565b846040518463ffffffff1660e01b815260040161097d93929190613a6e565b6020604051808303816000875af115801561099c573d6000803e3d6000fd5b505050506040513d601f19601f820116820180604052508101906109c09190613add565b5083600960008282546109d39190613b0a565b9250508190555083600860008282546109ec9190613b3e565b92505081905550610a42333089600760009054906101000a900473ffffffffffffffffffffffffffffffffffffffff1673ffffffffffffffffffffffffffffffffffffffff16612364909392919063ffffffff16565b86600c60003373ffffffffffffffffffffffffffffffffffffffff1673ffffffffffffffffffffffffffffffffffffffff1681526020019081526020016000206000828254610a919190613b3e565b9250508190555086600d60003373ffffffffffffffffffffffffffffffffffffffff1673ffffffffffffffffffffffffffffffffffffffff1681526020019081526020016000206000600460003373ffffffffffffffffffffffffffffffffffffffff1673ffffffffffffffffffffffffffffffffffffffff16815260200190815260200160002060009054906101000a900467ffffffffffffffff1663ffffffff1663ffffffff1681526020019081526020016000208190555085600e60003373ffffffffffffffffffffffffffffffffffffffff1673ffffffffffffffffffffffffffffffffffffffff1681526020019081526020016000206000600460003373ffffffffffffffffffffffffffffffffffffffff1673ffffffffffffffffffffffffffffffffffffffff16815260200190815260200160002060009054906101000a900467ffffffffffffffff1663ffffffff1663ffffffff16815260200190815260200160002060006101000a81548160ff021916908360ff16021790555086600a6000828254610c269190613b3e565b92505081905550610c3687611953565b600b6000828254610c479190613b3e565b925050819055506000610c5a87336123ed565b90503373ffffffffffffffffffffffffffffffffffffffff167f5af417134f72a9d41143ace85b0a26dce6f550f894f2cbc1eeee8810603d91b68983604051610ca4929190613b94565b60405180910390a2505050505060018081905550505050565b600080600660009054906101000a900473ffffffffffffffffffffffffffffffffffffffff1673ffffffffffffffffffffffffffffffffffffffff16600560009054906101000a900473ffffffffffffffffffffffffffffffffffffffff1673ffffffffffffffffffffffffffffffffffffffff16630dfe16816040518163ffffffff1660e01b8152600401602060405180830381865afa158015610d66573d6000803e3d6000fd5b505050506040513d601f19601f82011682018060405250810190610d8a91906139b2565b73ffffffffffffffffffffffffffffffffffffffff161415905060008082610e7157600560009054906101000a900473ffffffffffffffffffffffffffffffffffffffff1673ffffffffffffffffffffffffffffffffffffffff16630902f1ac6040518163ffffffff1660e01b8152600401606060405180830381865afa158015610e19573d6000803e3d6000fd5b505050506040513d601f19601f82011682018060405250810190610e3d9190613c18565b826dffffffffffffffffffffffffffff169250816dffffffffffffffffffffffffffff169150508092508193505050610f32565b600560009054906101000a900473ffffffffffffffffffffffffffffffffffffffff1673ffffffffffffffffffffffffffffffffffffffff16630902f1ac6040518163ffffffff1660e01b8152600401606060405180830381865afa158015610ede573d6000803e3d6000fd5b505050506040513d601f19601f82011682018060405250810190610f029190613c18565b826dffffffffffffffffffffffffffff169250816dffffffffffffffffffffffffffff1691505080935081925050505b73__UniswapV2Library______________________63ad615dec8684846040518463ffffffff1660e01b8152600401610f6d93929190613c7a565b602060405180830381865af4158015610f8a573d6000803e3d6000fd5b505050506040513d601f19601f82011682018060405250810190610fae9190613cc6565b9350505050919050565b60085481565b60008083905060018360ff1603610fea57610fe7603c82610fdf9190613cf3565b6104b06129ee565b91505b60028360ff16036110105761100d6078826110059190613cf3565b6101906129ee565b91505b60038360ff16036110355761103260a08261102b9190613cf3565b60c86129ee565b91505b60048360ff160361105a5761105760c8826110509190613cf3565b60646129ee565b91505b5092915050565b600a5481565b60046020528060005260406000206000915054906101000a900467ffffffffffffffff1681565b600080600080600360008773ffffffffffffffffffffffffffffffffffffffff1673ffffffffffffffffffffffffffffffffffffffff16815260200190815260200160002060008660ff166fffffffffffffffffffffffffffffffff16815260200190815260200160002060009054906101000a90046fffffffffffffffffffffffffffffffff166fffffffffffffffffffffffffffffffff169350611137868660ff16612199565b9250600e60008773ffffffffffffffffffffffffffffffffffffffff1673ffffffffffffffffffffffffffffffffffffffff16815260200190815260200160002060008660ff1663ffffffff16815260200190815260200160002060009054906101000a900460ff1660ff169150600d60008773ffffffffffffffffffffffffffffffffffffffff1673ffffffffffffffffffffffffffffffffffffffff16815260200190815260200160002060008660ff1663ffffffff16815260200190815260200160002054905092959194509250565b611212612a2b565b61121c6000612aa9565b565b600760009054906101000a900473ffffffffffffffffffffffffffffffffffffffff1681565b8063ffffffff166000600360003373ffffffffffffffffffffffffffffffffffffffff1673ffffffffffffffffffffffffffffffffffffffff1681526020019081526020016000206000836fffffffffffffffffffffffffffffffff166fffffffffffffffffffffffffffffffff16815260200190815260200160002060009054906101000a90046fffffffffffffffffffffffffffffffff166fffffffffffffffffffffffffffffffff161415801561136d5750600460003373ffffffffffffffffffffffffffffffffffffffff1673ffffffffffffffffffffffffffffffffffffffff16815260200190815260200160002060009054906101000a900467ffffffffffffffff1667ffffffffffffffff16816fffffffffffffffffffffffffffffffff1611155b6113ac576040517f08c379a00000000000000000000000000000000000000000000000000000000081526004016113a390613d99565b60405180910390fd5b8163ffffffff1642600360003373ffffffffffffffffffffffffffffffffffffffff1673ffffffffffffffffffffffffffffffffffffffff1681526020019081526020016000206000836fffffffffffffffffffffffffffffffff166fffffffffffffffffffffffffffffffff16815260200190815260200160002060009054906101000a90046fffffffffffffffffffffffffffffffff166fffffffffffffffffffffffffffffffff1610611497576040517f08c379a000000000000000000000000000000000000000000000000000000000815260040161148e90613e2b565b60405180910390fd5b6002600154036114dc576040517f08c379a00000000000000000000000000000000000000000000000000000000081526004016114d39061387f565b60405180910390fd5b60026001819055506000600d60003373ffffffffffffffffffffffffffffffffffffffff1673ffffffffffffffffffffffffffffffffffffffff16815260200190815260200160002060008563ffffffff1663ffffffff1681526020019081526020016000205490506115923382600760009054906101000a900473ffffffffffffffffffffffffffffffffffffffff1673ffffffffffffffffffffffffffffffffffffffff16612b6d9092919063ffffffff16565b6000600e60003373ffffffffffffffffffffffffffffffffffffffff1673ffffffffffffffffffffffffffffffffffffffff16815260200190815260200160002060008663ffffffff1663ffffffff16815260200190815260200160002060009054906101000a900460ff169050600061160c8383611c71565b90506000811115611665576116643382600660009054906101000a900473ffffffffffffffffffffffffffffffffffffffff1673ffffffffffffffffffffffffffffffffffffffff16612b6d9092919063ffffffff16565b5b80600860008282546116779190613b0a565b9250508190555082600a60008282546116909190613b0a565b925050819055506116a083611953565b600b60008282546116b19190613b0a565b925050819055506000600d60003373ffffffffffffffffffffffffffffffffffffffff1673ffffffffffffffffffffffffffffffffffffffff16815260200190815260200160002060008863ffffffff1663ffffffff16815260200190815260200160002060008282546117259190613b0a565b9250508190555082600c60003373ffffffffffffffffffffffffffffffffffffffff1673ffffffffffffffffffffffffffffffffffffffff168152602001908152602001600020600082825461177b9190613b0a565b925050819055506117928663ffffffff1633612bf3565b61179c8633612e58565b3373ffffffffffffffffffffffffffffffffffffffff167ff960dbf9e5d0682f7a298ed974e33a28b4464914b7a2bfac12ae419a9afeb28084836040516117e4929190613b94565b60405180910390a250505060018081905550505050565b600d602052816000526040600020602052806000526040600020600091509150505481565b600b5481565b60008060009054906101000a900473ffffffffffffffffffffffffffffffffffffffff16905090565b611857612a2b565b6000811161189a576040517f08c379a000000000000000000000000000000000000000000000000000000000815260040161189190613e97565b60405180910390fd5b6118e9333083600660009054906101000a900473ffffffffffffffffffffffffffffffffffffffff1673ffffffffffffffffffffffffffffffffffffffff16612364909392919063ffffffff16565b80600960008282546118fb9190613b3e565b925050819055503373ffffffffffffffffffffffffffffffffffffffff167fc1d32ad5cca423e7dda2123dbf8c482f8e77d00b631c06e903a47f2cec1334df8260405161194891906133dd565b60405180910390a250565b600080600560009054906101000a900473ffffffffffffffffffffffffffffffffffffffff1673ffffffffffffffffffffffffffffffffffffffff166318160ddd6040518163ffffffff1660e01b8152600401602060405180830381865afa1580156119c3573d6000803e3d6000fd5b505050506040513d601f19601f820116820180604052508101906119e79190613cc6565b90506000600660009054906101000a900473ffffffffffffffffffffffffffffffffffffffff1673ffffffffffffffffffffffffffffffffffffffff16600560009054906101000a900473ffffffffffffffffffffffffffffffffffffffff1673ffffffffffffffffffffffffffffffffffffffff16630dfe16816040518163ffffffff1660e01b8152600401602060405180830381865afa158015611a91573d6000803e3d6000fd5b505050506040513d601f19601f82011682018060405250810190611ab591906139b2565b73ffffffffffffffffffffffffffffffffffffffff161415905060008115611b8757600560009054906101000a900473ffffffffffffffffffffffffffffffffffffffff1673ffffffffffffffffffffffffffffffffffffffff16630902f1ac6040518163ffffffff1660e01b8152600401606060405180830381865afa158015611b44573d6000803e3d6000fd5b505050506040513d601f19601f82011682018060405250810190611b689190613c18565b826dffffffffffffffffffffffffffff16925090505080915050611c34565b600560009054906101000a900473ffffffffffffffffffffffffffffffffffffffff1673ffffffffffffffffffffffffffffffffffffffff16630902f1ac6040518163ffffffff1660e01b8152600401606060405180830381865afa158015611bf4573d6000803e3d6000fd5b505050506040513d601f19601f82011682018060405250810190611c189190613c18565b909150816dffffffffffffffffffffffffffff16915050809150505b60008190506000600282611c489190613cf3565b90506000611c5682876129ee565b90508088611c649190613cf3565b9650505050505050919050565b600080611c7d84611953565b90506000611c8b8285610fbe565b9050611c9681611e9e565b9250505092915050565b60095481565b600560009054906101000a900473ffffffffffffffffffffffffffffffffffffffff1681565b611cd4612a2b565b60008114611d17576040517f08c379a0000000000000000000000000000000000000000000000000000000008152600401611d0e90613f03565b60405180910390fd5b600954811115611d5c576040517f08c379a0000000000000000000000000000000000000000000000000000000008152600401611d5390613f6f565b60405180910390fd5b600660009054906101000a900473ffffffffffffffffffffffffffffffffffffffff1673ffffffffffffffffffffffffffffffffffffffff1663a9059cbb33836040518363ffffffff1660e01b8152600401611db9929190613f8f565b6020604051808303816000875af1158015611dd8573d6000803e3d6000fd5b505050506040513d601f19601f82011682018060405250810190611dfc9190613add565b508060096000828254611e0f9190613b0a565b925050819055503373ffffffffffffffffffffffffffffffffffffffff167fc1d32ad5cca423e7dda2123dbf8c482f8e77d00b631c06e903a47f2cec1334df82604051611e5c91906133dd565b60405180910390a250565b600042905090565b600e6020528160005260406000206020528060005260406000206000915091509054906101000a900460ff1681565b600080600660009054906101000a900473ffffffffffffffffffffffffffffffffffffffff1673ffffffffffffffffffffffffffffffffffffffff16600560009054906101000a900473ffffffffffffffffffffffffffffffffffffffff1673ffffffffffffffffffffffffffffffffffffffff16630dfe16816040518163ffffffff1660e01b8152600401602060405180830381865afa158015611f47573d6000803e3d6000fd5b505050506040513d601f19601f82011682018060405250810190611f6b91906139b2565b73ffffffffffffffffffffffffffffffffffffffff16149050600080821561205257600560009054906101000a900473ffffffffffffffffffffffffffffffffffffffff1673ffffffffffffffffffffffffffffffffffffffff16630902f1ac6040518163ffffffff1660e01b8152600401606060405180830381865afa158015611ffa573d6000803e3d6000fd5b505050506040513d601f19601f8201168201806040525081019061201e9190613c18565b826dffffffffffffffffffffffffffff169250816dffffffffffffffffffffffffffff169150508092508193505050612113565b600560009054906101000a900473ffffffffffffffffffffffffffffffffffffffff1673ffffffffffffffffffffffffffffffffffffffff16630902f1ac6040518163ffffffff1660e01b8152600401606060405180830381865afa1580156120bf573d6000803e3d6000fd5b505050506040513d601f19601f820116820180604052508101906120e39190613c18565b826dffffffffffffffffffffffffffff169250816dffffffffffffffffffffffffffff1691505080935081925050505b73__UniswapV2Library______________________63ad615dec8683856040518463ffffffff1660e01b815260040161214e93929190613c7a565b602060405180830381865af415801561216b573d6000803e3d6000fd5b505050506040513d601f19601f8201168201806040525081019061218f9190613cc6565b9350505050919050565b600080600d60008573ffffffffffffffffffffffffffffffffffffffff1673ffffffffffffffffffffffffffffffffffffffff16815260200190815260200160002060008463ffffffff1663ffffffff1681526020019081526020016000205490506000600e60008673ffffffffffffffffffffffffffffffffffffffff1673ffffffffffffffffffffffffffffffffffffffff16815260200190815260200160002060008563ffffffff1663ffffffff16815260200190815260200160002060009054906101000a900460ff1690506122738282611c71565b9250505092915050565b612285612a2b565b600073ffffffffffffffffffffffffffffffffffffffff168173ffffffffffffffffffffffffffffffffffffffff16036122f4576040517f08c379a00000000000000000000000000000000000000000000000000000000081526004016122eb9061402a565b60405180910390fd5b6122fd81612aa9565b50565b60036020528160005260406000206020528060005260406000206000915091509054906101000a90046fffffffffffffffffffffffffffffffff1681565b600660009054906101000a900473ffffffffffffffffffffffffffffffffffffffff1681565b6123e7846323b872dd60e01b85858560405160240161238593929190613a6e565b604051602081830303815290604052907bffffffffffffffffffffffffffffffffffffffffffffffffffffffff19166020820180517bffffffffffffffffffffffffffffffffffffffffffffffffffffffff83818316178352505050506130af565b50505050565b60008260ff166000816fffffffffffffffffffffffffffffffff1611801561242857506004816fffffffffffffffffffffffffffffffff1611155b612467576040517f08c379a000000000000000000000000000000000000000000000000000000000815260040161245e90613813565b60405180910390fd5b8360ff16600481111561247d5761247c61404a565b5b600260006101000a81548160ff021916908360048111156124a1576124a061404a565b5b02179055506000600460008573ffffffffffffffffffffffffffffffffffffffff1673ffffffffffffffffffffffffffffffffffffffff16815260200190815260200160002060009054906101000a900467ffffffffffffffff1667ffffffffffffffff16905060006001600481111561251e5761251d61404a565b5b60048111156125305761252f61404a565b5b600260009054906101000a900460ff1660048111156125525761255161404a565b5b036126165762278d00426125669190613b3e565b600360008773ffffffffffffffffffffffffffffffffffffffff1673ffffffffffffffffffffffffffffffffffffffff1681526020019081526020016000206000846fffffffffffffffffffffffffffffffff166fffffffffffffffffffffffffffffffff16815260200190815260200160002060006101000a8154816fffffffffffffffffffffffffffffffff02191690836fffffffffffffffffffffffffffffffff16021790559050612946565b6002600481111561262a5761262961404a565b5b600481111561263c5761263b61404a565b5b600260009054906101000a900460ff16600481111561265e5761265d61404a565b5b03612722576276a700426126729190613b3e565b600360008773ffffffffffffffffffffffffffffffffffffffff1673ffffffffffffffffffffffffffffffffffffffff1681526020019081526020016000206000846fffffffffffffffffffffffffffffffff166fffffffffffffffffffffffffffffffff16815260200190815260200160002060006101000a8154816fffffffffffffffffffffffffffffffff02191690836fffffffffffffffffffffffffffffffff16021790559050612945565b600360048111156127365761273561404a565b5b60048111156127485761274761404a565b5b600260009054906101000a900460ff16600481111561276a5761276961404a565b5b0361283b5761a8c062eff100426127819190613b3e565b61278b9190613b3e565b600360008773ffffffffffffffffffffffffffffffffffffffff1673ffffffffffffffffffffffffffffffffffffffff1681526020019081526020016000206000846fffffffffffffffffffffffffffffffff166fffffffffffffffffffffffffffffffff16815260200190815260200160002060006101000a8154816fffffffffffffffffffffffffffffffff02191690836fffffffffffffffffffffffffffffffff16021790559050612944565b60048081111561284e5761284d61404a565b5b60048111156128605761285f61404a565b5b600260009054906101000a900460ff1660048111156128825761288161404a565b5b03612943576301e13380426128979190613b3e565b600360008773ffffffffffffffffffffffffffffffffffffffff1673ffffffffffffffffffffffffffffffffffffffff1681526020019081526020016000206000846fffffffffffffffffffffffffffffffff166fffffffffffffffffffffffffffffffff16815260200190815260200160002060006101000a8154816fffffffffffffffffffffffffffffffff02191690836fffffffffffffffffffffffffffffffff160217905590505b5b5b5b600460008673ffffffffffffffffffffffffffffffffffffffff1673ffffffffffffffffffffffffffffffffffffffff168152602001908152602001600020600081819054906101000a900467ffffffffffffffff16809291906129a990614079565b91906101000a81548167ffffffffffffffff021916908367ffffffffffffffff16021790555050806fffffffffffffffffffffffffffffffff16935050505092915050565b6000808314612a2057600182600185612a079190613b0a565b612a119190613a3d565b612a1b9190613b3e565b612a23565b60005b905092915050565b612a33613176565b73ffffffffffffffffffffffffffffffffffffffff16612a51611826565b73ffffffffffffffffffffffffffffffffffffffff1614612aa7576040517f08c379a0000000000000000000000000000000000000000000000000000000008152600401612a9e906140f5565b60405180910390fd5b565b60008060009054906101000a900473ffffffffffffffffffffffffffffffffffffffff169050816000806101000a81548173ffffffffffffffffffffffffffffffffffffffff021916908373ffffffffffffffffffffffffffffffffffffffff1602179055508173ffffffffffffffffffffffffffffffffffffffff168173ffffffffffffffffffffffffffffffffffffffff167f8be0079c531659141344cd1fd0a4f28419497f9722a3daafe3b4186f6b6457e060405160405180910390a35050565b612bee8363a9059cbb60e01b8484604051602401612b8c929190613f8f565b604051602081830303815290604052907bffffffffffffffffffffffffffffffffffffffffffffffffffffffff19166020820180517bffffffffffffffffffffffffffffffffffffffffffffffffffffffff83818316178352505050506130af565b505050565b60008290505b600460008373ffffffffffffffffffffffffffffffffffffffff1673ffffffffffffffffffffffffffffffffffffffff16815260200190815260200160002060009054906101000a900467ffffffffffffffff1667ffffffffffffffff16816fffffffffffffffffffffffffffffffff161015612dca57600360003373ffffffffffffffffffffffffffffffffffffffff1673ffffffffffffffffffffffffffffffffffffffff1681526020019081526020016000206000600183612cbe9190614115565b6fffffffffffffffffffffffffffffffff166fffffffffffffffffffffffffffffffff16815260200190815260200160002060009054906101000a90046fffffffffffffffffffffffffffffffff16600360003373ffffffffffffffffffffffffffffffffffffffff1673ffffffffffffffffffffffffffffffffffffffff1681526020019081526020016000206000836fffffffffffffffffffffffffffffffff166fffffffffffffffffffffffffffffffff16815260200190815260200160002060006101000a8154816fffffffffffffffffffffffffffffffff02191690836fffffffffffffffffffffffffffffffff1602179055508080612dc29061415b565b915050612bf9565b506001600460008373ffffffffffffffffffffffffffffffffffffffff1673ffffffffffffffffffffffffffffffffffffffff16815260200190815260200160002060008282829054906101000a900467ffffffffffffffff16612e2e9190614193565b92506101000a81548167ffffffffffffffff021916908367ffffffffffffffff1602179055505050565b60008290505b600460008373ffffffffffffffffffffffffffffffffffffffff1673ffffffffffffffffffffffffffffffffffffffff16815260200190815260200160002060009054906101000a900467ffffffffffffffff1667ffffffffffffffff168163ffffffff1610156130aa57600360003373ffffffffffffffffffffffffffffffffffffffff1673ffffffffffffffffffffffffffffffffffffffff1681526020019081526020016000206000600183612f1791906141c7565b63ffffffff166fffffffffffffffffffffffffffffffff16815260200190815260200160002060009054906101000a90046fffffffffffffffffffffffffffffffff16600e60003373ffffffffffffffffffffffffffffffffffffffff1673ffffffffffffffffffffffffffffffffffffffff16815260200190815260200160002060008363ffffffff1663ffffffff16815260200190815260200160002060006101000a81548160ff021916908360ff160217905550600d60003373ffffffffffffffffffffffffffffffffffffffff1673ffffffffffffffffffffffffffffffffffffffff168152602001908152602001600020600060018361301c91906141c7565b63ffffffff1663ffffffff16815260200190815260200160002054600d60003373ffffffffffffffffffffffffffffffffffffffff1673ffffffffffffffffffffffffffffffffffffffff16815260200190815260200160002060008363ffffffff1663ffffffff1681526020019081526020016000208190555080806130a290614201565b915050612e5e565b505050565b6000613111826040518060400160405280602081526020017f5361666545524332303a206c6f772d6c6576656c2063616c6c206661696c65648152508573ffffffffffffffffffffffffffffffffffffffff1661317e9092919063ffffffff16565b905060008151111561317157808060200190518101906131319190613add565b613170576040517f08c379a00000000000000000000000000000000000000000000000000000000081526004016131679061429f565b60405180910390fd5b5b505050565b600033905090565b606061318d8484600085613196565b90509392505050565b6060824710156131db576040517f08c379a00000000000000000000000000000000000000000000000000000000081526004016131d290614331565b60405180910390fd5b6131e4856132aa565b613223576040517f08c379a000000000000000000000000000000000000000000000000000000000815260040161321a9061439d565b60405180910390fd5b6000808673ffffffffffffffffffffffffffffffffffffffff16858760405161324c9190614437565b60006040518083038185875af1925050503d8060008114613289576040519150601f19603f3d011682016040523d82523d6000602084013e61328e565b606091505b509150915061329e8282866132cd565b92505050949350505050565b6000808273ffffffffffffffffffffffffffffffffffffffff163b119050919050565b606083156132dd5782905061332d565b6000835111156132f05782518084602001fd5b816040517f08c379a000000000000000000000000000000000000000000000000000000000815260040161332491906144a3565b60405180910390fd5b9392505050565b600080fd5b600073ffffffffffffffffffffffffffffffffffffffff82169050919050565b600061336482613339565b9050919050565b61337481613359565b811461337f57600080fd5b50565b6000813590506133918161336b565b92915050565b6000602082840312156133ad576133ac613334565b5b60006133bb84828501613382565b91505092915050565b6000819050919050565b6133d7816133c4565b82525050565b60006020820190506133f260008301846133ce565b92915050565b613401816133c4565b811461340c57600080fd5b50565b60008135905061341e816133f8565b92915050565b600060ff82169050919050565b61343a81613424565b811461344557600080fd5b50565b60008135905061345781613431565b92915050565b6000806040838503121561347457613473613334565b5b60006134828582860161340f565b925050602061349385828601613448565b9150509250929050565b6000602082840312156134b3576134b2613334565b5b60006134c18482850161340f565b91505092915050565b600067ffffffffffffffff82169050919050565b6134e7816134ca565b82525050565b600060208201905061350260008301846134de565b92915050565b6000806040838503121561351f5761351e613334565b5b600061352d85828601613382565b925050602061353e85828601613448565b9150509250929050565b600060808201905061355d60008301876133ce565b61356a60208301866133ce565b61357760408301856133ce565b61358460608301846133ce565b95945050505050565b6000819050919050565b60006135b26135ad6135a884613339565b61358d565b613339565b9050919050565b60006135c482613597565b9050919050565b60006135d6826135b9565b9050919050565b6135e6816135cb565b82525050565b600060208201905061360160008301846135dd565b92915050565b600063ffffffff82169050919050565b61362081613607565b811461362b57600080fd5b50565b60008135905061363d81613617565b92915050565b60006020828403121561365957613658613334565b5b60006136678482850161362e565b91505092915050565b6000806040838503121561368757613686613334565b5b600061369585828601613382565b92505060206136a68582860161362e565b9150509250929050565b6136b981613359565b82525050565b60006020820190506136d460008301846136b0565b92915050565b6136e381613424565b82525050565b60006020820190506136fe60008301846136da565b92915050565b60006fffffffffffffffffffffffffffffffff82169050919050565b61372981613704565b811461373457600080fd5b50565b60008135905061374681613720565b92915050565b6000806040838503121561376357613762613334565b5b600061377185828601613382565b925050602061378285828601613737565b9150509250929050565b61379581613704565b82525050565b60006020820190506137b0600083018461378c565b92915050565b600082825260208201905092915050565b7f77726f6e672043686f6973652121210000000000000000000000000000000000600082015250565b60006137fd600f836137b6565b9150613808826137c7565b602082019050919050565b6000602082019050818103600083015261382c816137f0565b9050919050565b7f5265656e7472616e637947756172643a207265656e7472616e742063616c6c00600082015250565b6000613869601f836137b6565b915061387482613833565b602082019050919050565b600060208201905081810360008301526138988161385c565b9050919050565b7f43616e6e6f74207374616b652030000000000000000000000000000000000000600082015250565b60006138d5600e836137b6565b91506138e08261389f565b602082019050919050565b60006020820190508181036000830152613904816138c8565b9050919050565b7f6f776e65722068617665206e6f7420656e6f7567682062756c6320746f20706160008201527f7921000000000000000000000000000000000000000000000000000000000000602082015250565b60006139676022836137b6565b91506139728261390b565b604082019050919050565b600060208201905081810360008301526139968161395a565b9050919050565b6000815190506139ac8161336b565b92915050565b6000602082840312156139c8576139c7613334565b5b60006139d68482850161399d565b91505092915050565b7f4e487b7100000000000000000000000000000000000000000000000000000000600052601260045260246000fd5b7f4e487b7100000000000000000000000000000000000000000000000000000000600052601160045260246000fd5b6000613a48826133c4565b9150613a53836133c4565b925082613a6357613a626139df565b5b828204905092915050565b6000606082019050613a8360008301866136b0565b613a9060208301856136b0565b613a9d60408301846133ce565b949350505050565b60008115159050919050565b613aba81613aa5565b8114613ac557600080fd5b50565b600081519050613ad781613ab1565b92915050565b600060208284031215613af357613af2613334565b5b6000613b0184828501613ac8565b91505092915050565b6000613b15826133c4565b9150613b20836133c4565b925082821015613b3357613b32613a0e565b5b828203905092915050565b6000613b49826133c4565b9150613b54836133c4565b9250827fffffffffffffffffffffffffffffffffffffffffffffffffffffffffffffffff03821115613b8957613b88613a0e565b5b828201905092915050565b6000604082019050613ba960008301856133ce565b613bb660208301846133ce565b9392505050565b60006dffffffffffffffffffffffffffff82169050919050565b613be081613bbd565b8114613beb57600080fd5b50565b600081519050613bfd81613bd7565b92915050565b600081519050613c1281613617565b92915050565b600080600060608486031215613c3157613c30613334565b5b6000613c3f86828701613bee565b9350506020613c5086828701613bee565b9250506040613c6186828701613c03565b9150509250925092565b613c74816133c4565b82525050565b6000606082019050613c8f6000830186613c6b565b613c9c6020830185613c6b565b613ca96040830184613c6b565b949350505050565b600081519050613cc0816133f8565b92915050565b600060208284031215613cdc57613cdb613334565b5b6000613cea84828501613cb1565b91505092915050565b6000613cfe826133c4565b9150613d09836133c4565b9250817fffffffffffffffffffffffffffffffffffffffffffffffffffffffffffffffff0483118215151615613d4257613d41613a0e565b5b828202905092915050565b7f7468697320706f736974696f6e20646f7365206e6f7420657869737421000000600082015250565b6000613d83601d836137b6565b9150613d8e82613d4d565b602082019050919050565b60006020820190508181036000830152613db281613d76565b9050919050565b7f74686973207374616b6520706f736974696f6e2074696d6520646f7365206e6f60008201527f7420656e64207965742121210000000000000000000000000000000000000000602082015250565b6000613e15602c836137b6565b9150613e2082613db9565b604082019050919050565b60006020820190508181036000830152613e4481613e08565b9050919050565b7f43616e6e6f742064697374726962757465203000000000000000000000000000600082015250565b6000613e816013836137b6565b9150613e8c82613e4b565b602082019050919050565b60006020820190508181036000830152613eb081613e74565b9050919050565b7f3020616d6f756e74000000000000000000000000000000000000000000000000600082015250565b6000613eed6008836137b6565b9150613ef882613eb7565b602082019050919050565b60006020820190508181036000830152613f1c81613ee0565b9050919050565b7f796f752063616e207769746472617720726577617264467265657a6400000000600082015250565b6000613f59601c836137b6565b9150613f6482613f23565b602082019050919050565b60006020820190508181036000830152613f8881613f4c565b9050919050565b6000604082019050613fa460008301856136b0565b613fb160208301846133ce565b9392505050565b7f4f776e61626c653a206e6577206f776e657220697320746865207a65726f206160008201527f6464726573730000000000000000000000000000000000000000000000000000602082015250565b60006140146026836137b6565b915061401f82613fb8565b604082019050919050565b6000602082019050818103600083015261404381614007565b9050919050565b7f4e487b7100000000000000000000000000000000000000000000000000000000600052602160045260246000fd5b6000614084826134ca565b915067ffffffffffffffff820361409e5761409d613a0e565b5b600182019050919050565b7f4f776e61626c653a2063616c6c6572206973206e6f7420746865206f776e6572600082015250565b60006140df6020836137b6565b91506140ea826140a9565b602082019050919050565b6000602082019050818103600083015261410e816140d2565b9050919050565b600061412082613704565b915061412b83613704565b9250826fffffffffffffffffffffffffffffffff038211156141505761414f613a0e565b5b828201905092915050565b600061416682613704565b91506fffffffffffffffffffffffffffffffff820361418857614187613a0e565b5b600182019050919050565b600061419e826134ca565b91506141a9836134ca565b9250828210156141bc576141bb613a0e565b5b828203905092915050565b60006141d282613607565b91506141dd83613607565b92508263ffffffff038211156141f6576141f5613a0e565b5b828201905092915050565b600061420c82613607565b915063ffffffff820361422257614221613a0e565b5b600182019050919050565b7f5361666545524332303a204552433230206f7065726174696f6e20646964206e60008201527f6f74207375636365656400000000000000000000000000000000000000000000602082015250565b6000614289602a836137b6565b91506142948261422d565b604082019050919050565b600060208201905081810360008301526142b88161427c565b9050919050565b7f416464726573733a20696e73756666696369656e742062616c616e636520666f60008201527f722063616c6c0000000000000000000000000000000000000000000000000000602082015250565b600061431b6026836137b6565b9150614326826142bf565b604082019050919050565b6000602082019050818103600083015261434a8161430e565b9050919050565b7f416464726573733a2063616c6c20746f206e6f6e2d636f6e7472616374000000600082015250565b6000614387601d836137b6565b915061439282614351565b602082019050919050565b600060208201905081810360008301526143b68161437a565b9050919050565b600081519050919050565b600081905092915050565b60005b838110156143f15780820151818401526020810190506143d6565b83811115614400576000848401525b50505050565b6000614411826143bd565b61441b81856143c8565b935061442b8185602086016143d3565b80840191505092915050565b60006144438284614406565b915081905092915050565b600081519050919050565b6000601f19601f8301169050919050565b60006144758261444e565b61447f81856137b6565b935061448f8185602086016143d3565b61449881614459565b840191505092915050565b600060208201905081810360008301526144bd818461446a565b90509291505056fea264697066735822122001dd7f53fde6926327f1137b1e1a72e22bfae9899d145fa5ca94e76e60c8c3cd64736f6c634300080f0033",
  "immutableReferences": {},
  "source": "// SPDX-License-Identifier: MIT\r\npragma solidity ^0.8.0;\r\n\r\nimport \"@uniswap/v2-core/contracts/interfaces/IUniswapV2Pair.sol\";\r\n// import \"@uniswap/v2-periphery/contracts/libraries/UniswapV2Library.sol\";\r\nimport \"@uniswap/v2-periphery/contracts/libraries/UniswapV2Library.sol\";\r\nimport \"@openzeppelin/contracts/token/ERC20/IERC20.sol\";\r\nimport \"@openzeppelin/contracts/token/ERC20/utils/SafeERC20.sol\";\r\nimport \"@openzeppelin/contracts/access/Ownable.sol\";\r\nimport \"@openzeppelin/contracts/security/ReentrancyGuard.sol\";\r\nimport \"@openzeppelin/contracts/utils/math/Math.sol\";\r\n\r\nimport \"./CountDown.sol\";\r\n\r\n// import \"./CountDown.sol\";\r\n\r\ncontract Staking is Ownable, ReentrancyGuard, CountDown {\r\n    using SafeERC20 for IERC20;\r\n\r\n    /* ========== STATE VARIABLES ========== */\r\n    address public pair; //PAIR ADDRESS\r\n    IERC20 public rewardToken; //REWARD TOKEN ADDRESS\r\n    IERC20 public stakingToken; //LP TOKEN ADDRESS\r\n\r\n    uint256 public StakedRewardFreezed = 0; //FREEZED STAKE REWARD\r\n    uint256 public StakedReward; //FREE STAKE REWAED\r\n    uint256 public totalValueLuckLPToken; // LP TOKEN LUCKED\r\n    uint256 public totalValueLuckBUSD; //LP TOKEN LUCKED PER BUSD\r\n    mapping(address => uint256) public AllStakedBalance; // stake = {};\r\n    mapping(address => mapping(uint32 => uint256)) public stakedBalance; // stake = {};\r\n    mapping(address => mapping(uint32 => uint8)) public stakedChoise; // choise = {};\r\n\r\n    event Stake(address indexed user, uint256 amount, uint256 endTime);\r\n    event Unstake(address indexed user, uint256 amount, uint256 reward);\r\n    event ClaimReward(address indexed user, uint256 reward);\r\n    event Distribute(address indexed user, uint256 reward);\r\n\r\n    constructor(address _stakingToken, address _rewardToken) {\r\n        /* ======= PAIR AND LPTOKEN HAVE SAVE ADDRESSES ======= */\r\n        pair = _stakingToken; //PAIR ADDRESS\r\n        stakingToken = IERC20(_stakingToken); //LP TOKEN ADDRESS\r\n        rewardToken = IERC20(_rewardToken); //REWARD ADDRESS\r\n    }\r\n\r\n    /* ========== FUNCTIONS ========== */\r\n\r\n    function calculateAmountBulc(uint256 _amountBusd)\r\n        public\r\n        view\r\n        returns (uint256)\r\n    {\r\n        bool trueToken = (IUniswapV2Pair(pair).token0() ==\r\n            address(rewardToken)); //CHECK WHICH ADDRESS IS REWARD ADDRESS\r\n\r\n        uint256 reserveBulc; //REWARD ADDRESS\r\n        uint256 reserveBusd; //FEE TOKEN ADDRESS\r\n        if (trueToken) {\r\n            (reserveBulc, reserveBusd, ) = IUniswapV2Pair(pair).getReserves(); //GET RESERVES\r\n        } else {\r\n            (reserveBusd, reserveBulc, ) = IUniswapV2Pair(pair).getReserves(); //GET RESERVES\r\n        }\r\n        return UniswapV2Library.quote(_amountBusd, reserveBusd, reserveBulc);\r\n    }\r\n\r\n    function calculateAmountBusd(uint256 _BulcAmount)\r\n        public\r\n        view\r\n        returns (uint256)\r\n    {\r\n        bool trueToken = (IUniswapV2Pair(pair).token0() !=\r\n            address(rewardToken)); //CHECK WHICH ADDRESS IS NOT REWARD ADDRESS\r\n\r\n        uint256 reserveBulc; //REWARD TOKEN ADDRESS\r\n        uint256 reserveBusd; //FEE TOKEN ADDRESS\r\n        if (!trueToken) {\r\n            (reserveBulc, reserveBusd, ) = IUniswapV2Pair(pair).getReserves(); //GET RESERVES\r\n        } else {\r\n            (reserveBusd, reserveBulc, ) = IUniswapV2Pair(pair).getReserves(); //GET RESERVES\r\n        }\r\n        return UniswapV2Library.quote(_BulcAmount, reserveBulc, reserveBusd);\r\n    }\r\n\r\n    function calculateValue(uint256 _LpTokenAmount)\r\n        public\r\n        view\r\n        returns (uint256 valueLpPerBusd)\r\n    {\r\n        uint256 LPBalancePair = IUniswapV2Pair(pair).totalSupply(); //\r\n        bool trueToken = (IUniswapV2Pair(pair).token0() !=\r\n            address(rewardToken));\r\n        uint256 BusdAmount;\r\n\r\n        if (trueToken) {\r\n            (BusdAmount, , ) = IUniswapV2Pair(pair).getReserves();\r\n        } else {\r\n            (, BusdAmount, ) = IUniswapV2Pair(pair).getReserves();\r\n        }\r\n        uint256 BusdBalancePair = BusdAmount;\r\n\r\n        uint256 pairValue = BusdBalancePair * 2;\r\n        uint256 LpTokenPerBusdValue = Math.ceilDiv(pairValue, LPBalancePair);\r\n        valueLpPerBusd = _LpTokenAmount * LpTokenPerBusdValue;\r\n    }\r\n\r\n    function calculatePermit(uint256 amount_, uint8 choice_)\r\n        public\r\n        pure\r\n        returns (uint256 exactAmount)\r\n    {\r\n        uint256 amount = amount_; //GAS SAVING\r\n\r\n        if (choice_ == 1) {\r\n            exactAmount = Math.ceilDiv((amount * 60), (12 * 100)); //60APR\r\n        }\r\n        if (choice_ == 2) {\r\n            exactAmount = Math.ceilDiv((amount * 120), (4 * 100)); //120APR\r\n        }\r\n        if (choice_ == 3) {\r\n            exactAmount = Math.ceilDiv((amount * 160), (2 * 100)); //160APR\r\n        }\r\n        if (choice_ == 4) {\r\n            exactAmount = Math.ceilDiv((amount * 200), 100); //200APR\r\n        }\r\n    }\r\n\r\n    function calculate(uint256 _LPamount, uint8 choice)\r\n        public\r\n        view\r\n        returns (uint256 permitPerBulc)\r\n    {\r\n        uint256 BusdAmount = calculateValue(_LPamount);\r\n        uint256 permitPerBusd = calculatePermit(BusdAmount, choice);\r\n        permitPerBulc = calculateAmountBulc(permitPerBusd);\r\n    }\r\n\r\n    function stake(uint256 _amount, uint8 _Choise)\r\n        external\r\n        checkChoice(_Choise)\r\n        nonReentrant\r\n    {\r\n        require(_amount > 0, \"Cannot stake 0\");\r\n        uint256 luck = calculate(_amount, _Choise);\r\n        require(StakedReward > luck, \"owner have not enough bulc to pay!\");\r\n        IERC20 Busd;\r\n        bool trueToken = (IUniswapV2Pair(pair).token0() !=\r\n            address(rewardToken));\r\n        if (trueToken) {\r\n            Busd = IERC20(IUniswapV2Pair(pair).token0());\r\n        } else {\r\n            Busd = IERC20(IUniswapV2Pair(pair).token1());\r\n        }\r\n\r\n        uint256 fee = calculateValue(_amount) / 100;\r\n        Busd.transferFrom(msg.sender, owner(), fee);\r\n        StakedReward -= luck;\r\n        StakedRewardFreezed += luck;\r\n        // address BulcPairBalance=IERC20(_pair.token1()); 9999996998999999000\r\n        //        99999999999998889999004000000000000\r\n        //                                         9999996999999999000\r\n        stakingToken.safeTransferFrom(msg.sender, address(this), _amount);\r\n        AllStakedBalance[msg.sender] += _amount; // stake[address] = amount;\r\n        stakedBalance[msg.sender][uint32(positions[msg.sender])] = _amount; // stake[address] = amount;\r\n        stakedChoise[msg.sender][uint32(positions[msg.sender])] = _Choise;\r\n        totalValueLuckLPToken += _amount; // T = T + amount;\r\n        totalValueLuckBUSD += calculateValue(_amount);\r\n        uint256 endTime = stakeFor(_Choise, msg.sender);\r\n        emit Stake(msg.sender, _amount, endTime);\r\n    }\r\n\r\n    function unstake(uint32 position)\r\n        external\r\n        isExist(position)\r\n        isDone(position)\r\n        nonReentrant\r\n    {\r\n        uint256 deposited = stakedBalance[msg.sender][position]; // deposited = stake[address];\r\n        stakingToken.safeTransfer(msg.sender, deposited);\r\n        uint8 choise = stakedChoise[msg.sender][position];\r\n        uint256 reward = calculate(deposited, choise);\r\n\r\n        if (reward > 0) {\r\n            rewardToken.safeTransfer(msg.sender, reward);\r\n        }\r\n        StakedRewardFreezed -= reward;\r\n        totalValueLuckLPToken -= deposited; // T = T - deposited;\r\n        totalValueLuckBUSD -= calculateValue(deposited);\r\n\r\n        stakedBalance[msg.sender][position] -= 0; // stake[address] = 0;\r\n        AllStakedBalance[msg.sender] -= deposited; // stake[address] = 0;\r\n        updatePositions(position, msg.sender); //updatePositions\r\n        update(position, msg.sender);\r\n\r\n        emit Unstake(msg.sender, deposited, reward);\r\n    }\r\n\r\n    function distribute(uint256 _reward) external onlyOwner {\r\n        require(_reward > 0, \"Cannot distribute 0\");\r\n\r\n        rewardToken.safeTransferFrom(msg.sender, address(this), _reward);\r\n        StakedReward += _reward;\r\n        /// r / t can be under 0\r\n        emit Distribute(msg.sender, _reward);\r\n    }\r\n\r\n    function witdraw(uint256 rewardTokenAmount) external onlyOwner {\r\n        require(rewardTokenAmount == 0, \"0 amount\");\r\n        require(\r\n            rewardTokenAmount <= StakedReward,\r\n            \"you can witdraw rewardFreezd\"\r\n        );\r\n        rewardToken.transfer(msg.sender, rewardTokenAmount);\r\n        StakedReward -= rewardTokenAmount;\r\n        emit Distribute(msg.sender, rewardTokenAmount);\r\n    }\r\n\r\n    // function notFreezedReward()public returns()\r\n\r\n    function rewardOf(address _account, uint32 position)\r\n        public\r\n        view\r\n        returns (uint256)\r\n    {\r\n        uint256 deposited = stakedBalance[_account][position];\r\n        uint8 choice = stakedChoise[_account][position];\r\n        return calculate(deposited, choice);\r\n    }\r\n\r\n    function update(uint32 position_, address sender) internal {\r\n        for (uint32 i = position_; i < positions[sender]; i++) {\r\n            stakedChoise[msg.sender][i] = uint8(luckTime[msg.sender][i + 1]);\r\n            stakedBalance[msg.sender][i] = stakedBalance[msg.sender][i + 1];\r\n        }\r\n    }\r\n\r\n    function getAll(address sender_, uint8 position)\r\n        public\r\n        view\r\n        returns (\r\n            uint256 remainedTime,\r\n            uint256 reward,\r\n            uint256 choise,\r\n            uint256 LPTokenBalnce\r\n        )\r\n    {\r\n        remainedTime = luckTime[sender_][position];\r\n        reward = rewardOf(sender_, position);\r\n        choise = stakedChoise[sender_][position];\r\n        LPTokenBalnce = stakedBalance[sender_][position];\r\n    }\r\n}\r\n",
  "sourcePath": "F:\\EXACT PROJECT\\swapFinal\\contracts\\Staking.sol",
  "compiler": {
    "name": "solc",
    "version": "0.8.15+commit.e14f2714.Emscripten.clang"
  },
  "schemaVersion": "3.4.8",
  "updatedAt": "2022-07-31T11:38:19.753Z",
  "devdoc": {
    "kind": "dev",
    "methods": {
      "owner()": {
        "details": "Returns the address of the current owner."
      },
      "renounceOwnership()": {
        "details": "Leaves the contract without owner. It will not be possible to call `onlyOwner` functions anymore. Can only be called by the current owner. NOTE: Renouncing ownership will leave the contract without an owner, thereby removing any functionality that is only available to the owner."
      },
      "transferOwnership(address)": {
        "details": "Transfers ownership of the contract to a new account (`newOwner`). Can only be called by the current owner."
      }
    },
    "version": 1
  },
  "userdoc": {
    "kind": "user",
    "methods": {},
    "version": 1
  }
}