{
  "contractName": "Staking",
  "abi": [
    {
      "inputs": [
        {
          "internalType": "address",
          "name": "_stakingToken",
          "type": "address"
        },
        {
          "internalType": "address",
          "name": "_rewardToken",
          "type": "address"
        }
      ],
      "stateMutability": "nonpayable",
      "type": "constructor"
    },
    {
      "anonymous": false,
      "inputs": [
        {
          "indexed": true,
          "internalType": "address",
          "name": "previousOwner",
          "type": "address"
        },
        {
          "indexed": true,
          "internalType": "address",
          "name": "newOwner",
          "type": "address"
        }
      ],
      "name": "OwnershipTransferred",
      "type": "event"
    },
    {
      "anonymous": false,
      "inputs": [
        {
          "indexed": false,
          "internalType": "address",
          "name": "user",
          "type": "address"
        },
        {
          "indexed": false,
          "internalType": "uint256",
          "name": "reward",
          "type": "uint256"
        }
      ],
      "name": "SetReward",
      "type": "event"
    },
    {
      "anonymous": false,
      "inputs": [
        {
          "indexed": true,
          "internalType": "address",
          "name": "user",
          "type": "address"
        },
        {
          "indexed": false,
          "internalType": "uint256",
          "name": "amount",
          "type": "uint256"
        },
        {
          "indexed": false,
          "internalType": "uint256",
          "name": "endTime",
          "type": "uint256"
        }
      ],
      "name": "Stake",
      "type": "event"
    },
    {
      "anonymous": false,
      "inputs": [
        {
          "indexed": true,
          "internalType": "address",
          "name": "user",
          "type": "address"
        },
        {
          "indexed": false,
          "internalType": "uint256",
          "name": "amountStaked",
          "type": "uint256"
        },
        {
          "indexed": false,
          "internalType": "uint256",
          "name": "shares",
          "type": "uint256"
        }
      ],
      "name": "Unstake",
      "type": "event"
    },
    {
      "anonymous": false,
      "inputs": [
        {
          "indexed": true,
          "internalType": "address",
          "name": "user",
          "type": "address"
        },
        {
          "indexed": false,
          "internalType": "uint256",
          "name": "reward",
          "type": "uint256"
        }
      ],
      "name": "rewardAmount",
      "type": "event"
    },
    {
      "inputs": [],
      "name": "StakedReward",
      "outputs": [
        {
          "internalType": "uint256",
          "name": "",
          "type": "uint256"
        }
      ],
      "stateMutability": "view",
      "type": "function",
      "constant": true
    },
    {
      "inputs": [
        {
          "internalType": "uint256",
          "name": "",
          "type": "uint256"
        }
      ],
      "name": "allRewards",
      "outputs": [
        {
          "internalType": "uint256",
          "name": "",
          "type": "uint256"
        }
      ],
      "stateMutability": "view",
      "type": "function",
      "constant": true
    },
    {
      "inputs": [],
      "name": "allStakedBalance",
      "outputs": [
        {
          "internalType": "uint256",
          "name": "",
          "type": "uint256"
        }
      ],
      "stateMutability": "view",
      "type": "function",
      "constant": true
    },
    {
      "inputs": [
        {
          "internalType": "uint256",
          "name": "",
          "type": "uint256"
        }
      ],
      "name": "allStakedBalances",
      "outputs": [
        {
          "internalType": "uint256",
          "name": "",
          "type": "uint256"
        }
      ],
      "stateMutability": "view",
      "type": "function",
      "constant": true
    },
    {
      "inputs": [],
      "name": "endStakeTimestamp",
      "outputs": [
        {
          "internalType": "uint256",
          "name": "",
          "type": "uint256"
        }
      ],
      "stateMutability": "view",
      "type": "function",
      "constant": true
    },
    {
      "inputs": [],
      "name": "endWitdrawTimestamp",
      "outputs": [
        {
          "internalType": "uint256",
          "name": "",
          "type": "uint256"
        }
      ],
      "stateMutability": "view",
      "type": "function",
      "constant": true
    },
    {
      "inputs": [
        {
          "internalType": "uint256",
          "name": "",
          "type": "uint256"
        }
      ],
      "name": "endWitdrawTimestamps",
      "outputs": [
        {
          "internalType": "uint256",
          "name": "",
          "type": "uint256"
        }
      ],
      "stateMutability": "view",
      "type": "function",
      "constant": true
    },
    {
      "inputs": [],
      "name": "lastAllStakedBalance",
      "outputs": [
        {
          "internalType": "uint256",
          "name": "",
          "type": "uint256"
        }
      ],
      "stateMutability": "view",
      "type": "function",
      "constant": true
    },
    {
      "inputs": [],
      "name": "lastEndStake",
      "outputs": [
        {
          "internalType": "uint256",
          "name": "",
          "type": "uint256"
        }
      ],
      "stateMutability": "view",
      "type": "function",
      "constant": true
    },
    {
      "inputs": [],
      "name": "owner",
      "outputs": [
        {
          "internalType": "address",
          "name": "",
          "type": "address"
        }
      ],
      "stateMutability": "view",
      "type": "function",
      "constant": true
    },
    {
      "inputs": [],
      "name": "renounceOwnership",
      "outputs": [],
      "stateMutability": "nonpayable",
      "type": "function"
    },
    {
      "inputs": [],
      "name": "rewardToken",
      "outputs": [
        {
          "internalType": "contract IERC20",
          "name": "",
          "type": "address"
        }
      ],
      "stateMutability": "view",
      "type": "function",
      "constant": true
    },
    {
      "inputs": [
        {
          "internalType": "address",
          "name": "",
          "type": "address"
        }
      ],
      "name": "stakedBalance",
      "outputs": [
        {
          "internalType": "uint256",
          "name": "",
          "type": "uint256"
        }
      ],
      "stateMutability": "view",
      "type": "function",
      "constant": true
    },
    {
      "inputs": [],
      "name": "stakingToken",
      "outputs": [
        {
          "internalType": "contract IERC20",
          "name": "",
          "type": "address"
        }
      ],
      "stateMutability": "view",
      "type": "function",
      "constant": true
    },
    {
      "inputs": [],
      "name": "startStakeTimestamp",
      "outputs": [
        {
          "internalType": "uint256",
          "name": "",
          "type": "uint256"
        }
      ],
      "stateMutability": "view",
      "type": "function",
      "constant": true
    },
    {
      "inputs": [],
      "name": "startWitdrawTimestamp",
      "outputs": [
        {
          "internalType": "uint256",
          "name": "",
          "type": "uint256"
        }
      ],
      "stateMutability": "view",
      "type": "function",
      "constant": true
    },
    {
      "inputs": [],
      "name": "timeSet",
      "outputs": [
        {
          "internalType": "bool",
          "name": "",
          "type": "bool"
        }
      ],
      "stateMutability": "view",
      "type": "function",
      "constant": true
    },
    {
      "inputs": [
        {
          "internalType": "address",
          "name": "newOwner",
          "type": "address"
        }
      ],
      "name": "transferOwnership",
      "outputs": [],
      "stateMutability": "nonpayable",
      "type": "function"
    },
    {
      "inputs": [
        {
          "internalType": "address",
          "name": "sender",
          "type": "address"
        }
      ],
      "name": "showReward",
      "outputs": [
        {
          "internalType": "uint256",
          "name": "shares",
          "type": "uint256"
        }
      ],
      "stateMutability": "view",
      "type": "function",
      "constant": true
    },
    {
      "inputs": [
        {
          "internalType": "address",
          "name": "sender",
          "type": "address"
        }
      ],
      "name": "getReward",
      "outputs": [
        {
          "internalType": "uint256",
          "name": "shares",
          "type": "uint256"
        }
      ],
      "stateMutability": "nonpayable",
      "type": "function"
    },
    {
      "inputs": [
        {
          "internalType": "uint256",
          "name": "_amount",
          "type": "uint256"
        }
      ],
      "name": "stake",
      "outputs": [],
      "stateMutability": "nonpayable",
      "type": "function"
    },
    {
      "inputs": [],
      "name": "unstake",
      "outputs": [],
      "stateMutability": "nonpayable",
      "type": "function"
    },
    {
      "inputs": [
        {
          "internalType": "uint256",
          "name": "_reward",
          "type": "uint256"
        }
      ],
      "name": "setReward",
      "outputs": [],
      "stateMutability": "nonpayable",
      "type": "function"
    },
    {
      "inputs": [
        {
          "internalType": "uint256",
          "name": "_reward",
          "type": "uint256"
        }
      ],
      "name": "addReward",
      "outputs": [],
      "stateMutability": "nonpayable",
      "type": "function"
    },
    {
      "inputs": [],
      "name": "setStake",
      "outputs": [],
      "stateMutability": "nonpayable",
      "type": "function"
    },
    {
      "inputs": [],
      "name": "setWitdraw",
      "outputs": [],
      "stateMutability": "nonpayable",
      "type": "function"
    },
    {
      "inputs": [
        {
          "internalType": "uint256",
          "name": "amount",
          "type": "uint256"
        }
      ],
      "name": "witdrawOwnerLP",
      "outputs": [],
      "stateMutability": "nonpayable",
      "type": "function"
    },
    {
      "inputs": [
        {
          "internalType": "uint256",
          "name": "amount",
          "type": "uint256"
        }
      ],
      "name": "witdrawOwnerReward",
      "outputs": [],
      "stateMutability": "nonpayable",
      "type": "function"
    },
    {
      "inputs": [
        {
          "internalType": "uint256",
          "name": "deposited",
          "type": "uint256"
        },
        {
          "internalType": "uint256",
          "name": "Balance",
          "type": "uint256"
        }
      ],
      "name": "calculate",
      "outputs": [
        {
          "internalType": "uint256",
          "name": "percentShares",
          "type": "uint256"
        }
      ],
      "stateMutability": "pure",
      "type": "function",
      "constant": true
    },
    {
      "inputs": [
        {
          "internalType": "address",
          "name": "_sender",
          "type": "address"
        }
      ],
      "name": "percentageShare",
      "outputs": [
        {
          "internalType": "uint256",
          "name": "",
          "type": "uint256"
        }
      ],
      "stateMutability": "view",
      "type": "function",
      "constant": true
    },
    {
      "inputs": [
        {
          "internalType": "uint256",
          "name": "_LpTokenAmount",
          "type": "uint256"
        }
      ],
      "name": "calculateValue",
      "outputs": [
        {
          "internalType": "uint256",
          "name": "valueLpPerBusd",
          "type": "uint256"
        }
      ],
      "stateMutability": "view",
      "type": "function",
      "constant": true
    },
    {
      "inputs": [
        {
          "internalType": "address",
          "name": "sender",
          "type": "address"
        }
      ],
      "name": "getAll",
      "outputs": [
        {
          "internalType": "uint256",
          "name": "percentShares",
          "type": "uint256"
        },
        {
          "internalType": "uint256",
          "name": "shares",
          "type": "uint256"
        },
        {
          "internalType": "uint256",
          "name": "value",
          "type": "uint256"
        },
        {
          "internalType": "uint256",
          "name": "reward",
          "type": "uint256"
        }
      ],
      "stateMutability": "view",
      "type": "function",
      "constant": true
    },
    {
      "inputs": [],
      "name": "isStartedStake",
      "outputs": [
        {
          "internalType": "bool",
          "name": "start",
          "type": "bool"
        }
      ],
      "stateMutability": "view",
      "type": "function",
      "constant": true
    },
    {
      "inputs": [],
      "name": "isStartedWitdraw",
      "outputs": [
        {
          "internalType": "bool",
          "name": "start",
          "type": "bool"
        }
      ],
      "stateMutability": "view",
      "type": "function",
      "constant": true
    }
  ],
  "bytecode": "0x60806040526000600c60006101000a81548160ff0219169083151502179055503480156200002c57600080fd5b5060405162002b7c38038062002b7c833981810160405281019062000052919062000239565b62000072620000666200010360201b60201c565b6200010b60201b60201c565b6001808190555081600360006101000a81548173ffffffffffffffffffffffffffffffffffffffff021916908373ffffffffffffffffffffffffffffffffffffffff16021790555080600260006101000a81548173ffffffffffffffffffffffffffffffffffffffff021916908373ffffffffffffffffffffffffffffffffffffffff160217905550505062000280565b600033905090565b60008060009054906101000a900473ffffffffffffffffffffffffffffffffffffffff169050816000806101000a81548173ffffffffffffffffffffffffffffffffffffffff021916908373ffffffffffffffffffffffffffffffffffffffff1602179055508173ffffffffffffffffffffffffffffffffffffffff168173ffffffffffffffffffffffffffffffffffffffff167f8be0079c531659141344cd1fd0a4f28419497f9722a3daafe3b4186f6b6457e060405160405180910390a35050565b600080fd5b600073ffffffffffffffffffffffffffffffffffffffff82169050919050565b60006200020182620001d4565b9050919050565b6200021381620001f4565b81146200021f57600080fd5b50565b600081519050620002338162000208565b92915050565b60008060408385031215620002535762000252620001cf565b5b6000620002638582860162000222565b9250506020620002768582860162000222565b9150509250929050565b6128ec80620002906000396000f3fe608060405234801561001057600080fd5b50600436106102055760003560e01c80638da5cb5b1161011a578063c00007b0116100ad578063eb0773421161007c578063eb07734214610594578063f2fde38b146105c7578063f7c618c1146105e3578063f8a4f93f14610601578063fbd75b8d1461063157610205565b8063c00007b0146104e6578063c45af5d814610516578063c92a514314610546578063e1c5f2481461057657610205565b80639e6e1906116100e95780639e6e190614610470578063a694fc3a1461048e578063b4cb6cca146104aa578063bd63e4b3146104c857610205565b80638da5cb5b146103d45780638dfa4363146103f257806391c75a2e1461042257806397a6db701461045257610205565b8063602172671161019d57806376da89081161016c57806376da89081461036857806380fd22d2146103865780638356c74c146103a2578063881a8454146103ac5780638992e960146103ca57610205565b806360217267146102f4578063715018a61461032457806372f702f31461032e57806374de4ec41461034c57610205565b80632def6620116101d95780632def6620146102925780634ba066eb1461029c57806350b237ea146102ba57806351107ac5146102d657610205565b8062d799a01461020a578063136de4c0146102285780631fb5daf514610258578063293be45614610276575b600080fd5b610212610661565b60405161021f9190611dec565b60405180910390f35b610242600480360381019061023d9190611e38565b610667565b60405161024f9190611dec565b60405180910390f35b61026061068b565b60405161026d9190611dec565b60405180910390f35b610290600480360381019061028b9190611e38565b610691565b005b61029a6107c2565b005b6102a4610a96565b6040516102b19190611dec565b60405180910390f35b6102d460048036038101906102cf9190611e38565b610a9c565b005b6102de610b96565b6040516102eb9190611dec565b60405180910390f35b61030e60048036038101906103099190611ec3565b610b9c565b60405161031b9190611dec565b60405180910390f35b61032c610bb4565b005b610336610bc8565b6040516103439190611f4f565b60405180910390f35b61036660048036038101906103619190611e38565b610bee565b005b610370610d31565b60405161037d9190611dec565b60405180910390f35b6103a0600480360381019061039b9190611e38565b610d37565b005b6103aa610e6c565b005b6103b4610efc565b6040516103c19190611f85565b60405180910390f35b6103d2610f1d565b005b6103dc61104f565b6040516103e99190611faf565b60405180910390f35b61040c60048036038101906104079190611fca565b611078565b6040516104199190611dec565b60405180910390f35b61043c60048036038101906104379190611e38565b6110a5565b6040516104499190611dec565b60405180910390f35b61045a61113c565b6040516104679190611dec565b60405180910390f35b610478611142565b6040516104859190611dec565b60405180910390f35b6104a860048036038101906104a39190611e38565b611148565b005b6104b2611443565b6040516104bf9190611f85565b60405180910390f35b6104d0611456565b6040516104dd9190611f85565b60405180910390f35b61050060048036038101906104fb9190611ec3565b611477565b60405161050d9190611dec565b60405180910390f35b610530600480360381019061052b9190611ec3565b6117b0565b60405161053d9190611dec565b60405180910390f35b610560600480360381019061055b9190611e38565b61193e565b60405161056d9190611dec565b60405180910390f35b61057e611962565b60405161058b9190611dec565b60405180910390f35b6105ae60048036038101906105a99190611ec3565b611968565b6040516105be949392919061200a565b60405180910390f35b6105e160048036038101906105dc9190611ec3565b6119d8565b005b6105eb611a5b565b6040516105f89190611f4f565b60405180910390f35b61061b60048036038101906106169190611e38565b611a81565b6040516106289190611dec565b60405180910390f35b61064b60048036038101906106469190611ec3565b611aa5565b6040516106589190611dec565b60405180910390f35b60045481565b600a818154811061067757600080fd5b906000526020600020016000915090505481565b60065481565b610699611afe565b600081116106dc576040517f08c379a00000000000000000000000000000000000000000000000000000000081526004016106d3906120ac565b60405180910390fd5b600260009054906101000a900473ffffffffffffffffffffffffffffffffffffffff1673ffffffffffffffffffffffffffffffffffffffff166323b872dd3330846040518463ffffffff1660e01b815260040161073b939291906120cc565b6020604051808303816000875af115801561075a573d6000803e3d6000fd5b505050506040513d601f19601f8201168201806040525081019061077e919061212f565b5080600d819055507f47df87b2d8295190528d53d2aa17482e79c609a908425cea226c34b69733dd3833826040516107b792919061215c565b60405180910390a150565b600260015403610807576040517f08c379a00000000000000000000000000000000000000000000000000000000081526004016107fe906121d1565b60405180910390fd5b600260018190555033600554421015801561082457506007544211155b610863576040517f08c379a000000000000000000000000000000000000000000000000000000000815260040161085a9061223d565b60405180910390fd5b336000600e60008373ffffffffffffffffffffffffffffffffffffffff1673ffffffffffffffffffffffffffffffffffffffff16815260200190815260200160002054036108e6576040517f08c379a00000000000000000000000000000000000000000000000000000000081526004016108dd906122a9565b60405180910390fd5b6000600e60003373ffffffffffffffffffffffffffffffffffffffff1673ffffffffffffffffffffffffffffffffffffffff168152602001908152602001600020549050600061093882601154611078565b9050816011600082825461094c91906122f8565b925050819055506000600e60003373ffffffffffffffffffffffffffffffffffffffff1673ffffffffffffffffffffffffffffffffffffffff168152602001908152602001600020819055503373ffffffffffffffffffffffffffffffffffffffff167ff960dbf9e5d0682f7a298ed974e33a28b4464914b7a2bfac12ae419a9afeb28083836040516109e092919061232c565b60405180910390a2600360009054906101000a900473ffffffffffffffffffffffffffffffffffffffff1673ffffffffffffffffffffffffffffffffffffffff1663a9059cbb33846040518363ffffffff1660e01b8152600401610a4592919061215c565b6020604051808303816000875af1158015610a64573d6000803e3d6000fd5b505050506040513d601f19601f82011682018060405250810190610a88919061212f565b505050505060018081905550565b60055481565b610aa4611afe565b8060008103610ae8576040517f08c379a0000000000000000000000000000000000000000000000000000000008152600401610adf906122a9565b60405180910390fd5b600360009054906101000a900473ffffffffffffffffffffffffffffffffffffffff1673ffffffffffffffffffffffffffffffffffffffff166323b872dd30610b2f61104f565b856040518463ffffffff1660e01b8152600401610b4e939291906120cc565b6020604051808303816000875af1158015610b6d573d6000803e3d6000fd5b505050506040513d601f19601f82011682018060405250810190610b91919061212f565b505050565b60115481565b600e6020528060005260406000206000915090505481565b610bbc611afe565b610bc66000611b7c565b565b600360009054906101000a900473ffffffffffffffffffffffffffffffffffffffff1681565b610bf6611afe565b60008111610c39576040517f08c379a0000000000000000000000000000000000000000000000000000000008152600401610c30906120ac565b60405180910390fd5b600260009054906101000a900473ffffffffffffffffffffffffffffffffffffffff1673ffffffffffffffffffffffffffffffffffffffff166323b872dd3330846040518463ffffffff1660e01b8152600401610c98939291906120cc565b6020604051808303816000875af1158015610cb7573d6000803e3d6000fd5b505050506040513d601f19601f82011682018060405250810190610cdb919061212f565b5080600d6000828254610cee9190612355565b925050819055507f47df87b2d8295190528d53d2aa17482e79c609a908425cea226c34b69733dd383382604051610d2692919061215c565b60405180910390a150565b60075481565b610d3f611afe565b8060008103610d83576040517f08c379a0000000000000000000000000000000000000000000000000000000008152600401610d7a906122a9565b60405180910390fd5b600b6001600b80549050610d9791906122f8565b81548110610da857610da7612389565b5b90600052602060002001548210610dbe57600080fd5b600260009054906101000a900473ffffffffffffffffffffffffffffffffffffffff1673ffffffffffffffffffffffffffffffffffffffff166323b872dd30610e0561104f565b856040518463ffffffff1660e01b8152600401610e24939291906120cc565b6020604051808303816000875af1158015610e43573d6000803e3d6000fd5b505050506040513d601f19601f82011682018060405250810190610e67919061212f565b505050565b610e74611afe565b600c60009054906101000a900460ff1615610ec4576040517f08c379a0000000000000000000000000000000000000000000000000000000008152600401610ebb9061242a565b60405180910390fd5b4260048190555061012c42610ed99190612355565b6006819055506001600c60006101000a81548160ff021916908315150217905550565b600060045442118015610f10575060065442105b15610f1a57600190505b90565b610f25611afe565b600c60009054906101000a900460ff16610f74576040517f08c379a0000000000000000000000000000000000000000000000000000000008152600401610f6b906124bc565b60405180910390fd5b60115460128190555060006004819055506000600681905550600b600d549080600181540180825580915050600190039060005260206000200160009091909190915055600654600881905550600a60115490806001815401808255809150506001900390600052602060002001600090919091909150556000600c60006101000a81548160ff0219169083151502179055504260058190555061012c4261101c9190612355565b60078190555060096007549080600181540180825580915050600190039060005260206000200160009091909190915055565b60008060009054906101000a900473ffffffffffffffffffffffffffffffffffffffff16905090565b60008068056bc75e2d63100000905061109c818561109691906124dc565b84611c40565b91505092915050565b6000735af257437eef4df9cf4967e1c15e49adbc37ccf673ffffffffffffffffffffffffffffffffffffffff166391c75a2e836040518263ffffffff1660e01b81526004016110f49190611dec565b602060405180830381865afa158015611111573d6000803e3d6000fd5b505050506040513d601f19601f820116820180604052508101906111359190612533565b9050919050565b60085481565b600d5481565b60026001540361118d576040517f08c379a0000000000000000000000000000000000000000000000000000000008152600401611184906121d1565b60405180910390fd5b600260018190555060045442101580156111a957506006544211155b6111e8576040517f08c379a00000000000000000000000000000000000000000000000000000000081526004016111df906125ac565b60405180910390fd5b806000810361122c576040517f08c379a0000000000000000000000000000000000000000000000000000000008152600401611223906122a9565b60405180910390fd5b6000600e60003373ffffffffffffffffffffffffffffffffffffffff1673ffffffffffffffffffffffffffffffffffffffff16815260200190815260200160002054146112ae576040517f08c379a00000000000000000000000000000000000000000000000000000000081526004016112a590612618565b60405180910390fd5b600454601060003373ffffffffffffffffffffffffffffffffffffffff1673ffffffffffffffffffffffffffffffffffffffff16815260200190815260200160002081905550600360009054906101000a900473ffffffffffffffffffffffffffffffffffffffff1673ffffffffffffffffffffffffffffffffffffffff166323b872dd3330856040518463ffffffff1660e01b8152600401611353939291906120cc565b6020604051808303816000875af1158015611372573d6000803e3d6000fd5b505050506040513d601f19601f82011682018060405250810190611396919061212f565b5081600e60003373ffffffffffffffffffffffffffffffffffffffff1673ffffffffffffffffffffffffffffffffffffffff1681526020019081526020016000208190555081600f60003373ffffffffffffffffffffffffffffffffffffffff1673ffffffffffffffffffffffffffffffffffffffff1681526020019081526020016000208190555081601160008282546114319190612355565b92505081905550506001808190555050565b600c60009054906101000a900460ff1681565b60006005544211801561146a575060075442105b1561147457600190505b90565b6000336000600f60008373ffffffffffffffffffffffffffffffffffffffff1673ffffffffffffffffffffffffffffffffffffffff16815260200190815260200160002054036114fc576040517f08c379a00000000000000000000000000000000000000000000000000000000081526004016114f390612684565b60405180910390fd5b600754601060003373ffffffffffffffffffffffffffffffffffffffff1673ffffffffffffffffffffffffffffffffffffffff168152602001908152602001600020540361154957600080fd5b3373ffffffffffffffffffffffffffffffffffffffff168373ffffffffffffffffffffffffffffffffffffffff161461158157600080fd5b61158a83611c7d565b9150600082036115cf576040517f08c379a00000000000000000000000000000000000000000000000000000000081526004016115c6906126f0565b60405180910390fd5b6000600e60008573ffffffffffffffffffffffffffffffffffffffff1673ffffffffffffffffffffffffffffffffffffffff168152602001908152602001600020540361165c576000600f60008573ffffffffffffffffffffffffffffffffffffffff1673ffffffffffffffffffffffffffffffffffffffff168152602001908152602001600020819055505b600754601060008573ffffffffffffffffffffffffffffffffffffffff1673ffffffffffffffffffffffffffffffffffffffff16815260200190815260200160002081905550600260009054906101000a900473ffffffffffffffffffffffffffffffffffffffff1673ffffffffffffffffffffffffffffffffffffffff1663a9059cbb84846040518363ffffffff1660e01b81526004016116ff92919061215c565b6020604051808303816000875af115801561171e573d6000803e3d6000fd5b505050506040513d601f19601f82011682018060405250810190611742919061212f565b5081600d600082825461175591906122f8565b925050819055508273ffffffffffffffffffffffffffffffffffffffff167fc85e4d49c642d412e31d95e6a51686ccecb6350892dd4b22d1f10dbf8e1ff159836040516117a29190611dec565b60405180910390a250919050565b6000806000600f60008573ffffffffffffffffffffffffffffffffffffffff1673ffffffffffffffffffffffffffffffffffffffff16815260200190815260200160002054905060005b60098054905081101561193657601060008673ffffffffffffffffffffffffffffffffffffffff1673ffffffffffffffffffffffffffffffffffffffff168152602001908152602001600020546009828154811061185b5761185a612389565b5b906000526020600020015411156118eb5761189482600a838154811061188457611883612389565b5b9060005260206000200154611078565b92506005544210156118ea576118dc600b82815481106118b7576118b6612389565b5b9060005260206000200154846118cd91906124dc565b68056bc75e2d63100000611c40565b846118e79190612355565b93505b5b611916600d546118fd84601154611078565b61190791906124dc565b68056bc75e2d63100000611c40565b846119219190612355565b9350808061192e90612710565b9150506117fa565b505050919050565b6009818154811061194e57600080fd5b906000526020600020016000915090505481565b60125481565b60008060008061197785611aa5565b9350600e60008673ffffffffffffffffffffffffffffffffffffffff1673ffffffffffffffffffffffffffffffffffffffff1681526020019081526020016000205492506119c4836110a5565b91506119cf336117b0565b90509193509193565b6119e0611afe565b600073ffffffffffffffffffffffffffffffffffffffff168173ffffffffffffffffffffffffffffffffffffffff1603611a4f576040517f08c379a0000000000000000000000000000000000000000000000000000000008152600401611a46906127ca565b60405180910390fd5b611a5881611b7c565b50565b600260009054906101000a900473ffffffffffffffffffffffffffffffffffffffff1681565b600b8181548110611a9157600080fd5b906000526020600020016000915090505481565b600080600e60008473ffffffffffffffffffffffffffffffffffffffff1673ffffffffffffffffffffffffffffffffffffffff168152602001908152602001600020549050611af681601154611078565b915050919050565b611b06611dcb565b73ffffffffffffffffffffffffffffffffffffffff16611b2461104f565b73ffffffffffffffffffffffffffffffffffffffff1614611b7a576040517f08c379a0000000000000000000000000000000000000000000000000000000008152600401611b7190612836565b60405180910390fd5b565b60008060009054906101000a900473ffffffffffffffffffffffffffffffffffffffff169050816000806101000a81548173ffffffffffffffffffffffffffffffffffffffff021916908373ffffffffffffffffffffffffffffffffffffffff1602179055508173ffffffffffffffffffffffffffffffffffffffff168173ffffffffffffffffffffffffffffffffffffffff167f8be0079c531659141344cd1fd0a4f28419497f9722a3daafe3b4186f6b6457e060405160405180910390a35050565b6000808314611c7257600182600185611c5991906122f8565b611c639190612885565b611c6d9190612355565b611c75565b60005b905092915050565b600080600080600090505b600980549050811015611dc057601060008673ffffffffffffffffffffffffffffffffffffffff1673ffffffffffffffffffffffffffffffffffffffff1681526020019081526020016000205460098281548110611ce957611ce8612389565b5b90600052602060002001541115611dad57611d61600f60008773ffffffffffffffffffffffffffffffffffffffff1673ffffffffffffffffffffffffffffffffffffffff16815260200190815260200160002054600a8381548110611d5157611d50612389565b5b9060005260206000200154611078565b9150611d9f600b8281548110611d7a57611d79612389565b5b906000526020600020015483611d9091906124dc565b68056bc75e2d63100000611c40565b83611daa9190612355565b92505b8080611db890612710565b915050611c88565b508192505050919050565b600033905090565b6000819050919050565b611de681611dd3565b82525050565b6000602082019050611e016000830184611ddd565b92915050565b600080fd5b611e1581611dd3565b8114611e2057600080fd5b50565b600081359050611e3281611e0c565b92915050565b600060208284031215611e4e57611e4d611e07565b5b6000611e5c84828501611e23565b91505092915050565b600073ffffffffffffffffffffffffffffffffffffffff82169050919050565b6000611e9082611e65565b9050919050565b611ea081611e85565b8114611eab57600080fd5b50565b600081359050611ebd81611e97565b92915050565b600060208284031215611ed957611ed8611e07565b5b6000611ee784828501611eae565b91505092915050565b6000819050919050565b6000611f15611f10611f0b84611e65565b611ef0565b611e65565b9050919050565b6000611f2782611efa565b9050919050565b6000611f3982611f1c565b9050919050565b611f4981611f2e565b82525050565b6000602082019050611f646000830184611f40565b92915050565b60008115159050919050565b611f7f81611f6a565b82525050565b6000602082019050611f9a6000830184611f76565b92915050565b611fa981611e85565b82525050565b6000602082019050611fc46000830184611fa0565b92915050565b60008060408385031215611fe157611fe0611e07565b5b6000611fef85828601611e23565b925050602061200085828601611e23565b9150509250929050565b600060808201905061201f6000830187611ddd565b61202c6020830186611ddd565b6120396040830185611ddd565b6120466060830184611ddd565b95945050505050565b600082825260208201905092915050565b7f43616e6e6f742073657452657761726420300000000000000000000000000000600082015250565b600061209660128361204f565b91506120a182612060565b602082019050919050565b600060208201905081810360008301526120c581612089565b9050919050565b60006060820190506120e16000830186611fa0565b6120ee6020830185611fa0565b6120fb6040830184611ddd565b949350505050565b61210c81611f6a565b811461211757600080fd5b50565b60008151905061212981612103565b92915050565b60006020828403121561214557612144611e07565b5b60006121538482850161211a565b91505092915050565b60006040820190506121716000830185611fa0565b61217e6020830184611ddd565b9392505050565b7f5265656e7472616e637947756172643a207265656e7472616e742063616c6c00600082015250565b60006121bb601f8361204f565b91506121c682612185565b602082019050919050565b600060208201905081810360008301526121ea816121ae565b9050919050565b7f796f752063616e74207769746472617720617420746869732074696d65000000600082015250565b6000612227601d8361204f565b9150612232826121f1565b602082019050919050565b600060208201905081810360008301526122568161221a565b9050919050565b7f796f752068617665206e6f207368617265730000000000000000000000000000600082015250565b600061229360128361204f565b915061229e8261225d565b602082019050919050565b600060208201905081810360008301526122c281612286565b9050919050565b7f4e487b7100000000000000000000000000000000000000000000000000000000600052601160045260246000fd5b600061230382611dd3565b915061230e83611dd3565b9250828203905081811115612326576123256122c9565b5b92915050565b60006040820190506123416000830185611ddd565b61234e6020830184611ddd565b9392505050565b600061236082611dd3565b915061236b83611dd3565b9250828201905080821115612383576123826122c9565b5b92915050565b7f4e487b7100000000000000000000000000000000000000000000000000000000600052603260045260246000fd5b7f796f752063616e277420736574207374616b6520756e74696c2077697464726160008201527f77206973207374696c6c20676f696e67206f6e20000000000000000000000000602082015250565b600061241460348361204f565b915061241f826123b8565b604082019050919050565b6000602082019050818103600083015261244381612407565b9050919050565b7f796f752063616e277420736574207769746472617720756e74696c207374616b60008201527f65206973207374696c6c20676f696e67206f6e00000000000000000000000000602082015250565b60006124a660338361204f565b91506124b18261244a565b604082019050919050565b600060208201905081810360008301526124d581612499565b9050919050565b60006124e782611dd3565b91506124f283611dd3565b925082820261250081611dd3565b91508282048414831517612517576125166122c9565b5b5092915050565b60008151905061252d81611e0c565b92915050565b60006020828403121561254957612548611e07565b5b60006125578482850161251e565b91505092915050565b7f796f752063616e74207374616b6520617420746869732074696d650000000000600082015250565b6000612596601b8361204f565b91506125a182612560565b602082019050919050565b600060208201905081810360008301526125c581612589565b9050919050565b7f796f75206861766520616c7265616479207374616b656420616d6f756e740000600082015250565b6000612602601e8361204f565b915061260d826125cc565b602082019050919050565b60006020820190508181036000830152612631816125f5565b9050919050565b7f796f752068617665206e6f207265776172640000000000000000000000000000600082015250565b600061266e60128361204f565b915061267982612638565b602082019050919050565b6000602082019050818103600083015261269d81612661565b9050919050565b7f6e6f2072657761726420746f2072656369657665000000000000000000000000600082015250565b60006126da60148361204f565b91506126e5826126a4565b602082019050919050565b60006020820190508181036000830152612709816126cd565b9050919050565b600061271b82611dd3565b91507fffffffffffffffffffffffffffffffffffffffffffffffffffffffffffffffff820361274d5761274c6122c9565b5b600182019050919050565b7f4f776e61626c653a206e6577206f776e657220697320746865207a65726f206160008201527f6464726573730000000000000000000000000000000000000000000000000000602082015250565b60006127b460268361204f565b91506127bf82612758565b604082019050919050565b600060208201905081810360008301526127e3816127a7565b9050919050565b7f4f776e61626c653a2063616c6c6572206973206e6f7420746865206f776e6572600082015250565b600061282060208361204f565b915061282b826127ea565b602082019050919050565b6000602082019050818103600083015261284f81612813565b9050919050565b7f4e487b7100000000000000000000000000000000000000000000000000000000600052601260045260246000fd5b600061289082611dd3565b915061289b83611dd3565b9250826128ab576128aa612856565b5b82820490509291505056fea26469706673582212205bb87d5b73a687ab57def30fefa68011851323e2690f2834a936b2f1aba74ec064736f6c63430008110033",
  "immutableReferences": {},
  "source": "// SPDX-License-Identifier: MIT\r\npragma solidity ^0.8.0;\r\n\r\n// import \"@uniswap/v2-core/contracts/interfaces/IUniswapV2Pair.sol\";\r\nimport \"@openzeppelin/contracts/token/ERC20/IERC20.sol\";\r\nimport \"@openzeppelin/contracts/access/Ownable.sol\";\r\nimport \"@openzeppelin/contracts/security/ReentrancyGuard.sol\";\r\nimport \"@openzeppelin/contracts/utils/math/Math.sol\";\r\nimport \"@uniswap/v2-core/contracts/interfaces/IUniswapV2Pair.sol\";\r\nimport \"./interfaces/IOldStaking.sol\";\r\n\r\ncontract Staking is Ownable, ReentrancyGuard {\r\n    /* ========== STATE VARIABLES ========== */\r\n    IERC20 public rewardToken; //REWARD TOKEN ADDRESS\r\n    IERC20 public stakingToken; //LP TOKEN ADDRESS\r\n    uint256 public startStakeTimestamp; //TIMESTAMP STAKE START\r\n    uint256 public startWitdrawTimestamp; //TIMESTAMP WITDRAW START\r\n    uint256 public endStakeTimestamp; //TIMESTAMP STAKE END\r\n    uint256 public endWitdrawTimestamp; //TIMESTAMP WITDRAW END\r\n    uint256 public lastEndStake; //LAST END WITDRAW TIMESTAMP\r\n    uint256[] public endWitdrawTimestamps; //ALL ENDS STAKE TIMESTAMP\r\n    uint256[] public allStakedBalances; //ALL STAKES BALANCES FROM BEGINNING\r\n    uint256[] public allRewards; //ALL REWARDS FROM BEGINNING\r\n    bool public timeSet = false; //BOOLEAN FOR SET THE TIME\r\n\r\n    uint256 public StakedReward; //REWARD\r\n\r\n    mapping(address => uint256) public stakedBalance; // stake = {};\r\n    mapping(address => uint256) private stakeProfit; // stake = {};\r\n    mapping(address => uint256) private stakedTime; // stake = {};\r\n\r\n    uint256 public allStakedBalance; // stake = {};\r\n    uint256 public lastAllStakedBalance; // stake = {};\r\n    event rewardAmount(address indexed user, uint256 reward);\r\n\r\n    event Stake(address indexed user, uint256 amount, uint256 endTime);\r\n    event Unstake(address indexed user, uint256 amountStaked, uint256 shares);\r\n    event SetReward(address user, uint256 reward);\r\n\r\n    constructor(address _stakingToken, address _rewardToken) {\r\n        /* ======= PAIR AND LPTOKEN HAVE SAVE ADDRESSES ======= */\r\n        stakingToken = IERC20(_stakingToken); //LP TOKEN ADDRESS\r\n        rewardToken = IERC20(_rewardToken);\r\n    }\r\n\r\n    modifier haveReward(address sender) {\r\n        require(stakeProfit[sender] != 0, \"you have no reward\");\r\n        require(stakedTime[msg.sender] != endWitdrawTimestamp);\r\n        _;\r\n    }\r\n    modifier startStake() {\r\n        require(\r\n            block.timestamp >= startStakeTimestamp &&\r\n                block.timestamp <= endStakeTimestamp,\r\n            \"you cant stake at this time\"\r\n        );\r\n\r\n        _;\r\n    }\r\n    modifier zeroAmount(uint256 amount) {\r\n        require(amount != 0, \"you have no shares\");\r\n        _;\r\n    }\r\n    modifier haveShares(address sender) {\r\n        require(stakedBalance[sender] != 0, \"you have no shares\");\r\n\r\n        _;\r\n    }\r\n    modifier startWitdraw(address sender) {\r\n        require(\r\n            block.timestamp >= startWitdrawTimestamp &&\r\n                block.timestamp <= endWitdrawTimestamp,\r\n            \"you cant witdraw at this time\"\r\n        );\r\n\r\n        _;\r\n    }\r\n\r\n    function showReward(address sender) public view returns (uint256 shares) {\r\n        uint256 percentShares;\r\n        uint256 profit = stakeProfit[sender];\r\n\r\n        for (uint256 i = 0; i < endWitdrawTimestamps.length; i++) {\r\n            if (endWitdrawTimestamps[i] > stakedTime[sender]) {\r\n                percentShares = calculate(profit, allStakedBalances[i]);\r\n                if (block.timestamp < startWitdrawTimestamp) {\r\n                    shares += Math.ceilDiv(\r\n                        (percentShares * allRewards[i]),\r\n                        100 * 10**18\r\n                    );\r\n                }\r\n            }\r\n            shares += Math.ceilDiv(\r\n                (calculate(profit, allStakedBalance) * StakedReward),\r\n                100 * 10**18\r\n            );\r\n        }\r\n\r\n        return shares;\r\n    }\r\n\r\n    function _getReward(address sender) internal view returns (uint256) {\r\n        uint256 shares;\r\n        uint256 percentShares;\r\n        for (uint256 i = 0; i < endWitdrawTimestamps.length; i++) {\r\n            if (endWitdrawTimestamps[i] > stakedTime[sender]) {\r\n                percentShares = calculate(\r\n                    stakeProfit[sender],\r\n                    allStakedBalances[i]\r\n                );\r\n\r\n                shares += Math.ceilDiv(\r\n                    (percentShares * allRewards[i]),\r\n                    100 * 10**18\r\n                );\r\n            }\r\n        }\r\n\r\n        return shares;\r\n    }\r\n\r\n    function getReward(address sender)\r\n        public\r\n        haveReward(msg.sender)\r\n        returns (uint256 shares)\r\n    {\r\n        require(sender == msg.sender);\r\n        shares = _getReward(sender);\r\n        require(shares != 0, \"no reward to recieve\");\r\n        if (stakedBalance[sender] == 0) stakeProfit[sender] = 0;\r\n        stakedTime[sender] = endWitdrawTimestamp;\r\n        rewardToken.transfer(sender, shares);\r\n        StakedReward -= shares;\r\n        emit rewardAmount(sender, shares);\r\n    }\r\n\r\n    function stake(uint256 _amount)\r\n        external\r\n        nonReentrant\r\n        startStake\r\n        zeroAmount(_amount)\r\n    {\r\n        require(\r\n            stakedBalance[msg.sender] == 0,\r\n            \"you have already staked amount\"\r\n        );\r\n        stakedTime[msg.sender] = startStakeTimestamp;\r\n        stakingToken.transferFrom(msg.sender, address(this), _amount);\r\n        stakedBalance[msg.sender] = _amount; // stake[address] = amount;\r\n        stakeProfit[msg.sender] = _amount;\r\n        allStakedBalance += _amount;\r\n    }\r\n\r\n    function unstake()\r\n        external\r\n        nonReentrant\r\n        startWitdraw(msg.sender)\r\n        haveShares(msg.sender)\r\n    {\r\n        uint256 deposited = stakedBalance[msg.sender];\r\n        uint256 shares = calculate(deposited, allStakedBalance);\r\n        allStakedBalance -= deposited;\r\n        stakedBalance[msg.sender] = 0;\r\n\r\n        emit Unstake(msg.sender, deposited, shares);\r\n        stakingToken.transfer(msg.sender, deposited);\r\n    }\r\n\r\n    //33,333333,333333,333334\r\n    function setReward(uint256 _reward) external onlyOwner {\r\n        require(_reward > 0, \"Cannot setReward 0\");\r\n\r\n        rewardToken.transferFrom(msg.sender, address(this), _reward);\r\n        StakedReward = _reward;\r\n        emit SetReward(msg.sender, _reward);\r\n    }\r\n\r\n    function addReward(uint256 _reward) external onlyOwner {\r\n        require(_reward > 0, \"Cannot setReward 0\");\r\n\r\n        rewardToken.transferFrom(msg.sender, address(this), _reward);\r\n        StakedReward += _reward;\r\n\r\n        emit SetReward(msg.sender, _reward);\r\n    }\r\n\r\n    function setStake() external onlyOwner {\r\n        require(\r\n            !timeSet,\r\n            \"you can't set stake until witdraw is still going on \"\r\n        );\r\n        startStakeTimestamp = block.timestamp;\r\n        endStakeTimestamp = block.timestamp + 300;\r\n\r\n        timeSet = true;\r\n    }\r\n\r\n    function setWitdraw() external onlyOwner {\r\n        require(timeSet, \"you can't set witdraw until stake is still going on\");\r\n        lastAllStakedBalance = allStakedBalance;\r\n        startStakeTimestamp = 0;\r\n        endStakeTimestamp = 0;\r\n\r\n        allRewards.push(StakedReward);\r\n        lastEndStake = endStakeTimestamp;\r\n        allStakedBalances.push(allStakedBalance);\r\n        timeSet = false;\r\n        startWitdrawTimestamp = block.timestamp;\r\n        endWitdrawTimestamp = block.timestamp + 300;\r\n        endWitdrawTimestamps.push(endWitdrawTimestamp);\r\n    }\r\n\r\n    // you did not stake\r\n    function witdrawOwnerLP(uint256 amount)\r\n        external\r\n        onlyOwner\r\n        zeroAmount(amount)\r\n    {\r\n        stakingToken.transferFrom(address(this), owner(), amount);\r\n    }\r\n\r\n    function witdrawOwnerReward(uint256 amount)\r\n        external\r\n        onlyOwner\r\n        zeroAmount(amount)\r\n    {\r\n        require(amount < allRewards[allRewards.length - 1]);\r\n        rewardToken.transferFrom(address(this), owner(), amount);\r\n    }\r\n\r\n    function calculate(uint256 deposited, uint256 Balance)\r\n        public\r\n        pure\r\n        returns (uint256 percentShares)\r\n    {\r\n        uint256 div = 100 * 10**18;\r\n        percentShares = Math.ceilDiv(deposited * div, Balance);\r\n    }\r\n\r\n    function percentageShare(address _sender) public view returns (uint256) {\r\n        uint256 deposited = stakedBalance[_sender];\r\n        return calculate(deposited, allStakedBalance);\r\n    }\r\n\r\n    function calculateValue(uint256 _LpTokenAmount)\r\n        public\r\n        view\r\n        returns (uint256 valueLpPerBusd)\r\n    {\r\n        valueLpPerBusd = IStaking(0x5af257437EeF4df9Cf4967e1c15e49adBC37CCF6)\r\n            .calculateValue(_LpTokenAmount);\r\n    }\r\n\r\n    function getAll(address sender)\r\n        public\r\n        view\r\n        returns (\r\n            uint256 percentShares,\r\n            uint256 shares,\r\n            uint256 value,\r\n            uint256 reward\r\n        )\r\n    {\r\n        percentShares = percentageShare(sender);\r\n        shares = stakedBalance[sender];\r\n        value = calculateValue(shares);\r\n        reward = showReward(msg.sender);\r\n    }\r\n\r\n    function isStartedStake() public view returns (bool start) {\r\n        start = false;\r\n        if (\r\n            block.timestamp > startStakeTimestamp &&\r\n            block.timestamp < endStakeTimestamp\r\n        ) start = true;\r\n    }\r\n\r\n    function isStartedWitdraw() public view returns (bool start) {\r\n        start = false;\r\n        if (\r\n            block.timestamp > startWitdrawTimestamp &&\r\n            block.timestamp < endWitdrawTimestamp\r\n        ) start = true;\r\n    }\r\n}\r\n",
  "sourcePath": "G:\\github\\Stake\\contracts\\Staking.sol",
  "compiler": {
    "name": "solc",
    "version": "0.8.17+commit.8df45f5f.Emscripten.clang"
  },
  "schemaVersion": "3.4.8",
  "updatedAt": "2022-09-15T12:19:14.740Z",
  "networkType": "ethereum",
  "devdoc": {
    "kind": "dev",
    "methods": {
      "owner()": {
        "details": "Returns the address of the current owner."
      },
      "renounceOwnership()": {
        "details": "Leaves the contract without owner. It will not be possible to call `onlyOwner` functions anymore. Can only be called by the current owner. NOTE: Renouncing ownership will leave the contract without an owner, thereby removing any functionality that is only available to the owner."
      },
      "transferOwnership(address)": {
        "details": "Transfers ownership of the contract to a new account (`newOwner`). Can only be called by the current owner."
      }
    },
    "version": 1
  },
  "userdoc": {
    "kind": "user",
    "methods": {},
    "version": 1
  }
}