{
  "contractName": "Staking",
  "abi": [
    {
      "inputs": [
        {
          "internalType": "address",
          "name": "_stakingToken",
          "type": "address"
        },
        {
          "internalType": "address",
          "name": "_rewardToken",
          "type": "address"
        }
      ],
      "stateMutability": "nonpayable",
      "type": "constructor"
    },
    {
      "anonymous": false,
      "inputs": [
        {
          "indexed": true,
          "internalType": "address",
          "name": "user",
          "type": "address"
        },
        {
          "indexed": false,
          "internalType": "uint256",
          "name": "reward",
          "type": "uint256"
        }
      ],
      "name": "ClaimReward",
      "type": "event"
    },
    {
      "anonymous": false,
      "inputs": [
        {
          "indexed": true,
          "internalType": "address",
          "name": "user",
          "type": "address"
        },
        {
          "indexed": false,
          "internalType": "uint256",
          "name": "reward",
          "type": "uint256"
        }
      ],
      "name": "Distribute",
      "type": "event"
    },
    {
      "anonymous": false,
      "inputs": [
        {
          "indexed": true,
          "internalType": "address",
          "name": "previousOwner",
          "type": "address"
        },
        {
          "indexed": true,
          "internalType": "address",
          "name": "newOwner",
          "type": "address"
        }
      ],
      "name": "OwnershipTransferred",
      "type": "event"
    },
    {
      "anonymous": false,
      "inputs": [
        {
          "indexed": true,
          "internalType": "address",
          "name": "user",
          "type": "address"
        },
        {
          "indexed": false,
          "internalType": "uint256",
          "name": "amount",
          "type": "uint256"
        },
        {
          "indexed": false,
          "internalType": "uint256",
          "name": "endTime",
          "type": "uint256"
        }
      ],
      "name": "Stake",
      "type": "event"
    },
    {
      "anonymous": false,
      "inputs": [
        {
          "indexed": true,
          "internalType": "address",
          "name": "user",
          "type": "address"
        },
        {
          "indexed": false,
          "internalType": "uint256",
          "name": "amount",
          "type": "uint256"
        },
        {
          "indexed": false,
          "internalType": "uint256",
          "name": "reward",
          "type": "uint256"
        }
      ],
      "name": "Unstake",
      "type": "event"
    },
    {
      "inputs": [
        {
          "internalType": "address",
          "name": "",
          "type": "address"
        }
      ],
      "name": "AllStakedBalance",
      "outputs": [
        {
          "internalType": "uint256",
          "name": "",
          "type": "uint256"
        }
      ],
      "stateMutability": "view",
      "type": "function"
    },
    {
      "inputs": [],
      "name": "StakedReward",
      "outputs": [
        {
          "internalType": "uint256",
          "name": "",
          "type": "uint256"
        }
      ],
      "stateMutability": "view",
      "type": "function"
    },
    {
      "inputs": [],
      "name": "StakedRewardFreezed",
      "outputs": [
        {
          "internalType": "uint256",
          "name": "",
          "type": "uint256"
        }
      ],
      "stateMutability": "view",
      "type": "function"
    },
    {
      "inputs": [
        {
          "internalType": "address",
          "name": "",
          "type": "address"
        },
        {
          "internalType": "uint128",
          "name": "",
          "type": "uint128"
        }
      ],
      "name": "luckTime",
      "outputs": [
        {
          "internalType": "uint128",
          "name": "",
          "type": "uint128"
        }
      ],
      "stateMutability": "view",
      "type": "function"
    },
    {
      "inputs": [],
      "name": "owner",
      "outputs": [
        {
          "internalType": "address",
          "name": "",
          "type": "address"
        }
      ],
      "stateMutability": "view",
      "type": "function"
    },
    {
      "inputs": [],
      "name": "pair",
      "outputs": [
        {
          "internalType": "address",
          "name": "",
          "type": "address"
        }
      ],
      "stateMutability": "view",
      "type": "function"
    },
    {
      "inputs": [
        {
          "internalType": "address",
          "name": "",
          "type": "address"
        }
      ],
      "name": "positions",
      "outputs": [
        {
          "internalType": "uint64",
          "name": "",
          "type": "uint64"
        }
      ],
      "stateMutability": "view",
      "type": "function"
    },
    {
      "inputs": [],
      "name": "renounceOwnership",
      "outputs": [],
      "stateMutability": "nonpayable",
      "type": "function"
    },
    {
      "inputs": [],
      "name": "rewardToken",
      "outputs": [
        {
          "internalType": "contract IERC20",
          "name": "",
          "type": "address"
        }
      ],
      "stateMutability": "view",
      "type": "function"
    },
    {
      "inputs": [
        {
          "internalType": "address",
          "name": "",
          "type": "address"
        },
        {
          "internalType": "uint32",
          "name": "",
          "type": "uint32"
        }
      ],
      "name": "stakedBalance",
      "outputs": [
        {
          "internalType": "uint256",
          "name": "",
          "type": "uint256"
        }
      ],
      "stateMutability": "view",
      "type": "function"
    },
    {
      "inputs": [
        {
          "internalType": "address",
          "name": "",
          "type": "address"
        },
        {
          "internalType": "uint32",
          "name": "",
          "type": "uint32"
        }
      ],
      "name": "stakedChoise",
      "outputs": [
        {
          "internalType": "uint8",
          "name": "",
          "type": "uint8"
        }
      ],
      "stateMutability": "view",
      "type": "function"
    },
    {
      "inputs": [],
      "name": "stakingToken",
      "outputs": [
        {
          "internalType": "contract IERC20",
          "name": "",
          "type": "address"
        }
      ],
      "stateMutability": "view",
      "type": "function"
    },
    {
      "inputs": [],
      "name": "timestamp",
      "outputs": [
        {
          "internalType": "uint256",
          "name": "",
          "type": "uint256"
        }
      ],
      "stateMutability": "view",
      "type": "function"
    },
    {
      "inputs": [],
      "name": "totalValueLockBUSD",
      "outputs": [
        {
          "internalType": "uint256",
          "name": "",
          "type": "uint256"
        }
      ],
      "stateMutability": "view",
      "type": "function"
    },
    {
      "inputs": [],
      "name": "totalValueLockLPToken",
      "outputs": [
        {
          "internalType": "uint256",
          "name": "",
          "type": "uint256"
        }
      ],
      "stateMutability": "view",
      "type": "function"
    },
    {
      "inputs": [
        {
          "internalType": "address",
          "name": "newOwner",
          "type": "address"
        }
      ],
      "name": "transferOwnership",
      "outputs": [],
      "stateMutability": "nonpayable",
      "type": "function"
    },
    {
      "inputs": [
        {
          "internalType": "uint256",
          "name": "_amountBusd",
          "type": "uint256"
        }
      ],
      "name": "calculateAmountBulc",
      "outputs": [
        {
          "internalType": "uint256",
          "name": "",
          "type": "uint256"
        }
      ],
      "stateMutability": "view",
      "type": "function"
    },
    {
      "inputs": [
        {
          "internalType": "uint256",
          "name": "_BulcAmount",
          "type": "uint256"
        }
      ],
      "name": "calculateAmountBusd",
      "outputs": [
        {
          "internalType": "uint256",
          "name": "",
          "type": "uint256"
        }
      ],
      "stateMutability": "view",
      "type": "function"
    },
    {
      "inputs": [
        {
          "internalType": "uint256",
          "name": "_LpTokenAmount",
          "type": "uint256"
        }
      ],
      "name": "calculateValue",
      "outputs": [
        {
          "internalType": "uint256",
          "name": "valueLpPerBusd",
          "type": "uint256"
        }
      ],
      "stateMutability": "view",
      "type": "function"
    },
    {
      "inputs": [
        {
          "internalType": "uint256",
          "name": "amount_",
          "type": "uint256"
        },
        {
          "internalType": "uint8",
          "name": "choice_",
          "type": "uint8"
        }
      ],
      "name": "calculatePermit",
      "outputs": [
        {
          "internalType": "uint256",
          "name": "exactAmount",
          "type": "uint256"
        }
      ],
      "stateMutability": "pure",
      "type": "function"
    },
    {
      "inputs": [
        {
          "internalType": "uint256",
          "name": "_LPamount",
          "type": "uint256"
        },
        {
          "internalType": "uint8",
          "name": "choice",
          "type": "uint8"
        }
      ],
      "name": "calculate",
      "outputs": [
        {
          "internalType": "uint256",
          "name": "permitPerBulc",
          "type": "uint256"
        }
      ],
      "stateMutability": "view",
      "type": "function"
    },
    {
      "inputs": [
        {
          "internalType": "uint256",
          "name": "_amount",
          "type": "uint256"
        },
        {
          "internalType": "uint8",
          "name": "_Choise",
          "type": "uint8"
        }
      ],
      "name": "stake",
      "outputs": [],
      "stateMutability": "nonpayable",
      "type": "function"
    },
    {
      "inputs": [
        {
          "internalType": "uint32",
          "name": "position",
          "type": "uint32"
        }
      ],
      "name": "unstake",
      "outputs": [],
      "stateMutability": "nonpayable",
      "type": "function"
    },
    {
      "inputs": [
        {
          "internalType": "uint256",
          "name": "_reward",
          "type": "uint256"
        }
      ],
      "name": "distribute",
      "outputs": [],
      "stateMutability": "nonpayable",
      "type": "function"
    },
    {
      "inputs": [
        {
          "internalType": "uint256",
          "name": "rewardTokenAmount",
          "type": "uint256"
        }
      ],
      "name": "witdraw",
      "outputs": [],
      "stateMutability": "nonpayable",
      "type": "function"
    },
    {
      "inputs": [
        {
          "internalType": "address",
          "name": "_account",
          "type": "address"
        },
        {
          "internalType": "uint32",
          "name": "position",
          "type": "uint32"
        }
      ],
      "name": "rewardOf",
      "outputs": [
        {
          "internalType": "uint256",
          "name": "",
          "type": "uint256"
        }
      ],
      "stateMutability": "view",
      "type": "function"
    },
    {
      "inputs": [
        {
          "internalType": "address",
          "name": "sender_",
          "type": "address"
        },
        {
          "internalType": "uint8",
          "name": "position",
          "type": "uint8"
        }
      ],
      "name": "getAll",
      "outputs": [
        {
          "internalType": "uint256",
          "name": "deadLine",
          "type": "uint256"
        },
        {
          "internalType": "uint256",
          "name": "reward",
          "type": "uint256"
        },
        {
          "internalType": "uint256",
          "name": "choise",
          "type": "uint256"
        },
        {
          "internalType": "uint256",
          "name": "LPTokenBalnce",
          "type": "uint256"
        }
      ],
      "stateMutability": "view",
      "type": "function"
    }
  ],
  "bytecode": "0x608060405260006008553480156200001657600080fd5b506040516200484b3803806200484b83398181016040528101906200003c919062000264565b6200005c620000506200012e60201b60201c565b6200013660201b60201c565b6001808190555081600560006101000a81548173ffffffffffffffffffffffffffffffffffffffff021916908373ffffffffffffffffffffffffffffffffffffffff16021790555081600760006101000a81548173ffffffffffffffffffffffffffffffffffffffff021916908373ffffffffffffffffffffffffffffffffffffffff16021790555080600660006101000a81548173ffffffffffffffffffffffffffffffffffffffff021916908373ffffffffffffffffffffffffffffffffffffffff1602179055505050620002ab565b600033905090565b60008060009054906101000a900473ffffffffffffffffffffffffffffffffffffffff169050816000806101000a81548173ffffffffffffffffffffffffffffffffffffffff021916908373ffffffffffffffffffffffffffffffffffffffff1602179055508173ffffffffffffffffffffffffffffffffffffffff168173ffffffffffffffffffffffffffffffffffffffff167f8be0079c531659141344cd1fd0a4f28419497f9722a3daafe3b4186f6b6457e060405160405180910390a35050565b600080fd5b600073ffffffffffffffffffffffffffffffffffffffff82169050919050565b60006200022c82620001ff565b9050919050565b6200023e816200021f565b81146200024a57600080fd5b50565b6000815190506200025e8162000233565b92915050565b600080604083850312156200027e576200027d620001fa565b5b60006200028e858286016200024d565b9250506020620002a1858286016200024d565b9150509250929050565b61459080620002bb6000396000f3fe608060405234801561001057600080fd5b50600436106101a95760003560e01c806391c05b0b116100f9578063bd9edebe11610097578063e0186f2911610071578063e0186f29146104fb578063f2fde38b1461052b578063f61a7bb514610547578063f7c618c114610577576101a9565b8063bd9edebe1461047d578063c0087e8f146104ad578063c08f50b4146104cb576101a9565b80639e6e1906116100d35780639e6e190614610407578063a8aa1b3114610425578063b404930e14610443578063b80777ea1461045f576101a9565b806391c05b0b1461038b57806391c75a2e146103a757806399a557ec146103d7576101a9565b806355f575101161016657806372f702f31161014057806372f702f314610303578063809ee57d146103215780638ac6afd61461033d5780638da5cb5b1461036d576101a9565b806355f57510146102965780636dcea398146102c6578063715018a6146102f9576101a9565b8063010f2395146101ae5780630c892d3e146101de57806310087fb1146101fc57806321d16896146102185780632cdad85f146102485780634796de4b14610266575b600080fd5b6101c860048036038101906101c3919061342c565b610595565b6040516101d59190613472565b60405180910390f35b6101e66105ad565b6040516101f39190613472565b60405180910390f35b610216600480360381019061021191906134f2565b6105b3565b005b610232600480360381019061022d9190613532565b610cc3565b60405161023f9190613472565b60405180910390f35b610250610fbe565b60405161025d9190613472565b60405180910390f35b610280600480360381019061027b91906134f2565b610fc4565b60405161028d9190613472565b60405180910390f35b6102b060048036038101906102ab919061342c565b611068565b6040516102bd9190613582565b60405180910390f35b6102e060048036038101906102db919061359d565b61108f565b6040516102f094939291906135dd565b60405180910390f35b61030161120b565b005b61030b61121f565b6040516103189190613681565b60405180910390f35b61033b600480360381019061033691906136d8565b611245565b005b61035760048036038101906103529190613705565b6117ea565b6040516103649190613472565b60405180910390f35b61037561180f565b6040516103829190613754565b60405180910390f35b6103a560048036038101906103a09190613532565b611838565b005b6103c160048036038101906103bc9190613532565b61193c565b6040516103ce9190613472565b60405180910390f35b6103f160048036038101906103ec91906134f2565b611c5a565b6040516103fe9190613472565b60405180910390f35b61040f611c89565b60405161041c9190613472565b60405180910390f35b61042d611c8f565b60405161043a9190613754565b60405180910390f35b61045d60048036038101906104589190613532565b611cb5565b005b610467611e50565b6040516104749190613472565b60405180910390f35b61049760048036038101906104929190613705565b611e58565b6040516104a4919061377e565b60405180910390f35b6104b5611e87565b6040516104c29190613472565b60405180910390f35b6104e560048036038101906104e09190613532565b611e8d565b6040516104f29190613472565b60405180910390f35b61051560048036038101906105109190613705565b612188565b6040516105229190613472565b60405180910390f35b6105456004803603810190610540919061342c565b61226c565b005b610561600480360381019061055c91906137e1565b6122ef565b60405161056e9190613830565b60405180910390f35b61057f61232d565b60405161058c9190613681565b60405180910390f35b600c6020528060005260406000206000915090505481565b600b5481565b8060ff166000816fffffffffffffffffffffffffffffffff161180156105ec57506004816fffffffffffffffffffffffffffffffff1611155b61062b576040517f08c379a0000000000000000000000000000000000000000000000000000000008152600401610622906138a8565b60405180910390fd5b600260015403610670576040517f08c379a000000000000000000000000000000000000000000000000000000000815260040161066790613914565b60405180910390fd5b6002600181905550600083116106bb576040517f08c379a00000000000000000000000000000000000000000000000000000000081526004016106b290613980565b60405180910390fd5b60006106c78484611c5a565b9050806009541161070d576040517f08c379a000000000000000000000000000000000000000000000000000000000815260040161070490613a12565b60405180910390fd5b600080600660009054906101000a900473ffffffffffffffffffffffffffffffffffffffff1673ffffffffffffffffffffffffffffffffffffffff16600560009054906101000a900473ffffffffffffffffffffffffffffffffffffffff1673ffffffffffffffffffffffffffffffffffffffff16630dfe16816040518163ffffffff1660e01b8152600401602060405180830381865afa1580156107b6573d6000803e3d6000fd5b505050506040513d601f19601f820116820180604052508101906107da9190613a47565b73ffffffffffffffffffffffffffffffffffffffff1614159050801561089257600560009054906101000a900473ffffffffffffffffffffffffffffffffffffffff1673ffffffffffffffffffffffffffffffffffffffff16630dfe16816040518163ffffffff1660e01b8152600401602060405180830381865afa158015610867573d6000803e3d6000fd5b505050506040513d601f19601f8201168201806040525081019061088b9190613a47565b9150610926565b600560009054906101000a900473ffffffffffffffffffffffffffffffffffffffff1673ffffffffffffffffffffffffffffffffffffffff1663d21220a76040518163ffffffff1660e01b8152600401602060405180830381865afa1580156108ff573d6000803e3d6000fd5b505050506040513d601f19601f820116820180604052508101906109239190613a47565b91505b600060646109338861193c565b61093d9190613ad2565b90508273ffffffffffffffffffffffffffffffffffffffff166323b872dd3361096461180f565b846040518463ffffffff1660e01b815260040161098393929190613b03565b6020604051808303816000875af11580156109a2573d6000803e3d6000fd5b505050506040513d601f19601f820116820180604052508101906109c69190613b72565b5083600960008282546109d99190613b9f565b9250508190555083600860008282546109f29190613bd3565b92505081905550610a48333089600760009054906101000a900473ffffffffffffffffffffffffffffffffffffffff1673ffffffffffffffffffffffffffffffffffffffff16612353909392919063ffffffff16565b86600c60003373ffffffffffffffffffffffffffffffffffffffff1673ffffffffffffffffffffffffffffffffffffffff1681526020019081526020016000206000828254610a979190613bd3565b9250508190555086600d60003373ffffffffffffffffffffffffffffffffffffffff1673ffffffffffffffffffffffffffffffffffffffff1681526020019081526020016000206000600460003373ffffffffffffffffffffffffffffffffffffffff1673ffffffffffffffffffffffffffffffffffffffff16815260200190815260200160002060009054906101000a900467ffffffffffffffff1663ffffffff1663ffffffff1681526020019081526020016000208190555085600e60003373ffffffffffffffffffffffffffffffffffffffff1673ffffffffffffffffffffffffffffffffffffffff1681526020019081526020016000206000600460003373ffffffffffffffffffffffffffffffffffffffff1673ffffffffffffffffffffffffffffffffffffffff16815260200190815260200160002060009054906101000a900467ffffffffffffffff1663ffffffff1663ffffffff16815260200190815260200160002060006101000a81548160ff021916908360ff16021790555086600a6000828254610c2c9190613bd3565b92505081905550610c3c8761193c565b600b6000828254610c4d9190613bd3565b925050819055506000610c6087336123dc565b90503373ffffffffffffffffffffffffffffffffffffffff167f5af417134f72a9d41143ace85b0a26dce6f550f894f2cbc1eeee8810603d91b68983604051610caa929190613c29565b60405180910390a2505050505060018081905550505050565b600080600660009054906101000a900473ffffffffffffffffffffffffffffffffffffffff1673ffffffffffffffffffffffffffffffffffffffff16600560009054906101000a900473ffffffffffffffffffffffffffffffffffffffff1673ffffffffffffffffffffffffffffffffffffffff16630dfe16816040518163ffffffff1660e01b8152600401602060405180830381865afa158015610d6c573d6000803e3d6000fd5b505050506040513d601f19601f82011682018060405250810190610d909190613a47565b73ffffffffffffffffffffffffffffffffffffffff161415905060008082610e7757600560009054906101000a900473ffffffffffffffffffffffffffffffffffffffff1673ffffffffffffffffffffffffffffffffffffffff16630902f1ac6040518163ffffffff1660e01b8152600401606060405180830381865afa158015610e1f573d6000803e3d6000fd5b505050506040513d601f19601f82011682018060405250810190610e439190613cad565b826dffffffffffffffffffffffffffff169250816dffffffffffffffffffffffffffff169150508092508193505050610f38565b600560009054906101000a900473ffffffffffffffffffffffffffffffffffffffff1673ffffffffffffffffffffffffffffffffffffffff16630902f1ac6040518163ffffffff1660e01b8152600401606060405180830381865afa158015610ee4573d6000803e3d6000fd5b505050506040513d601f19601f82011682018060405250810190610f089190613cad565b826dffffffffffffffffffffffffffff169250816dffffffffffffffffffffffffffff1691505080935081925050505b73__UniswapV2Library______________________63ad615dec8684846040518463ffffffff1660e01b8152600401610f7393929190613d0f565b602060405180830381865af4158015610f90573d6000803e3d6000fd5b505050506040513d601f19601f82011682018060405250810190610fb49190613d5b565b9350505050919050565b60085481565b60008083905060018360ff1603610ff057610fed603c82610fe59190613d88565b6104b06129dd565b91505b60028360ff16036110165761101360788261100b9190613d88565b6101906129dd565b91505b60038360ff160361103b5761103860a0826110319190613d88565b60c86129dd565b91505b60048360ff16036110615761105e61012c826110579190613d88565b60646129dd565b91505b5092915050565b60046020528060005260406000206000915054906101000a900467ffffffffffffffff1681565b600080600080600360008773ffffffffffffffffffffffffffffffffffffffff1673ffffffffffffffffffffffffffffffffffffffff16815260200190815260200160002060008660ff166fffffffffffffffffffffffffffffffff16815260200190815260200160002060009054906101000a90046fffffffffffffffffffffffffffffffff166fffffffffffffffffffffffffffffffff169350611138868660ff16612188565b9250600e60008773ffffffffffffffffffffffffffffffffffffffff1673ffffffffffffffffffffffffffffffffffffffff16815260200190815260200160002060008660ff1663ffffffff16815260200190815260200160002060009054906101000a900460ff1660ff169150600d60008773ffffffffffffffffffffffffffffffffffffffff1673ffffffffffffffffffffffffffffffffffffffff16815260200190815260200160002060008660ff1663ffffffff16815260200190815260200160002054905092959194509250565b611213612a1a565b61121d6000612a98565b565b600760009054906101000a900473ffffffffffffffffffffffffffffffffffffffff1681565b8063ffffffff166000600360003373ffffffffffffffffffffffffffffffffffffffff1673ffffffffffffffffffffffffffffffffffffffff1681526020019081526020016000206000836fffffffffffffffffffffffffffffffff166fffffffffffffffffffffffffffffffff16815260200190815260200160002060009054906101000a90046fffffffffffffffffffffffffffffffff166fffffffffffffffffffffffffffffffff161415801561136e5750600460003373ffffffffffffffffffffffffffffffffffffffff1673ffffffffffffffffffffffffffffffffffffffff16815260200190815260200160002060009054906101000a900467ffffffffffffffff1667ffffffffffffffff16816fffffffffffffffffffffffffffffffff1611155b6113ad576040517f08c379a00000000000000000000000000000000000000000000000000000000081526004016113a490613e2e565b60405180910390fd5b8163ffffffff1642600360003373ffffffffffffffffffffffffffffffffffffffff1673ffffffffffffffffffffffffffffffffffffffff1681526020019081526020016000206000836fffffffffffffffffffffffffffffffff166fffffffffffffffffffffffffffffffff16815260200190815260200160002060009054906101000a90046fffffffffffffffffffffffffffffffff166fffffffffffffffffffffffffffffffff1610611498576040517f08c379a000000000000000000000000000000000000000000000000000000000815260040161148f90613ec0565b60405180910390fd5b6002600154036114dd576040517f08c379a00000000000000000000000000000000000000000000000000000000081526004016114d490613914565b60405180910390fd5b60026001819055506000600d60003373ffffffffffffffffffffffffffffffffffffffff1673ffffffffffffffffffffffffffffffffffffffff16815260200190815260200160002060008563ffffffff1663ffffffff1681526020019081526020016000205490506115933382600760009054906101000a900473ffffffffffffffffffffffffffffffffffffffff1673ffffffffffffffffffffffffffffffffffffffff16612b5c9092919063ffffffff16565b6000600e60003373ffffffffffffffffffffffffffffffffffffffff1673ffffffffffffffffffffffffffffffffffffffff16815260200190815260200160002060008663ffffffff1663ffffffff16815260200190815260200160002060009054906101000a900460ff169050600061160d8383611c5a565b90506000811115611666576116653382600660009054906101000a900473ffffffffffffffffffffffffffffffffffffffff1673ffffffffffffffffffffffffffffffffffffffff16612b5c9092919063ffffffff16565b5b80600860008282546116789190613b9f565b9250508190555082600a60008282546116919190613b9f565b925050819055506116a18361193c565b600b60008282546116b29190613b9f565b925050819055506000600d60003373ffffffffffffffffffffffffffffffffffffffff1673ffffffffffffffffffffffffffffffffffffffff16815260200190815260200160002060008863ffffffff1663ffffffff1681526020019081526020016000208190555082600c60003373ffffffffffffffffffffffffffffffffffffffff1673ffffffffffffffffffffffffffffffffffffffff168152602001908152602001600020600082825461176a9190613b9f565b925050819055506117818663ffffffff1633612be2565b61178b8633612e47565b3373ffffffffffffffffffffffffffffffffffffffff167ff960dbf9e5d0682f7a298ed974e33a28b4464914b7a2bfac12ae419a9afeb28084836040516117d3929190613c29565b60405180910390a250505060018081905550505050565b600d602052816000526040600020602052806000526040600020600091509150505481565b60008060009054906101000a900473ffffffffffffffffffffffffffffffffffffffff16905090565b611840612a1a565b60008111611883576040517f08c379a000000000000000000000000000000000000000000000000000000000815260040161187a90613f2c565b60405180910390fd5b6118d2333083600660009054906101000a900473ffffffffffffffffffffffffffffffffffffffff1673ffffffffffffffffffffffffffffffffffffffff16612353909392919063ffffffff16565b80600960008282546118e49190613bd3565b925050819055503373ffffffffffffffffffffffffffffffffffffffff167fc1d32ad5cca423e7dda2123dbf8c482f8e77d00b631c06e903a47f2cec1334df826040516119319190613472565b60405180910390a250565b600080600560009054906101000a900473ffffffffffffffffffffffffffffffffffffffff1673ffffffffffffffffffffffffffffffffffffffff166318160ddd6040518163ffffffff1660e01b8152600401602060405180830381865afa1580156119ac573d6000803e3d6000fd5b505050506040513d601f19601f820116820180604052508101906119d09190613d5b565b90506000600660009054906101000a900473ffffffffffffffffffffffffffffffffffffffff1673ffffffffffffffffffffffffffffffffffffffff16600560009054906101000a900473ffffffffffffffffffffffffffffffffffffffff1673ffffffffffffffffffffffffffffffffffffffff16630dfe16816040518163ffffffff1660e01b8152600401602060405180830381865afa158015611a7a573d6000803e3d6000fd5b505050506040513d601f19601f82011682018060405250810190611a9e9190613a47565b73ffffffffffffffffffffffffffffffffffffffff161415905060008115611b7057600560009054906101000a900473ffffffffffffffffffffffffffffffffffffffff1673ffffffffffffffffffffffffffffffffffffffff16630902f1ac6040518163ffffffff1660e01b8152600401606060405180830381865afa158015611b2d573d6000803e3d6000fd5b505050506040513d601f19601f82011682018060405250810190611b519190613cad565b826dffffffffffffffffffffffffffff16925090505080915050611c1d565b600560009054906101000a900473ffffffffffffffffffffffffffffffffffffffff1673ffffffffffffffffffffffffffffffffffffffff16630902f1ac6040518163ffffffff1660e01b8152600401606060405180830381865afa158015611bdd573d6000803e3d6000fd5b505050506040513d601f19601f82011682018060405250810190611c019190613cad565b909150816dffffffffffffffffffffffffffff16915050809150505b60008190506000600282611c319190613d88565b90506000611c3f82876129dd565b90508088611c4d9190613d88565b9650505050505050919050565b600080611c668461193c565b90506000611c748285610fc4565b9050611c7f81611e8d565b9250505092915050565b60095481565b600560009054906101000a900473ffffffffffffffffffffffffffffffffffffffff1681565b611cbd612a1a565b60008114611d00576040517f08c379a0000000000000000000000000000000000000000000000000000000008152600401611cf790613f98565b60405180910390fd5b600954811115611d45576040517f08c379a0000000000000000000000000000000000000000000000000000000008152600401611d3c90614004565b60405180910390fd5b600660009054906101000a900473ffffffffffffffffffffffffffffffffffffffff1673ffffffffffffffffffffffffffffffffffffffff1663a9059cbb33836040518363ffffffff1660e01b8152600401611da2929190614024565b6020604051808303816000875af1158015611dc1573d6000803e3d6000fd5b505050506040513d601f19601f82011682018060405250810190611de59190613b72565b508060096000828254611df89190613b9f565b925050819055503373ffffffffffffffffffffffffffffffffffffffff167fc1d32ad5cca423e7dda2123dbf8c482f8e77d00b631c06e903a47f2cec1334df82604051611e459190613472565b60405180910390a250565b600042905090565b600e6020528160005260406000206020528060005260406000206000915091509054906101000a900460ff1681565b600a5481565b600080600660009054906101000a900473ffffffffffffffffffffffffffffffffffffffff1673ffffffffffffffffffffffffffffffffffffffff16600560009054906101000a900473ffffffffffffffffffffffffffffffffffffffff1673ffffffffffffffffffffffffffffffffffffffff16630dfe16816040518163ffffffff1660e01b8152600401602060405180830381865afa158015611f36573d6000803e3d6000fd5b505050506040513d601f19601f82011682018060405250810190611f5a9190613a47565b73ffffffffffffffffffffffffffffffffffffffff16149050600080821561204157600560009054906101000a900473ffffffffffffffffffffffffffffffffffffffff1673ffffffffffffffffffffffffffffffffffffffff16630902f1ac6040518163ffffffff1660e01b8152600401606060405180830381865afa158015611fe9573d6000803e3d6000fd5b505050506040513d601f19601f8201168201806040525081019061200d9190613cad565b826dffffffffffffffffffffffffffff169250816dffffffffffffffffffffffffffff169150508092508193505050612102565b600560009054906101000a900473ffffffffffffffffffffffffffffffffffffffff1673ffffffffffffffffffffffffffffffffffffffff16630902f1ac6040518163ffffffff1660e01b8152600401606060405180830381865afa1580156120ae573d6000803e3d6000fd5b505050506040513d601f19601f820116820180604052508101906120d29190613cad565b826dffffffffffffffffffffffffffff169250816dffffffffffffffffffffffffffff1691505080935081925050505b73__UniswapV2Library______________________63ad615dec8683856040518463ffffffff1660e01b815260040161213d93929190613d0f565b602060405180830381865af415801561215a573d6000803e3d6000fd5b505050506040513d601f19601f8201168201806040525081019061217e9190613d5b565b9350505050919050565b600080600d60008573ffffffffffffffffffffffffffffffffffffffff1673ffffffffffffffffffffffffffffffffffffffff16815260200190815260200160002060008463ffffffff1663ffffffff1681526020019081526020016000205490506000600e60008673ffffffffffffffffffffffffffffffffffffffff1673ffffffffffffffffffffffffffffffffffffffff16815260200190815260200160002060008563ffffffff1663ffffffff16815260200190815260200160002060009054906101000a900460ff1690506122628282611c5a565b9250505092915050565b612274612a1a565b600073ffffffffffffffffffffffffffffffffffffffff168173ffffffffffffffffffffffffffffffffffffffff16036122e3576040517f08c379a00000000000000000000000000000000000000000000000000000000081526004016122da906140bf565b60405180910390fd5b6122ec81612a98565b50565b60036020528160005260406000206020528060005260406000206000915091509054906101000a90046fffffffffffffffffffffffffffffffff1681565b600660009054906101000a900473ffffffffffffffffffffffffffffffffffffffff1681565b6123d6846323b872dd60e01b85858560405160240161237493929190613b03565b604051602081830303815290604052907bffffffffffffffffffffffffffffffffffffffffffffffffffffffff19166020820180517bffffffffffffffffffffffffffffffffffffffffffffffffffffffff8381831617835250505050613144565b50505050565b60008260ff166000816fffffffffffffffffffffffffffffffff1611801561241757506004816fffffffffffffffffffffffffffffffff1611155b612456576040517f08c379a000000000000000000000000000000000000000000000000000000000815260040161244d906138a8565b60405180910390fd5b8360ff16600481111561246c5761246b6140df565b5b600260006101000a81548160ff021916908360048111156124905761248f6140df565b5b02179055506000600460008573ffffffffffffffffffffffffffffffffffffffff1673ffffffffffffffffffffffffffffffffffffffff16815260200190815260200160002060009054906101000a900467ffffffffffffffff1667ffffffffffffffff16905060006001600481111561250d5761250c6140df565b5b600481111561251f5761251e6140df565b5b600260009054906101000a900460ff166004811115612541576125406140df565b5b036126055762278d00426125559190613bd3565b600360008773ffffffffffffffffffffffffffffffffffffffff1673ffffffffffffffffffffffffffffffffffffffff1681526020019081526020016000206000846fffffffffffffffffffffffffffffffff166fffffffffffffffffffffffffffffffff16815260200190815260200160002060006101000a8154816fffffffffffffffffffffffffffffffff02191690836fffffffffffffffffffffffffffffffff16021790559050612935565b60026004811115612619576126186140df565b5b600481111561262b5761262a6140df565b5b600260009054906101000a900460ff16600481111561264d5761264c6140df565b5b03612711576276a700426126619190613bd3565b600360008773ffffffffffffffffffffffffffffffffffffffff1673ffffffffffffffffffffffffffffffffffffffff1681526020019081526020016000206000846fffffffffffffffffffffffffffffffff166fffffffffffffffffffffffffffffffff16815260200190815260200160002060006101000a8154816fffffffffffffffffffffffffffffffff02191690836fffffffffffffffffffffffffffffffff16021790559050612934565b60036004811115612725576127246140df565b5b6004811115612737576127366140df565b5b600260009054906101000a900460ff166004811115612759576127586140df565b5b0361282a5761a8c062eff100426127709190613bd3565b61277a9190613bd3565b600360008773ffffffffffffffffffffffffffffffffffffffff1673ffffffffffffffffffffffffffffffffffffffff1681526020019081526020016000206000846fffffffffffffffffffffffffffffffff166fffffffffffffffffffffffffffffffff16815260200190815260200160002060006101000a8154816fffffffffffffffffffffffffffffffff02191690836fffffffffffffffffffffffffffffffff16021790559050612933565b60048081111561283d5761283c6140df565b5b600481111561284f5761284e6140df565b5b600260009054906101000a900460ff166004811115612871576128706140df565b5b03612932576301e13380426128869190613bd3565b600360008773ffffffffffffffffffffffffffffffffffffffff1673ffffffffffffffffffffffffffffffffffffffff1681526020019081526020016000206000846fffffffffffffffffffffffffffffffff166fffffffffffffffffffffffffffffffff16815260200190815260200160002060006101000a8154816fffffffffffffffffffffffffffffffff02191690836fffffffffffffffffffffffffffffffff160217905590505b5b5b5b600460008673ffffffffffffffffffffffffffffffffffffffff1673ffffffffffffffffffffffffffffffffffffffff168152602001908152602001600020600081819054906101000a900467ffffffffffffffff16809291906129989061410e565b91906101000a81548167ffffffffffffffff021916908367ffffffffffffffff16021790555050806fffffffffffffffffffffffffffffffff16935050505092915050565b6000808314612a0f576001826001856129f69190613b9f565b612a009190613ad2565b612a0a9190613bd3565b612a12565b60005b905092915050565b612a2261320b565b73ffffffffffffffffffffffffffffffffffffffff16612a4061180f565b73ffffffffffffffffffffffffffffffffffffffff1614612a96576040517f08c379a0000000000000000000000000000000000000000000000000000000008152600401612a8d9061418a565b60405180910390fd5b565b60008060009054906101000a900473ffffffffffffffffffffffffffffffffffffffff169050816000806101000a81548173ffffffffffffffffffffffffffffffffffffffff021916908373ffffffffffffffffffffffffffffffffffffffff1602179055508173ffffffffffffffffffffffffffffffffffffffff168173ffffffffffffffffffffffffffffffffffffffff167f8be0079c531659141344cd1fd0a4f28419497f9722a3daafe3b4186f6b6457e060405160405180910390a35050565b612bdd8363a9059cbb60e01b8484604051602401612b7b929190614024565b604051602081830303815290604052907bffffffffffffffffffffffffffffffffffffffffffffffffffffffff19166020820180517bffffffffffffffffffffffffffffffffffffffffffffffffffffffff8381831617835250505050613144565b505050565b60008290505b600460008373ffffffffffffffffffffffffffffffffffffffff1673ffffffffffffffffffffffffffffffffffffffff16815260200190815260200160002060009054906101000a900467ffffffffffffffff1667ffffffffffffffff16816fffffffffffffffffffffffffffffffff161015612db957600360003373ffffffffffffffffffffffffffffffffffffffff1673ffffffffffffffffffffffffffffffffffffffff1681526020019081526020016000206000600183612cad91906141aa565b6fffffffffffffffffffffffffffffffff166fffffffffffffffffffffffffffffffff16815260200190815260200160002060009054906101000a90046fffffffffffffffffffffffffffffffff16600360003373ffffffffffffffffffffffffffffffffffffffff1673ffffffffffffffffffffffffffffffffffffffff1681526020019081526020016000206000836fffffffffffffffffffffffffffffffff166fffffffffffffffffffffffffffffffff16815260200190815260200160002060006101000a8154816fffffffffffffffffffffffffffffffff02191690836fffffffffffffffffffffffffffffffff1602179055508080612db1906141f0565b915050612be8565b506001600460008373ffffffffffffffffffffffffffffffffffffffff1673ffffffffffffffffffffffffffffffffffffffff16815260200190815260200160002060008282829054906101000a900467ffffffffffffffff16612e1d9190614228565b92506101000a81548167ffffffffffffffff021916908367ffffffffffffffff1602179055505050565b60008290505b600460008373ffffffffffffffffffffffffffffffffffffffff1673ffffffffffffffffffffffffffffffffffffffff16815260200190815260200160002060009054906101000a900467ffffffffffffffff1667ffffffffffffffff168163ffffffff16101561307e57600e60003373ffffffffffffffffffffffffffffffffffffffff1673ffffffffffffffffffffffffffffffffffffffff1681526020019081526020016000206000600183612f06919061425c565b63ffffffff1663ffffffff16815260200190815260200160002060009054906101000a900460ff16600e60003373ffffffffffffffffffffffffffffffffffffffff1673ffffffffffffffffffffffffffffffffffffffff16815260200190815260200160002060008363ffffffff1663ffffffff16815260200190815260200160002060006101000a81548160ff021916908360ff160217905550600d60003373ffffffffffffffffffffffffffffffffffffffff1673ffffffffffffffffffffffffffffffffffffffff1681526020019081526020016000206000600183612ff0919061425c565b63ffffffff1663ffffffff16815260200190815260200160002054600d60003373ffffffffffffffffffffffffffffffffffffffff1673ffffffffffffffffffffffffffffffffffffffff16815260200190815260200160002060008363ffffffff1663ffffffff16815260200190815260200160002081905550808061307690614296565b915050612e4d565b506000600d60003373ffffffffffffffffffffffffffffffffffffffff1673ffffffffffffffffffffffffffffffffffffffff16815260200190815260200160002060006001600460008673ffffffffffffffffffffffffffffffffffffffff1673ffffffffffffffffffffffffffffffffffffffff16815260200190815260200160002060009054906101000a900467ffffffffffffffff166131229190614228565b63ffffffff1663ffffffff168152602001908152602001600020819055505050565b60006131a6826040518060400160405280602081526020017f5361666545524332303a206c6f772d6c6576656c2063616c6c206661696c65648152508573ffffffffffffffffffffffffffffffffffffffff166132139092919063ffffffff16565b905060008151111561320657808060200190518101906131c69190613b72565b613205576040517f08c379a00000000000000000000000000000000000000000000000000000000081526004016131fc90614334565b60405180910390fd5b5b505050565b600033905090565b6060613222848460008561322b565b90509392505050565b606082471015613270576040517f08c379a0000000000000000000000000000000000000000000000000000000008152600401613267906143c6565b60405180910390fd5b6132798561333f565b6132b8576040517f08c379a00000000000000000000000000000000000000000000000000000000081526004016132af90614432565b60405180910390fd5b6000808673ffffffffffffffffffffffffffffffffffffffff1685876040516132e191906144cc565b60006040518083038185875af1925050503d806000811461331e576040519150601f19603f3d011682016040523d82523d6000602084013e613323565b606091505b5091509150613333828286613362565b92505050949350505050565b6000808273ffffffffffffffffffffffffffffffffffffffff163b119050919050565b60608315613372578290506133c2565b6000835111156133855782518084602001fd5b816040517f08c379a00000000000000000000000000000000000000000000000000000000081526004016133b99190614538565b60405180910390fd5b9392505050565b600080fd5b600073ffffffffffffffffffffffffffffffffffffffff82169050919050565b60006133f9826133ce565b9050919050565b613409816133ee565b811461341457600080fd5b50565b60008135905061342681613400565b92915050565b600060208284031215613442576134416133c9565b5b600061345084828501613417565b91505092915050565b6000819050919050565b61346c81613459565b82525050565b60006020820190506134876000830184613463565b92915050565b61349681613459565b81146134a157600080fd5b50565b6000813590506134b38161348d565b92915050565b600060ff82169050919050565b6134cf816134b9565b81146134da57600080fd5b50565b6000813590506134ec816134c6565b92915050565b60008060408385031215613509576135086133c9565b5b6000613517858286016134a4565b9250506020613528858286016134dd565b9150509250929050565b600060208284031215613548576135476133c9565b5b6000613556848285016134a4565b91505092915050565b600067ffffffffffffffff82169050919050565b61357c8161355f565b82525050565b60006020820190506135976000830184613573565b92915050565b600080604083850312156135b4576135b36133c9565b5b60006135c285828601613417565b92505060206135d3858286016134dd565b9150509250929050565b60006080820190506135f26000830187613463565b6135ff6020830186613463565b61360c6040830185613463565b6136196060830184613463565b95945050505050565b6000819050919050565b600061364761364261363d846133ce565b613622565b6133ce565b9050919050565b60006136598261362c565b9050919050565b600061366b8261364e565b9050919050565b61367b81613660565b82525050565b60006020820190506136966000830184613672565b92915050565b600063ffffffff82169050919050565b6136b58161369c565b81146136c057600080fd5b50565b6000813590506136d2816136ac565b92915050565b6000602082840312156136ee576136ed6133c9565b5b60006136fc848285016136c3565b91505092915050565b6000806040838503121561371c5761371b6133c9565b5b600061372a85828601613417565b925050602061373b858286016136c3565b9150509250929050565b61374e816133ee565b82525050565b60006020820190506137696000830184613745565b92915050565b613778816134b9565b82525050565b6000602082019050613793600083018461376f565b92915050565b60006fffffffffffffffffffffffffffffffff82169050919050565b6137be81613799565b81146137c957600080fd5b50565b6000813590506137db816137b5565b92915050565b600080604083850312156137f8576137f76133c9565b5b600061380685828601613417565b9250506020613817858286016137cc565b9150509250929050565b61382a81613799565b82525050565b60006020820190506138456000830184613821565b92915050565b600082825260208201905092915050565b7f77726f6e672043686f6973652121210000000000000000000000000000000000600082015250565b6000613892600f8361384b565b915061389d8261385c565b602082019050919050565b600060208201905081810360008301526138c181613885565b9050919050565b7f5265656e7472616e637947756172643a207265656e7472616e742063616c6c00600082015250565b60006138fe601f8361384b565b9150613909826138c8565b602082019050919050565b6000602082019050818103600083015261392d816138f1565b9050919050565b7f43616e6e6f74207374616b652030000000000000000000000000000000000000600082015250565b600061396a600e8361384b565b915061397582613934565b602082019050919050565b600060208201905081810360008301526139998161395d565b9050919050565b7f6f776e65722068617665206e6f7420656e6f7567682062756c6320746f20706160008201527f7921000000000000000000000000000000000000000000000000000000000000602082015250565b60006139fc60228361384b565b9150613a07826139a0565b604082019050919050565b60006020820190508181036000830152613a2b816139ef565b9050919050565b600081519050613a4181613400565b92915050565b600060208284031215613a5d57613a5c6133c9565b5b6000613a6b84828501613a32565b91505092915050565b7f4e487b7100000000000000000000000000000000000000000000000000000000600052601260045260246000fd5b7f4e487b7100000000000000000000000000000000000000000000000000000000600052601160045260246000fd5b6000613add82613459565b9150613ae883613459565b925082613af857613af7613a74565b5b828204905092915050565b6000606082019050613b186000830186613745565b613b256020830185613745565b613b326040830184613463565b949350505050565b60008115159050919050565b613b4f81613b3a565b8114613b5a57600080fd5b50565b600081519050613b6c81613b46565b92915050565b600060208284031215613b8857613b876133c9565b5b6000613b9684828501613b5d565b91505092915050565b6000613baa82613459565b9150613bb583613459565b925082821015613bc857613bc7613aa3565b5b828203905092915050565b6000613bde82613459565b9150613be983613459565b9250827fffffffffffffffffffffffffffffffffffffffffffffffffffffffffffffffff03821115613c1e57613c1d613aa3565b5b828201905092915050565b6000604082019050613c3e6000830185613463565b613c4b6020830184613463565b9392505050565b60006dffffffffffffffffffffffffffff82169050919050565b613c7581613c52565b8114613c8057600080fd5b50565b600081519050613c9281613c6c565b92915050565b600081519050613ca7816136ac565b92915050565b600080600060608486031215613cc657613cc56133c9565b5b6000613cd486828701613c83565b9350506020613ce586828701613c83565b9250506040613cf686828701613c98565b9150509250925092565b613d0981613459565b82525050565b6000606082019050613d246000830186613d00565b613d316020830185613d00565b613d3e6040830184613d00565b949350505050565b600081519050613d558161348d565b92915050565b600060208284031215613d7157613d706133c9565b5b6000613d7f84828501613d46565b91505092915050565b6000613d9382613459565b9150613d9e83613459565b9250817fffffffffffffffffffffffffffffffffffffffffffffffffffffffffffffffff0483118215151615613dd757613dd6613aa3565b5b828202905092915050565b7f7468697320706f736974696f6e20646f7365206e6f7420657869737421000000600082015250565b6000613e18601d8361384b565b9150613e2382613de2565b602082019050919050565b60006020820190508181036000830152613e4781613e0b565b9050919050565b7f74686973207374616b6520706f736974696f6e2074696d6520646f7365206e6f60008201527f7420656e64207965742121210000000000000000000000000000000000000000602082015250565b6000613eaa602c8361384b565b9150613eb582613e4e565b604082019050919050565b60006020820190508181036000830152613ed981613e9d565b9050919050565b7f43616e6e6f742064697374726962757465203000000000000000000000000000600082015250565b6000613f1660138361384b565b9150613f2182613ee0565b602082019050919050565b60006020820190508181036000830152613f4581613f09565b9050919050565b7f3020616d6f756e74000000000000000000000000000000000000000000000000600082015250565b6000613f8260088361384b565b9150613f8d82613f4c565b602082019050919050565b60006020820190508181036000830152613fb181613f75565b9050919050565b7f796f752063616e207769746472617720726577617264467265657a6400000000600082015250565b6000613fee601c8361384b565b9150613ff982613fb8565b602082019050919050565b6000602082019050818103600083015261401d81613fe1565b9050919050565b60006040820190506140396000830185613745565b6140466020830184613463565b9392505050565b7f4f776e61626c653a206e6577206f776e657220697320746865207a65726f206160008201527f6464726573730000000000000000000000000000000000000000000000000000602082015250565b60006140a960268361384b565b91506140b48261404d565b604082019050919050565b600060208201905081810360008301526140d88161409c565b9050919050565b7f4e487b7100000000000000000000000000000000000000000000000000000000600052602160045260246000fd5b60006141198261355f565b915067ffffffffffffffff820361413357614132613aa3565b5b600182019050919050565b7f4f776e61626c653a2063616c6c6572206973206e6f7420746865206f776e6572600082015250565b600061417460208361384b565b915061417f8261413e565b602082019050919050565b600060208201905081810360008301526141a381614167565b9050919050565b60006141b582613799565b91506141c083613799565b9250826fffffffffffffffffffffffffffffffff038211156141e5576141e4613aa3565b5b828201905092915050565b60006141fb82613799565b91506fffffffffffffffffffffffffffffffff820361421d5761421c613aa3565b5b600182019050919050565b60006142338261355f565b915061423e8361355f565b92508282101561425157614250613aa3565b5b828203905092915050565b60006142678261369c565b91506142728361369c565b92508263ffffffff0382111561428b5761428a613aa3565b5b828201905092915050565b60006142a18261369c565b915063ffffffff82036142b7576142b6613aa3565b5b600182019050919050565b7f5361666545524332303a204552433230206f7065726174696f6e20646964206e60008201527f6f74207375636365656400000000000000000000000000000000000000000000602082015250565b600061431e602a8361384b565b9150614329826142c2565b604082019050919050565b6000602082019050818103600083015261434d81614311565b9050919050565b7f416464726573733a20696e73756666696369656e742062616c616e636520666f60008201527f722063616c6c0000000000000000000000000000000000000000000000000000602082015250565b60006143b060268361384b565b91506143bb82614354565b604082019050919050565b600060208201905081810360008301526143df816143a3565b9050919050565b7f416464726573733a2063616c6c20746f206e6f6e2d636f6e7472616374000000600082015250565b600061441c601d8361384b565b9150614427826143e6565b602082019050919050565b6000602082019050818103600083015261444b8161440f565b9050919050565b600081519050919050565b600081905092915050565b60005b8381101561448657808201518184015260208101905061446b565b83811115614495576000848401525b50505050565b60006144a682614452565b6144b0818561445d565b93506144c0818560208601614468565b80840191505092915050565b60006144d8828461449b565b915081905092915050565b600081519050919050565b6000601f19601f8301169050919050565b600061450a826144e3565b614514818561384b565b9350614524818560208601614468565b61452d816144ee565b840191505092915050565b6000602082019050818103600083015261455281846144ff565b90509291505056fea2646970667358221220e86956dfc6bd9a96376b26728635a89ca0681368d5439312e208ab41b22ec4a964736f6c634300080f0033",
  "immutableReferences": {},
  "source": "// SPDX-License-Identifier: MIT\r\npragma solidity ^0.8.0;\r\n\r\nimport \"@uniswap/v2-core/contracts/interfaces/IUniswapV2Pair.sol\";\r\nimport \"./UniswapV2Library.sol\";\r\nimport \"@openzeppelin/contracts/token/ERC20/IERC20.sol\";\r\nimport \"@openzeppelin/contracts/token/ERC20/utils/SafeERC20.sol\";\r\nimport \"@openzeppelin/contracts/access/Ownable.sol\";\r\nimport \"@openzeppelin/contracts/security/ReentrancyGuard.sol\";\r\nimport \"@openzeppelin/contracts/utils/math/Math.sol\";\r\n\r\nimport \"./CountDown.sol\";\r\n\r\n// import \"./CountDown.sol\";\r\n\r\ncontract Staking is Ownable, ReentrancyGuard, CountDown {\r\n    using SafeERC20 for IERC20;\r\n\r\n    /* ========== STATE VARIABLES ========== */\r\n    address public pair; //PAIR ADDRESS\r\n    IERC20 public rewardToken; //REWARD TOKEN ADDRESS\r\n    IERC20 public stakingToken; //LP TOKEN ADDRESS\r\n\r\n    uint256 public StakedRewardFreezed = 0; //FREEZED STAKE REWARD\r\n    uint256 public StakedReward; //FREE STAKE REWAED\r\n    uint256 public totalValueLockLPToken; // LP TOKEN LoCKED\r\n    uint256 public totalValueLockBUSD; //LP TOKEN LoCKED PER BUSD\r\n    mapping(address => uint256) public AllStakedBalance; // stake = {};\r\n    mapping(address => mapping(uint32 => uint256)) public stakedBalance; // stake = {};\r\n    mapping(address => mapping(uint32 => uint8)) public stakedChoise; // choise = {};\r\n\r\n    event Stake(address indexed user, uint256 amount, uint256 endTime);\r\n    event Unstake(address indexed user, uint256 amount, uint256 reward);\r\n    event ClaimReward(address indexed user, uint256 reward);\r\n    event Distribute(address indexed user, uint256 reward);\r\n\r\n    constructor(address _stakingToken, address _rewardToken) {\r\n        /* ======= PAIR AND LPTOKEN HAVE SAVE ADDRESSES ======= */\r\n        pair = _stakingToken; //PAIR ADDRESS\r\n        stakingToken = IERC20(_stakingToken); //LP TOKEN ADDRESS\r\n        rewardToken = IERC20(_rewardToken); //REWARD ADDRESS\r\n    }\r\n\r\n    /* ========== FUNCTIONS ========== */\r\n\r\n    function calculateAmountBulc(uint256 _amountBusd)\r\n        public\r\n        view\r\n        returns (uint256)\r\n    {\r\n        bool trueToken = (IUniswapV2Pair(pair).token0() ==\r\n            address(rewardToken)); //CHECK WHICH ADDRESS IS REWARD ADDRESS\r\n\r\n        uint256 reserveBulc; //REWARD ADDRESS\r\n        uint256 reserveBusd; //FEE TOKEN ADDRESS\r\n        if (trueToken) {\r\n            (reserveBulc, reserveBusd, ) = IUniswapV2Pair(pair).getReserves(); //GET RESERVES\r\n        } else {\r\n            (reserveBusd, reserveBulc, ) = IUniswapV2Pair(pair).getReserves(); //GET RESERVES\r\n        }\r\n        return UniswapV2Library.quote(_amountBusd, reserveBusd, reserveBulc);\r\n    }\r\n\r\n    function calculateAmountBusd(uint256 _BulcAmount)\r\n        public\r\n        view\r\n        returns (uint256)\r\n    {\r\n        bool trueToken = (IUniswapV2Pair(pair).token0() !=\r\n            address(rewardToken)); //CHECK WHICH ADDRESS IS NOT REWARD ADDRESS\r\n\r\n        uint256 reserveBulc; //REWARD TOKEN ADDRESS\r\n        uint256 reserveBusd; //FEE TOKEN ADDRESS\r\n        if (!trueToken) {\r\n            (reserveBulc, reserveBusd, ) = IUniswapV2Pair(pair).getReserves(); //GET RESERVES\r\n        } else {\r\n            (reserveBusd, reserveBulc, ) = IUniswapV2Pair(pair).getReserves(); //GET RESERVES\r\n        }\r\n        return UniswapV2Library.quote(_BulcAmount, reserveBulc, reserveBusd);\r\n    }\r\n\r\n    function calculateValue(uint256 _LpTokenAmount)\r\n        public\r\n        view\r\n        returns (uint256 valueLpPerBusd)\r\n    {\r\n        uint256 LPBalancePair = IUniswapV2Pair(pair).totalSupply(); //\r\n        bool trueToken = (IUniswapV2Pair(pair).token0() !=\r\n            address(rewardToken));\r\n        uint256 BusdAmount;\r\n\r\n        if (trueToken) {\r\n            (BusdAmount, , ) = IUniswapV2Pair(pair).getReserves();\r\n        } else {\r\n            (, BusdAmount, ) = IUniswapV2Pair(pair).getReserves();\r\n        }\r\n        uint256 BusdBalancePair = BusdAmount;\r\n\r\n        uint256 pairValue = BusdBalancePair * 2;\r\n        uint256 LpTokenPerBusdValue = Math.ceilDiv(pairValue, LPBalancePair);\r\n        valueLpPerBusd = _LpTokenAmount * LpTokenPerBusdValue;\r\n    }\r\n\r\n    function calculatePermit(uint256 amount_, uint8 choice_)\r\n        public\r\n        pure\r\n        returns (uint256 exactAmount)\r\n    {\r\n        uint256 amount = amount_; //GAS SAVING\r\n\r\n        if (choice_ == 1) {\r\n            exactAmount = Math.ceilDiv((amount * 60), (12 * 100)); //60APR\r\n        }\r\n        if (choice_ == 2) {\r\n            exactAmount = Math.ceilDiv((amount * 120), (4 * 100)); //120APR\r\n        }\r\n        if (choice_ == 3) {\r\n            exactAmount = Math.ceilDiv((amount * 160), (2 * 100)); //160APR\r\n        }\r\n        if (choice_ == 4) {\r\n            exactAmount = Math.ceilDiv((amount * 300), 100); //300APR\r\n        }\r\n    }\r\n\r\n    function calculate(uint256 _LPamount, uint8 choice)\r\n        public\r\n        view\r\n        returns (uint256 permitPerBulc)\r\n    {\r\n        uint256 BusdAmount = calculateValue(_LPamount);\r\n        uint256 permitPerBusd = calculatePermit(BusdAmount, choice);\r\n        permitPerBulc = calculateAmountBulc(permitPerBusd);\r\n    }\r\n\r\n    function stake(uint256 _amount, uint8 _Choise)\r\n        external\r\n        checkChoice(_Choise)\r\n        nonReentrant\r\n    {\r\n        require(_amount > 0, \"Cannot stake 0\");\r\n        uint256 lock = calculate(_amount, _Choise);\r\n        require(StakedReward > lock, \"owner have not enough bulc to pay!\");\r\n        IERC20 Busd;\r\n        bool trueToken = (IUniswapV2Pair(pair).token0() !=\r\n            address(rewardToken));\r\n        if (trueToken) {\r\n            Busd = IERC20(IUniswapV2Pair(pair).token0());\r\n        } else {\r\n            Busd = IERC20(IUniswapV2Pair(pair).token1());\r\n        }\r\n\r\n        uint256 fee = calculateValue(_amount) / 100;\r\n        Busd.transferFrom(msg.sender, owner(), fee);\r\n        StakedReward -= lock;\r\n        StakedRewardFreezed += lock;\r\n        // address BulcPairBalance=IERC20(_pair.token1()); 9999996998999999000\r\n        //        99999999999998889999004000000000000\r\n        //                                         9999996999999999000\r\n        stakingToken.safeTransferFrom(msg.sender, address(this), _amount);\r\n        AllStakedBalance[msg.sender] += _amount; // stake[address] = amount;\r\n        stakedBalance[msg.sender][uint32(positions[msg.sender])] = _amount; // stake[address] = amount;\r\n        stakedChoise[msg.sender][uint32(positions[msg.sender])] = _Choise;\r\n        totalValueLockLPToken += _amount; // T = T + amount;\r\n        totalValueLockBUSD += calculateValue(_amount);\r\n        uint256 endTime = stakeFor(_Choise, msg.sender);\r\n        emit Stake(msg.sender, _amount, endTime);\r\n    }\r\n\r\n    function unstake(uint32 position)\r\n        external\r\n        isExist(position)\r\n        isDone(position)\r\n        nonReentrant\r\n    {\r\n        uint256 deposited = stakedBalance[msg.sender][position]; // deposited = stake[address];\r\n        stakingToken.safeTransfer(msg.sender, deposited);\r\n        uint8 choise = stakedChoise[msg.sender][position];\r\n        uint256 reward = calculate(deposited, choise);\r\n\r\n        if (reward > 0) {\r\n            rewardToken.safeTransfer(msg.sender, reward);\r\n        }\r\n        StakedRewardFreezed -= reward;\r\n        totalValueLockLPToken -= deposited; // T = T - deposited;\r\n        totalValueLockBUSD -= calculateValue(deposited);\r\n\r\n        stakedBalance[msg.sender][position] = 0; // stake[address] = 0;\r\n        AllStakedBalance[msg.sender] -= deposited; // stake[address] = 0;\r\n        updatePositions(position, msg.sender); //updatePositions\r\n        update(position, msg.sender); //updatePositions\r\n\r\n        emit Unstake(msg.sender, deposited, reward);\r\n    }\r\n\r\n    function distribute(uint256 _reward) external onlyOwner {\r\n        require(_reward > 0, \"Cannot distribute 0\");\r\n\r\n        rewardToken.safeTransferFrom(msg.sender, address(this), _reward);\r\n        StakedReward += _reward;\r\n        emit Distribute(msg.sender, _reward);\r\n    }\r\n\r\n    function witdraw(uint256 rewardTokenAmount) external onlyOwner {\r\n        require(rewardTokenAmount == 0, \"0 amount\");\r\n        require(\r\n            rewardTokenAmount <= StakedReward,\r\n            \"you can witdraw rewardFreezd\"\r\n        );\r\n        rewardToken.transfer(msg.sender, rewardTokenAmount);\r\n        StakedReward -= rewardTokenAmount;\r\n        emit Distribute(msg.sender, rewardTokenAmount);\r\n    }\r\n\r\n    function rewardOf(address _account, uint32 position)\r\n        public\r\n        view\r\n        returns (uint256)\r\n    {\r\n        uint256 deposited = stakedBalance[_account][position];\r\n        uint8 choice = stakedChoise[_account][position];\r\n        return calculate(deposited, choice);\r\n    }\r\n\r\n    function update(uint32 position_, address sender) internal {\r\n        for (uint32 i = position_; i < positions[sender]; i++) {\r\n            stakedChoise[msg.sender][i] = stakedChoise[msg.sender][i + 1];\r\n            stakedBalance[msg.sender][i] = stakedBalance[msg.sender][i + 1];\r\n        }\r\n        stakedBalance[msg.sender][uint32(positions[sender] - 1)] = 0;\r\n    }\r\n\r\n    function getAll(address sender_, uint8 position)\r\n        public\r\n        view\r\n        returns (\r\n            uint256 deadLine,\r\n            uint256 reward,\r\n            uint256 choise,\r\n            uint256 LPTokenBalnce\r\n        )\r\n    {\r\n        deadLine = luckTime[sender_][position];\r\n        reward = rewardOf(sender_, position);\r\n        choise = stakedChoise[sender_][position];\r\n        LPTokenBalnce = stakedBalance[sender_][position];\r\n    }\r\n}\r\n",
  "sourcePath": "F:\\swapFinal\\contracts\\Staking.sol",
  "compiler": {
    "name": "solc",
    "version": "0.8.15+commit.e14f2714.Emscripten.clang"
  },
  "schemaVersion": "3.4.8",
  "updatedAt": "2022-07-31T15:07:48.207Z",
  "devdoc": {
    "kind": "dev",
    "methods": {
      "owner()": {
        "details": "Returns the address of the current owner."
      },
      "renounceOwnership()": {
        "details": "Leaves the contract without owner. It will not be possible to call `onlyOwner` functions anymore. Can only be called by the current owner. NOTE: Renouncing ownership will leave the contract without an owner, thereby removing any functionality that is only available to the owner."
      },
      "transferOwnership(address)": {
        "details": "Transfers ownership of the contract to a new account (`newOwner`). Can only be called by the current owner."
      }
    },
    "version": 1
  },
  "userdoc": {
    "kind": "user",
    "methods": {},
    "version": 1
  }
}