{
  "contractName": "Staking",
  "abi": [
    {
      "inputs": [
        {
          "internalType": "address",
          "name": "_stakingToken",
          "type": "address"
        },
        {
          "internalType": "address",
          "name": "_rewardToken",
          "type": "address"
        }
      ],
      "stateMutability": "nonpayable",
      "type": "constructor"
    },
    {
      "anonymous": false,
      "inputs": [
        {
          "indexed": true,
          "internalType": "address",
          "name": "previousOwner",
          "type": "address"
        },
        {
          "indexed": true,
          "internalType": "address",
          "name": "newOwner",
          "type": "address"
        }
      ],
      "name": "OwnershipTransferred",
      "type": "event"
    },
    {
      "anonymous": false,
      "inputs": [
        {
          "indexed": false,
          "internalType": "address",
          "name": "user",
          "type": "address"
        },
        {
          "indexed": false,
          "internalType": "uint256",
          "name": "reward",
          "type": "uint256"
        }
      ],
      "name": "SetReward",
      "type": "event"
    },
    {
      "anonymous": false,
      "inputs": [
        {
          "indexed": true,
          "internalType": "address",
          "name": "user",
          "type": "address"
        },
        {
          "indexed": false,
          "internalType": "uint256",
          "name": "amount",
          "type": "uint256"
        },
        {
          "indexed": false,
          "internalType": "uint256",
          "name": "endTime",
          "type": "uint256"
        }
      ],
      "name": "Stake",
      "type": "event"
    },
    {
      "anonymous": false,
      "inputs": [
        {
          "indexed": true,
          "internalType": "address",
          "name": "user",
          "type": "address"
        },
        {
          "indexed": false,
          "internalType": "uint256",
          "name": "amountStaked",
          "type": "uint256"
        },
        {
          "indexed": false,
          "internalType": "uint256",
          "name": "reward",
          "type": "uint256"
        }
      ],
      "name": "Unstake",
      "type": "event"
    },
    {
      "anonymous": false,
      "inputs": [
        {
          "indexed": false,
          "internalType": "uint256",
          "name": "depos",
          "type": "uint256"
        },
        {
          "indexed": false,
          "internalType": "uint256",
          "name": "allSt",
          "type": "uint256"
        },
        {
          "indexed": false,
          "internalType": "uint256",
          "name": "shares_",
          "type": "uint256"
        }
      ],
      "name": "testEvdent",
      "type": "event"
    },
    {
      "inputs": [],
      "name": "StakedReward",
      "outputs": [
        {
          "internalType": "uint256",
          "name": "",
          "type": "uint256"
        }
      ],
      "stateMutability": "view",
      "type": "function",
      "constant": true
    },
    {
      "inputs": [
        {
          "internalType": "uint256",
          "name": "",
          "type": "uint256"
        }
      ],
      "name": "allRewards",
      "outputs": [
        {
          "internalType": "uint256",
          "name": "",
          "type": "uint256"
        }
      ],
      "stateMutability": "view",
      "type": "function",
      "constant": true
    },
    {
      "inputs": [],
      "name": "allStakedBalance",
      "outputs": [
        {
          "internalType": "uint256",
          "name": "",
          "type": "uint256"
        }
      ],
      "stateMutability": "view",
      "type": "function",
      "constant": true
    },
    {
      "inputs": [
        {
          "internalType": "uint256",
          "name": "",
          "type": "uint256"
        }
      ],
      "name": "allStakedBalances",
      "outputs": [
        {
          "internalType": "uint256",
          "name": "",
          "type": "uint256"
        }
      ],
      "stateMutability": "view",
      "type": "function",
      "constant": true
    },
    {
      "inputs": [],
      "name": "endStakeTimestamp",
      "outputs": [
        {
          "internalType": "uint256",
          "name": "",
          "type": "uint256"
        }
      ],
      "stateMutability": "view",
      "type": "function",
      "constant": true
    },
    {
      "inputs": [],
      "name": "endWitdrawTimestamp",
      "outputs": [
        {
          "internalType": "uint256",
          "name": "",
          "type": "uint256"
        }
      ],
      "stateMutability": "view",
      "type": "function",
      "constant": true
    },
    {
      "inputs": [
        {
          "internalType": "uint256",
          "name": "",
          "type": "uint256"
        }
      ],
      "name": "endWitdrawTimestamps",
      "outputs": [
        {
          "internalType": "uint256",
          "name": "",
          "type": "uint256"
        }
      ],
      "stateMutability": "view",
      "type": "function",
      "constant": true
    },
    {
      "inputs": [],
      "name": "lastAllStakedBalance",
      "outputs": [
        {
          "internalType": "uint256",
          "name": "",
          "type": "uint256"
        }
      ],
      "stateMutability": "view",
      "type": "function",
      "constant": true
    },
    {
      "inputs": [],
      "name": "lastEndStake",
      "outputs": [
        {
          "internalType": "uint256",
          "name": "",
          "type": "uint256"
        }
      ],
      "stateMutability": "view",
      "type": "function",
      "constant": true
    },
    {
      "inputs": [],
      "name": "owner",
      "outputs": [
        {
          "internalType": "address",
          "name": "",
          "type": "address"
        }
      ],
      "stateMutability": "view",
      "type": "function",
      "constant": true
    },
    {
      "inputs": [],
      "name": "renounceOwnership",
      "outputs": [],
      "stateMutability": "nonpayable",
      "type": "function"
    },
    {
      "inputs": [],
      "name": "rewardToken",
      "outputs": [
        {
          "internalType": "contract IERC20",
          "name": "",
          "type": "address"
        }
      ],
      "stateMutability": "view",
      "type": "function",
      "constant": true
    },
    {
      "inputs": [
        {
          "internalType": "address",
          "name": "",
          "type": "address"
        }
      ],
      "name": "stakedBalance",
      "outputs": [
        {
          "internalType": "uint256",
          "name": "",
          "type": "uint256"
        }
      ],
      "stateMutability": "view",
      "type": "function",
      "constant": true
    },
    {
      "inputs": [
        {
          "internalType": "address",
          "name": "",
          "type": "address"
        }
      ],
      "name": "stakedTime",
      "outputs": [
        {
          "internalType": "uint256",
          "name": "",
          "type": "uint256"
        }
      ],
      "stateMutability": "view",
      "type": "function",
      "constant": true
    },
    {
      "inputs": [],
      "name": "stakingToken",
      "outputs": [
        {
          "internalType": "contract IERC20",
          "name": "",
          "type": "address"
        }
      ],
      "stateMutability": "view",
      "type": "function",
      "constant": true
    },
    {
      "inputs": [],
      "name": "startStakeTimestamp",
      "outputs": [
        {
          "internalType": "uint256",
          "name": "",
          "type": "uint256"
        }
      ],
      "stateMutability": "view",
      "type": "function",
      "constant": true
    },
    {
      "inputs": [],
      "name": "startWitdrawTimestamp",
      "outputs": [
        {
          "internalType": "uint256",
          "name": "",
          "type": "uint256"
        }
      ],
      "stateMutability": "view",
      "type": "function",
      "constant": true
    },
    {
      "inputs": [
        {
          "internalType": "address",
          "name": "newOwner",
          "type": "address"
        }
      ],
      "name": "transferOwnership",
      "outputs": [],
      "stateMutability": "nonpayable",
      "type": "function"
    },
    {
      "inputs": [
        {
          "internalType": "address",
          "name": "sender",
          "type": "address"
        }
      ],
      "name": "getReward",
      "outputs": [
        {
          "internalType": "uint256",
          "name": "shares",
          "type": "uint256"
        }
      ],
      "stateMutability": "nonpayable",
      "type": "function"
    },
    {
      "inputs": [
        {
          "internalType": "uint256",
          "name": "_amount",
          "type": "uint256"
        }
      ],
      "name": "stake",
      "outputs": [],
      "stateMutability": "nonpayable",
      "type": "function"
    },
    {
      "inputs": [],
      "name": "unstake",
      "outputs": [],
      "stateMutability": "nonpayable",
      "type": "function"
    },
    {
      "inputs": [
        {
          "internalType": "uint256",
          "name": "_reward",
          "type": "uint256"
        }
      ],
      "name": "setReward",
      "outputs": [],
      "stateMutability": "nonpayable",
      "type": "function"
    },
    {
      "inputs": [
        {
          "internalType": "uint256",
          "name": "_reward",
          "type": "uint256"
        }
      ],
      "name": "addReward",
      "outputs": [],
      "stateMutability": "nonpayable",
      "type": "function"
    },
    {
      "inputs": [],
      "name": "setStake",
      "outputs": [],
      "stateMutability": "nonpayable",
      "type": "function"
    },
    {
      "inputs": [],
      "name": "setWitdraw",
      "outputs": [],
      "stateMutability": "nonpayable",
      "type": "function"
    },
    {
      "inputs": [
        {
          "internalType": "uint256",
          "name": "amount",
          "type": "uint256"
        }
      ],
      "name": "witdrawOwnerLP",
      "outputs": [],
      "stateMutability": "nonpayable",
      "type": "function"
    },
    {
      "inputs": [
        {
          "internalType": "uint256",
          "name": "amount",
          "type": "uint256"
        }
      ],
      "name": "witdrawOwnerReward",
      "outputs": [],
      "stateMutability": "nonpayable",
      "type": "function"
    },
    {
      "inputs": [
        {
          "internalType": "uint256",
          "name": "deposited",
          "type": "uint256"
        },
        {
          "internalType": "uint256",
          "name": "Balance",
          "type": "uint256"
        }
      ],
      "name": "calculate",
      "outputs": [
        {
          "internalType": "uint256",
          "name": "percentShares",
          "type": "uint256"
        }
      ],
      "stateMutability": "pure",
      "type": "function",
      "constant": true
    },
    {
      "inputs": [
        {
          "internalType": "address",
          "name": "_sender",
          "type": "address"
        }
      ],
      "name": "percentageShare",
      "outputs": [
        {
          "internalType": "uint256",
          "name": "",
          "type": "uint256"
        }
      ],
      "stateMutability": "view",
      "type": "function",
      "constant": true
    }
  ],
  "bytecode": "0x60806040526000600c60006101000a81548160ff0219169083151502179055503480156200002c57600080fd5b506040516200263d3803806200263d833981810160405281019062000052919062000239565b62000072620000666200010360201b60201c565b6200010b60201b60201c565b6001808190555081600360006101000a81548173ffffffffffffffffffffffffffffffffffffffff021916908373ffffffffffffffffffffffffffffffffffffffff16021790555080600260006101000a81548173ffffffffffffffffffffffffffffffffffffffff021916908373ffffffffffffffffffffffffffffffffffffffff160217905550505062000280565b600033905090565b60008060009054906101000a900473ffffffffffffffffffffffffffffffffffffffff169050816000806101000a81548173ffffffffffffffffffffffffffffffffffffffff021916908373ffffffffffffffffffffffffffffffffffffffff1602179055508173ffffffffffffffffffffffffffffffffffffffff168173ffffffffffffffffffffffffffffffffffffffff167f8be0079c531659141344cd1fd0a4f28419497f9722a3daafe3b4186f6b6457e060405160405180910390a35050565b600080fd5b600073ffffffffffffffffffffffffffffffffffffffff82169050919050565b60006200020182620001d4565b9050919050565b6200021381620001f4565b81146200021f57600080fd5b50565b600081519050620002338162000208565b92915050565b60008060408385031215620002535762000252620001cf565b5b6000620002638582860162000222565b9250506020620002768582860162000222565b9150509250929050565b6123ad80620002906000396000f3fe608060405234801561001057600080fd5b50600436106101ce5760003560e01c806380fd22d211610104578063a694fc3a116100a2578063f2fde38b11610071578063f2fde38b146104d3578063f7c618c1146104ef578063f8a4f93f1461050d578063fbd75b8d1461053d576101ce565b8063a694fc3a14610439578063c00007b014610455578063c92a514314610485578063e1c5f248146104b5576101ce565b80638da5cb5b116100de5780638da5cb5b146103af5780638dfa4363146103cd57806397a6db70146103fd5780639e6e19061461041b576101ce565b806380fd22d21461037f5780638356c74c1461039b5780638992e960146103a5576101ce565b806350b237ea11610171578063715018a61161014b578063715018a61461031d57806372f702f31461032757806374de4ec41461034557806376da890814610361576101ce565b806350b237ea146102b357806351107ac5146102cf57806360217267146102ed576101ce565b80631fb5daf5116101ad5780631fb5daf514610251578063293be4561461026f5780632def66201461028b5780634ba066eb14610295576101ce565b8062d799a0146101d357806306709555146101f1578063136de4c014610221575b600080fd5b6101db61056d565b6040516101e891906119ca565b60405180910390f35b61020b60048036038101906102069190611a48565b610573565b60405161021891906119ca565b60405180910390f35b61023b60048036038101906102369190611aa1565b61058b565b60405161024891906119ca565b60405180910390f35b6102596105af565b60405161026691906119ca565b60405180910390f35b61028960048036038101906102849190611aa1565b6105b5565b005b6102936106e6565b005b61029d6109ff565b6040516102aa91906119ca565b60405180910390f35b6102cd60048036038101906102c89190611aa1565b610a05565b005b6102d7610aff565b6040516102e491906119ca565b60405180910390f35b61030760048036038101906103029190611a48565b610b05565b60405161031491906119ca565b60405180910390f35b610325610b1d565b005b61032f610b31565b60405161033c9190611b2d565b60405180910390f35b61035f600480360381019061035a9190611aa1565b610b57565b005b610369610c9a565b60405161037691906119ca565b60405180910390f35b61039960048036038101906103949190611aa1565b610ca0565b005b6103a3610dd5565b005b6103ad610e65565b005b6103b7610f87565b6040516103c49190611b57565b60405180910390f35b6103e760048036038101906103e29190611b72565b610fb0565b6040516103f491906119ca565b60405180910390f35b610405610fdd565b60405161041291906119ca565b60405180910390f35b610423610fe3565b60405161043091906119ca565b60405180910390f35b610453600480360381019061044e9190611aa1565b610fe9565b005b61046f600480360381019061046a9190611a48565b6112e4565b60405161047c91906119ca565b60405180910390f35b61049f600480360381019061049a9190611aa1565b6114b9565b6040516104ac91906119ca565b60405180910390f35b6104bd6114dd565b6040516104ca91906119ca565b60405180910390f35b6104ed60048036038101906104e89190611a48565b6114e3565b005b6104f7611566565b6040516105049190611b2d565b60405180910390f35b61052760048036038101906105229190611aa1565b61158c565b60405161053491906119ca565b60405180910390f35b61055760048036038101906105529190611a48565b6115b0565b60405161056491906119ca565b60405180910390f35b60045481565b60106020528060005260406000206000915090505481565b600a818154811061059b57600080fd5b906000526020600020016000915090505481565b60065481565b6105bd611609565b60008111610600576040517f08c379a00000000000000000000000000000000000000000000000000000000081526004016105f790611c0f565b60405180910390fd5b600260009054906101000a900473ffffffffffffffffffffffffffffffffffffffff1673ffffffffffffffffffffffffffffffffffffffff166323b872dd3330846040518463ffffffff1660e01b815260040161065f93929190611c2f565b6020604051808303816000875af115801561067e573d6000803e3d6000fd5b505050506040513d601f19601f820116820180604052508101906106a29190611c9e565b5080600d819055507f47df87b2d8295190528d53d2aa17482e79c609a908425cea226c34b69733dd3833826040516106db929190611ccb565b60405180910390a150565b60026001540361072b576040517f08c379a000000000000000000000000000000000000000000000000000000000815260040161072290611d40565b60405180910390fd5b600260018190555033600554421015801561074857506007544211155b610787576040517f08c379a000000000000000000000000000000000000000000000000000000000815260040161077e90611dac565b60405180910390fd5b336000600e60008373ffffffffffffffffffffffffffffffffffffffff1673ffffffffffffffffffffffffffffffffffffffff168152602001908152602001600020540361080a576040517f08c379a000000000000000000000000000000000000000000000000000000000815260040161080190611e18565b60405180910390fd5b6000600e60003373ffffffffffffffffffffffffffffffffffffffff1673ffffffffffffffffffffffffffffffffffffffff168152602001908152602001600020549050600360009054906101000a900473ffffffffffffffffffffffffffffffffffffffff1673ffffffffffffffffffffffffffffffffffffffff1663a9059cbb33836040518363ffffffff1660e01b81526004016108ab929190611ccb565b6020604051808303816000875af11580156108ca573d6000803e3d6000fd5b505050506040513d601f19601f820116820180604052508101906108ee9190611c9e565b5060006108fd82601154610fb0565b905081601160008282546109119190611e67565b925050819055506000600e60003373ffffffffffffffffffffffffffffffffffffffff1673ffffffffffffffffffffffffffffffffffffffff168152602001908152602001600020819055506000601060003373ffffffffffffffffffffffffffffffffffffffff1673ffffffffffffffffffffffffffffffffffffffff168152602001908152602001600020819055503373ffffffffffffffffffffffffffffffffffffffff167ff960dbf9e5d0682f7a298ed974e33a28b4464914b7a2bfac12ae419a9afeb28083836040516109ea929190611e9b565b60405180910390a25050505060018081905550565b60055481565b610a0d611609565b8060008103610a51576040517f08c379a0000000000000000000000000000000000000000000000000000000008152600401610a4890611e18565b60405180910390fd5b600360009054906101000a900473ffffffffffffffffffffffffffffffffffffffff1673ffffffffffffffffffffffffffffffffffffffff166323b872dd30610a98610f87565b856040518463ffffffff1660e01b8152600401610ab793929190611c2f565b6020604051808303816000875af1158015610ad6573d6000803e3d6000fd5b505050506040513d601f19601f82011682018060405250810190610afa9190611c9e565b505050565b60115481565b600e6020528060005260406000206000915090505481565b610b25611609565b610b2f6000611687565b565b600360009054906101000a900473ffffffffffffffffffffffffffffffffffffffff1681565b610b5f611609565b60008111610ba2576040517f08c379a0000000000000000000000000000000000000000000000000000000008152600401610b9990611c0f565b60405180910390fd5b600260009054906101000a900473ffffffffffffffffffffffffffffffffffffffff1673ffffffffffffffffffffffffffffffffffffffff166323b872dd3330846040518463ffffffff1660e01b8152600401610c0193929190611c2f565b6020604051808303816000875af1158015610c20573d6000803e3d6000fd5b505050506040513d601f19601f82011682018060405250810190610c449190611c9e565b5080600d6000828254610c579190611ec4565b925050819055507f47df87b2d8295190528d53d2aa17482e79c609a908425cea226c34b69733dd383382604051610c8f929190611ccb565b60405180910390a150565b60075481565b610ca8611609565b8060008103610cec576040517f08c379a0000000000000000000000000000000000000000000000000000000008152600401610ce390611e18565b60405180910390fd5b600b6001600b80549050610d009190611e67565b81548110610d1157610d10611ef8565b5b90600052602060002001548210610d2757600080fd5b600260009054906101000a900473ffffffffffffffffffffffffffffffffffffffff1673ffffffffffffffffffffffffffffffffffffffff166323b872dd30610d6e610f87565b856040518463ffffffff1660e01b8152600401610d8d93929190611c2f565b6020604051808303816000875af1158015610dac573d6000803e3d6000fd5b505050506040513d601f19601f82011682018060405250810190610dd09190611c9e565b505050565b610ddd611609565b600c60009054906101000a900460ff1615610e2d576040517f08c379a0000000000000000000000000000000000000000000000000000000008152600401610e2490611f99565b60405180910390fd5b4260048190555061012c42610e429190611ec4565b6006819055506001600c60006101000a81548160ff021916908315150217905550565b610e6d611609565b600c60009054906101000a900460ff16610ebc576040517f08c379a0000000000000000000000000000000000000000000000000000000008152600401610eb39061202b565b60405180910390fd5b601154601281905550600b600d549080600181540180825580915050600190039060005260206000200160009091909190915055600654600881905550600a60115490806001815401808255809150506001900390600052602060002001600090919091909150556000600c60006101000a81548160ff0219169083151502179055504260058190555061012c42610f549190611ec4565b60078190555060096007549080600181540180825580915050600190039060005260206000200160009091909190915055565b60008060009054906101000a900473ffffffffffffffffffffffffffffffffffffffff16905090565b60008068056bc75e2d631000009050610fd48185610fce919061204b565b8461174b565b91505092915050565b60085481565b600d5481565b60026001540361102e576040517f08c379a000000000000000000000000000000000000000000000000000000000815260040161102590611d40565b60405180910390fd5b6002600181905550600454421015801561104a57506006544211155b611089576040517f08c379a0000000000000000000000000000000000000000000000000000000008152600401611080906120d9565b60405180910390fd5b80600081036110cd576040517f08c379a00000000000000000000000000000000000000000000000000000000081526004016110c490611e18565b60405180910390fd5b6000601060003373ffffffffffffffffffffffffffffffffffffffff1673ffffffffffffffffffffffffffffffffffffffff168152602001908152602001600020541461114f576040517f08c379a000000000000000000000000000000000000000000000000000000000815260040161114690612145565b60405180910390fd5b600454601060003373ffffffffffffffffffffffffffffffffffffffff1673ffffffffffffffffffffffffffffffffffffffff16815260200190815260200160002081905550600360009054906101000a900473ffffffffffffffffffffffffffffffffffffffff1673ffffffffffffffffffffffffffffffffffffffff166323b872dd3330856040518463ffffffff1660e01b81526004016111f493929190611c2f565b6020604051808303816000875af1158015611213573d6000803e3d6000fd5b505050506040513d601f19601f820116820180604052508101906112379190611c9e565b5081600e60003373ffffffffffffffffffffffffffffffffffffffff1673ffffffffffffffffffffffffffffffffffffffff1681526020019081526020016000208190555081600f60003373ffffffffffffffffffffffffffffffffffffffff1673ffffffffffffffffffffffffffffffffffffffff1681526020019081526020016000208190555081601160008282546112d29190611ec4565b92505081905550506001808190555050565b6000336000600f60008373ffffffffffffffffffffffffffffffffffffffff1673ffffffffffffffffffffffffffffffffffffffff1681526020019081526020016000205403611369576040517f08c379a0000000000000000000000000000000000000000000000000000000008152600401611360906121b1565b60405180910390fd5b600754601060003373ffffffffffffffffffffffffffffffffffffffff1673ffffffffffffffffffffffffffffffffffffffff16815260200190815260200160002054036113b657600080fd5b3373ffffffffffffffffffffffffffffffffffffffff168373ffffffffffffffffffffffffffffffffffffffff16146113ee57600080fd5b6113f783611788565b9150600260009054906101000a900473ffffffffffffffffffffffffffffffffffffffff1673ffffffffffffffffffffffffffffffffffffffff1663a9059cbb84846040518363ffffffff1660e01b8152600401611456929190611ccb565b6020604051808303816000875af1158015611475573d6000803e3d6000fd5b505050506040513d601f19601f820116820180604052508101906114999190611c9e565b5081600d60008282546114ac9190611e67565b9250508190555050919050565b600981815481106114c957600080fd5b906000526020600020016000915090505481565b60125481565b6114eb611609565b600073ffffffffffffffffffffffffffffffffffffffff168173ffffffffffffffffffffffffffffffffffffffff160361155a576040517f08c379a000000000000000000000000000000000000000000000000000000000815260040161155190612243565b60405180910390fd5b61156381611687565b50565b600260009054906101000a900473ffffffffffffffffffffffffffffffffffffffff1681565b600b818154811061159c57600080fd5b906000526020600020016000915090505481565b600080600e60008473ffffffffffffffffffffffffffffffffffffffff1673ffffffffffffffffffffffffffffffffffffffff16815260200190815260200160002054905061160181601154610fb0565b915050919050565b6116116119a9565b73ffffffffffffffffffffffffffffffffffffffff1661162f610f87565b73ffffffffffffffffffffffffffffffffffffffff1614611685576040517f08c379a000000000000000000000000000000000000000000000000000000000815260040161167c906122af565b60405180910390fd5b565b60008060009054906101000a900473ffffffffffffffffffffffffffffffffffffffff169050816000806101000a81548173ffffffffffffffffffffffffffffffffffffffff021916908373ffffffffffffffffffffffffffffffffffffffff1602179055508173ffffffffffffffffffffffffffffffffffffffff168173ffffffffffffffffffffffffffffffffffffffff167f8be0079c531659141344cd1fd0a4f28419497f9722a3daafe3b4186f6b6457e060405160405180910390a35050565b600080831461177d576001826001856117649190611e67565b61176e91906122fe565b6117789190611ec4565b611780565b60005b905092915050565b600080600080600090505b6009805490508110156118cb57601060008673ffffffffffffffffffffffffffffffffffffffff1673ffffffffffffffffffffffffffffffffffffffff16815260200190815260200160002054600982815481106117f4576117f3611ef8565b5b906000526020600020015411156118b85761186c600f60008773ffffffffffffffffffffffffffffffffffffffff1673ffffffffffffffffffffffffffffffffffffffff16815260200190815260200160002054600a838154811061185c5761185b611ef8565b5b9060005260206000200154610fb0565b91506118aa600b828154811061188557611884611ef8565b5b90600052602060002001548361189b919061204b565b68056bc75e2d6310000061174b565b836118b59190611ec4565b92505b80806118c39061232f565b915050611793565b506000600e60008673ffffffffffffffffffffffffffffffffffffffff1673ffffffffffffffffffffffffffffffffffffffff1681526020019081526020016000205403611959576000600f60008673ffffffffffffffffffffffffffffffffffffffff1673ffffffffffffffffffffffffffffffffffffffff168152602001908152602001600020819055505b600754601060008673ffffffffffffffffffffffffffffffffffffffff1673ffffffffffffffffffffffffffffffffffffffff168152602001908152602001600020819055508192505050919050565b600033905090565b6000819050919050565b6119c4816119b1565b82525050565b60006020820190506119df60008301846119bb565b92915050565b600080fd5b600073ffffffffffffffffffffffffffffffffffffffff82169050919050565b6000611a15826119ea565b9050919050565b611a2581611a0a565b8114611a3057600080fd5b50565b600081359050611a4281611a1c565b92915050565b600060208284031215611a5e57611a5d6119e5565b5b6000611a6c84828501611a33565b91505092915050565b611a7e816119b1565b8114611a8957600080fd5b50565b600081359050611a9b81611a75565b92915050565b600060208284031215611ab757611ab66119e5565b5b6000611ac584828501611a8c565b91505092915050565b6000819050919050565b6000611af3611aee611ae9846119ea565b611ace565b6119ea565b9050919050565b6000611b0582611ad8565b9050919050565b6000611b1782611afa565b9050919050565b611b2781611b0c565b82525050565b6000602082019050611b426000830184611b1e565b92915050565b611b5181611a0a565b82525050565b6000602082019050611b6c6000830184611b48565b92915050565b60008060408385031215611b8957611b886119e5565b5b6000611b9785828601611a8c565b9250506020611ba885828601611a8c565b9150509250929050565b600082825260208201905092915050565b7f43616e6e6f742073657452657761726420300000000000000000000000000000600082015250565b6000611bf9601283611bb2565b9150611c0482611bc3565b602082019050919050565b60006020820190508181036000830152611c2881611bec565b9050919050565b6000606082019050611c446000830186611b48565b611c516020830185611b48565b611c5e60408301846119bb565b949350505050565b60008115159050919050565b611c7b81611c66565b8114611c8657600080fd5b50565b600081519050611c9881611c72565b92915050565b600060208284031215611cb457611cb36119e5565b5b6000611cc284828501611c89565b91505092915050565b6000604082019050611ce06000830185611b48565b611ced60208301846119bb565b9392505050565b7f5265656e7472616e637947756172643a207265656e7472616e742063616c6c00600082015250565b6000611d2a601f83611bb2565b9150611d3582611cf4565b602082019050919050565b60006020820190508181036000830152611d5981611d1d565b9050919050565b7f796f752063616e74207769746472617720617420746869732074696d65000000600082015250565b6000611d96601d83611bb2565b9150611da182611d60565b602082019050919050565b60006020820190508181036000830152611dc581611d89565b9050919050565b7f796f752068617665206e6f207368617265730000000000000000000000000000600082015250565b6000611e02601283611bb2565b9150611e0d82611dcc565b602082019050919050565b60006020820190508181036000830152611e3181611df5565b9050919050565b7f4e487b7100000000000000000000000000000000000000000000000000000000600052601160045260246000fd5b6000611e72826119b1565b9150611e7d836119b1565b9250828203905081811115611e9557611e94611e38565b5b92915050565b6000604082019050611eb060008301856119bb565b611ebd60208301846119bb565b9392505050565b6000611ecf826119b1565b9150611eda836119b1565b9250828201905080821115611ef257611ef1611e38565b5b92915050565b7f4e487b7100000000000000000000000000000000000000000000000000000000600052603260045260246000fd5b7f796f752063616e277420736574207374616b6520756e74696c2077697464726160008201527f77206973207374696c6c20676f696e67206f6e20000000000000000000000000602082015250565b6000611f83603483611bb2565b9150611f8e82611f27565b604082019050919050565b60006020820190508181036000830152611fb281611f76565b9050919050565b7f796f752063616e277420736574207769746472617720756e74696c207374616b60008201527f65206973207374696c6c20676f696e67206f6e00000000000000000000000000602082015250565b6000612015603383611bb2565b915061202082611fb9565b604082019050919050565b6000602082019050818103600083015261204481612008565b9050919050565b6000612056826119b1565b9150612061836119b1565b925082820261206f816119b1565b9150828204841483151761208657612085611e38565b5b5092915050565b7f796f752063616e74207374616b6520617420746869732074696d650000000000600082015250565b60006120c3601b83611bb2565b91506120ce8261208d565b602082019050919050565b600060208201905081810360008301526120f2816120b6565b9050919050565b7f796f75206861766520616c7265616479207374616b656420616d6f756e740000600082015250565b600061212f601e83611bb2565b915061213a826120f9565b602082019050919050565b6000602082019050818103600083015261215e81612122565b9050919050565b7f796f752068617665206e6f207265776172640000000000000000000000000000600082015250565b600061219b601283611bb2565b91506121a682612165565b602082019050919050565b600060208201905081810360008301526121ca8161218e565b9050919050565b7f4f776e61626c653a206e6577206f776e657220697320746865207a65726f206160008201527f6464726573730000000000000000000000000000000000000000000000000000602082015250565b600061222d602683611bb2565b9150612238826121d1565b604082019050919050565b6000602082019050818103600083015261225c81612220565b9050919050565b7f4f776e61626c653a2063616c6c6572206973206e6f7420746865206f776e6572600082015250565b6000612299602083611bb2565b91506122a482612263565b602082019050919050565b600060208201905081810360008301526122c88161228c565b9050919050565b7f4e487b7100000000000000000000000000000000000000000000000000000000600052601260045260246000fd5b6000612309826119b1565b9150612314836119b1565b925082612324576123236122cf565b5b828204905092915050565b600061233a826119b1565b91507fffffffffffffffffffffffffffffffffffffffffffffffffffffffffffffffff820361236c5761236b611e38565b5b60018201905091905056fea26469706673582212204d4113ffa34aa2e152f7367d3a47be589e7c1c321549c8c0369d295018c755f164736f6c63430008110033",
  "immutableReferences": {},
  "source": "// SPDX-License-Identifier: MIT\r\npragma solidity ^0.8.0;\r\n\r\n// import \"@uniswap/v2-core/contracts/interfaces/IUniswapV2Pair.sol\";\r\nimport \"@openzeppelin/contracts/token/ERC20/IERC20.sol\";\r\nimport \"@openzeppelin/contracts/access/Ownable.sol\";\r\nimport \"@openzeppelin/contracts/security/ReentrancyGuard.sol\";\r\nimport \"@openzeppelin/contracts/utils/math/Math.sol\";\r\n\r\ncontract Staking is Ownable, ReentrancyGuard {\r\n    /* ========== STATE VARIABLES ========== */\r\n    IERC20 public rewardToken; //REWARD TOKEN ADDRESS\r\n    IERC20 public stakingToken; //LP TOKEN ADDRESS\r\n    uint256 public startStakeTimestamp; //TIMESTAMP STAKE START\r\n    uint256 public startWitdrawTimestamp; //TIMESTAMP WITDRAW START\r\n    uint256 public endStakeTimestamp; //TIMESTAMP STAKE END\r\n    uint256 public endWitdrawTimestamp; //TIMESTAMP WITDRAW END\r\n    uint256 public lastEndStake; //LAST END WITDRAW TIMESTAMP\r\n    uint256[] public endWitdrawTimestamps; //ALL ENDS STAKE TIMESTAMP\r\n    uint256[] public allStakedBalances; //ALL STAKES BALANCES FROM BEGINNING\r\n    uint256[] public allRewards; //ALL REWARDS FROM BEGINNING\r\n    bool private timeSet = false; //BOOLEAN FOR SET THE TIME\r\n\r\n    uint256 public StakedReward; //REWARD\r\n\r\n    mapping(address => uint256) public stakedBalance; // stake = {};\r\n    mapping(address => uint256) private stakeProfit; // stake = {};\r\n    mapping(address => uint256) public stakedTime; // stake = {};\r\n\r\n    uint256 public allStakedBalance; // stake = {};\r\n    uint256 public lastAllStakedBalance; // stake = {};\r\n    event testEvdent(uint256 depos, uint256 allSt, uint256 shares_);\r\n\r\n    event Stake(address indexed user, uint256 amount, uint256 endTime);\r\n    event Unstake(address indexed user, uint256 amountStaked, uint256 reward);\r\n    event SetReward(address user, uint256 reward);\r\n\r\n    constructor(address _stakingToken, address _rewardToken) {\r\n        /* ======= PAIR AND LPTOKEN HAVE SAVE ADDRESSES ======= */\r\n        stakingToken = IERC20(_stakingToken); //LP TOKEN ADDRESS\r\n        rewardToken = IERC20(_rewardToken);\r\n    }\r\n\r\n    modifier haveReward(address sender) {\r\n        require(stakeProfit[sender] != 0, \"you have no reward\");\r\n        require(stakedTime[msg.sender] != endWitdrawTimestamp);\r\n        _;\r\n    }\r\n    modifier startStake() {\r\n        require(\r\n            block.timestamp >= startStakeTimestamp &&\r\n                block.timestamp <= endStakeTimestamp,\r\n            \"you cant stake at this time\"\r\n        );\r\n\r\n        _;\r\n    }\r\n    modifier zeroAmount(uint256 amount) {\r\n        require(amount != 0, \"you have no shares\");\r\n        _;\r\n    }\r\n    modifier haveShares(address sender) {\r\n        require(stakedBalance[sender] != 0, \"you have no shares\");\r\n\r\n        _;\r\n    }\r\n    modifier startWitdraw(address sender) {\r\n        require(\r\n            block.timestamp >= startWitdrawTimestamp &&\r\n                block.timestamp <= endWitdrawTimestamp,\r\n            \"you cant witdraw at this time\"\r\n        );\r\n\r\n        _;\r\n    }\r\n\r\n    function _getReward(address sender) internal returns (uint256) {\r\n        uint256 shares;\r\n        uint256 percentShares;\r\n        for (uint256 i = 0; i < endWitdrawTimestamps.length; i++) {\r\n            if (endWitdrawTimestamps[i] > stakedTime[sender]) {\r\n                percentShares = calculate(\r\n                    stakeProfit[sender],\r\n                    allStakedBalances[i]\r\n                );\r\n\r\n                shares += Math.ceilDiv(\r\n                    (percentShares * allRewards[i]),\r\n                    100 * 10**18\r\n                );\r\n            }\r\n        }\r\n\r\n        if (stakedBalance[sender] == 0) stakeProfit[sender] = 0;\r\n        stakedTime[sender] = endWitdrawTimestamp;\r\n        return shares;\r\n    }\r\n\r\n    function getReward(address sender)\r\n        public\r\n        haveReward(msg.sender)\r\n        returns (uint256 shares)\r\n    {\r\n        require(sender == msg.sender);\r\n        shares = _getReward(sender);\r\n        rewardToken.transfer(sender, shares);\r\n        StakedReward -= shares;\r\n    }\r\n\r\n    function stake(uint256 _amount)\r\n        external\r\n        nonReentrant\r\n        startStake\r\n        zeroAmount(_amount)\r\n    {\r\n        require(stakedTime[msg.sender] == 0, \"you have already staked amount\");\r\n        stakedTime[msg.sender] = startStakeTimestamp;\r\n        stakingToken.transferFrom(msg.sender, address(this), _amount);\r\n        stakedBalance[msg.sender] = _amount; // stake[address] = amount;\r\n        stakeProfit[msg.sender] = _amount;\r\n        allStakedBalance += _amount;\r\n        // lastAllStakedBalance = allStakedBalance;\r\n    }\r\n\r\n    function unstake()\r\n        external\r\n        nonReentrant\r\n        startWitdraw(msg.sender)\r\n        haveShares(msg.sender)\r\n    {\r\n        uint256 deposited = stakedBalance[msg.sender];\r\n        stakingToken.transfer(msg.sender, deposited);\r\n        uint256 shares = calculate(deposited, allStakedBalance);\r\n        allStakedBalance -= deposited;\r\n        stakedBalance[msg.sender] = 0;\r\n        stakedTime[msg.sender] = 0;\r\n\r\n        emit Unstake(msg.sender, deposited, shares);\r\n    }\r\n\r\n    //33,333333,333333,333334\r\n    function setReward(uint256 _reward) external onlyOwner {\r\n        require(_reward > 0, \"Cannot setReward 0\");\r\n\r\n        rewardToken.transferFrom(msg.sender, address(this), _reward);\r\n        StakedReward = _reward;\r\n        emit SetReward(msg.sender, _reward);\r\n    }\r\n\r\n    function addReward(uint256 _reward) external onlyOwner {\r\n        require(_reward > 0, \"Cannot setReward 0\");\r\n\r\n        rewardToken.transferFrom(msg.sender, address(this), _reward);\r\n        StakedReward += _reward;\r\n\r\n        emit SetReward(msg.sender, _reward);\r\n    }\r\n\r\n    function setStake() external onlyOwner {\r\n        require(\r\n            !timeSet,\r\n            \"you can't set stake until witdraw is still going on \"\r\n        );\r\n        startStakeTimestamp = block.timestamp;\r\n        endStakeTimestamp = block.timestamp + 300;\r\n        // endWitdrawTimestamps.push(endStakeTimestamp);\r\n        timeSet = true;\r\n        // allStakedBalance=0;22,916666,666666,666667\r\n    }\r\n\r\n    function setWitdraw() external onlyOwner {\r\n        require(timeSet, \"you can't set witdraw until stake is still going on\");\r\n        lastAllStakedBalance = allStakedBalance;\r\n\r\n        allRewards.push(StakedReward);\r\n        lastEndStake = endStakeTimestamp;\r\n        allStakedBalances.push(allStakedBalance);\r\n        timeSet = false;\r\n        startWitdrawTimestamp = block.timestamp;\r\n        endWitdrawTimestamp = block.timestamp + 300;\r\n        endWitdrawTimestamps.push(endWitdrawTimestamp);\r\n    }\r\n\r\n    //you did not stake\r\n    function witdrawOwnerLP(uint256 amount)\r\n        external\r\n        onlyOwner\r\n        zeroAmount(amount)\r\n    {\r\n        stakingToken.transferFrom(address(this), owner(), amount);\r\n    }\r\n\r\n    function witdrawOwnerReward(uint256 amount)\r\n        external\r\n        onlyOwner\r\n        zeroAmount(amount)\r\n    {\r\n        require(amount < allRewards[allRewards.length - 1]);\r\n        rewardToken.transferFrom(address(this), owner(), amount);\r\n    }\r\n\r\n    function calculate(uint256 deposited, uint256 Balance)\r\n        public\r\n        pure\r\n        returns (uint256 percentShares)\r\n    {\r\n        uint256 div = 100 * 10**18;\r\n        percentShares = Math.ceilDiv(deposited * div, Balance);\r\n    }\r\n\r\n    function percentageShare(address _sender) public view returns (uint256) {\r\n        uint256 deposited = stakedBalance[_sender];\r\n        return calculate(deposited, allStakedBalance);\r\n    }\r\n}\r\n",
  "sourcePath": "G:\\github\\Stake\\contracts\\Staking.sol",
  "compiler": {
    "name": "solc",
    "version": "0.8.17+commit.8df45f5f.Emscripten.clang"
  },
  "schemaVersion": "3.4.8",
  "updatedAt": "2022-09-13T06:02:50.666Z",
  "networkType": "ethereum",
  "devdoc": {
    "kind": "dev",
    "methods": {
      "owner()": {
        "details": "Returns the address of the current owner."
      },
      "renounceOwnership()": {
        "details": "Leaves the contract without owner. It will not be possible to call `onlyOwner` functions anymore. Can only be called by the current owner. NOTE: Renouncing ownership will leave the contract without an owner, thereby removing any functionality that is only available to the owner."
      },
      "transferOwnership(address)": {
        "details": "Transfers ownership of the contract to a new account (`newOwner`). Can only be called by the current owner."
      }
    },
    "version": 1
  },
  "userdoc": {
    "kind": "user",
    "methods": {},
    "version": 1
  }
}