{
  "contractName": "Swap",
  "abi": [
    {
      "inputs": [
        {
          "internalType": "address",
          "name": "_factory",
          "type": "address"
        },
        {
          "internalType": "address",
          "name": "_WETH",
          "type": "address"
        }
      ],
      "stateMutability": "nonpayable",
      "type": "constructor"
    },
    {
      "inputs": [],
      "name": "WETH",
      "outputs": [
        {
          "internalType": "address",
          "name": "",
          "type": "address"
        }
      ],
      "stateMutability": "view",
      "type": "function"
    },
    {
      "inputs": [],
      "name": "factory",
      "outputs": [
        {
          "internalType": "address",
          "name": "",
          "type": "address"
        }
      ],
      "stateMutability": "view",
      "type": "function"
    },
    {
      "stateMutability": "payable",
      "type": "receive"
    },
    {
      "inputs": [
        {
          "internalType": "address",
          "name": "tokenA",
          "type": "address"
        },
        {
          "internalType": "address",
          "name": "tokenB",
          "type": "address"
        },
        {
          "internalType": "uint256",
          "name": "amountADesired",
          "type": "uint256"
        },
        {
          "internalType": "uint256",
          "name": "amountBDesired",
          "type": "uint256"
        },
        {
          "internalType": "uint256",
          "name": "amountAMin",
          "type": "uint256"
        },
        {
          "internalType": "uint256",
          "name": "amountBMin",
          "type": "uint256"
        },
        {
          "internalType": "address",
          "name": "to",
          "type": "address"
        },
        {
          "internalType": "uint256",
          "name": "deadline",
          "type": "uint256"
        }
      ],
      "name": "addLiquidity",
      "outputs": [
        {
          "internalType": "uint256",
          "name": "amountA",
          "type": "uint256"
        },
        {
          "internalType": "uint256",
          "name": "amountB",
          "type": "uint256"
        },
        {
          "internalType": "uint256",
          "name": "liquidity",
          "type": "uint256"
        }
      ],
      "stateMutability": "nonpayable",
      "type": "function"
    },
    {
      "inputs": [
        {
          "internalType": "address",
          "name": "token",
          "type": "address"
        },
        {
          "internalType": "uint256",
          "name": "amountTokenDesired",
          "type": "uint256"
        },
        {
          "internalType": "uint256",
          "name": "amountTokenMin",
          "type": "uint256"
        },
        {
          "internalType": "uint256",
          "name": "amountETHMin",
          "type": "uint256"
        },
        {
          "internalType": "address",
          "name": "to",
          "type": "address"
        },
        {
          "internalType": "uint256",
          "name": "deadline",
          "type": "uint256"
        }
      ],
      "name": "addLiquidityETH",
      "outputs": [
        {
          "internalType": "uint256",
          "name": "amountToken",
          "type": "uint256"
        },
        {
          "internalType": "uint256",
          "name": "amountETH",
          "type": "uint256"
        },
        {
          "internalType": "uint256",
          "name": "liquidity",
          "type": "uint256"
        }
      ],
      "stateMutability": "payable",
      "type": "function"
    },
    {
      "inputs": [
        {
          "internalType": "address",
          "name": "tokenA",
          "type": "address"
        },
        {
          "internalType": "address",
          "name": "tokenB",
          "type": "address"
        },
        {
          "internalType": "uint256",
          "name": "liquidity",
          "type": "uint256"
        },
        {
          "internalType": "uint256",
          "name": "amountAMin",
          "type": "uint256"
        },
        {
          "internalType": "uint256",
          "name": "amountBMin",
          "type": "uint256"
        },
        {
          "internalType": "address",
          "name": "to",
          "type": "address"
        },
        {
          "internalType": "uint256",
          "name": "deadline",
          "type": "uint256"
        }
      ],
      "name": "removeLiquidity",
      "outputs": [
        {
          "internalType": "uint256",
          "name": "amountA",
          "type": "uint256"
        },
        {
          "internalType": "uint256",
          "name": "amountB",
          "type": "uint256"
        }
      ],
      "stateMutability": "nonpayable",
      "type": "function"
    },
    {
      "inputs": [
        {
          "internalType": "address",
          "name": "token",
          "type": "address"
        },
        {
          "internalType": "uint256",
          "name": "liquidity",
          "type": "uint256"
        },
        {
          "internalType": "uint256",
          "name": "amountTokenMin",
          "type": "uint256"
        },
        {
          "internalType": "uint256",
          "name": "amountETHMin",
          "type": "uint256"
        },
        {
          "internalType": "address",
          "name": "to",
          "type": "address"
        },
        {
          "internalType": "uint256",
          "name": "deadline",
          "type": "uint256"
        }
      ],
      "name": "removeLiquidityETH",
      "outputs": [
        {
          "internalType": "uint256",
          "name": "amountToken",
          "type": "uint256"
        },
        {
          "internalType": "uint256",
          "name": "amountETH",
          "type": "uint256"
        }
      ],
      "stateMutability": "nonpayable",
      "type": "function"
    },
    {
      "inputs": [
        {
          "internalType": "address",
          "name": "tokenA",
          "type": "address"
        },
        {
          "internalType": "address",
          "name": "tokenB",
          "type": "address"
        },
        {
          "internalType": "uint256",
          "name": "liquidity",
          "type": "uint256"
        },
        {
          "internalType": "uint256",
          "name": "amountAMin",
          "type": "uint256"
        },
        {
          "internalType": "uint256",
          "name": "amountBMin",
          "type": "uint256"
        },
        {
          "internalType": "address",
          "name": "to",
          "type": "address"
        },
        {
          "internalType": "uint256",
          "name": "deadline",
          "type": "uint256"
        },
        {
          "internalType": "bool",
          "name": "approveMax",
          "type": "bool"
        },
        {
          "internalType": "uint8",
          "name": "v",
          "type": "uint8"
        },
        {
          "internalType": "bytes32",
          "name": "r",
          "type": "bytes32"
        },
        {
          "internalType": "bytes32",
          "name": "s",
          "type": "bytes32"
        }
      ],
      "name": "removeLiquidityWithPermit",
      "outputs": [
        {
          "internalType": "uint256",
          "name": "amountA",
          "type": "uint256"
        },
        {
          "internalType": "uint256",
          "name": "amountB",
          "type": "uint256"
        }
      ],
      "stateMutability": "nonpayable",
      "type": "function"
    },
    {
      "inputs": [
        {
          "internalType": "address",
          "name": "token",
          "type": "address"
        },
        {
          "internalType": "uint256",
          "name": "liquidity",
          "type": "uint256"
        },
        {
          "internalType": "uint256",
          "name": "amountTokenMin",
          "type": "uint256"
        },
        {
          "internalType": "uint256",
          "name": "amountETHMin",
          "type": "uint256"
        },
        {
          "internalType": "address",
          "name": "to",
          "type": "address"
        },
        {
          "internalType": "uint256",
          "name": "deadline",
          "type": "uint256"
        },
        {
          "internalType": "bool",
          "name": "approveMax",
          "type": "bool"
        },
        {
          "internalType": "uint8",
          "name": "v",
          "type": "uint8"
        },
        {
          "internalType": "bytes32",
          "name": "r",
          "type": "bytes32"
        },
        {
          "internalType": "bytes32",
          "name": "s",
          "type": "bytes32"
        }
      ],
      "name": "removeLiquidityETHWithPermit",
      "outputs": [
        {
          "internalType": "uint256",
          "name": "amountToken",
          "type": "uint256"
        },
        {
          "internalType": "uint256",
          "name": "amountETH",
          "type": "uint256"
        }
      ],
      "stateMutability": "nonpayable",
      "type": "function"
    },
    {
      "inputs": [
        {
          "internalType": "uint256",
          "name": "amountIn",
          "type": "uint256"
        },
        {
          "internalType": "uint256",
          "name": "amountOutMin",
          "type": "uint256"
        },
        {
          "internalType": "address[]",
          "name": "path",
          "type": "address[]"
        },
        {
          "internalType": "address",
          "name": "to",
          "type": "address"
        },
        {
          "internalType": "uint256",
          "name": "deadline",
          "type": "uint256"
        }
      ],
      "name": "swapExactTokensForTokens",
      "outputs": [
        {
          "internalType": "uint256[]",
          "name": "amounts",
          "type": "uint256[]"
        }
      ],
      "stateMutability": "nonpayable",
      "type": "function"
    },
    {
      "inputs": [
        {
          "internalType": "uint256",
          "name": "amountOut",
          "type": "uint256"
        },
        {
          "internalType": "uint256",
          "name": "amountInMax",
          "type": "uint256"
        },
        {
          "internalType": "address[]",
          "name": "path",
          "type": "address[]"
        },
        {
          "internalType": "address",
          "name": "to",
          "type": "address"
        },
        {
          "internalType": "uint256",
          "name": "deadline",
          "type": "uint256"
        }
      ],
      "name": "swapTokensForExactTokens",
      "outputs": [
        {
          "internalType": "uint256[]",
          "name": "amounts",
          "type": "uint256[]"
        }
      ],
      "stateMutability": "nonpayable",
      "type": "function"
    },
    {
      "inputs": [
        {
          "internalType": "uint256",
          "name": "amountOutMin",
          "type": "uint256"
        },
        {
          "internalType": "address[]",
          "name": "path",
          "type": "address[]"
        },
        {
          "internalType": "address",
          "name": "to",
          "type": "address"
        },
        {
          "internalType": "uint256",
          "name": "deadline",
          "type": "uint256"
        }
      ],
      "name": "swapExactETHForTokens",
      "outputs": [
        {
          "internalType": "uint256[]",
          "name": "amounts",
          "type": "uint256[]"
        }
      ],
      "stateMutability": "payable",
      "type": "function"
    },
    {
      "inputs": [
        {
          "internalType": "uint256",
          "name": "amountOut",
          "type": "uint256"
        },
        {
          "internalType": "uint256",
          "name": "amountInMax",
          "type": "uint256"
        },
        {
          "internalType": "address[]",
          "name": "path",
          "type": "address[]"
        },
        {
          "internalType": "address",
          "name": "to",
          "type": "address"
        },
        {
          "internalType": "uint256",
          "name": "deadline",
          "type": "uint256"
        }
      ],
      "name": "swapTokensForExactETH",
      "outputs": [
        {
          "internalType": "uint256[]",
          "name": "amounts",
          "type": "uint256[]"
        }
      ],
      "stateMutability": "nonpayable",
      "type": "function"
    },
    {
      "inputs": [
        {
          "internalType": "uint256",
          "name": "amountIn",
          "type": "uint256"
        },
        {
          "internalType": "uint256",
          "name": "amountOutMin",
          "type": "uint256"
        },
        {
          "internalType": "address[]",
          "name": "path",
          "type": "address[]"
        },
        {
          "internalType": "address",
          "name": "to",
          "type": "address"
        },
        {
          "internalType": "uint256",
          "name": "deadline",
          "type": "uint256"
        }
      ],
      "name": "swapExactTokensForETH",
      "outputs": [
        {
          "internalType": "uint256[]",
          "name": "amounts",
          "type": "uint256[]"
        }
      ],
      "stateMutability": "nonpayable",
      "type": "function"
    },
    {
      "inputs": [
        {
          "internalType": "uint256",
          "name": "amountOut",
          "type": "uint256"
        },
        {
          "internalType": "address[]",
          "name": "path",
          "type": "address[]"
        },
        {
          "internalType": "address",
          "name": "to",
          "type": "address"
        },
        {
          "internalType": "uint256",
          "name": "deadline",
          "type": "uint256"
        }
      ],
      "name": "swapETHForExactTokens",
      "outputs": [
        {
          "internalType": "uint256[]",
          "name": "amounts",
          "type": "uint256[]"
        }
      ],
      "stateMutability": "payable",
      "type": "function"
    },
    {
      "inputs": [
        {
          "internalType": "uint256",
          "name": "amountA",
          "type": "uint256"
        },
        {
          "internalType": "uint256",
          "name": "reserveA",
          "type": "uint256"
        },
        {
          "internalType": "uint256",
          "name": "reserveB",
          "type": "uint256"
        }
      ],
      "name": "quote",
      "outputs": [
        {
          "internalType": "uint256",
          "name": "amountB",
          "type": "uint256"
        }
      ],
      "stateMutability": "pure",
      "type": "function"
    },
    {
      "inputs": [
        {
          "internalType": "uint256",
          "name": "amountIn",
          "type": "uint256"
        },
        {
          "internalType": "uint256",
          "name": "reserveIn",
          "type": "uint256"
        },
        {
          "internalType": "uint256",
          "name": "reserveOut",
          "type": "uint256"
        }
      ],
      "name": "getAmountOut",
      "outputs": [
        {
          "internalType": "uint256",
          "name": "amountOut",
          "type": "uint256"
        }
      ],
      "stateMutability": "pure",
      "type": "function"
    },
    {
      "inputs": [
        {
          "internalType": "uint256",
          "name": "amountOut",
          "type": "uint256"
        },
        {
          "internalType": "uint256",
          "name": "reserveIn",
          "type": "uint256"
        },
        {
          "internalType": "uint256",
          "name": "reserveOut",
          "type": "uint256"
        }
      ],
      "name": "getAmountIn",
      "outputs": [
        {
          "internalType": "uint256",
          "name": "amountIn",
          "type": "uint256"
        }
      ],
      "stateMutability": "pure",
      "type": "function"
    },
    {
      "inputs": [
        {
          "internalType": "uint256",
          "name": "amountIn",
          "type": "uint256"
        },
        {
          "internalType": "address[]",
          "name": "path",
          "type": "address[]"
        }
      ],
      "name": "getAmountsOut",
      "outputs": [
        {
          "internalType": "uint256[]",
          "name": "amounts",
          "type": "uint256[]"
        }
      ],
      "stateMutability": "view",
      "type": "function"
    },
    {
      "inputs": [
        {
          "internalType": "uint256",
          "name": "amountOut",
          "type": "uint256"
        },
        {
          "internalType": "address[]",
          "name": "path",
          "type": "address[]"
        }
      ],
      "name": "getAmountsIn",
      "outputs": [
        {
          "internalType": "uint256[]",
          "name": "amounts",
          "type": "uint256[]"
        }
      ],
      "stateMutability": "view",
      "type": "function"
    },
    {
      "inputs": [
        {
          "internalType": "address[]",
          "name": "path",
          "type": "address[]"
        }
      ],
      "name": "getPrice",
      "outputs": [
        {
          "internalType": "uint256",
          "name": "",
          "type": "uint256"
        }
      ],
      "stateMutability": "view",
      "type": "function"
    },
    {
      "inputs": [
        {
          "internalType": "uint256",
          "name": "amountIn_",
          "type": "uint256"
        },
        {
          "internalType": "address[]",
          "name": "path",
          "type": "address[]"
        }
      ],
      "name": "tokenAPerTokenB",
      "outputs": [
        {
          "internalType": "uint256",
          "name": "price",
          "type": "uint256"
        }
      ],
      "stateMutability": "view",
      "type": "function"
    },
    {
      "inputs": [
        {
          "internalType": "uint256",
          "name": "amountIn_",
          "type": "uint256"
        },
        {
          "internalType": "address[]",
          "name": "path",
          "type": "address[]"
        }
      ],
      "name": "priceImpact",
      "outputs": [
        {
          "internalType": "uint256",
          "name": "priceImpact_",
          "type": "uint256"
        }
      ],
      "stateMutability": "view",
      "type": "function"
    }
  ],
  "bytecode": "0x60c06040523480156200001157600080fd5b5060405162005a7e38038062005a7e833981810160405281019062000037919062000111565b8173ffffffffffffffffffffffffffffffffffffffff1660808173ffffffffffffffffffffffffffffffffffffffff16815250508073ffffffffffffffffffffffffffffffffffffffff1660a08173ffffffffffffffffffffffffffffffffffffffff1681525050505062000158565b600080fd5b600073ffffffffffffffffffffffffffffffffffffffff82169050919050565b6000620000d982620000ac565b9050919050565b620000eb81620000cc565b8114620000f757600080fd5b50565b6000815190506200010b81620000e0565b92915050565b600080604083850312156200012b576200012a620000a7565b5b60006200013b85828601620000fa565b92505060206200014e85828601620000fa565b9150509250929050565b60805160a0516157be620002c060003960008181610140015281816106e9015281816107270152818161082401528181610ad501528181611050015281816112f501528181611429015281816115b70152818161165301528181611cc601528181612364015281816125dc0152818161263501528181612669015281816126ea0152818161288501528181612a070152612aa30152600081816108eb015281816109f001528181610bc801528181610c0001528181610d4401528181610e4901528181610f3f0152818161111701528181611210015281816114e201528181611692015281816118480152818161194101528181611a3701528181611d4c01528181611f6401528181611f8e01528181611ff30152818161230a01528181612342015281816124bf015281816126130152818161293e01528181612ae2015281816134270152818161347b0152818161395901528181613a100152613ab601526157be6000f3fe6080604052600436106101395760003560e01c80639b005507116100ab578063cd938a911161006f578063cd938a9114610543578063d06ca61f14610580578063ded9382a146105bd578063e8e33700146105fb578063f305d7191461063a578063fb3bdb411461066c5761019c565b80639b00550714610435578063ad5c464814610472578063ad615dec1461049d578063baa2abde146104da578063c45a0155146105185761019c565b806338ed1739116100fd57806338ed1739146102d45780634737b43d146103115780634a25d94a1461034e5780637ff36ab51461038b57806385f8c259146103bb5780638803dbee146103f85761019c565b806302751cec146101a1578063054d50d4146101df57806318cbafe51461021c5780631f00ca74146102595780632195995c146102965761019c565b3661019c577f000000000000000000000000000000000000000000000000000000000000000073ffffffffffffffffffffffffffffffffffffffff163373ffffffffffffffffffffffffffffffffffffffff161461019a57610199613e42565b5b005b600080fd5b3480156101ad57600080fd5b506101c860048036038101906101c39190613f19565b61069c565b6040516101d6929190613fb5565b60405180910390f35b3480156101eb57600080fd5b5061020660048036038101906102019190613fde565b6107c6565b6040516102139190614031565b60405180910390f35b34801561022857600080fd5b50610243600480360381019061023e91906140b1565b6107dc565b6040516102509190614209565b60405180910390f35b34801561026557600080fd5b50610280600480360381019061027b919061437a565b610bc1565b60405161028d9190614209565b60405180910390f35b3480156102a257600080fd5b506102bd60048036038101906102b8919061447d565b610bf6565b6040516102cb929190613fb5565b60405180910390f35b3480156102e057600080fd5b506102fb60048036038101906102f691906140b1565b610cf9565b6040516103089190614209565b60405180910390f35b34801561031d57600080fd5b506103386004803603810190610333919061437a565b610f37565b6040516103459190614031565b60405180910390f35b34801561035a57600080fd5b50610375600480360381019061037091906140b1565b611008565b6040516103829190614209565b60405180910390f35b6103a560048036038101906103a09190614571565b6113e1565b6040516103b29190614209565b60405180910390f35b3480156103c757600080fd5b506103e260048036038101906103dd9190613fde565b6117e7565b6040516103ef9190614031565b60405180910390f35b34801561040457600080fd5b5061041f600480360381019061041a91906140b1565b6117fd565b60405161042c9190614209565b60405180910390f35b34801561044157600080fd5b5061045c600480360381019061045791906145f9565b611a2f565b6040516104699190614031565b60405180910390f35b34801561047e57600080fd5b50610487611cc4565b6040516104949190614651565b60405180910390f35b3480156104a957600080fd5b506104c460048036038101906104bf9190613fde565b611ce8565b6040516104d19190614031565b60405180910390f35b3480156104e657600080fd5b5061050160048036038101906104fc919061466c565b611cfe565b60405161050f929190613fb5565b60405180910390f35b34801561052457600080fd5b5061052d611f62565b60405161053a9190614651565b60405180910390f35b34801561054f57600080fd5b5061056a6004803603810190610565919061437a565b611f86565b6040516105779190614031565b60405180910390f35b34801561058c57600080fd5b506105a760048036038101906105a2919061437a565b612303565b6040516105b49190614209565b60405180910390f35b3480156105c957600080fd5b506105e460048036038101906105df919061470e565b612338565b6040516105f2929190613fb5565b60405180910390f35b34801561060757600080fd5b50610622600480360381019061061d91906147ed565b612459565b604051610631939291906148a3565b60405180910390f35b610654600480360381019061064f9190613f19565b61258d565b604051610663939291906148a3565b60405180910390f35b61068660048036038101906106819190614571565b61283d565b6040516106939190614209565b60405180910390f35b60008082428110156106e3576040517f08c379a00000000000000000000000000000000000000000000000000000000081526004016106da90614937565b60405180910390fd5b610712897f00000000000000000000000000000000000000000000000000000000000000008a8a8a308a611cfe565b8093508194505050610725898685612c8b565b7f000000000000000000000000000000000000000000000000000000000000000073ffffffffffffffffffffffffffffffffffffffff16632e1a7d4d836040518263ffffffff1660e01b815260040161077e9190614031565b600060405180830381600087803b15801561079857600080fd5b505af11580156107ac573d6000803e3d6000fd5b505050506107ba8583612dc1565b50965096945050505050565b60006107d3848484612ec1565b90509392505050565b60608142811015610822576040517f08c379a000000000000000000000000000000000000000000000000000000000815260040161081990614937565b60405180910390fd5b7f000000000000000000000000000000000000000000000000000000000000000073ffffffffffffffffffffffffffffffffffffffff16868660018989905061086b9190614986565b81811061087b5761087a6149ba565b5b905060200201602081019061089091906149e9565b73ffffffffffffffffffffffffffffffffffffffff16146108e6576040517f08c379a00000000000000000000000000000000000000000000000000000000081526004016108dd90614a62565b60405180910390fd5b6109527f000000000000000000000000000000000000000000000000000000000000000089888880806020026020016040519081016040528093929190818152602001838360200280828437600081840152601f19601f82011690508083019250505050505050612fc7565b91508682600184516109649190614986565b81518110610975576109746149ba565b5b602002602001015110156109be576040517f08c379a00000000000000000000000000000000000000000000000000000000081526004016109b590614af4565b60405180910390fd5b610a87868660008181106109d5576109d46149ba565b5b90506020020160208101906109ea91906149e9565b33610a667f00000000000000000000000000000000000000000000000000000000000000008a8a6000818110610a2357610a226149ba565b5b9050602002016020810190610a3891906149e9565b8b8b6001818110610a4c57610a4b6149ba565b5b9050602002016020810190610a6191906149e9565b613152565b85600081518110610a7a57610a796149ba565b5b60200260200101516131ec565b610ad382878780806020026020016040519081016040528093929190818152602001838360200280828437600081840152601f19601f8201169050808301925050505050505030613325565b7f000000000000000000000000000000000000000000000000000000000000000073ffffffffffffffffffffffffffffffffffffffff16632e1a7d4d8360018551610b1e9190614986565b81518110610b2f57610b2e6149ba565b5b60200260200101516040518263ffffffff1660e01b8152600401610b539190614031565b600060405180830381600087803b158015610b6d57600080fd5b505af1158015610b81573d6000803e3d6000fd5b50505050610bb6848360018551610b989190614986565b81518110610ba957610ba86149ba565b5b6020026020010151612dc1565b509695505050505050565b6060610bee7f0000000000000000000000000000000000000000000000000000000000000000848461357e565b905092915050565b6000806000610c267f00000000000000000000000000000000000000000000000000000000000000008f8f613152565b9050600087610c35578c610c57565b7fffffffffffffffffffffffffffffffffffffffffffffffffffffffffffffffff5b90508173ffffffffffffffffffffffffffffffffffffffff1663d505accf3330848d8c8c8c6040518863ffffffff1660e01b8152600401610c9e9796959493929190614b32565b600060405180830381600087803b158015610cb857600080fd5b505af1158015610ccc573d6000803e3d6000fd5b50505050610cdf8f8f8f8f8f8f8f611cfe565b809450819550505050509b509b9950505050505050505050565b60608142811015610d3f576040517f08c379a0000000000000000000000000000000000000000000000000000000008152600401610d3690614937565b60405180910390fd5b610dab7f000000000000000000000000000000000000000000000000000000000000000089888880806020026020016040519081016040528093929190818152602001838360200280828437600081840152601f19601f82011690508083019250505050505050612fc7565b9150868260018451610dbd9190614986565b81518110610dce57610dcd6149ba565b5b60200260200101511015610e17576040517f08c379a0000000000000000000000000000000000000000000000000000000008152600401610e0e90614af4565b60405180910390fd5b610ee086866000818110610e2e57610e2d6149ba565b5b9050602002016020810190610e4391906149e9565b33610ebf7f00000000000000000000000000000000000000000000000000000000000000008a8a6000818110610e7c57610e7b6149ba565b5b9050602002016020810190610e9191906149e9565b8b8b6001818110610ea557610ea46149ba565b5b9050602002016020810190610eba91906149e9565b613152565b85600081518110610ed357610ed26149ba565b5b60200260200101516131ec565b610f2c82878780806020026020016040519081016040528093929190818152602001838360200280828437600081840152601f19601f8201169050808301925050505050505086613325565b509695505050505050565b600080610f657f00000000000000000000000000000000000000000000000000000000000000008585612fc7565b9050600080600060018651610f7a9190614986565b90505b6000811115610fdf57838181518110610f9957610f986149ba565b5b6020026020010151915083600182610fb19190614986565b81518110610fc257610fc16149ba565b5b602002602001015192508080610fd790614ba1565b915050610f7d565b50610ffd670de0b6b3a764000083610ff79190614bca565b82613719565b935050505092915050565b6060814281101561104e576040517f08c379a000000000000000000000000000000000000000000000000000000000815260040161104590614937565b60405180910390fd5b7f000000000000000000000000000000000000000000000000000000000000000073ffffffffffffffffffffffffffffffffffffffff1686866001898990506110979190614986565b8181106110a7576110a66149ba565b5b90506020020160208101906110bc91906149e9565b73ffffffffffffffffffffffffffffffffffffffff1614611112576040517f08c379a000000000000000000000000000000000000000000000000000000000815260040161110990614a62565b60405180910390fd5b61117e7f000000000000000000000000000000000000000000000000000000000000000089888880806020026020016040519081016040528093929190818152602001838360200280828437600081840152601f19601f8201169050808301925050505050505061357e565b91508682600081518110611195576111946149ba565b5b602002602001015111156111de576040517f08c379a00000000000000000000000000000000000000000000000000000000081526004016111d590614c7e565b60405180910390fd5b6112a7868660008181106111f5576111f46149ba565b5b905060200201602081019061120a91906149e9565b336112867f00000000000000000000000000000000000000000000000000000000000000008a8a6000818110611243576112426149ba565b5b905060200201602081019061125891906149e9565b8b8b600181811061126c5761126b6149ba565b5b905060200201602081019061128191906149e9565b613152565b8560008151811061129a576112996149ba565b5b60200260200101516131ec565b6112f382878780806020026020016040519081016040528093929190818152602001838360200280828437600081840152601f19601f8201169050808301925050505050505030613325565b7f000000000000000000000000000000000000000000000000000000000000000073ffffffffffffffffffffffffffffffffffffffff16632e1a7d4d836001855161133e9190614986565b8151811061134f5761134e6149ba565b5b60200260200101516040518263ffffffff1660e01b81526004016113739190614031565b600060405180830381600087803b15801561138d57600080fd5b505af11580156113a1573d6000803e3d6000fd5b505050506113d68483600185516113b89190614986565b815181106113c9576113c86149ba565b5b6020026020010151612dc1565b509695505050505050565b60608142811015611427576040517f08c379a000000000000000000000000000000000000000000000000000000000815260040161141e90614937565b60405180910390fd5b7f000000000000000000000000000000000000000000000000000000000000000073ffffffffffffffffffffffffffffffffffffffff1686866000818110611472576114716149ba565b5b905060200201602081019061148791906149e9565b73ffffffffffffffffffffffffffffffffffffffff16146114dd576040517f08c379a00000000000000000000000000000000000000000000000000000000081526004016114d490614a62565b60405180910390fd5b6115497f000000000000000000000000000000000000000000000000000000000000000034888880806020026020016040519081016040528093929190818152602001838360200280828437600081840152601f19601f82011690508083019250505050505050612fc7565b915086826001845161155b9190614986565b8151811061156c5761156b6149ba565b5b602002602001015110156115b5576040517f08c379a00000000000000000000000000000000000000000000000000000000081526004016115ac90614af4565b60405180910390fd5b7f000000000000000000000000000000000000000000000000000000000000000073ffffffffffffffffffffffffffffffffffffffff1663d0e30db083600081518110611605576116046149ba565b5b60200260200101516040518263ffffffff1660e01b81526004016000604051808303818588803b15801561163857600080fd5b505af115801561164c573d6000803e3d6000fd5b50505050507f000000000000000000000000000000000000000000000000000000000000000073ffffffffffffffffffffffffffffffffffffffff1663a9059cbb6117087f0000000000000000000000000000000000000000000000000000000000000000898960008181106116c5576116c46149ba565b5b90506020020160208101906116da91906149e9565b8a8a60018181106116ee576116ed6149ba565b5b905060200201602081019061170391906149e9565b613152565b8460008151811061171c5761171b6149ba565b5b60200260200101516040518363ffffffff1660e01b8152600401611741929190614c9e565b6020604051808303816000875af1158015611760573d6000803e3d6000fd5b505050506040513d601f19601f820116820180604052508101906117849190614cdc565b61179157611790613e42565b5b6117dd82878780806020026020016040519081016040528093929190818152602001838360200280828437600081840152601f19601f8201169050808301925050505050505086613325565b5095945050505050565b60006117f4848484612ec1565b90509392505050565b60608142811015611843576040517f08c379a000000000000000000000000000000000000000000000000000000000815260040161183a90614937565b60405180910390fd5b6118af7f000000000000000000000000000000000000000000000000000000000000000089888880806020026020016040519081016040528093929190818152602001838360200280828437600081840152601f19601f8201169050808301925050505050505061357e565b915086826000815181106118c6576118c56149ba565b5b6020026020010151111561190f576040517f08c379a000000000000000000000000000000000000000000000000000000000815260040161190690614c7e565b60405180910390fd5b6119d886866000818110611926576119256149ba565b5b905060200201602081019061193b91906149e9565b336119b77f00000000000000000000000000000000000000000000000000000000000000008a8a6000818110611974576119736149ba565b5b905060200201602081019061198991906149e9565b8b8b600181811061199d5761199c6149ba565b5b90506020020160208101906119b291906149e9565b613152565b856000815181106119cb576119ca6149ba565b5b60200260200101516131ec565b611a2482878780806020026020016040519081016040528093929190818152602001838360200280828437600081840152601f19601f8201169050808301925050505050505086613325565b509695505050505050565b600080611a937f000000000000000000000000000000000000000000000000000000000000000084600081518110611a6a57611a696149ba565b5b602002602001015185600181518110611a8657611a856149ba565b5b6020026020010151613152565b9050600083600081518110611aab57611aaa6149ba565b5b602002602001015173ffffffffffffffffffffffffffffffffffffffff168273ffffffffffffffffffffffffffffffffffffffff16630dfe16816040518163ffffffff1660e01b8152600401602060405180830381865afa158015611b14573d6000803e3d6000fd5b505050506040513d601f19601f82011682018060405250810190611b389190614d1e565b73ffffffffffffffffffffffffffffffffffffffff161490506000808215611bfd578373ffffffffffffffffffffffffffffffffffffffff16630902f1ac6040518163ffffffff1660e01b8152600401606060405180830381865afa158015611ba5573d6000803e3d6000fd5b505050506040513d601f19601f82011682018060405250810190611bc99190614dcd565b826dffffffffffffffffffffffffffff169250816dffffffffffffffffffffffffffff169150508092508193505050611c9c565b8373ffffffffffffffffffffffffffffffffffffffff16630902f1ac6040518163ffffffff1660e01b8152600401606060405180830381865afa158015611c48573d6000803e3d6000fd5b505050506040513d601f19601f82011682018060405250810190611c6c9190614dcd565b826dffffffffffffffffffffffffffff169250816dffffffffffffffffffffffffffff1691505080935081925050505b611cb9670de0b6b3a764000083611cb39190614bca565b82613719565b945050505050919050565b7f000000000000000000000000000000000000000000000000000000000000000081565b6000611cf5848484613756565b90509392505050565b6000808242811015611d45576040517f08c379a0000000000000000000000000000000000000000000000000000000008152600401611d3c90614937565b60405180910390fd5b6000611d727f00000000000000000000000000000000000000000000000000000000000000008c8c613152565b90508073ffffffffffffffffffffffffffffffffffffffff166323b872dd33838c6040518463ffffffff1660e01b8152600401611db193929190614e20565b6020604051808303816000875af1158015611dd0573d6000803e3d6000fd5b505050506040513d601f19601f82011682018060405250810190611df49190614cdc565b506000808273ffffffffffffffffffffffffffffffffffffffff166389afcb44896040518263ffffffff1660e01b8152600401611e319190614651565b60408051808303816000875af1158015611e4f573d6000803e3d6000fd5b505050506040513d601f19601f82011682018060405250810190611e739190614e6c565b915091506000611e838e8e613810565b5090508073ffffffffffffffffffffffffffffffffffffffff168e73ffffffffffffffffffffffffffffffffffffffff1614611ec0578183611ec3565b82825b80975081985050508a871015611f0e576040517f08c379a0000000000000000000000000000000000000000000000000000000008152600401611f0590614f1e565b60405180910390fd5b89861015611f51576040517f08c379a0000000000000000000000000000000000000000000000000000000008152600401611f4890614fb0565b60405180910390fd5b505050505097509795505050505050565b7f000000000000000000000000000000000000000000000000000000000000000081565b600080611fea7f000000000000000000000000000000000000000000000000000000000000000084600081518110611fc157611fc06149ba565b5b602002602001015185600181518110611fdd57611fdc6149ba565b5b6020026020010151613152565b905060006120197f00000000000000000000000000000000000000000000000000000000000000008686612fc7565b9050600084600081518110612031576120306149ba565b5b602002602001015173ffffffffffffffffffffffffffffffffffffffff168373ffffffffffffffffffffffffffffffffffffffff16630dfe16816040518163ffffffff1660e01b8152600401602060405180830381865afa15801561209a573d6000803e3d6000fd5b505050506040513d601f19601f820116820180604052508101906120be9190614d1e565b73ffffffffffffffffffffffffffffffffffffffff161490506000808215612183578473ffffffffffffffffffffffffffffffffffffffff16630902f1ac6040518163ffffffff1660e01b8152600401606060405180830381865afa15801561212b573d6000803e3d6000fd5b505050506040513d601f19601f8201168201806040525081019061214f9190614dcd565b826dffffffffffffffffffffffffffff169250816dffffffffffffffffffffffffffff169150508092508193505050612222565b8473ffffffffffffffffffffffffffffffffffffffff16630902f1ac6040518163ffffffff1660e01b8152600401606060405180830381865afa1580156121ce573d6000803e3d6000fd5b505050506040513d601f19601f820116820180604052508101906121f29190614dcd565b826dffffffffffffffffffffffffffff169250816dffffffffffffffffffffffffffff1691505080935081925050505b600080600060018a516122359190614986565b90505b600081111561229a57868181518110612254576122536149ba565b5b602002602001015192508660018261226c9190614986565b8151811061227d5761227c6149ba565b5b60200260200101519150808061229290614ba1565b915050612238565b5060006122a68a611a2f565b6122b08c8c610f37565b6122ba9190614986565b9050660aa87bee5380006122e9670de0b6b3a7640000836122db9190614bca565b6122e48d611a2f565b613719565b6122f39190614986565b9850505050505050505092915050565b60606123307f00000000000000000000000000000000000000000000000000000000000000008484612fc7565b905092915050565b60008060006123887f00000000000000000000000000000000000000000000000000000000000000008e7f0000000000000000000000000000000000000000000000000000000000000000613152565b9050600087612397578c6123b9565b7fffffffffffffffffffffffffffffffffffffffffffffffffffffffffffffffff5b90508173ffffffffffffffffffffffffffffffffffffffff1663d505accf3330848d8c8c8c6040518863ffffffff1660e01b81526004016124009796959493929190614b32565b600060405180830381600087803b15801561241a57600080fd5b505af115801561242e573d6000803e3d6000fd5b505050506124408e8e8e8e8e8e61069c565b809450819550505050509a509a98505050505050505050565b600080600083428110156124a2576040517f08c379a000000000000000000000000000000000000000000000000000000000815260040161249990614937565b60405180910390fd5b6124b08c8c8c8c8c8c61393c565b809450819550505060006124e57f00000000000000000000000000000000000000000000000000000000000000008e8e613152565b90506124f38d3383886131ec565b6124ff8c3383876131ec565b8073ffffffffffffffffffffffffffffffffffffffff16636a627842886040518263ffffffff1660e01b81526004016125389190614651565b6020604051808303816000875af1158015612557573d6000803e3d6000fd5b505050506040513d601f19601f8201168201806040525081019061257b9190614fd0565b92505050985098509895505050505050565b600080600083428110156125d6576040517f08c379a00000000000000000000000000000000000000000000000000000000081526004016125cd90614937565b60405180910390fd5b6126048a7f00000000000000000000000000000000000000000000000000000000000000008b348c8c61393c565b809450819550505060006126597f00000000000000000000000000000000000000000000000000000000000000008c7f0000000000000000000000000000000000000000000000000000000000000000613152565b90506126678b3383886131ec565b7f000000000000000000000000000000000000000000000000000000000000000073ffffffffffffffffffffffffffffffffffffffff1663d0e30db0856040518263ffffffff1660e01b81526004016000604051808303818588803b1580156126cf57600080fd5b505af11580156126e3573d6000803e3d6000fd5b50505050507f000000000000000000000000000000000000000000000000000000000000000073ffffffffffffffffffffffffffffffffffffffff1663a9059cbb82866040518363ffffffff1660e01b8152600401612743929190614c9e565b6020604051808303816000875af1158015612762573d6000803e3d6000fd5b505050506040513d601f19601f820116820180604052508101906127869190614cdc565b61279357612792613e42565b5b8073ffffffffffffffffffffffffffffffffffffffff16636a627842886040518263ffffffff1660e01b81526004016127cc9190614651565b6020604051808303816000875af11580156127eb573d6000803e3d6000fd5b505050506040513d601f19601f8201168201806040525081019061280f9190614fd0565b92508334111561282f5761282e3385346128299190614986565b612dc1565b5b505096509650969350505050565b60608142811015612883576040517f08c379a000000000000000000000000000000000000000000000000000000000815260040161287a90614937565b60405180910390fd5b7f000000000000000000000000000000000000000000000000000000000000000073ffffffffffffffffffffffffffffffffffffffff16868660008181106128ce576128cd6149ba565b5b90506020020160208101906128e391906149e9565b73ffffffffffffffffffffffffffffffffffffffff1614612939576040517f08c379a000000000000000000000000000000000000000000000000000000000815260040161293090614a62565b60405180910390fd5b6129a57f000000000000000000000000000000000000000000000000000000000000000088888880806020026020016040519081016040528093929190818152602001838360200280828437600081840152601f19601f8201169050808301925050505050505061357e565b915034826000815181106129bc576129bb6149ba565b5b60200260200101511115612a05576040517f08c379a00000000000000000000000000000000000000000000000000000000081526004016129fc90614c7e565b60405180910390fd5b7f000000000000000000000000000000000000000000000000000000000000000073ffffffffffffffffffffffffffffffffffffffff1663d0e30db083600081518110612a5557612a546149ba565b5b60200260200101516040518263ffffffff1660e01b81526004016000604051808303818588803b158015612a8857600080fd5b505af1158015612a9c573d6000803e3d6000fd5b50505050507f000000000000000000000000000000000000000000000000000000000000000073ffffffffffffffffffffffffffffffffffffffff1663a9059cbb612b587f000000000000000000000000000000000000000000000000000000000000000089896000818110612b1557612b146149ba565b5b9050602002016020810190612b2a91906149e9565b8a8a6001818110612b3e57612b3d6149ba565b5b9050602002016020810190612b5391906149e9565b613152565b84600081518110612b6c57612b6b6149ba565b5b60200260200101516040518363ffffffff1660e01b8152600401612b91929190614c9e565b6020604051808303816000875af1158015612bb0573d6000803e3d6000fd5b505050506040513d601f19601f82011682018060405250810190612bd49190614cdc565b612be157612be0613e42565b5b612c2d82878780806020026020016040519081016040528093929190818152602001838360200280828437600081840152601f19601f8201169050808301925050505050505086613325565b81600081518110612c4157612c406149ba565b5b6020026020010151341115612c8157612c803383600081518110612c6857612c676149ba565b5b602002602001015134612c7b9190614986565b612dc1565b5b5095945050505050565b6000808473ffffffffffffffffffffffffffffffffffffffff1663a9059cbb8585604051602401612cbd929190614c9e565b6040516020818303038152906040529060e01b6020820180517bffffffffffffffffffffffffffffffffffffffffffffffffffffffff8381831617835250505050604051612d0b919061506e565b6000604051808303816000865af19150503d8060008114612d48576040519150601f19603f3d011682016040523d82523d6000602084013e612d4d565b606091505b5091509150818015612d7b5750600081511480612d7a575080806020019051810190612d799190614cdc565b5b5b612dba576040517f08c379a0000000000000000000000000000000000000000000000000000000008152600401612db1906150f7565b60405180910390fd5b5050505050565b60008273ffffffffffffffffffffffffffffffffffffffff1682600067ffffffffffffffff811115612df657612df561423c565b5b6040519080825280601f01601f191660200182016040528015612e285781602001600182028036833780820191505090505b50604051612e36919061506e565b60006040518083038185875af1925050503d8060008114612e73576040519150601f19603f3d011682016040523d82523d6000602084013e612e78565b606091505b5050905080612ebc576040517f08c379a0000000000000000000000000000000000000000000000000000000008152600401612eb390615189565b60405180910390fd5b505050565b6000808411612f05576040517f08c379a0000000000000000000000000000000000000000000000000000000008152600401612efc9061521b565b60405180910390fd5b600083118015612f155750600082115b612f54576040517f08c379a0000000000000000000000000000000000000000000000000000000008152600401612f4b906152ad565b60405180910390fd5b6000612f6b6103e586613bea90919063ffffffff16565b90506000612f828483613bea90919063ffffffff16565b90506000612fad83612f9f6103e889613bea90919063ffffffff16565b613c0090919063ffffffff16565b90508082612fbb91906152fc565b93505050509392505050565b606060028251101561300e576040517f08c379a000000000000000000000000000000000000000000000000000000000815260040161300590615379565b60405180910390fd5b815167ffffffffffffffff8111156130295761302861423c565b5b6040519080825280602002602001820160405280156130575781602001602082028036833780820191505090505b509050828160008151811061306f5761306e6149ba565b5b60200260200101818152505060005b6001835161308c9190614986565b81101561314a576000806130e1878685815181106130ad576130ac6149ba565b5b6020026020010151876001876130c39190615399565b815181106130d4576130d36149ba565b5b6020026020010151613c16565b9150915061310a8484815181106130fb576130fa6149ba565b5b60200260200101518383612ec1565b846001856131189190615399565b81518110613129576131286149ba565b5b60200260200101818152505050508080613142906153cd565b91505061307e565b509392505050565b60008060006131618585613810565b915091508573ffffffffffffffffffffffffffffffffffffffff1663e6a4390583836040518363ffffffff1660e01b81526004016131a0929190615415565b602060405180830381865afa1580156131bd573d6000803e3d6000fd5b505050506040513d601f19601f820116820180604052508101906131e19190614d1e565b925050509392505050565b6000808573ffffffffffffffffffffffffffffffffffffffff166323b872dd86868660405160240161322093929190614e20565b6040516020818303038152906040529060e01b6020820180517bffffffffffffffffffffffffffffffffffffffffffffffffffffffff838183161783525050505060405161326e919061506e565b6000604051808303816000865af19150503d80600081146132ab576040519150601f19603f3d011682016040523d82523d6000602084013e6132b0565b606091505b50915091508180156132de57506000815114806132dd5750808060200190518101906132dc9190614cdc565b5b5b61331d576040517f08c379a0000000000000000000000000000000000000000000000000000000008152600401613314906154b0565b60405180910390fd5b505050505050565b60005b600183516133369190614986565b81101561357857600080848381518110613353576133526149ba565b5b6020026020010151856001856133699190615399565b8151811061337a576133796149ba565b5b60200260200101519150915060006133928383613810565b5090506000876001866133a59190615399565b815181106133b6576133b56149ba565b5b602002602001015190506000808373ffffffffffffffffffffffffffffffffffffffff168673ffffffffffffffffffffffffffffffffffffffff16146133fe57826000613402565b6000835b91509150600060028a516134169190614986565b88106134225788613474565b6134737f0000000000000000000000000000000000000000000000000000000000000000878c60028c6134559190615399565b81518110613466576134656149ba565b5b6020026020010151613152565b5b90506134a17f00000000000000000000000000000000000000000000000000000000000000008888613152565b73ffffffffffffffffffffffffffffffffffffffff1663022c0d9f848484600067ffffffffffffffff8111156134da576134d961423c565b5b6040519080825280601f01601f19166020018201604052801561350c5781602001600182028036833780820191505090505b506040518563ffffffff1660e01b815260040161352c949392919061551a565b600060405180830381600087803b15801561354657600080fd5b505af115801561355a573d6000803e3d6000fd5b50505050505050505050508080613570906153cd565b915050613328565b50505050565b60606002825110156135c5576040517f08c379a00000000000000000000000000000000000000000000000000000000081526004016135bc90615379565b60405180910390fd5b815167ffffffffffffffff8111156135e0576135df61423c565b5b60405190808252806020026020018201604052801561360e5781602001602082028036833780820191505090505b5090508281600183516136219190614986565b81518110613632576136316149ba565b5b60200260200101818152505060006001835161364e9190614986565b90505b6000811115613711576000806136a8878660018661366f9190614986565b815181106136805761367f6149ba565b5b602002602001015187868151811061369b5761369a6149ba565b5b6020026020010151613c16565b915091506136d18484815181106136c2576136c16149ba565b5b60200260200101518383613d19565b846001856136df9190614986565b815181106136f0576136ef6149ba565b5b6020026020010181815250505050808061370990614ba1565b915050613651565b509392505050565b600080831461374b576001826001856137329190614986565b61373c91906152fc565b6137469190615399565b61374e565b60005b905092915050565b600080841161379a576040517f08c379a0000000000000000000000000000000000000000000000000000000008152600401613791906155d8565b60405180910390fd5b6000831180156137aa5750600082115b6137e9576040517f08c379a00000000000000000000000000000000000000000000000000000000081526004016137e0906152ad565b60405180910390fd5b826137fd8386613bea90919063ffffffff16565b61380791906152fc565b90509392505050565b6000808273ffffffffffffffffffffffffffffffffffffffff168473ffffffffffffffffffffffffffffffffffffffff1603613881576040517f08c379a00000000000000000000000000000000000000000000000000000000081526004016138789061566a565b60405180910390fd5b8273ffffffffffffffffffffffffffffffffffffffff168473ffffffffffffffffffffffffffffffffffffffff16106138bb5782846138be565b83835b8092508193505050600073ffffffffffffffffffffffffffffffffffffffff168273ffffffffffffffffffffffffffffffffffffffff1603613935576040517f08c379a000000000000000000000000000000000000000000000000000000000815260040161392c906156d6565b60405180910390fd5b9250929050565b600080600073ffffffffffffffffffffffffffffffffffffffff167f000000000000000000000000000000000000000000000000000000000000000073ffffffffffffffffffffffffffffffffffffffff1663e6a439058a8a6040518363ffffffff1660e01b81526004016139b2929190615415565b602060405180830381865afa1580156139cf573d6000803e3d6000fd5b505050506040513d601f19601f820116820180604052508101906139f39190614d1e565b73ffffffffffffffffffffffffffffffffffffffff1603613aae577f000000000000000000000000000000000000000000000000000000000000000073ffffffffffffffffffffffffffffffffffffffff1663c9c6539689896040518363ffffffff1660e01b8152600401613a69929190615415565b6020604051808303816000875af1158015613a88573d6000803e3d6000fd5b505050506040513d601f19601f82011682018060405250810190613aac9190614d1e565b505b600080613adc7f00000000000000000000000000000000000000000000000000000000000000008b8b613c16565b91509150600082148015613af05750600081145b15613b045787878094508195505050613bdd565b6000613b11898484613756565b9050878111613b6c5785811015613b5d576040517f08c379a0000000000000000000000000000000000000000000000000000000008152600401613b5490614fb0565b60405180910390fd5b88818095508196505050613bdb565b6000613b79898486613756565b905089811115613b8c57613b8b613e42565b5b87811015613bcf576040517f08c379a0000000000000000000000000000000000000000000000000000000008152600401613bc690614f1e565b60405180910390fd5b80898096508197505050505b505b5050965096945050505050565b60008183613bf89190614bca565b905092915050565b60008183613c0e9190615399565b905092915050565b6000806000613c258585613810565b509050600080613c36888888613152565b73ffffffffffffffffffffffffffffffffffffffff16630902f1ac6040518163ffffffff1660e01b8152600401606060405180830381865afa158015613c80573d6000803e3d6000fd5b505050506040513d601f19601f82011682018060405250810190613ca49190614dcd565b506dffffffffffffffffffffffffffff1691506dffffffffffffffffffffffffffff1691508273ffffffffffffffffffffffffffffffffffffffff168773ffffffffffffffffffffffffffffffffffffffff1614613d03578082613d06565b81815b8095508196505050505050935093915050565b6000808411613d5d576040517f08c379a0000000000000000000000000000000000000000000000000000000008152600401613d5490615768565b60405180910390fd5b600083118015613d6d5750600082115b613dac576040517f08c379a0000000000000000000000000000000000000000000000000000000008152600401613da3906152ad565b60405180910390fd5b6000613dd56103e8613dc78787613bea90919063ffffffff16565b613bea90919063ffffffff16565b90506000613e006103e5613df28887613e2c90919063ffffffff16565b613bea90919063ffffffff16565b9050613e2160018284613e1391906152fc565b613c0090919063ffffffff16565b925050509392505050565b60008183613e3a9190614986565b905092915050565b7f4e487b7100000000000000000000000000000000000000000000000000000000600052600160045260246000fd5b6000604051905090565b600080fd5b600080fd5b600073ffffffffffffffffffffffffffffffffffffffff82169050919050565b6000613eb082613e85565b9050919050565b613ec081613ea5565b8114613ecb57600080fd5b50565b600081359050613edd81613eb7565b92915050565b6000819050919050565b613ef681613ee3565b8114613f0157600080fd5b50565b600081359050613f1381613eed565b92915050565b60008060008060008060c08789031215613f3657613f35613e7b565b5b6000613f4489828a01613ece565b9650506020613f5589828a01613f04565b9550506040613f6689828a01613f04565b9450506060613f7789828a01613f04565b9350506080613f8889828a01613ece565b92505060a0613f9989828a01613f04565b9150509295509295509295565b613faf81613ee3565b82525050565b6000604082019050613fca6000830185613fa6565b613fd76020830184613fa6565b9392505050565b600080600060608486031215613ff757613ff6613e7b565b5b600061400586828701613f04565b935050602061401686828701613f04565b925050604061402786828701613f04565b9150509250925092565b60006020820190506140466000830184613fa6565b92915050565b600080fd5b600080fd5b600080fd5b60008083601f8401126140715761407061404c565b5b8235905067ffffffffffffffff81111561408e5761408d614051565b5b6020830191508360208202830111156140aa576140a9614056565b5b9250929050565b60008060008060008060a087890312156140ce576140cd613e7b565b5b60006140dc89828a01613f04565b96505060206140ed89828a01613f04565b955050604087013567ffffffffffffffff81111561410e5761410d613e80565b5b61411a89828a0161405b565b9450945050606061412d89828a01613ece565b925050608061413e89828a01613f04565b9150509295509295509295565b600081519050919050565b600082825260208201905092915050565b6000819050602082019050919050565b61418081613ee3565b82525050565b60006141928383614177565b60208301905092915050565b6000602082019050919050565b60006141b68261414b565b6141c08185614156565b93506141cb83614167565b8060005b838110156141fc5781516141e38882614186565b97506141ee8361419e565b9250506001810190506141cf565b5085935050505092915050565b6000602082019050818103600083015261422381846141ab565b905092915050565b6000601f19601f8301169050919050565b7f4e487b7100000000000000000000000000000000000000000000000000000000600052604160045260246000fd5b6142748261422b565b810181811067ffffffffffffffff821117156142935761429261423c565b5b80604052505050565b60006142a6613e71565b90506142b2828261426b565b919050565b600067ffffffffffffffff8211156142d2576142d161423c565b5b602082029050602081019050919050565b60006142f66142f1846142b7565b61429c565b9050808382526020820190506020840283018581111561431957614318614056565b5b835b81811015614342578061432e8882613ece565b84526020840193505060208101905061431b565b5050509392505050565b600082601f8301126143615761436061404c565b5b81356143718482602086016142e3565b91505092915050565b6000806040838503121561439157614390613e7b565b5b600061439f85828601613f04565b925050602083013567ffffffffffffffff8111156143c0576143bf613e80565b5b6143cc8582860161434c565b9150509250929050565b60008115159050919050565b6143eb816143d6565b81146143f657600080fd5b50565b600081359050614408816143e2565b92915050565b600060ff82169050919050565b6144248161440e565b811461442f57600080fd5b50565b6000813590506144418161441b565b92915050565b6000819050919050565b61445a81614447565b811461446557600080fd5b50565b60008135905061447781614451565b92915050565b60008060008060008060008060008060006101608c8e0312156144a3576144a2613e7b565b5b60006144b18e828f01613ece565b9b505060206144c28e828f01613ece565b9a505060406144d38e828f01613f04565b99505060606144e48e828f01613f04565b98505060806144f58e828f01613f04565b97505060a06145068e828f01613ece565b96505060c06145178e828f01613f04565b95505060e06145288e828f016143f9565b94505061010061453a8e828f01614432565b93505061012061454c8e828f01614468565b92505061014061455e8e828f01614468565b9150509295989b509295989b9093969950565b60008060008060006080868803121561458d5761458c613e7b565b5b600061459b88828901613f04565b955050602086013567ffffffffffffffff8111156145bc576145bb613e80565b5b6145c88882890161405b565b945094505060406145db88828901613ece565b92505060606145ec88828901613f04565b9150509295509295909350565b60006020828403121561460f5761460e613e7b565b5b600082013567ffffffffffffffff81111561462d5761462c613e80565b5b6146398482850161434c565b91505092915050565b61464b81613ea5565b82525050565b60006020820190506146666000830184614642565b92915050565b600080600080600080600060e0888a03121561468b5761468a613e7b565b5b60006146998a828b01613ece565b97505060206146aa8a828b01613ece565b96505060406146bb8a828b01613f04565b95505060606146cc8a828b01613f04565b94505060806146dd8a828b01613f04565b93505060a06146ee8a828b01613ece565b92505060c06146ff8a828b01613f04565b91505092959891949750929550565b6000806000806000806000806000806101408b8d03121561473257614731613e7b565b5b60006147408d828e01613ece565b9a505060206147518d828e01613f04565b99505060406147628d828e01613f04565b98505060606147738d828e01613f04565b97505060806147848d828e01613ece565b96505060a06147958d828e01613f04565b95505060c06147a68d828e016143f9565b94505060e06147b78d828e01614432565b9350506101006147c98d828e01614468565b9250506101206147db8d828e01614468565b9150509295989b9194979a5092959850565b600080600080600080600080610100898b03121561480e5761480d613e7b565b5b600061481c8b828c01613ece565b985050602061482d8b828c01613ece565b975050604061483e8b828c01613f04565b965050606061484f8b828c01613f04565b95505060806148608b828c01613f04565b94505060a06148718b828c01613f04565b93505060c06148828b828c01613ece565b92505060e06148938b828c01613f04565b9150509295985092959890939650565b60006060820190506148b86000830186613fa6565b6148c56020830185613fa6565b6148d26040830184613fa6565b949350505050565b600082825260208201905092915050565b7f42756c6c436f696e526f757465723a2045585049524544000000000000000000600082015250565b60006149216017836148da565b915061492c826148eb565b602082019050919050565b6000602082019050818103600083015261495081614914565b9050919050565b7f4e487b7100000000000000000000000000000000000000000000000000000000600052601160045260246000fd5b600061499182613ee3565b915061499c83613ee3565b92508282039050818111156149b4576149b3614957565b5b92915050565b7f4e487b7100000000000000000000000000000000000000000000000000000000600052603260045260246000fd5b6000602082840312156149ff576149fe613e7b565b5b6000614a0d84828501613ece565b91505092915050565b7f42756c6c436f696e526f757465723a20494e56414c49445f5041544800000000600082015250565b6000614a4c601c836148da565b9150614a5782614a16565b602082019050919050565b60006020820190508181036000830152614a7b81614a3f565b9050919050565b7f42756c6c436f696e526f757465723a20494e53554646494349454e545f4f555460008201527f5055545f414d4f554e5400000000000000000000000000000000000000000000602082015250565b6000614ade602a836148da565b9150614ae982614a82565b604082019050919050565b60006020820190508181036000830152614b0d81614ad1565b9050919050565b614b1d8161440e565b82525050565b614b2c81614447565b82525050565b600060e082019050614b47600083018a614642565b614b546020830189614642565b614b616040830188613fa6565b614b6e6060830187613fa6565b614b7b6080830186614b14565b614b8860a0830185614b23565b614b9560c0830184614b23565b98975050505050505050565b6000614bac82613ee3565b915060008203614bbf57614bbe614957565b5b600182039050919050565b6000614bd582613ee3565b9150614be083613ee3565b9250828202614bee81613ee3565b91508282048414831517614c0557614c04614957565b5b5092915050565b7f42756c6c436f696e526f757465723a204558434553534956455f494e5055545f60008201527f414d4f554e540000000000000000000000000000000000000000000000000000602082015250565b6000614c686026836148da565b9150614c7382614c0c565b604082019050919050565b60006020820190508181036000830152614c9781614c5b565b9050919050565b6000604082019050614cb36000830185614642565b614cc06020830184613fa6565b9392505050565b600081519050614cd6816143e2565b92915050565b600060208284031215614cf257614cf1613e7b565b5b6000614d0084828501614cc7565b91505092915050565b600081519050614d1881613eb7565b92915050565b600060208284031215614d3457614d33613e7b565b5b6000614d4284828501614d09565b91505092915050565b60006dffffffffffffffffffffffffffff82169050919050565b614d6e81614d4b565b8114614d7957600080fd5b50565b600081519050614d8b81614d65565b92915050565b600063ffffffff82169050919050565b614daa81614d91565b8114614db557600080fd5b50565b600081519050614dc781614da1565b92915050565b600080600060608486031215614de657614de5613e7b565b5b6000614df486828701614d7c565b9350506020614e0586828701614d7c565b9250506040614e1686828701614db8565b9150509250925092565b6000606082019050614e356000830186614642565b614e426020830185614642565b614e4f6040830184613fa6565b949350505050565b600081519050614e6681613eed565b92915050565b60008060408385031215614e8357614e82613e7b565b5b6000614e9185828601614e57565b9250506020614ea285828601614e57565b9150509250929050565b7f42756c6c436f696e526f757465723a20494e53554646494349454e545f415f4160008201527f4d4f554e54000000000000000000000000000000000000000000000000000000602082015250565b6000614f086025836148da565b9150614f1382614eac565b604082019050919050565b60006020820190508181036000830152614f3781614efb565b9050919050565b7f42756c6c436f696e526f757465723a20494e53554646494349454e545f425f4160008201527f4d4f554e54000000000000000000000000000000000000000000000000000000602082015250565b6000614f9a6025836148da565b9150614fa582614f3e565b604082019050919050565b60006020820190508181036000830152614fc981614f8d565b9050919050565b600060208284031215614fe657614fe5613e7b565b5b6000614ff484828501614e57565b91505092915050565b600081519050919050565b600081905092915050565b60005b83811015615031578082015181840152602081019050615016565b60008484015250505050565b600061504882614ffd565b6150528185615008565b9350615062818560208601615013565b80840191505092915050565b600061507a828461503d565b915081905092915050565b7f5472616e7366657248656c7065723a3a736166655472616e736665723a20747260008201527f616e73666572206661696c656400000000000000000000000000000000000000602082015250565b60006150e1602d836148da565b91506150ec82615085565b604082019050919050565b60006020820190508181036000830152615110816150d4565b9050919050565b7f5472616e7366657248656c7065723a3a736166655472616e736665724554483a60008201527f20455448207472616e73666572206661696c6564000000000000000000000000602082015250565b60006151736034836148da565b915061517e82615117565b604082019050919050565b600060208201905081810360008301526151a281615166565b9050919050565b7f42756c6c436f696e4c6962726172793a20494e53554646494349454e545f494e60008201527f5055545f414d4f554e5400000000000000000000000000000000000000000000602082015250565b6000615205602a836148da565b9150615210826151a9565b604082019050919050565b60006020820190508181036000830152615234816151f8565b9050919050565b7f42756c6c436f696e4c6962726172793a20494e53554646494349454e545f4c4960008201527f5155494449545900000000000000000000000000000000000000000000000000602082015250565b60006152976027836148da565b91506152a28261523b565b604082019050919050565b600060208201905081810360008301526152c68161528a565b9050919050565b7f4e487b7100000000000000000000000000000000000000000000000000000000600052601260045260246000fd5b600061530782613ee3565b915061531283613ee3565b925082615322576153216152cd565b5b828204905092915050565b7f42756c6c436f696e4c6962726172793a20494e56414c49445f50415448000000600082015250565b6000615363601d836148da565b915061536e8261532d565b602082019050919050565b6000602082019050818103600083015261539281615356565b9050919050565b60006153a482613ee3565b91506153af83613ee3565b92508282019050808211156153c7576153c6614957565b5b92915050565b60006153d882613ee3565b91507fffffffffffffffffffffffffffffffffffffffffffffffffffffffffffffffff820361540a57615409614957565b5b600182019050919050565b600060408201905061542a6000830185614642565b6154376020830184614642565b9392505050565b7f5472616e7366657248656c7065723a3a7472616e7366657246726f6d3a20747260008201527f616e7366657246726f6d206661696c6564000000000000000000000000000000602082015250565b600061549a6031836148da565b91506154a58261543e565b604082019050919050565b600060208201905081810360008301526154c98161548d565b9050919050565b600082825260208201905092915050565b60006154ec82614ffd565b6154f681856154d0565b9350615506818560208601615013565b61550f8161422b565b840191505092915050565b600060808201905061552f6000830187613fa6565b61553c6020830186613fa6565b6155496040830185614642565b818103606083015261555b81846154e1565b905095945050505050565b7f42756c6c436f696e4c6962726172793a20494e53554646494349454e545f414d60008201527f4f554e5400000000000000000000000000000000000000000000000000000000602082015250565b60006155c26024836148da565b91506155cd82615566565b604082019050919050565b600060208201905081810360008301526155f1816155b5565b9050919050565b7f42756c6c436f696e4c6962726172793a204944454e544943414c5f414444524560008201527f5353455300000000000000000000000000000000000000000000000000000000602082015250565b60006156546024836148da565b915061565f826155f8565b604082019050919050565b6000602082019050818103600083015261568381615647565b9050919050565b7f42756c6c436f696e4c6962726172793a205a45524f5f41444452455353000000600082015250565b60006156c0601d836148da565b91506156cb8261568a565b602082019050919050565b600060208201905081810360008301526156ef816156b3565b9050919050565b7f42756c6c436f696e4c6962726172793a20494e53554646494349454e545f4f5560008201527f545055545f414d4f554e54000000000000000000000000000000000000000000602082015250565b6000615752602b836148da565b915061575d826156f6565b604082019050919050565b6000602082019050818103600083015261578181615745565b905091905056fea264697066735822122074b149c94088129a3e8e7b923d8d5c926933bf169b1970c26a12f75357c7ac5164736f6c63430008110033",
  "immutableReferences": {
    "6196": [
      {
        "length": 32,
        "start": 2283
      },
      {
        "length": 32,
        "start": 2544
      },
      {
        "length": 32,
        "start": 3016
      },
      {
        "length": 32,
        "start": 3072
      },
      {
        "length": 32,
        "start": 3396
      },
      {
        "length": 32,
        "start": 3657
      },
      {
        "length": 32,
        "start": 3903
      },
      {
        "length": 32,
        "start": 4375
      },
      {
        "length": 32,
        "start": 4624
      },
      {
        "length": 32,
        "start": 5346
      },
      {
        "length": 32,
        "start": 5778
      },
      {
        "length": 32,
        "start": 6216
      },
      {
        "length": 32,
        "start": 6465
      },
      {
        "length": 32,
        "start": 6711
      },
      {
        "length": 32,
        "start": 7500
      },
      {
        "length": 32,
        "start": 8036
      },
      {
        "length": 32,
        "start": 8078
      },
      {
        "length": 32,
        "start": 8179
      },
      {
        "length": 32,
        "start": 8970
      },
      {
        "length": 32,
        "start": 9026
      },
      {
        "length": 32,
        "start": 9407
      },
      {
        "length": 32,
        "start": 9747
      },
      {
        "length": 32,
        "start": 10558
      },
      {
        "length": 32,
        "start": 10978
      },
      {
        "length": 32,
        "start": 13351
      },
      {
        "length": 32,
        "start": 13435
      },
      {
        "length": 32,
        "start": 14681
      },
      {
        "length": 32,
        "start": 14864
      },
      {
        "length": 32,
        "start": 15030
      }
    ],
    "6198": [
      {
        "length": 32,
        "start": 320
      },
      {
        "length": 32,
        "start": 1769
      },
      {
        "length": 32,
        "start": 1831
      },
      {
        "length": 32,
        "start": 2084
      },
      {
        "length": 32,
        "start": 2773
      },
      {
        "length": 32,
        "start": 4176
      },
      {
        "length": 32,
        "start": 4853
      },
      {
        "length": 32,
        "start": 5161
      },
      {
        "length": 32,
        "start": 5559
      },
      {
        "length": 32,
        "start": 5715
      },
      {
        "length": 32,
        "start": 7366
      },
      {
        "length": 32,
        "start": 9060
      },
      {
        "length": 32,
        "start": 9692
      },
      {
        "length": 32,
        "start": 9781
      },
      {
        "length": 32,
        "start": 9833
      },
      {
        "length": 32,
        "start": 9962
      },
      {
        "length": 32,
        "start": 10373
      },
      {
        "length": 32,
        "start": 10759
      },
      {
        "length": 32,
        "start": 10915
      }
    ]
  },
  "source": "// SPDX-License-Identifier: MIT\npragma solidity ^0.8.0;\n\nimport \"@uniswap/v2-core/contracts/interfaces/IUniswapV2Factory.sol\";\nimport \"@uniswap/lib/contracts/libraries/TransferHelper.sol\";\nimport \"./libraries/BullCoinLibrary.sol\";\nimport \"@uniswap/v2-core/contracts/interfaces/IUniswapV2Pair.sol\";\nimport \"@uniswap/v2-periphery/contracts/interfaces/IUniswapV2Router02.sol\";\nimport \"@uniswap/v2-periphery/contracts/interfaces/IWETH.sol\";\nimport \"@openzeppelin/contracts/utils/math/Math.sol\";\nimport \"@openzeppelin/contracts/token/ERC20/ERC20.sol\";\nimport \"@openzeppelin/contracts/access/Ownable.sol\";\n\ncontract Swap {\n    address public immutable factory;\n    address public immutable WETH;\n\n    modifier ensure(uint256 deadline) {\n        require(deadline >= block.timestamp, \"BullCoinRouter: EXPIRED\");\n        _;\n    }\n\n    constructor(address _factory, address _WETH) {\n        factory = _factory;\n        WETH = _WETH;\n    }\n\n    receive() external payable {\n        assert(msg.sender == WETH); // only accept ETH via fallback from the WETH contract\n    }\n\n    // **** ADD LIQUIDITY ****\n    function _addLiquidity(\n        address tokenA,\n        address tokenB,\n        uint256 amountADesired,\n        uint256 amountBDesired,\n        uint256 amountAMin,\n        uint256 amountBMin\n    ) private returns (uint256 amountA, uint256 amountB) {\n        // create the pair if it doesn't exist yet\n        if (IUniswapV2Factory(factory).getPair(tokenA, tokenB) == address(0)) {\n            IUniswapV2Factory(factory).createPair(tokenA, tokenB);\n        }\n        (uint256 reserveA, uint256 reserveB) = BullCoinLibrary.getReserves(\n            factory,\n            tokenA,\n            tokenB\n        );\n        if (reserveA == 0 && reserveB == 0) {\n            (amountA, amountB) = (amountADesired, amountBDesired);\n        } else {\n            uint256 amountBOptimal = BullCoinLibrary.quote(\n                amountADesired,\n                reserveA,\n                reserveB\n            );\n            if (amountBOptimal <= amountBDesired) {\n                require(\n                    amountBOptimal >= amountBMin,\n                    \"BullCoinRouter: INSUFFICIENT_B_AMOUNT\"\n                );\n                (amountA, amountB) = (amountADesired, amountBOptimal);\n            } else {\n                uint256 amountAOptimal = BullCoinLibrary.quote(\n                    amountBDesired,\n                    reserveB,\n                    reserveA\n                );\n                assert(amountAOptimal <= amountADesired);\n                require(\n                    amountAOptimal >= amountAMin,\n                    \"BullCoinRouter: INSUFFICIENT_A_AMOUNT\"\n                );\n                (amountA, amountB) = (amountAOptimal, amountBDesired);\n            }\n        }\n    }\n\n    function addLiquidity(\n        address tokenA,\n        address tokenB,\n        uint256 amountADesired,\n        uint256 amountBDesired,\n        uint256 amountAMin,\n        uint256 amountBMin,\n        address to,\n        uint256 deadline\n    )\n        external\n        ensure(deadline)\n        returns (\n            uint256 amountA,\n            uint256 amountB,\n            uint256 liquidity\n        )\n    {\n        (amountA, amountB) = _addLiquidity(\n            tokenA,\n            tokenB,\n            amountADesired,\n            amountBDesired,\n            amountAMin,\n            amountBMin\n        );\n        address pair = BullCoinLibrary.pairFor(factory, tokenA, tokenB);\n        TransferHelper.safeTransferFrom(tokenA, msg.sender, pair, amountA);\n        TransferHelper.safeTransferFrom(tokenB, msg.sender, pair, amountB);\n        liquidity = IUniswapV2Pair(pair).mint(to);\n    }\n\n    function addLiquidityETH(\n        address token,\n        uint256 amountTokenDesired,\n        uint256 amountTokenMin,\n        uint256 amountETHMin,\n        address to,\n        uint256 deadline\n    )\n        external\n        payable\n        ensure(deadline)\n        returns (\n            uint256 amountToken,\n            uint256 amountETH,\n            uint256 liquidity\n        )\n    {\n        (amountToken, amountETH) = _addLiquidity(\n            token,\n            WETH,\n            amountTokenDesired,\n            msg.value,\n            amountTokenMin,\n            amountETHMin\n        );\n        address pair = BullCoinLibrary.pairFor(factory, token, WETH);\n        TransferHelper.safeTransferFrom(token, msg.sender, pair, amountToken);\n        IWETH(WETH).deposit{value: amountETH}();\n        assert(IWETH(WETH).transfer(pair, amountETH));\n        liquidity = IUniswapV2Pair(pair).mint(to);\n        if (msg.value > amountETH)\n            TransferHelper.safeTransferETH(msg.sender, msg.value - amountETH); // refund dust eth, if any\n    }\n\n    // **** REMOVE LIQUIDITY ****\n    function removeLiquidity(\n        address tokenA,\n        address tokenB,\n        uint256 liquidity,\n        uint256 amountAMin,\n        uint256 amountBMin,\n        address to,\n        uint256 deadline\n    ) public ensure(deadline) returns (uint256 amountA, uint256 amountB) {\n        address pair = BullCoinLibrary.pairFor(factory, tokenA, tokenB);\n        IUniswapV2Pair(pair).transferFrom(msg.sender, pair, liquidity); // send liquidity to pair\n        (uint256 amount0, uint256 amount1) = IUniswapV2Pair(pair).burn(to);\n        (address token0, ) = BullCoinLibrary.sortTokens(tokenA, tokenB);\n        (amountA, amountB) = tokenA == token0\n            ? (amount0, amount1)\n            : (amount1, amount0);\n        require(amountA >= amountAMin, \"BullCoinRouter: INSUFFICIENT_A_AMOUNT\");\n        require(amountB >= amountBMin, \"BullCoinRouter: INSUFFICIENT_B_AMOUNT\");\n    }\n\n    function removeLiquidityETH(\n        address token,\n        uint256 liquidity,\n        uint256 amountTokenMin,\n        uint256 amountETHMin,\n        address to,\n        uint256 deadline\n    ) public ensure(deadline) returns (uint256 amountToken, uint256 amountETH) {\n        (amountToken, amountETH) = removeLiquidity(\n            token,\n            WETH,\n            liquidity,\n            amountTokenMin,\n            amountETHMin,\n            address(this),\n            deadline\n        );\n        TransferHelper.safeTransfer(token, to, amountToken);\n        IWETH(WETH).withdraw(amountETH);\n        TransferHelper.safeTransferETH(to, amountETH);\n    }\n\n    function removeLiquidityWithPermit(\n        address tokenA,\n        address tokenB,\n        uint256 liquidity,\n        uint256 amountAMin,\n        uint256 amountBMin,\n        address to,\n        uint256 deadline,\n        bool approveMax,\n        uint8 v,\n        bytes32 r,\n        bytes32 s\n    ) external returns (uint256 amountA, uint256 amountB) {\n        address pair = BullCoinLibrary.pairFor(factory, tokenA, tokenB);\n        uint256 value = approveMax ? uint256(2**256 - 1) : liquidity;\n        IUniswapV2Pair(pair).permit(\n            msg.sender,\n            address(this),\n            value,\n            deadline,\n            v,\n            r,\n            s\n        );\n        (amountA, amountB) = removeLiquidity(\n            tokenA,\n            tokenB,\n            liquidity,\n            amountAMin,\n            amountBMin,\n            to,\n            deadline\n        );\n    }\n\n    function removeLiquidityETHWithPermit(\n        address token,\n        uint256 liquidity,\n        uint256 amountTokenMin,\n        uint256 amountETHMin,\n        address to,\n        uint256 deadline,\n        bool approveMax,\n        uint8 v,\n        bytes32 r,\n        bytes32 s\n    ) external returns (uint256 amountToken, uint256 amountETH) {\n        address pair = BullCoinLibrary.pairFor(factory, token, WETH);\n        uint256 value = approveMax ? uint256(2**256 - 1) : liquidity;\n        IUniswapV2Pair(pair).permit(\n            msg.sender,\n            address(this),\n            value,\n            deadline,\n            v,\n            r,\n            s\n        );\n        (amountToken, amountETH) = removeLiquidityETH(\n            token,\n            liquidity,\n            amountTokenMin,\n            amountETHMin,\n            to,\n            deadline\n        );\n    }\n\n    // **** SWAP ****\n    // requires the initial amount to have already been sent to the first pair\n    function _swap(\n        uint256[] memory amounts,\n        address[] memory path,\n        address _to\n    ) private {\n        for (uint256 i; i < path.length - 1; i++) {\n            (address input, address output) = (path[i], path[i + 1]);\n            (address token0, ) = BullCoinLibrary.sortTokens(input, output);\n            uint256 amountOut = amounts[i + 1];\n            (uint256 amount0Out, uint256 amount1Out) = input == token0\n                ? (uint256(0), amountOut)\n                : (amountOut, uint256(0));\n            address to = i < path.length - 2\n                ? BullCoinLibrary.pairFor(factory, output, path[i + 2])\n                : _to;\n            IUniswapV2Pair(BullCoinLibrary.pairFor(factory, input, output))\n                .swap(amount0Out, amount1Out, to, new bytes(0));\n        }\n    }\n\n    function swapExactTokensForTokens(\n        uint256 amountIn,\n        uint256 amountOutMin,\n        address[] calldata path,\n        address to,\n        uint256 deadline\n    ) external ensure(deadline) returns (uint256[] memory amounts) {\n        amounts = BullCoinLibrary.getAmountsOut(factory, amountIn, path);\n        require(\n            amounts[amounts.length - 1] >= amountOutMin,\n            \"BullCoinRouter: INSUFFICIENT_OUTPUT_AMOUNT\"\n        );\n        TransferHelper.safeTransferFrom(\n            path[0],\n            msg.sender,\n            BullCoinLibrary.pairFor(factory, path[0], path[1]),\n            amounts[0]\n        );\n        _swap(amounts, path, to);\n    }\n\n    function swapTokensForExactTokens(\n        uint256 amountOut,\n        uint256 amountInMax,\n        address[] calldata path,\n        address to,\n        uint256 deadline\n    ) external ensure(deadline) returns (uint256[] memory amounts) {\n        amounts = BullCoinLibrary.getAmountsIn(factory, amountOut, path);\n        require(\n            amounts[0] <= amountInMax,\n            \"BullCoinRouter: EXCESSIVE_INPUT_AMOUNT\"\n        );\n        TransferHelper.safeTransferFrom(\n            path[0],\n            msg.sender,\n            BullCoinLibrary.pairFor(factory, path[0], path[1]),\n            amounts[0]\n        );\n        _swap(amounts, path, to);\n    }\n\n    function swapExactETHForTokens(\n        uint256 amountOutMin,\n        address[] calldata path,\n        address to,\n        uint256 deadline\n    ) external payable ensure(deadline) returns (uint256[] memory amounts) {\n        require(path[0] == WETH, \"BullCoinRouter: INVALID_PATH\");\n        amounts = BullCoinLibrary.getAmountsOut(factory, msg.value, path);\n        require(\n            amounts[amounts.length - 1] >= amountOutMin,\n            \"BullCoinRouter: INSUFFICIENT_OUTPUT_AMOUNT\"\n        );\n        IWETH(WETH).deposit{value: amounts[0]}();\n        assert(\n            IWETH(WETH).transfer(\n                BullCoinLibrary.pairFor(factory, path[0], path[1]),\n                amounts[0]\n            )\n        );\n        _swap(amounts, path, to);\n    }\n\n    function swapTokensForExactETH(\n        uint256 amountOut,\n        uint256 amountInMax,\n        address[] calldata path,\n        address to,\n        uint256 deadline\n    ) external ensure(deadline) returns (uint256[] memory amounts) {\n        require(path[path.length - 1] == WETH, \"BullCoinRouter: INVALID_PATH\");\n        amounts = BullCoinLibrary.getAmountsIn(factory, amountOut, path);\n        require(\n            amounts[0] <= amountInMax,\n            \"BullCoinRouter: EXCESSIVE_INPUT_AMOUNT\"\n        );\n        TransferHelper.safeTransferFrom(\n            path[0],\n            msg.sender,\n            BullCoinLibrary.pairFor(factory, path[0], path[1]),\n            amounts[0]\n        );\n        _swap(amounts, path, address(this));\n        IWETH(WETH).withdraw(amounts[amounts.length - 1]);\n        TransferHelper.safeTransferETH(to, amounts[amounts.length - 1]);\n    }\n\n    function swapExactTokensForETH(\n        uint256 amountIn,\n        uint256 amountOutMin,\n        address[] calldata path,\n        address to,\n        uint256 deadline\n    ) external ensure(deadline) returns (uint256[] memory amounts) {\n        require(path[path.length - 1] == WETH, \"BullCoinRouter: INVALID_PATH\");\n        amounts = BullCoinLibrary.getAmountsOut(factory, amountIn, path);\n        require(\n            amounts[amounts.length - 1] >= amountOutMin,\n            \"BullCoinRouter: INSUFFICIENT_OUTPUT_AMOUNT\"\n        );\n        TransferHelper.safeTransferFrom(\n            path[0],\n            msg.sender,\n            BullCoinLibrary.pairFor(factory, path[0], path[1]),\n            amounts[0]\n        );\n        _swap(amounts, path, address(this));\n        IWETH(WETH).withdraw(amounts[amounts.length - 1]);\n        TransferHelper.safeTransferETH(to, amounts[amounts.length - 1]);\n    }\n\n    function swapETHForExactTokens(\n        uint256 amountOut,\n        address[] calldata path,\n        address to,\n        uint256 deadline\n    ) external payable ensure(deadline) returns (uint256[] memory amounts) {\n        require(path[0] == WETH, \"BullCoinRouter: INVALID_PATH\");\n        amounts = BullCoinLibrary.getAmountsIn(factory, amountOut, path);\n        require(\n            amounts[0] <= msg.value,\n            \"BullCoinRouter: EXCESSIVE_INPUT_AMOUNT\"\n        );\n        IWETH(WETH).deposit{value: amounts[0]}();\n        assert(\n            IWETH(WETH).transfer(\n                BullCoinLibrary.pairFor(factory, path[0], path[1]),\n                amounts[0]\n            )\n        );\n        _swap(amounts, path, to);\n        if (msg.value > amounts[0])\n            TransferHelper.safeTransferETH(msg.sender, msg.value - amounts[0]); // refund dust eth, if any\n    }\n\n    function quote(\n        uint256 amountA,\n        uint256 reserveA,\n        uint256 reserveB\n    ) public pure returns (uint256 amountB) {\n        return BullCoinLibrary.quote(amountA, reserveA, reserveB);\n    }\n\n    function getAmountOut(\n        uint256 amountIn,\n        uint256 reserveIn,\n        uint256 reserveOut\n    ) public pure returns (uint256 amountOut) {\n        return BullCoinLibrary.getAmountOut(amountIn, reserveIn, reserveOut);\n    }\n\n    function getAmountIn(\n        uint256 amountOut,\n        uint256 reserveIn,\n        uint256 reserveOut\n    ) public pure returns (uint256 amountIn) {\n        return BullCoinLibrary.getAmountOut(amountOut, reserveIn, reserveOut);\n    }\n\n    function getAmountsOut(uint256 amountIn, address[] memory path)\n        public\n        view\n        returns (uint256[] memory amounts)\n    {\n        return BullCoinLibrary.getAmountsOut(factory, amountIn, path);\n    }\n\n    function getAmountsIn(uint256 amountOut, address[] memory path)\n        public\n        view\n        returns (uint256[] memory amounts)\n    {\n        return BullCoinLibrary.getAmountsIn(factory, amountOut, path);\n    }\n\n    // **** CUSTOM CODES ****\n    function getPrice(address[] memory path) public view returns (uint256) {\n        address pair = BullCoinLibrary.pairFor(factory, path[0], path[1]);\n        bool trueToken = IUniswapV2Pair(pair).token0() == path[0];\n        uint256 reserve0;\n        uint256 reserve1;\n        if (trueToken) {\n            (reserve0, reserve1, ) = IUniswapV2Pair(pair).getReserves();\n        } else {\n            (reserve1, reserve0, ) = IUniswapV2Pair(pair).getReserves();\n        }\n        return Math.ceilDiv(reserve0 * 10**18, reserve1);\n    }\n\n    function tokenAPerTokenB(uint256 amountIn_, address[] memory path)\n        public\n        view\n        returns (uint256 price)\n    {\n        uint256[] memory amounts = BullCoinLibrary.getAmountsOut(\n            factory,\n            amountIn_,\n            path\n        );\n        uint256 amountIn;\n        uint256 amountOut;\n        for (uint256 i = path.length - 1; i > 0; i--) {\n            amountOut = amounts[i];\n            amountIn = amounts[i - 1];\n        }\n        price = Math.ceilDiv(amountIn * 10**18, amountOut);\n    }\n\n    function priceImpact(uint256 amountIn_, address[] memory path)\n        public\n        view\n        returns (uint256 priceImpact_)\n    {\n        address pair = BullCoinLibrary.pairFor(factory, path[0], path[1]);\n        uint256[] memory amounts = BullCoinLibrary.getAmountsOut(\n            factory,\n            amountIn_,\n            path\n        );\n        bool trueToken = IUniswapV2Pair(pair).token0() == path[0];\n        uint256 reserve0;\n        uint256 reserve1;\n        if (trueToken) {\n            (reserve0, reserve1, ) = IUniswapV2Pair(pair).getReserves();\n        } else {\n            (reserve1, reserve0, ) = IUniswapV2Pair(pair).getReserves();\n        }\n        uint256 amountIn;\n        uint256 amountOut;\n\n        for (uint256 i = path.length - 1; i > 0; i--) {\n            amountIn = amounts[i];\n            amountOut = amounts[i - 1];\n        }\n        uint256 delta = tokenAPerTokenB(amountIn_, path) - getPrice(path);\n        priceImpact_ =\n            Math.ceilDiv(delta * 10**18, getPrice(path)) -\n            3 *\n            10**15; //sub fee\n    }\n}\n",
  "sourcePath": "G:\\github\\bullcoinSwap\\contracts\\Swap.sol",
  "compiler": {
    "name": "solc",
    "version": "0.8.17+commit.8df45f5f.Emscripten.clang"
  },
  "schemaVersion": "3.4.8",
  "updatedAt": "2022-09-13T07:57:15.133Z",
  "devdoc": {
    "kind": "dev",
    "methods": {},
    "version": 1
  },
  "userdoc": {
    "kind": "user",
    "methods": {},
    "version": 1
  }
}