{
  "contractName": "Swap",
  "abi": [
    {
      "inputs": [
        {
          "internalType": "address",
          "name": "_pair",
          "type": "address"
        }
      ],
      "stateMutability": "nonpayable",
      "type": "constructor"
    },
    {
      "anonymous": false,
      "inputs": [
        {
          "indexed": true,
          "internalType": "address",
          "name": "previousOwner",
          "type": "address"
        },
        {
          "indexed": true,
          "internalType": "address",
          "name": "newOwner",
          "type": "address"
        }
      ],
      "name": "OwnershipTransferred",
      "type": "event"
    },
    {
      "inputs": [],
      "name": "owner",
      "outputs": [
        {
          "internalType": "address",
          "name": "",
          "type": "address"
        }
      ],
      "stateMutability": "view",
      "type": "function",
      "constant": true
    },
    {
      "inputs": [],
      "name": "pair",
      "outputs": [
        {
          "internalType": "contract IUniswapV2Pair",
          "name": "",
          "type": "address"
        }
      ],
      "stateMutability": "view",
      "type": "function",
      "constant": true
    },
    {
      "inputs": [],
      "name": "renounceOwnership",
      "outputs": [],
      "stateMutability": "nonpayable",
      "type": "function"
    },
    {
      "inputs": [
        {
          "internalType": "address",
          "name": "newOwner",
          "type": "address"
        }
      ],
      "name": "transferOwnership",
      "outputs": [],
      "stateMutability": "nonpayable",
      "type": "function"
    },
    {
      "inputs": [
        {
          "internalType": "address",
          "name": "tokenA",
          "type": "address"
        },
        {
          "internalType": "address",
          "name": "tokenB",
          "type": "address"
        },
        {
          "internalType": "uint256",
          "name": "amountADesired",
          "type": "uint256"
        },
        {
          "internalType": "uint256",
          "name": "amountBDesired",
          "type": "uint256"
        },
        {
          "internalType": "uint256",
          "name": "amountAMin",
          "type": "uint256"
        },
        {
          "internalType": "uint256",
          "name": "amountBMin",
          "type": "uint256"
        },
        {
          "internalType": "address",
          "name": "to",
          "type": "address"
        },
        {
          "internalType": "uint256",
          "name": "deadlne",
          "type": "uint256"
        }
      ],
      "name": "addLiquidity",
      "outputs": [
        {
          "internalType": "uint256",
          "name": "amountA",
          "type": "uint256"
        },
        {
          "internalType": "uint256",
          "name": "amountB",
          "type": "uint256"
        },
        {
          "internalType": "uint256",
          "name": "liquidity",
          "type": "uint256"
        }
      ],
      "stateMutability": "nonpayable",
      "type": "function"
    },
    {
      "inputs": [
        {
          "internalType": "address",
          "name": "tokenA",
          "type": "address"
        },
        {
          "internalType": "address",
          "name": "tokenB",
          "type": "address"
        },
        {
          "internalType": "uint256",
          "name": "liquidity",
          "type": "uint256"
        },
        {
          "internalType": "uint256",
          "name": "amountAMin",
          "type": "uint256"
        },
        {
          "internalType": "uint256",
          "name": "amountBMin",
          "type": "uint256"
        },
        {
          "internalType": "address",
          "name": "to",
          "type": "address"
        }
      ],
      "name": "removeLiquidity",
      "outputs": [
        {
          "internalType": "uint256",
          "name": "amountA",
          "type": "uint256"
        },
        {
          "internalType": "uint256",
          "name": "amountB",
          "type": "uint256"
        }
      ],
      "stateMutability": "nonpayable",
      "type": "function"
    },
    {
      "inputs": [
        {
          "internalType": "uint256",
          "name": "amountIn",
          "type": "uint256"
        },
        {
          "internalType": "uint256",
          "name": "amountOutMin",
          "type": "uint256"
        },
        {
          "internalType": "address[]",
          "name": "path",
          "type": "address[]"
        },
        {
          "internalType": "address",
          "name": "to",
          "type": "address"
        },
        {
          "internalType": "uint256",
          "name": "deadline",
          "type": "uint256"
        }
      ],
      "name": "swapExactTokensForTokens",
      "outputs": [
        {
          "internalType": "uint256[]",
          "name": "amounts",
          "type": "uint256[]"
        }
      ],
      "stateMutability": "nonpayable",
      "type": "function"
    },
    {
      "inputs": [
        {
          "internalType": "uint256",
          "name": "amountOut",
          "type": "uint256"
        },
        {
          "internalType": "uint256",
          "name": "amountInMax",
          "type": "uint256"
        },
        {
          "internalType": "address[]",
          "name": "path",
          "type": "address[]"
        },
        {
          "internalType": "address",
          "name": "to",
          "type": "address"
        },
        {
          "internalType": "uint256",
          "name": "deadline",
          "type": "uint256"
        }
      ],
      "name": "swapTokensForExactTokens",
      "outputs": [
        {
          "internalType": "uint256[]",
          "name": "amounts",
          "type": "uint256[]"
        }
      ],
      "stateMutability": "nonpayable",
      "type": "function"
    },
    {
      "inputs": [
        {
          "internalType": "uint256",
          "name": "amountIn",
          "type": "uint256"
        },
        {
          "internalType": "uint256",
          "name": "amountOutMin",
          "type": "uint256"
        },
        {
          "internalType": "address[]",
          "name": "path",
          "type": "address[]"
        },
        {
          "internalType": "address",
          "name": "to",
          "type": "address"
        },
        {
          "internalType": "uint256",
          "name": "deadline",
          "type": "uint256"
        }
      ],
      "name": "swapExactTokensForTokensSupportingFeeOnTransferTokens",
      "outputs": [],
      "stateMutability": "nonpayable",
      "type": "function"
    },
    {
      "inputs": [
        {
          "internalType": "uint256",
          "name": "amountA",
          "type": "uint256"
        },
        {
          "internalType": "uint256",
          "name": "reserveA",
          "type": "uint256"
        },
        {
          "internalType": "uint256",
          "name": "reserveB",
          "type": "uint256"
        }
      ],
      "name": "quote",
      "outputs": [
        {
          "internalType": "uint256",
          "name": "amountB",
          "type": "uint256"
        }
      ],
      "stateMutability": "pure",
      "type": "function",
      "constant": true
    },
    {
      "inputs": [
        {
          "internalType": "uint256",
          "name": "amountIn",
          "type": "uint256"
        },
        {
          "internalType": "uint256",
          "name": "reserveIn",
          "type": "uint256"
        },
        {
          "internalType": "uint256",
          "name": "reserveOut",
          "type": "uint256"
        }
      ],
      "name": "getAmountOut",
      "outputs": [
        {
          "internalType": "uint256",
          "name": "amountOut",
          "type": "uint256"
        }
      ],
      "stateMutability": "pure",
      "type": "function",
      "constant": true
    },
    {
      "inputs": [
        {
          "internalType": "uint256",
          "name": "amountOut",
          "type": "uint256"
        },
        {
          "internalType": "uint256",
          "name": "reserveIn",
          "type": "uint256"
        },
        {
          "internalType": "uint256",
          "name": "reserveOut",
          "type": "uint256"
        }
      ],
      "name": "getAmountIn",
      "outputs": [
        {
          "internalType": "uint256",
          "name": "amountIn",
          "type": "uint256"
        }
      ],
      "stateMutability": "pure",
      "type": "function",
      "constant": true
    },
    {
      "inputs": [
        {
          "internalType": "uint256",
          "name": "amountIn",
          "type": "uint256"
        },
        {
          "internalType": "address[]",
          "name": "path",
          "type": "address[]"
        }
      ],
      "name": "getAmountsOut",
      "outputs": [
        {
          "internalType": "uint256[]",
          "name": "amounts",
          "type": "uint256[]"
        }
      ],
      "stateMutability": "view",
      "type": "function",
      "constant": true
    },
    {
      "inputs": [
        {
          "internalType": "uint256",
          "name": "amountOut",
          "type": "uint256"
        },
        {
          "internalType": "address[]",
          "name": "path",
          "type": "address[]"
        }
      ],
      "name": "getAmountsIn",
      "outputs": [
        {
          "internalType": "uint256[]",
          "name": "amounts",
          "type": "uint256[]"
        }
      ],
      "stateMutability": "view",
      "type": "function",
      "constant": true
    }
  ],
  "bytecode": "0x60a06040523480156200001157600080fd5b50604051620039c5380380620039c58339818101604052810190620000379190620001c8565b620000576200004b6200009260201b60201c565b6200009a60201b60201c565b8073ffffffffffffffffffffffffffffffffffffffff1660808173ffffffffffffffffffffffffffffffffffffffff168152505050620001fa565b600033905090565b60008060009054906101000a900473ffffffffffffffffffffffffffffffffffffffff169050816000806101000a81548173ffffffffffffffffffffffffffffffffffffffff021916908373ffffffffffffffffffffffffffffffffffffffff1602179055508173ffffffffffffffffffffffffffffffffffffffff168173ffffffffffffffffffffffffffffffffffffffff167f8be0079c531659141344cd1fd0a4f28419497f9722a3daafe3b4186f6b6457e060405160405180910390a35050565b600080fd5b600073ffffffffffffffffffffffffffffffffffffffff82169050919050565b6000620001908262000163565b9050919050565b620001a28162000183565b8114620001ae57600080fd5b50565b600081519050620001c28162000197565b92915050565b600060208284031215620001e157620001e06200015e565b5b6000620001f184828501620001b1565b91505092915050565b608051613723620002a26000396000818161033d015281816103b6015281816104d001528181610637015281816108de015281816109d401528181610a9601528181610b4401528181610b8101528181610c0801528181610d9401528181610e4001528181610ee101528181610f65015281816115be015281816115e20152818161188f015281816119a701528181611aa801528181611acc0152611f6a01526137236000f3fe608060405234801561001057600080fd5b50600436106100ea5760003560e01c80638da5cb5b1161008c578063c0e3ee6b11610066578063c0e3ee6b14610271578063d06ca61f146102a2578063e8e33700146102d2578063f2fde38b14610304576100ea565b80638da5cb5b14610205578063a8aa1b3114610223578063ad615dec14610241576100ea565b80635c11d795116100c85780635c11d7951461017f578063715018a61461019b57806385f8c259146101a55780638803dbee146101d5576100ea565b8063054d50d4146100ef5780631f00ca741461011f57806338ed17391461014f575b600080fd5b610109600480360381019061010491906122fd565b610320565b604051610116919061235f565b60405180910390f35b61013960048036038101906101349190612531565b610336565b604051610146919061264b565b60405180910390f35b610169600480360381019061016491906126c8565b61036b565b604051610176919061264b565b60405180910390f35b610199600480360381019061019491906126c8565b6105c4565b005b6101a3610869565b005b6101bf60048036038101906101ba91906122fd565b61087d565b6040516101cc919061235f565b60405180910390f35b6101ef60048036038101906101ea91906126c8565b610893565b6040516101fc919061264b565b60405180910390f35b61020d610a6b565b60405161021a9190612771565b60405180910390f35b61022b610a94565b60405161023891906127eb565b60405180910390f35b61025b600480360381019061025691906122fd565b610ab8565b604051610268919061235f565b60405180910390f35b61028b60048036038101906102869190612806565b610b3f565b604051610299929190612893565b60405180910390f35b6102bc60048036038101906102b79190612531565b610d8d565b6040516102c9919061264b565b60405180910390f35b6102ec60048036038101906102e791906128bc565b610dc2565b6040516102fb93929190612972565b60405180910390f35b61031e600480360381019061031991906129a9565b611010565b005b600061032d848484611093565b90509392505050565b60606103637f00000000000000000000000000000000000000000000000000000000000000008484611199565b905092915050565b606081428110156103b1576040517f08c379a00000000000000000000000000000000000000000000000000000000081526004016103a890612a33565b60405180910390fd5b61041d7f000000000000000000000000000000000000000000000000000000000000000089888880806020026020016040519081016040528093929190818152602001838360200280828437600081840152601f19601f82011690508083019250505050505050611334565b915086826001845161042f9190612a82565b815181106104405761043f612ab6565b5b60200260200101511015610489576040517f08c379a000000000000000000000000000000000000000000000000000000000815260040161048090612b57565b60405180910390fd5b8585600081811061049d5761049c612ab6565b5b90506020020160208101906104b291906129a9565b73ffffffffffffffffffffffffffffffffffffffff166323b872dd337f00000000000000000000000000000000000000000000000000000000000000008560008151811061050357610502612ab6565b5b60200260200101516040518463ffffffff1660e01b815260040161052993929190612b77565b6020604051808303816000875af1158015610548573d6000803e3d6000fd5b505050506040513d601f19601f8201168201806040525081019061056c9190612be6565b506105b982878780806020026020016040519081016040528093929190818152602001838360200280828437600081840152601f19601f82011690508083019250505050505050866114bf565b509695505050505050565b8042811015610608576040517f08c379a00000000000000000000000000000000000000000000000000000000081526004016105ff90612a33565b60405180910390fd5b61065c8585600081811061061f5761061e612ab6565b5b905060200201602081019061063491906129a9565b337f00000000000000000000000000000000000000000000000000000000000000008a6116de565b600085856001888890506106709190612a82565b8181106106805761067f612ab6565b5b905060200201602081019061069591906129a9565b73ffffffffffffffffffffffffffffffffffffffff166370a08231856040518263ffffffff1660e01b81526004016106cd9190612771565b602060405180830381865afa1580156106ea573d6000803e3d6000fd5b505050506040513d601f19601f8201168201806040525081019061070e9190612c28565b905061075b868680806020026020016040519081016040528093929190818152602001838360200280828437600081840152601f19601f8201169050808301925050505050505085611817565b8661081e82888860018b8b90506107729190612a82565b81811061078257610781612ab6565b5b905060200201602081019061079791906129a9565b73ffffffffffffffffffffffffffffffffffffffff166370a08231886040518263ffffffff1660e01b81526004016107cf9190612771565b602060405180830381865afa1580156107ec573d6000803e3d6000fd5b505050506040513d601f19601f820116820180604052508101906108109190612c28565b611bc890919063ffffffff16565b101561085f576040517f08c379a000000000000000000000000000000000000000000000000000000000815260040161085690612b57565b60405180910390fd5b5050505050505050565b610871611bde565b61087b6000611c5c565b565b600061088a848484611d20565b90509392505050565b606081428110156108d9576040517f08c379a00000000000000000000000000000000000000000000000000000000081526004016108d090612a33565b60405180910390fd5b6109457f000000000000000000000000000000000000000000000000000000000000000089888880806020026020016040519081016040528093929190818152602001838360200280828437600081840152601f19601f82011690508083019250505050505050611199565b9150868260008151811061095c5761095b612ab6565b5b602002602001015111156109a5576040517f08c379a000000000000000000000000000000000000000000000000000000000815260040161099c90612cc7565b60405180910390fd5b610a14868660008181106109bc576109bb612ab6565b5b90506020020160208101906109d191906129a9565b337f000000000000000000000000000000000000000000000000000000000000000085600081518110610a0757610a06612ab6565b5b60200260200101516116de565b610a6082878780806020026020016040519081016040528093929190818152602001838360200280828437600081840152601f19601f82011690508083019250505050505050866114bf565b509695505050505050565b60008060009054906101000a900473ffffffffffffffffffffffffffffffffffffffff16905090565b7f000000000000000000000000000000000000000000000000000000000000000081565b600073__UniswapV2Library______________________63ad615dec8585856040518463ffffffff1660e01b8152600401610af593929190612cf6565b602060405180830381865af4158015610b12573d6000803e3d6000fd5b505050506040513d601f19601f82011682018060405250810190610b369190612c28565b90509392505050565b6000807f000000000000000000000000000000000000000000000000000000000000000073ffffffffffffffffffffffffffffffffffffffff166323b872dd337f0000000000000000000000000000000000000000000000000000000000000000896040518463ffffffff1660e01b8152600401610bbf93929190612b77565b6020604051808303816000875af1158015610bde573d6000803e3d6000fd5b505050506040513d601f19601f82011682018060405250810190610c029190612be6565b506000807f000000000000000000000000000000000000000000000000000000000000000073ffffffffffffffffffffffffffffffffffffffff166389afcb44866040518263ffffffff1660e01b8152600401610c5f9190612771565b60408051808303816000875af1158015610c7d573d6000803e3d6000fd5b505050506040513d601f19601f82011682018060405250810190610ca19190612d2d565b915091506000610cb18b8b611e33565b5090508073ffffffffffffffffffffffffffffffffffffffff168b73ffffffffffffffffffffffffffffffffffffffff1614610cee578183610cf1565b82825b809550819650505087851015610d3c576040517f08c379a0000000000000000000000000000000000000000000000000000000008152600401610d3390612ddf565b60405180910390fd5b86841015610d7f576040517f08c379a0000000000000000000000000000000000000000000000000000000008152600401610d7690612e71565b60405180910390fd5b505050965096945050505050565b6060610dba7f00000000000000000000000000000000000000000000000000000000000000008484611334565b905092915050565b60008060008342811015610e0b576040517f08c379a0000000000000000000000000000000000000000000000000000000008152600401610e0290612a33565b60405180910390fd5b610e198c8c8c8c8c8c611f5f565b80945081955050508b73ffffffffffffffffffffffffffffffffffffffff166323b872dd337f0000000000000000000000000000000000000000000000000000000000000000876040518463ffffffff1660e01b8152600401610e7e93929190612b77565b6020604051808303816000875af1158015610e9d573d6000803e3d6000fd5b505050506040513d601f19601f82011682018060405250810190610ec19190612be6565b508a73ffffffffffffffffffffffffffffffffffffffff166323b872dd337f0000000000000000000000000000000000000000000000000000000000000000866040518463ffffffff1660e01b8152600401610f1f93929190612b77565b6020604051808303816000875af1158015610f3e573d6000803e3d6000fd5b505050506040513d601f19601f82011682018060405250810190610f629190612be6565b507f000000000000000000000000000000000000000000000000000000000000000073ffffffffffffffffffffffffffffffffffffffff16636a627842876040518263ffffffff1660e01b8152600401610fbc9190612771565b6020604051808303816000875af1158015610fdb573d6000803e3d6000fd5b505050506040513d601f19601f82011682018060405250810190610fff9190612c28565b915050985098509895505050505050565b611018611bde565b600073ffffffffffffffffffffffffffffffffffffffff168173ffffffffffffffffffffffffffffffffffffffff1603611087576040517f08c379a000000000000000000000000000000000000000000000000000000000815260040161107e90612f03565b60405180910390fd5b61109081611c5c565b50565b60008084116110d7576040517f08c379a00000000000000000000000000000000000000000000000000000000081526004016110ce90612f95565b60405180910390fd5b6000831180156110e75750600082115b611126576040517f08c379a000000000000000000000000000000000000000000000000000000000815260040161111d90613027565b60405180910390fd5b600061113d6103e58661218090919063ffffffff16565b90506000611154848361218090919063ffffffff16565b9050600061117f836111716103e88961218090919063ffffffff16565b61219690919063ffffffff16565b9050808261118d9190613076565b93505050509392505050565b60606002825110156111e0576040517f08c379a00000000000000000000000000000000000000000000000000000000081526004016111d7906130f3565b60405180910390fd5b815167ffffffffffffffff8111156111fb576111fa612390565b5b6040519080825280602002602001820160405280156112295781602001602082028036833780820191505090505b50905082816001835161123c9190612a82565b8151811061124d5761124c612ab6565b5b6020026020010181815250506000600183516112699190612a82565b90505b600081111561132c576000806112c3878660018661128a9190612a82565b8151811061129b5761129a612ab6565b5b60200260200101518786815181106112b6576112b5612ab6565b5b60200260200101516121ac565b915091506112ec8484815181106112dd576112dc612ab6565b5b60200260200101518383611d20565b846001856112fa9190612a82565b8151811061130b5761130a612ab6565b5b6020026020010181815250505050808061132490613113565b91505061126c565b509392505050565b606060028251101561137b576040517f08c379a0000000000000000000000000000000000000000000000000000000008152600401611372906130f3565b60405180910390fd5b815167ffffffffffffffff81111561139657611395612390565b5b6040519080825280602002602001820160405280156113c45781602001602082028036833780820191505090505b50905082816000815181106113dc576113db612ab6565b5b60200260200101818152505060005b600183516113f99190612a82565b8110156114b75760008061144e8786858151811061141a57611419612ab6565b5b602002602001015187600187611430919061313c565b8151811061144157611440612ab6565b5b60200260200101516121ac565b9150915061147784848151811061146857611467612ab6565b5b60200260200101518383611093565b84600185611485919061313c565b8151811061149657611495612ab6565b5b602002602001018181525050505080806114af90613192565b9150506113eb565b509392505050565b60005b600183516114d09190612a82565b8110156116d8576000808483815181106114ed576114ec612ab6565b5b602002602001015185600185611503919061313c565b8151811061151457611513612ab6565b5b602002602001015191509150600061152c8383611e33565b50905060008760018661153f919061313c565b815181106115505761154f612ab6565b5b602002602001015190506000808373ffffffffffffffffffffffffffffffffffffffff168673ffffffffffffffffffffffffffffffffffffffff16146115985782600061159c565b6000835b91509150600060028a516115b09190612a82565b88106115bc57886115de565b7f00000000000000000000000000000000000000000000000000000000000000005b90507f000000000000000000000000000000000000000000000000000000000000000073ffffffffffffffffffffffffffffffffffffffff1663022c0d9f848484600067ffffffffffffffff81111561163a57611639612390565b5b6040519080825280601f01601f19166020018201604052801561166c5781602001600182028036833780820191505090505b506040518563ffffffff1660e01b815260040161168c9493929190613262565b600060405180830381600087803b1580156116a657600080fd5b505af11580156116ba573d6000803e3d6000fd5b505050505050505050505080806116d090613192565b9150506114c2565b50505050565b6000808573ffffffffffffffffffffffffffffffffffffffff166323b872dd86868660405160240161171293929190612b77565b6040516020818303038152906040529060e01b6020820180517bffffffffffffffffffffffffffffffffffffffffffffffffffffffff838183161783525050505060405161176091906132ea565b6000604051808303816000865af19150503d806000811461179d576040519150601f19603f3d011682016040523d82523d6000602084013e6117a2565b606091505b50915091508180156117d057506000815114806117cf5750808060200190518101906117ce9190612be6565b5b5b61180f576040517f08c379a000000000000000000000000000000000000000000000000000000000815260040161180690613373565b60405180910390fd5b505050505050565b60005b600183516118289190612a82565b811015611bc35760008084838151811061184557611844612ab6565b5b60200260200101518560018561185b919061313c565b8151811061186c5761186b612ab6565b5b60200260200101519150915060006118848383611e33565b5090506000806000807f000000000000000000000000000000000000000000000000000000000000000073ffffffffffffffffffffffffffffffffffffffff16630902f1ac6040518163ffffffff1660e01b8152600401606060405180830381865afa1580156118f8573d6000803e3d6000fd5b505050506040513d601f19601f8201168201806040525081019061191c9190613415565b506dffffffffffffffffffffffffffff1691506dffffffffffffffffffffffffffff1691506000808673ffffffffffffffffffffffffffffffffffffffff168973ffffffffffffffffffffffffffffffffffffffff161461197e578284611981565b83835b91509150611a31828a73ffffffffffffffffffffffffffffffffffffffff166370a082317f00000000000000000000000000000000000000000000000000000000000000006040518263ffffffff1660e01b81526004016119e29190612771565b602060405180830381865afa1580156119ff573d6000803e3d6000fd5b505050506040513d601f19601f82011682018060405250810190611a239190612c28565b611bc890919063ffffffff16565b9550611a3e868383611093565b9450505050506000808473ffffffffffffffffffffffffffffffffffffffff168773ffffffffffffffffffffffffffffffffffffffff1614611a8257826000611a86565b6000835b91509150600060028b51611a9a9190612a82565b8910611aa65789611ac8565b7f00000000000000000000000000000000000000000000000000000000000000005b90507f000000000000000000000000000000000000000000000000000000000000000073ffffffffffffffffffffffffffffffffffffffff1663022c0d9f848484600067ffffffffffffffff811115611b2457611b23612390565b5b6040519080825280601f01601f191660200182016040528015611b565781602001600182028036833780820191505090505b506040518563ffffffff1660e01b8152600401611b769493929190613262565b600060405180830381600087803b158015611b9057600080fd5b505af1158015611ba4573d6000803e3d6000fd5b5050505050505050505050508080611bbb90613192565b91505061181a565b505050565b60008183611bd69190612a82565b905092915050565b611be66122ab565b73ffffffffffffffffffffffffffffffffffffffff16611c04610a6b565b73ffffffffffffffffffffffffffffffffffffffff1614611c5a576040517f08c379a0000000000000000000000000000000000000000000000000000000008152600401611c51906134b4565b60405180910390fd5b565b60008060009054906101000a900473ffffffffffffffffffffffffffffffffffffffff169050816000806101000a81548173ffffffffffffffffffffffffffffffffffffffff021916908373ffffffffffffffffffffffffffffffffffffffff1602179055508173ffffffffffffffffffffffffffffffffffffffff168173ffffffffffffffffffffffffffffffffffffffff167f8be0079c531659141344cd1fd0a4f28419497f9722a3daafe3b4186f6b6457e060405160405180910390a35050565b6000808411611d64576040517f08c379a0000000000000000000000000000000000000000000000000000000008152600401611d5b90613546565b60405180910390fd5b600083118015611d745750600082115b611db3576040517f08c379a0000000000000000000000000000000000000000000000000000000008152600401611daa90613027565b60405180910390fd5b6000611ddc6103e8611dce878761218090919063ffffffff16565b61218090919063ffffffff16565b90506000611e076103e5611df98887611bc890919063ffffffff16565b61218090919063ffffffff16565b9050611e2860018284611e1a9190613076565b61219690919063ffffffff16565b925050509392505050565b6000808273ffffffffffffffffffffffffffffffffffffffff168473ffffffffffffffffffffffffffffffffffffffff1603611ea4576040517f08c379a0000000000000000000000000000000000000000000000000000000008152600401611e9b906135d8565b60405180910390fd5b8273ffffffffffffffffffffffffffffffffffffffff168473ffffffffffffffffffffffffffffffffffffffff1610611ede578284611ee1565b83835b8092508193505050600073ffffffffffffffffffffffffffffffffffffffff168273ffffffffffffffffffffffffffffffffffffffff1603611f58576040517f08c379a0000000000000000000000000000000000000000000000000000000008152600401611f4f90613644565b60405180910390fd5b9250929050565b600080600080611f907f00000000000000000000000000000000000000000000000000000000000000008b8b6121ac565b91509150600082148015611fa45750600081145b15611fb85787878094508195505050612173565b600073__UniswapV2Library______________________63ad615dec8a85856040518463ffffffff1660e01b8152600401611ff593929190612cf6565b602060405180830381865af4158015612012573d6000803e3d6000fd5b505050506040513d601f19601f820116820180604052508101906120369190612c28565b90508781116120915785811015612082576040517f08c379a000000000000000000000000000000000000000000000000000000000815260040161207990612e71565b60405180910390fd5b88818095508196505050612171565b600073__UniswapV2Library______________________63ad615dec8a85876040518463ffffffff1660e01b81526004016120ce93929190612cf6565b602060405180830381865af41580156120eb573d6000803e3d6000fd5b505050506040513d601f19601f8201168201806040525081019061210f9190612c28565b90508981111561212257612121613664565b5b87811015612165576040517f08c379a000000000000000000000000000000000000000000000000000000000815260040161215c90612ddf565b60405180910390fd5b80898096508197505050505b505b5050965096945050505050565b6000818361218e9190613693565b905092915050565b600081836121a4919061313c565b905092915050565b600080600085905060006121c08686611e33565b5090506000808373ffffffffffffffffffffffffffffffffffffffff16630902f1ac6040518163ffffffff1660e01b8152600401606060405180830381865afa158015612211573d6000803e3d6000fd5b505050506040513d601f19601f820116820180604052508101906122359190613415565b506dffffffffffffffffffffffffffff1691506dffffffffffffffffffffffffffff1691508273ffffffffffffffffffffffffffffffffffffffff168873ffffffffffffffffffffffffffffffffffffffff1614612294578082612297565b81815b809650819750505050505050935093915050565b600033905090565b6000604051905090565b600080fd5b600080fd5b6000819050919050565b6122da816122c7565b81146122e557600080fd5b50565b6000813590506122f7816122d1565b92915050565b600080600060608486031215612316576123156122bd565b5b6000612324868287016122e8565b9350506020612335868287016122e8565b9250506040612346868287016122e8565b9150509250925092565b612359816122c7565b82525050565b60006020820190506123746000830184612350565b92915050565b600080fd5b6000601f19601f8301169050919050565b7f4e487b7100000000000000000000000000000000000000000000000000000000600052604160045260246000fd5b6123c88261237f565b810181811067ffffffffffffffff821117156123e7576123e6612390565b5b80604052505050565b60006123fa6122b3565b905061240682826123bf565b919050565b600067ffffffffffffffff82111561242657612425612390565b5b602082029050602081019050919050565b600080fd5b600073ffffffffffffffffffffffffffffffffffffffff82169050919050565b60006124678261243c565b9050919050565b6124778161245c565b811461248257600080fd5b50565b6000813590506124948161246e565b92915050565b60006124ad6124a88461240b565b6123f0565b905080838252602082019050602084028301858111156124d0576124cf612437565b5b835b818110156124f957806124e58882612485565b8452602084019350506020810190506124d2565b5050509392505050565b600082601f8301126125185761251761237a565b5b813561252884826020860161249a565b91505092915050565b60008060408385031215612548576125476122bd565b5b6000612556858286016122e8565b925050602083013567ffffffffffffffff811115612577576125766122c2565b5b61258385828601612503565b9150509250929050565b600081519050919050565b600082825260208201905092915050565b6000819050602082019050919050565b6125c2816122c7565b82525050565b60006125d483836125b9565b60208301905092915050565b6000602082019050919050565b60006125f88261258d565b6126028185612598565b935061260d836125a9565b8060005b8381101561263e57815161262588826125c8565b9750612630836125e0565b925050600181019050612611565b5085935050505092915050565b6000602082019050818103600083015261266581846125ed565b905092915050565b600080fd5b60008083601f8401126126885761268761237a565b5b8235905067ffffffffffffffff8111156126a5576126a461266d565b5b6020830191508360208202830111156126c1576126c0612437565b5b9250929050565b60008060008060008060a087890312156126e5576126e46122bd565b5b60006126f389828a016122e8565b965050602061270489828a016122e8565b955050604087013567ffffffffffffffff811115612725576127246122c2565b5b61273189828a01612672565b9450945050606061274489828a01612485565b925050608061275589828a016122e8565b9150509295509295509295565b61276b8161245c565b82525050565b60006020820190506127866000830184612762565b92915050565b6000819050919050565b60006127b16127ac6127a78461243c565b61278c565b61243c565b9050919050565b60006127c382612796565b9050919050565b60006127d5826127b8565b9050919050565b6127e5816127ca565b82525050565b600060208201905061280060008301846127dc565b92915050565b60008060008060008060c08789031215612823576128226122bd565b5b600061283189828a01612485565b965050602061284289828a01612485565b955050604061285389828a016122e8565b945050606061286489828a016122e8565b935050608061287589828a016122e8565b92505060a061288689828a01612485565b9150509295509295509295565b60006040820190506128a86000830185612350565b6128b56020830184612350565b9392505050565b600080600080600080600080610100898b0312156128dd576128dc6122bd565b5b60006128eb8b828c01612485565b98505060206128fc8b828c01612485565b975050604061290d8b828c016122e8565b965050606061291e8b828c016122e8565b955050608061292f8b828c016122e8565b94505060a06129408b828c016122e8565b93505060c06129518b828c01612485565b92505060e06129628b828c016122e8565b9150509295985092959890939650565b60006060820190506129876000830186612350565b6129946020830185612350565b6129a16040830184612350565b949350505050565b6000602082840312156129bf576129be6122bd565b5b60006129cd84828501612485565b91505092915050565b600082825260208201905092915050565b7f556e69737761705632526f757465723a20455850495245440000000000000000600082015250565b6000612a1d6018836129d6565b9150612a28826129e7565b602082019050919050565b60006020820190508181036000830152612a4c81612a10565b9050919050565b7f4e487b7100000000000000000000000000000000000000000000000000000000600052601160045260246000fd5b6000612a8d826122c7565b9150612a98836122c7565b925082821015612aab57612aaa612a53565b5b828203905092915050565b7f4e487b7100000000000000000000000000000000000000000000000000000000600052603260045260246000fd5b7f556e69737761705632526f757465723a20494e53554646494349454e545f4f5560008201527f545055545f414d4f554e54000000000000000000000000000000000000000000602082015250565b6000612b41602b836129d6565b9150612b4c82612ae5565b604082019050919050565b60006020820190508181036000830152612b7081612b34565b9050919050565b6000606082019050612b8c6000830186612762565b612b996020830185612762565b612ba66040830184612350565b949350505050565b60008115159050919050565b612bc381612bae565b8114612bce57600080fd5b50565b600081519050612be081612bba565b92915050565b600060208284031215612bfc57612bfb6122bd565b5b6000612c0a84828501612bd1565b91505092915050565b600081519050612c22816122d1565b92915050565b600060208284031215612c3e57612c3d6122bd565b5b6000612c4c84828501612c13565b91505092915050565b7f556e69737761705632526f757465723a204558434553534956455f494e50555460008201527f5f414d4f554e5400000000000000000000000000000000000000000000000000602082015250565b6000612cb16027836129d6565b9150612cbc82612c55565b604082019050919050565b60006020820190508181036000830152612ce081612ca4565b9050919050565b612cf0816122c7565b82525050565b6000606082019050612d0b6000830186612ce7565b612d186020830185612ce7565b612d256040830184612ce7565b949350505050565b60008060408385031215612d4457612d436122bd565b5b6000612d5285828601612c13565b9250506020612d6385828601612c13565b9150509250929050565b7f556e69737761705632526f757465723a20494e53554646494349454e545f415f60008201527f414d4f554e540000000000000000000000000000000000000000000000000000602082015250565b6000612dc96026836129d6565b9150612dd482612d6d565b604082019050919050565b60006020820190508181036000830152612df881612dbc565b9050919050565b7f556e69737761705632526f757465723a20494e53554646494349454e545f425f60008201527f414d4f554e540000000000000000000000000000000000000000000000000000602082015250565b6000612e5b6026836129d6565b9150612e6682612dff565b604082019050919050565b60006020820190508181036000830152612e8a81612e4e565b9050919050565b7f4f776e61626c653a206e6577206f776e657220697320746865207a65726f206160008201527f6464726573730000000000000000000000000000000000000000000000000000602082015250565b6000612eed6026836129d6565b9150612ef882612e91565b604082019050919050565b60006020820190508181036000830152612f1c81612ee0565b9050919050565b7f556e697377617056324c6962726172793a20494e53554646494349454e545f4960008201527f4e5055545f414d4f554e54000000000000000000000000000000000000000000602082015250565b6000612f7f602b836129d6565b9150612f8a82612f23565b604082019050919050565b60006020820190508181036000830152612fae81612f72565b9050919050565b7f556e697377617056324c6962726172793a20494e53554646494349454e545f4c60008201527f4951554944495459000000000000000000000000000000000000000000000000602082015250565b60006130116028836129d6565b915061301c82612fb5565b604082019050919050565b6000602082019050818103600083015261304081613004565b9050919050565b7f4e487b7100000000000000000000000000000000000000000000000000000000600052601260045260246000fd5b6000613081826122c7565b915061308c836122c7565b92508261309c5761309b613047565b5b828204905092915050565b7f556e697377617056324c6962726172793a20494e56414c49445f504154480000600082015250565b60006130dd601e836129d6565b91506130e8826130a7565b602082019050919050565b6000602082019050818103600083015261310c816130d0565b9050919050565b600061311e826122c7565b91506000820361313157613130612a53565b5b600182039050919050565b6000613147826122c7565b9150613152836122c7565b9250827fffffffffffffffffffffffffffffffffffffffffffffffffffffffffffffffff0382111561318757613186612a53565b5b828201905092915050565b600061319d826122c7565b91507fffffffffffffffffffffffffffffffffffffffffffffffffffffffffffffffff82036131cf576131ce612a53565b5b600182019050919050565b600081519050919050565b600082825260208201905092915050565b60005b838110156132145780820151818401526020810190506131f9565b83811115613223576000848401525b50505050565b6000613234826131da565b61323e81856131e5565b935061324e8185602086016131f6565b6132578161237f565b840191505092915050565b60006080820190506132776000830187612350565b6132846020830186612350565b6132916040830185612762565b81810360608301526132a38184613229565b905095945050505050565b600081905092915050565b60006132c4826131da565b6132ce81856132ae565b93506132de8185602086016131f6565b80840191505092915050565b60006132f682846132b9565b915081905092915050565b7f5472616e7366657248656c7065723a3a7472616e7366657246726f6d3a20747260008201527f616e7366657246726f6d206661696c6564000000000000000000000000000000602082015250565b600061335d6031836129d6565b915061336882613301565b604082019050919050565b6000602082019050818103600083015261338c81613350565b9050919050565b60006dffffffffffffffffffffffffffff82169050919050565b6133b681613393565b81146133c157600080fd5b50565b6000815190506133d3816133ad565b92915050565b600063ffffffff82169050919050565b6133f2816133d9565b81146133fd57600080fd5b50565b60008151905061340f816133e9565b92915050565b60008060006060848603121561342e5761342d6122bd565b5b600061343c868287016133c4565b935050602061344d868287016133c4565b925050604061345e86828701613400565b9150509250925092565b7f4f776e61626c653a2063616c6c6572206973206e6f7420746865206f776e6572600082015250565b600061349e6020836129d6565b91506134a982613468565b602082019050919050565b600060208201905081810360008301526134cd81613491565b9050919050565b7f556e697377617056324c6962726172793a20494e53554646494349454e545f4f60008201527f55545055545f414d4f554e540000000000000000000000000000000000000000602082015250565b6000613530602c836129d6565b915061353b826134d4565b604082019050919050565b6000602082019050818103600083015261355f81613523565b9050919050565b7f556e697377617056324c6962726172793a204944454e544943414c5f4144445260008201527f4553534553000000000000000000000000000000000000000000000000000000602082015250565b60006135c26025836129d6565b91506135cd82613566565b604082019050919050565b600060208201905081810360008301526135f1816135b5565b9050919050565b7f556e697377617056324c6962726172793a205a45524f5f414444524553530000600082015250565b600061362e601e836129d6565b9150613639826135f8565b602082019050919050565b6000602082019050818103600083015261365d81613621565b9050919050565b7f4e487b7100000000000000000000000000000000000000000000000000000000600052600160045260246000fd5b600061369e826122c7565b91506136a9836122c7565b9250817fffffffffffffffffffffffffffffffffffffffffffffffffffffffffffffffff04831182151516156136e2576136e1612a53565b5b82820290509291505056fea26469706673582212207a17db56d13350d457f0e0c73a82232994ab4cde6559788e70d14777c482b23b64736f6c634300080f0033",
  "immutableReferences": {
    "6344": [
      {
        "length": 32,
        "start": 829
      },
      {
        "length": 32,
        "start": 950
      },
      {
        "length": 32,
        "start": 1232
      },
      {
        "length": 32,
        "start": 1591
      },
      {
        "length": 32,
        "start": 2270
      },
      {
        "length": 32,
        "start": 2516
      },
      {
        "length": 32,
        "start": 2710
      },
      {
        "length": 32,
        "start": 2884
      },
      {
        "length": 32,
        "start": 2945
      },
      {
        "length": 32,
        "start": 3080
      },
      {
        "length": 32,
        "start": 3476
      },
      {
        "length": 32,
        "start": 3648
      },
      {
        "length": 32,
        "start": 3809
      },
      {
        "length": 32,
        "start": 3941
      },
      {
        "length": 32,
        "start": 5566
      },
      {
        "length": 32,
        "start": 5602
      },
      {
        "length": 32,
        "start": 6287
      },
      {
        "length": 32,
        "start": 6567
      },
      {
        "length": 32,
        "start": 6824
      },
      {
        "length": 32,
        "start": 6860
      },
      {
        "length": 32,
        "start": 8042
      }
    ]
  },
  "source": "//SPDX-License-Identifier: MIT\npragma solidity ^0.8.0;\n\nimport \"@uniswap/v2-periphery/contracts/interfaces/IUniswapV2Router02.sol\";\nimport \"@uniswap/v2-periphery/contracts/libraries/UniswapV2Library.sol\";\nimport \"@uniswap/v2-core/contracts/interfaces/IUniswapV2Pair.sol\";\n// import \"@uniswap/v2-core/contracts/libraries/SafeMath.sol\";\nimport \"@uniswap/lib/contracts/libraries/TransferHelper.sol\";\nimport \"@openzeppelin/contracts/token/ERC20/ERC20.sol\";\nimport \"@openzeppelin/contracts/access/Ownable.sol\";\n\ncontract Swap is Ownable {\n    using SafeMath for uint256;\n    IUniswapV2Pair public immutable pair;\n    modifier ensure(uint256 deadline) {\n        require(deadline >= block.timestamp, \"UniswapV2Router: EXPIRED\");\n        _;\n    }\n\n    constructor(address _pair) {\n        pair = IUniswapV2Pair(_pair);\n    }\n\n    // **** ADD LIQUIDITY ****\n    function _addLiquidity(\n        address tokenA,\n        address tokenB,\n        uint256 amountADesired,\n        uint256 amountBDesired,\n        uint256 amountAMin,\n        uint256 amountBMin\n    ) internal view returns (uint256 amountA, uint256 amountB) {\n        (uint256 reserveA, uint256 reserveB) = UniswapV2Library.getReserves(\n            address(pair),\n            tokenA,\n            tokenB\n        );\n        if (reserveA == 0 && reserveB == 0) {\n            (amountA, amountB) = (amountADesired, amountBDesired);\n        } else {\n            uint256 amountBOptimal = UniswapV2Library.quote(\n                amountADesired,\n                reserveA,\n                reserveB\n            );\n            if (amountBOptimal <= amountBDesired) {\n                require(\n                    amountBOptimal >= amountBMin,\n                    \"UniswapV2Router: INSUFFICIENT_B_AMOUNT\"\n                );\n                (amountA, amountB) = (amountADesired, amountBOptimal);\n            } else {\n                uint256 amountAOptimal = UniswapV2Library.quote(\n                    amountBDesired,\n                    reserveB,\n                    reserveA\n                );\n                assert(amountAOptimal <= amountADesired);\n                require(\n                    amountAOptimal >= amountAMin,\n                    \"UniswapV2Router: INSUFFICIENT_A_AMOUNT\"\n                );\n                (amountA, amountB) = (amountAOptimal, amountBDesired);\n            }\n        }\n    }\n\n    function addLiquidity(\n        address tokenA,\n        address tokenB,\n        uint256 amountADesired,\n        uint256 amountBDesired,\n        uint256 amountAMin,\n        uint256 amountBMin,\n        address to,\n        uint256 deadlne\n    )\n        public\n        ensure(deadlne)\n        returns (\n            uint256 amountA,\n            uint256 amountB,\n            uint256 liquidity\n        )\n    {\n        (amountA, amountB) = _addLiquidity(\n            tokenA,\n            tokenB,\n            amountADesired,\n            amountBDesired,\n            amountAMin,\n            amountBMin\n        );\n        IERC20(tokenA).transferFrom(msg.sender, address(pair), amountA);\n        IERC20(tokenB).transferFrom(msg.sender, address(pair), amountB);\n        liquidity = IUniswapV2Pair(pair).mint(to);\n    }\n\n    // swap\n\n    function removeLiquidity(\n        address tokenA,\n        address tokenB,\n        uint256 liquidity,\n        uint256 amountAMin,\n        uint256 amountBMin,\n        address to\n    ) public returns (uint256 amountA, uint256 amountB) {\n        pair.transferFrom(msg.sender, address(pair), liquidity); // send liquidity to pair\n        (uint256 amount0, uint256 amount1) = pair.burn(to);\n        (address token0, ) = UniswapV2Library.sortTokens(tokenA, tokenB);\n        (amountA, amountB) = tokenA == token0\n            ? (amount0, amount1)\n            : (amount1, amount0);\n        require(\n            amountA >= amountAMin,\n            \"UniswapV2Router: INSUFFICIENT_A_AMOUNT\"\n        );\n        require(\n            amountB >= amountBMin,\n            \"UniswapV2Router: INSUFFICIENT_B_AMOUNT\"\n        );\n    }\n\n    // **** REMOVE LIQUIDITY (supporting fee-on-transfer tokens) ****\n\n    // **** SWAP ****\n    // requires the initial amount to have already been sent to the first pair\n    function _swap(\n        uint256[] memory amounts,\n        address[] memory path,\n        address _to\n    ) internal {\n        for (uint256 i; i < path.length - 1; i++) {\n            (address input, address output) = (path[i], path[i + 1]);\n            (address token0, ) = UniswapV2Library.sortTokens(input, output);\n            uint256 amountOut = amounts[i + 1];\n            (uint256 amount0Out, uint256 amount1Out) = input == token0\n                ? (uint256(0), amountOut)\n                : (amountOut, uint256(0));\n            address to = i < path.length - 2 ? address(pair) : _to;\n            IUniswapV2Pair(pair).swap(amount0Out, amount1Out, to, new bytes(0));\n        }\n    }\n\n    function swapExactTokensForTokens(\n        uint256 amountIn,\n        uint256 amountOutMin,\n        address[] calldata path,\n        address to,\n        uint256 deadline\n    ) external ensure(deadline) returns (uint256[] memory amounts) {\n        amounts = UniswapV2Library.getAmountsOut(address(pair), amountIn, path);\n        require(\n            amounts[amounts.length - 1] >= amountOutMin,\n            \"UniswapV2Router: INSUFFICIENT_OUTPUT_AMOUNT\"\n        );\n        IERC20(path[0]).transferFrom(msg.sender, address(pair), amounts[0]);\n        _swap(amounts, path, to);\n    }\n\n    function swapTokensForExactTokens(\n        uint256 amountOut,\n        uint256 amountInMax,\n        address[] calldata path,\n        address to,\n        uint256 deadline\n    ) external ensure(deadline) returns (uint256[] memory amounts) {\n        amounts = UniswapV2Library.getAmountsIn(address(pair), amountOut, path);\n        require(\n            amounts[0] <= amountInMax,\n            \"UniswapV2Router: EXCESSIVE_INPUT_AMOUNT\"\n        );\n        TransferHelper.safeTransferFrom(\n            path[0],\n            msg.sender,\n            address(pair),\n            amounts[0]\n        );\n        _swap(amounts, path, to);\n    }\n\n    // **** SWAP (supporting fee-on-transfer tokens) ****\n    // requires the initial amount to have already been sent to the first pair\n    function _swapSupportingFeeOnTransferTokens(\n        address[] memory path,\n        address _to\n    ) internal {\n        for (uint256 i; i < path.length - 1; i++) {\n            (address input, address output) = (path[i], path[i + 1]);\n            (address token0, ) = UniswapV2Library.sortTokens(input, output);\n\n            uint256 amountInput;\n            uint256 amountOutput;\n            {\n                // scope to avoid stack too deep errors\n                (uint256 reserve0, uint256 reserve1, ) = pair.getReserves();\n                (uint256 reserveInput, uint256 reserveOutput) = input == token0\n                    ? (reserve0, reserve1)\n                    : (reserve1, reserve0);\n                amountInput = IERC20(input).balanceOf(address(pair)).sub(\n                    reserveInput\n                );\n                amountOutput = UniswapV2Library.getAmountOut(\n                    amountInput,\n                    reserveInput,\n                    reserveOutput\n                );\n            }\n            (uint256 amount0Out, uint256 amount1Out) = input == token0\n                ? (uint256(0), amountOutput)\n                : (amountOutput, uint256(0));\n            address to = i < path.length - 2 ? address(pair) : _to;\n            pair.swap(amount0Out, amount1Out, to, new bytes(0));\n        }\n    }\n\n    function swapExactTokensForTokensSupportingFeeOnTransferTokens(\n        uint256 amountIn,\n        uint256 amountOutMin,\n        address[] calldata path,\n        address to,\n        uint256 deadline\n    ) external ensure(deadline) {\n        TransferHelper.safeTransferFrom(\n            path[0],\n            msg.sender,\n            address(pair),\n            amountIn\n        );\n        uint256 balanceBefore = IERC20(path[path.length - 1]).balanceOf(to);\n        _swapSupportingFeeOnTransferTokens(path, to);\n        require(\n            IERC20(path[path.length - 1]).balanceOf(to).sub(balanceBefore) >=\n                amountOutMin,\n            \"UniswapV2Router: INSUFFICIENT_OUTPUT_AMOUNT\"\n        );\n    }\n\n    // **** LIBRARY FUNCTIONS ****\n    function quote(\n        uint256 amountA,\n        uint256 reserveA,\n        uint256 reserveB\n    ) public pure returns (uint256 amountB) {\n        return UniswapV2Library.quote(amountA, reserveA, reserveB);\n    }\n\n    function getAmountOut(\n        uint256 amountIn,\n        uint256 reserveIn,\n        uint256 reserveOut\n    ) public pure returns (uint256 amountOut) {\n        return UniswapV2Library.getAmountOut(amountIn, reserveIn, reserveOut);\n    }\n\n    function getAmountIn(\n        uint256 amountOut,\n        uint256 reserveIn,\n        uint256 reserveOut\n    ) public pure returns (uint256 amountIn) {\n        return UniswapV2Library.getAmountIn(amountOut, reserveIn, reserveOut);\n    }\n\n    function getAmountsOut(uint256 amountIn, address[] memory path)\n        public\n        view\n        returns (uint256[] memory amounts)\n    {\n        return UniswapV2Library.getAmountsOut(address(pair), amountIn, path);\n    }\n\n    function getAmountsIn(uint256 amountOut, address[] memory path)\n        public\n        view\n        returns (uint256[] memory amounts)\n    {\n        return UniswapV2Library.getAmountsIn(address(pair), amountOut, path);\n    }\n}\n",
  "sourcePath": "F:\\EXACT PROJECT\\swapFinal\\contracts\\Swap.sol",
  "compiler": {
    "name": "solc",
    "version": "0.8.15+commit.e14f2714.Emscripten.clang"
  },
  "schemaVersion": "3.4.7",
  "updatedAt": "2022-07-21T05:30:38.070Z",
  "networkType": "ethereum",
  "devdoc": {
    "kind": "dev",
    "methods": {
      "owner()": {
        "details": "Returns the address of the current owner."
      },
      "renounceOwnership()": {
        "details": "Leaves the contract without owner. It will not be possible to call `onlyOwner` functions anymore. Can only be called by the current owner. NOTE: Renouncing ownership will leave the contract without an owner, thereby removing any functionality that is only available to the owner."
      },
      "transferOwnership(address)": {
        "details": "Transfers ownership of the contract to a new account (`newOwner`). Can only be called by the current owner."
      }
    },
    "version": 1
  },
  "userdoc": {
    "kind": "user",
    "methods": {},
    "version": 1
  }
}