{
  "contractName": "Swap",
  "abi": [
    {
      "inputs": [
        {
          "internalType": "address",
          "name": "_pair",
          "type": "address"
        }
      ],
      "stateMutability": "nonpayable",
      "type": "constructor"
    },
    {
      "inputs": [],
      "name": "pair",
      "outputs": [
        {
          "internalType": "contract IUniswapV2Pair",
          "name": "",
          "type": "address"
        }
      ],
      "stateMutability": "view",
      "type": "function"
    },
    {
      "inputs": [
        {
          "internalType": "address",
          "name": "tokenA",
          "type": "address"
        },
        {
          "internalType": "address",
          "name": "tokenB",
          "type": "address"
        },
        {
          "internalType": "uint256",
          "name": "amountADesired",
          "type": "uint256"
        },
        {
          "internalType": "uint256",
          "name": "amountBDesired",
          "type": "uint256"
        },
        {
          "internalType": "uint256",
          "name": "amountAMin",
          "type": "uint256"
        },
        {
          "internalType": "uint256",
          "name": "amountBMin",
          "type": "uint256"
        },
        {
          "internalType": "address",
          "name": "to",
          "type": "address"
        },
        {
          "internalType": "uint256",
          "name": "deadlne",
          "type": "uint256"
        }
      ],
      "name": "addLiquidity",
      "outputs": [
        {
          "internalType": "uint256",
          "name": "amountA",
          "type": "uint256"
        },
        {
          "internalType": "uint256",
          "name": "amountB",
          "type": "uint256"
        },
        {
          "internalType": "uint256",
          "name": "liquidity",
          "type": "uint256"
        }
      ],
      "stateMutability": "nonpayable",
      "type": "function"
    },
    {
      "inputs": [
        {
          "internalType": "address",
          "name": "tokenA",
          "type": "address"
        },
        {
          "internalType": "address",
          "name": "tokenB",
          "type": "address"
        },
        {
          "internalType": "uint256",
          "name": "liquidity",
          "type": "uint256"
        },
        {
          "internalType": "uint256",
          "name": "amountAMin",
          "type": "uint256"
        },
        {
          "internalType": "uint256",
          "name": "amountBMin",
          "type": "uint256"
        },
        {
          "internalType": "address",
          "name": "to",
          "type": "address"
        }
      ],
      "name": "removeLiquidity",
      "outputs": [
        {
          "internalType": "uint256",
          "name": "amountA",
          "type": "uint256"
        },
        {
          "internalType": "uint256",
          "name": "amountB",
          "type": "uint256"
        }
      ],
      "stateMutability": "nonpayable",
      "type": "function"
    },
    {
      "inputs": [
        {
          "internalType": "uint256",
          "name": "amountIn",
          "type": "uint256"
        },
        {
          "internalType": "uint256",
          "name": "amountOutMin",
          "type": "uint256"
        },
        {
          "internalType": "address[]",
          "name": "path",
          "type": "address[]"
        },
        {
          "internalType": "address",
          "name": "to",
          "type": "address"
        },
        {
          "internalType": "uint256",
          "name": "deadline",
          "type": "uint256"
        }
      ],
      "name": "swapExactTokensForTokens",
      "outputs": [
        {
          "internalType": "uint256[]",
          "name": "amounts",
          "type": "uint256[]"
        }
      ],
      "stateMutability": "nonpayable",
      "type": "function"
    },
    {
      "inputs": [
        {
          "internalType": "uint256",
          "name": "amountOut",
          "type": "uint256"
        },
        {
          "internalType": "uint256",
          "name": "amountInMax",
          "type": "uint256"
        },
        {
          "internalType": "address[]",
          "name": "path",
          "type": "address[]"
        },
        {
          "internalType": "address",
          "name": "to",
          "type": "address"
        },
        {
          "internalType": "uint256",
          "name": "deadline",
          "type": "uint256"
        }
      ],
      "name": "swapTokensForExactTokens",
      "outputs": [
        {
          "internalType": "uint256[]",
          "name": "amounts",
          "type": "uint256[]"
        }
      ],
      "stateMutability": "nonpayable",
      "type": "function"
    },
    {
      "inputs": [
        {
          "internalType": "uint256",
          "name": "amountIn",
          "type": "uint256"
        },
        {
          "internalType": "uint256",
          "name": "amountOutMin",
          "type": "uint256"
        },
        {
          "internalType": "address[]",
          "name": "path",
          "type": "address[]"
        },
        {
          "internalType": "address",
          "name": "to",
          "type": "address"
        },
        {
          "internalType": "uint256",
          "name": "deadline",
          "type": "uint256"
        }
      ],
      "name": "swapExactTokensForTokensSupportingFeeOnTransferTokens",
      "outputs": [],
      "stateMutability": "nonpayable",
      "type": "function"
    },
    {
      "inputs": [
        {
          "internalType": "uint256",
          "name": "amountA",
          "type": "uint256"
        },
        {
          "internalType": "uint256",
          "name": "reserveA",
          "type": "uint256"
        },
        {
          "internalType": "uint256",
          "name": "reserveB",
          "type": "uint256"
        }
      ],
      "name": "quote",
      "outputs": [
        {
          "internalType": "uint256",
          "name": "amountB",
          "type": "uint256"
        }
      ],
      "stateMutability": "pure",
      "type": "function"
    },
    {
      "inputs": [
        {
          "internalType": "address[]",
          "name": "path",
          "type": "address[]"
        }
      ],
      "name": "getPrice",
      "outputs": [
        {
          "internalType": "uint256",
          "name": "",
          "type": "uint256"
        }
      ],
      "stateMutability": "view",
      "type": "function"
    },
    {
      "inputs": [
        {
          "internalType": "uint256",
          "name": "amountIn",
          "type": "uint256"
        },
        {
          "internalType": "uint256",
          "name": "reserveIn",
          "type": "uint256"
        },
        {
          "internalType": "uint256",
          "name": "reserveOut",
          "type": "uint256"
        }
      ],
      "name": "getAmountOut",
      "outputs": [
        {
          "internalType": "uint256",
          "name": "amountOut",
          "type": "uint256"
        }
      ],
      "stateMutability": "pure",
      "type": "function"
    },
    {
      "inputs": [
        {
          "internalType": "uint256",
          "name": "amountOut",
          "type": "uint256"
        },
        {
          "internalType": "uint256",
          "name": "reserveIn",
          "type": "uint256"
        },
        {
          "internalType": "uint256",
          "name": "reserveOut",
          "type": "uint256"
        }
      ],
      "name": "getAmountIn",
      "outputs": [
        {
          "internalType": "uint256",
          "name": "amountIn",
          "type": "uint256"
        }
      ],
      "stateMutability": "pure",
      "type": "function"
    },
    {
      "inputs": [
        {
          "internalType": "uint256",
          "name": "amountIn_",
          "type": "uint256"
        },
        {
          "internalType": "address[]",
          "name": "path",
          "type": "address[]"
        }
      ],
      "name": "tokenAPerTokenB",
      "outputs": [
        {
          "internalType": "uint256",
          "name": "price",
          "type": "uint256"
        }
      ],
      "stateMutability": "view",
      "type": "function"
    },
    {
      "inputs": [
        {
          "internalType": "uint256",
          "name": "amountIn_",
          "type": "uint256"
        },
        {
          "internalType": "address[]",
          "name": "path",
          "type": "address[]"
        }
      ],
      "name": "priceImpact",
      "outputs": [
        {
          "internalType": "uint256",
          "name": "priceImpact_",
          "type": "uint256"
        }
      ],
      "stateMutability": "view",
      "type": "function"
    },
    {
      "inputs": [
        {
          "internalType": "uint256",
          "name": "amountIn",
          "type": "uint256"
        },
        {
          "internalType": "address[]",
          "name": "path",
          "type": "address[]"
        }
      ],
      "name": "getAmountsOut",
      "outputs": [
        {
          "internalType": "uint256[]",
          "name": "amounts",
          "type": "uint256[]"
        }
      ],
      "stateMutability": "view",
      "type": "function"
    },
    {
      "inputs": [
        {
          "internalType": "uint256",
          "name": "amountOut",
          "type": "uint256"
        },
        {
          "internalType": "address[]",
          "name": "path",
          "type": "address[]"
        }
      ],
      "name": "getAmountsIn",
      "outputs": [
        {
          "internalType": "uint256[]",
          "name": "amounts",
          "type": "uint256[]"
        }
      ],
      "stateMutability": "view",
      "type": "function"
    }
  ],
  "bytecode": "0x60a06040523480156200001157600080fd5b5060405162003df438038062003df48339818101604052810190620000379190620000dc565b8073ffffffffffffffffffffffffffffffffffffffff1660808173ffffffffffffffffffffffffffffffffffffffff1681525050506200010e565b600080fd5b600073ffffffffffffffffffffffffffffffffffffffff82169050919050565b6000620000a48262000077565b9050919050565b620000b68162000097565b8114620000c257600080fd5b50565b600081519050620000d681620000ab565b92915050565b600060208284031215620000f557620000f462000072565b5b60006200010584828501620000c5565b91505092915050565b608051613c06620001ee60003960008181610389015281816104020152818161051c0152818161061801528181610754015281816109e701528181610add01528181610bab01528181610c5c01528181610d1f01528181610e0501528181610eb301528181610ef001528181610f77015281816111040152818161116201528181611213015281816112d60152818161147a01528181611526015281816115c70152818161164b01528181611c2101528181611c4501528181611f2f01528181612047015281816121480152818161216c01526124c80152613c066000f3fe608060405234801561001057600080fd5b50600436106100ea5760003560e01c80639b0055071161008c578063c0e3ee6b11610066578063c0e3ee6b146102a9578063cd938a91146102da578063d06ca61f1461030a578063e8e337001461033a576100ea565b80639b0055071461022b578063a8aa1b311461025b578063ad615dec14610279576100ea565b80634737b43d116100c85780634737b43d1461017f5780635c11d795146101af57806385f8c259146101cb5780638803dbee146101fb576100ea565b8063054d50d4146100ef5780631f00ca741461011f57806338ed17391461014f575b600080fd5b61010960048036038101906101049190612853565b61036c565b60405161011691906128b5565b60405180910390f35b61013960048036038101906101349190612a87565b610382565b6040516101469190612ba1565b60405180910390f35b61016960048036038101906101649190612c1e565b6103b7565b6040516101769190612ba1565b60405180910390f35b61019960048036038101906101949190612a87565b610610565b6040516101a691906128b5565b60405180910390f35b6101c960048036038101906101c49190612c1e565b6106e1565b005b6101e560048036038101906101e09190612853565b610986565b6040516101f291906128b5565b60405180910390f35b61021560048036038101906102109190612c1e565b61099c565b6040516102229190612ba1565b60405180910390f35b61024560048036038101906102409190612cb8565b610b74565b60405161025291906128b5565b60405180910390f35b610263610e03565b6040516102709190612d60565b60405180910390f35b610293600480360381019061028e9190612853565b610e27565b6040516102a091906128b5565b60405180910390f35b6102c360048036038101906102be9190612d7b565b610eae565b6040516102d1929190612e08565b60405180910390f35b6102f460048036038101906102ef9190612a87565b6110fc565b60405161030191906128b5565b60405180910390f35b610324600480360381019061031f9190612a87565b611473565b6040516103319190612ba1565b60405180910390f35b610354600480360381019061034f9190612e31565b6114a8565b60405161036393929190612ee7565b60405180910390f35b60006103798484846116f6565b90509392505050565b60606103af7f000000000000000000000000000000000000000000000000000000000000000084846117fc565b905092915050565b606081428110156103fd576040517f08c379a00000000000000000000000000000000000000000000000000000000081526004016103f490612f7b565b60405180910390fd5b6104697f000000000000000000000000000000000000000000000000000000000000000089888880806020026020016040519081016040528093929190818152602001838360200280828437600081840152601f19601f82011690508083019250505050505050611997565b915086826001845161047b9190612fca565b8151811061048c5761048b612ffe565b5b602002602001015110156104d5576040517f08c379a00000000000000000000000000000000000000000000000000000000081526004016104cc9061309f565b60405180910390fd5b858560008181106104e9576104e8612ffe565b5b90506020020160208101906104fe91906130bf565b73ffffffffffffffffffffffffffffffffffffffff166323b872dd337f00000000000000000000000000000000000000000000000000000000000000008560008151811061054f5761054e612ffe565b5b60200260200101516040518463ffffffff1660e01b8152600401610575939291906130fb565b6020604051808303816000875af1158015610594573d6000803e3d6000fd5b505050506040513d601f19601f820116820180604052508101906105b8919061316a565b5061060582878780806020026020016040519081016040528093929190818152602001838360200280828437600081840152601f19601f8201169050808301925050505050505086611b22565b509695505050505050565b60008061063e7f00000000000000000000000000000000000000000000000000000000000000008585611997565b90506000806000600186516106539190612fca565b90505b60008111156106b85783818151811061067257610671612ffe565b5b602002602001015191508360018261068a9190612fca565b8151811061069b5761069a612ffe565b5b6020026020010151925080806106b090613197565b915050610656565b506106d6670de0b6b3a7640000836106d091906131c0565b82611d41565b935050505092915050565b8042811015610725576040517f08c379a000000000000000000000000000000000000000000000000000000000815260040161071c90612f7b565b60405180910390fd5b6107798585600081811061073c5761073b612ffe565b5b905060200201602081019061075191906130bf565b337f00000000000000000000000000000000000000000000000000000000000000008a611d7e565b6000858560018888905061078d9190612fca565b81811061079d5761079c612ffe565b5b90506020020160208101906107b291906130bf565b73ffffffffffffffffffffffffffffffffffffffff166370a08231856040518263ffffffff1660e01b81526004016107ea919061321a565b602060405180830381865afa158015610807573d6000803e3d6000fd5b505050506040513d601f19601f8201168201806040525081019061082b919061324a565b9050610878868680806020026020016040519081016040528093929190818152602001838360200280828437600081840152601f19601f8201169050808301925050505050505085611eb7565b8661093b82888860018b8b905061088f9190612fca565b81811061089f5761089e612ffe565b5b90506020020160208101906108b491906130bf565b73ffffffffffffffffffffffffffffffffffffffff166370a08231886040518263ffffffff1660e01b81526004016108ec919061321a565b602060405180830381865afa158015610909573d6000803e3d6000fd5b505050506040513d601f19601f8201168201806040525081019061092d919061324a565b61226890919063ffffffff16565b101561097c576040517f08c379a00000000000000000000000000000000000000000000000000000000081526004016109739061309f565b60405180910390fd5b5050505050505050565b600061099384848461227e565b90509392505050565b606081428110156109e2576040517f08c379a00000000000000000000000000000000000000000000000000000000081526004016109d990612f7b565b60405180910390fd5b610a4e7f000000000000000000000000000000000000000000000000000000000000000089888880806020026020016040519081016040528093929190818152602001838360200280828437600081840152601f19601f820116905080830192505050505050506117fc565b91508682600081518110610a6557610a64612ffe565b5b60200260200101511115610aae576040517f08c379a0000000000000000000000000000000000000000000000000000000008152600401610aa5906132e9565b60405180910390fd5b610b1d86866000818110610ac557610ac4612ffe565b5b9050602002016020810190610ada91906130bf565b337f000000000000000000000000000000000000000000000000000000000000000085600081518110610b1057610b0f612ffe565b5b6020026020010151611d7e565b610b6982878780806020026020016040519081016040528093929190818152602001838360200280828437600081840152601f19601f8201169050808301925050505050505086611b22565b509695505050505050565b60008082600081518110610b8b57610b8a612ffe565b5b602002602001015173ffffffffffffffffffffffffffffffffffffffff167f000000000000000000000000000000000000000000000000000000000000000073ffffffffffffffffffffffffffffffffffffffff16630dfe16816040518163ffffffff1660e01b8152600401602060405180830381865afa158015610c14573d6000803e3d6000fd5b505050506040513d601f19601f82011682018060405250810190610c38919061331e565b73ffffffffffffffffffffffffffffffffffffffff161490506000808215610d1d577f000000000000000000000000000000000000000000000000000000000000000073ffffffffffffffffffffffffffffffffffffffff16630902f1ac6040518163ffffffff1660e01b8152600401606060405180830381865afa158015610cc5573d6000803e3d6000fd5b505050506040513d601f19601f82011682018060405250810190610ce991906133cd565b826dffffffffffffffffffffffffffff169250816dffffffffffffffffffffffffffff169150508092508193505050610ddc565b7f000000000000000000000000000000000000000000000000000000000000000073ffffffffffffffffffffffffffffffffffffffff16630902f1ac6040518163ffffffff1660e01b8152600401606060405180830381865afa158015610d88573d6000803e3d6000fd5b505050506040513d601f19601f82011682018060405250810190610dac91906133cd565b826dffffffffffffffffffffffffffff169250816dffffffffffffffffffffffffffff1691505080935081925050505b610df9670de0b6b3a764000083610df391906131c0565b82611d41565b9350505050919050565b7f000000000000000000000000000000000000000000000000000000000000000081565b600073__UniswapV2Library______________________63ad615dec8585856040518463ffffffff1660e01b8152600401610e649392919061342f565b602060405180830381865af4158015610e81573d6000803e3d6000fd5b505050506040513d601f19601f82011682018060405250810190610ea5919061324a565b90509392505050565b6000807f000000000000000000000000000000000000000000000000000000000000000073ffffffffffffffffffffffffffffffffffffffff166323b872dd337f0000000000000000000000000000000000000000000000000000000000000000896040518463ffffffff1660e01b8152600401610f2e939291906130fb565b6020604051808303816000875af1158015610f4d573d6000803e3d6000fd5b505050506040513d601f19601f82011682018060405250810190610f71919061316a565b506000807f000000000000000000000000000000000000000000000000000000000000000073ffffffffffffffffffffffffffffffffffffffff166389afcb44866040518263ffffffff1660e01b8152600401610fce919061321a565b60408051808303816000875af1158015610fec573d6000803e3d6000fd5b505050506040513d601f19601f820116820180604052508101906110109190613466565b9150915060006110208b8b612391565b5090508073ffffffffffffffffffffffffffffffffffffffff168b73ffffffffffffffffffffffffffffffffffffffff161461105d578183611060565b82825b8095508196505050878510156110ab576040517f08c379a00000000000000000000000000000000000000000000000000000000081526004016110a290613518565b60405180910390fd5b868410156110ee576040517f08c379a00000000000000000000000000000000000000000000000000000000081526004016110e5906135aa565b60405180910390fd5b505050965096945050505050565b60008061112a7f00000000000000000000000000000000000000000000000000000000000000008585611997565b905060008360008151811061114257611141612ffe565b5b602002602001015173ffffffffffffffffffffffffffffffffffffffff167f000000000000000000000000000000000000000000000000000000000000000073ffffffffffffffffffffffffffffffffffffffff16630dfe16816040518163ffffffff1660e01b8152600401602060405180830381865afa1580156111cb573d6000803e3d6000fd5b505050506040513d601f19601f820116820180604052508101906111ef919061331e565b73ffffffffffffffffffffffffffffffffffffffff1614905060008082156112d4577f000000000000000000000000000000000000000000000000000000000000000073ffffffffffffffffffffffffffffffffffffffff16630902f1ac6040518163ffffffff1660e01b8152600401606060405180830381865afa15801561127c573d6000803e3d6000fd5b505050506040513d601f19601f820116820180604052508101906112a091906133cd565b826dffffffffffffffffffffffffffff169250816dffffffffffffffffffffffffffff169150508092508193505050611393565b7f000000000000000000000000000000000000000000000000000000000000000073ffffffffffffffffffffffffffffffffffffffff16630902f1ac6040518163ffffffff1660e01b8152600401606060405180830381865afa15801561133f573d6000803e3d6000fd5b505050506040513d601f19601f8201168201806040525081019061136391906133cd565b826dffffffffffffffffffffffffffff169250816dffffffffffffffffffffffffffff1691505080935081925050505b6000806000600189516113a69190612fca565b90505b600081111561140b578681815181106113c5576113c4612ffe565b5b60200260200101519250866001826113dd9190612fca565b815181106113ee576113ed612ffe565b5b60200260200101519150808061140390613197565b9150506113a9565b50600061141789610b74565b6114218b8b610610565b61142b9190612fca565b9050660aa87bee53800061145a670de0b6b3a76400008361144c91906131c0565b6114558c610b74565b611d41565b6114649190612fca565b97505050505050505092915050565b60606114a07f00000000000000000000000000000000000000000000000000000000000000008484611997565b905092915050565b600080600083428110156114f1576040517f08c379a00000000000000000000000000000000000000000000000000000000081526004016114e890612f7b565b60405180910390fd5b6114ff8c8c8c8c8c8c6124bd565b80945081955050508b73ffffffffffffffffffffffffffffffffffffffff166323b872dd337f0000000000000000000000000000000000000000000000000000000000000000876040518463ffffffff1660e01b8152600401611564939291906130fb565b6020604051808303816000875af1158015611583573d6000803e3d6000fd5b505050506040513d601f19601f820116820180604052508101906115a7919061316a565b508a73ffffffffffffffffffffffffffffffffffffffff166323b872dd337f0000000000000000000000000000000000000000000000000000000000000000866040518463ffffffff1660e01b8152600401611605939291906130fb565b6020604051808303816000875af1158015611624573d6000803e3d6000fd5b505050506040513d601f19601f82011682018060405250810190611648919061316a565b507f000000000000000000000000000000000000000000000000000000000000000073ffffffffffffffffffffffffffffffffffffffff16636a627842876040518263ffffffff1660e01b81526004016116a2919061321a565b6020604051808303816000875af11580156116c1573d6000803e3d6000fd5b505050506040513d601f19601f820116820180604052508101906116e5919061324a565b915050985098509895505050505050565b600080841161173a576040517f08c379a00000000000000000000000000000000000000000000000000000000081526004016117319061363c565b60405180910390fd5b60008311801561174a5750600082115b611789576040517f08c379a0000000000000000000000000000000000000000000000000000000008152600401611780906136ce565b60405180910390fd5b60006117a06103e5866126de90919063ffffffff16565b905060006117b784836126de90919063ffffffff16565b905060006117e2836117d46103e8896126de90919063ffffffff16565b6126f490919063ffffffff16565b905080826117f0919061371d565b93505050509392505050565b6060600282511015611843576040517f08c379a000000000000000000000000000000000000000000000000000000000815260040161183a9061379a565b60405180910390fd5b815167ffffffffffffffff81111561185e5761185d6128e6565b5b60405190808252806020026020018201604052801561188c5781602001602082028036833780820191505090505b50905082816001835161189f9190612fca565b815181106118b0576118af612ffe565b5b6020026020010181815250506000600183516118cc9190612fca565b90505b600081111561198f5760008061192687866001866118ed9190612fca565b815181106118fe576118fd612ffe565b5b602002602001015187868151811061191957611918612ffe565b5b602002602001015161270a565b9150915061194f8484815181106119405761193f612ffe565b5b6020026020010151838361227e565b8460018561195d9190612fca565b8151811061196e5761196d612ffe565b5b6020026020010181815250505050808061198790613197565b9150506118cf565b509392505050565b60606002825110156119de576040517f08c379a00000000000000000000000000000000000000000000000000000000081526004016119d59061379a565b60405180910390fd5b815167ffffffffffffffff8111156119f9576119f86128e6565b5b604051908082528060200260200182016040528015611a275781602001602082028036833780820191505090505b5090508281600081518110611a3f57611a3e612ffe565b5b60200260200101818152505060005b60018351611a5c9190612fca565b811015611b1a57600080611ab187868581518110611a7d57611a7c612ffe565b5b602002602001015187600187611a9391906137ba565b81518110611aa457611aa3612ffe565b5b602002602001015161270a565b91509150611ada848481518110611acb57611aca612ffe565b5b602002602001015183836116f6565b84600185611ae891906137ba565b81518110611af957611af8612ffe565b5b60200260200101818152505050508080611b1290613810565b915050611a4e565b509392505050565b60005b60018351611b339190612fca565b811015611d3b57600080848381518110611b5057611b4f612ffe565b5b602002602001015185600185611b6691906137ba565b81518110611b7757611b76612ffe565b5b6020026020010151915091506000611b8f8383612391565b509050600087600186611ba291906137ba565b81518110611bb357611bb2612ffe565b5b602002602001015190506000808373ffffffffffffffffffffffffffffffffffffffff168673ffffffffffffffffffffffffffffffffffffffff1614611bfb57826000611bff565b6000835b91509150600060028a51611c139190612fca565b8810611c1f5788611c41565b7f00000000000000000000000000000000000000000000000000000000000000005b90507f000000000000000000000000000000000000000000000000000000000000000073ffffffffffffffffffffffffffffffffffffffff1663022c0d9f848484600067ffffffffffffffff811115611c9d57611c9c6128e6565b5b6040519080825280601f01601f191660200182016040528015611ccf5781602001600182028036833780820191505090505b506040518563ffffffff1660e01b8152600401611cef94939291906138e0565b600060405180830381600087803b158015611d0957600080fd5b505af1158015611d1d573d6000803e3d6000fd5b50505050505050505050508080611d3390613810565b915050611b25565b50505050565b6000808314611d7357600182600185611d5a9190612fca565b611d64919061371d565b611d6e91906137ba565b611d76565b60005b905092915050565b6000808573ffffffffffffffffffffffffffffffffffffffff166323b872dd868686604051602401611db2939291906130fb565b6040516020818303038152906040529060e01b6020820180517bffffffffffffffffffffffffffffffffffffffffffffffffffffffff8381831617835250505050604051611e009190613968565b6000604051808303816000865af19150503d8060008114611e3d576040519150601f19603f3d011682016040523d82523d6000602084013e611e42565b606091505b5091509150818015611e705750600081511480611e6f575080806020019051810190611e6e919061316a565b5b5b611eaf576040517f08c379a0000000000000000000000000000000000000000000000000000000008152600401611ea6906139f1565b60405180910390fd5b505050505050565b60005b60018351611ec89190612fca565b81101561226357600080848381518110611ee557611ee4612ffe565b5b602002602001015185600185611efb91906137ba565b81518110611f0c57611f0b612ffe565b5b6020026020010151915091506000611f248383612391565b5090506000806000807f000000000000000000000000000000000000000000000000000000000000000073ffffffffffffffffffffffffffffffffffffffff16630902f1ac6040518163ffffffff1660e01b8152600401606060405180830381865afa158015611f98573d6000803e3d6000fd5b505050506040513d601f19601f82011682018060405250810190611fbc91906133cd565b506dffffffffffffffffffffffffffff1691506dffffffffffffffffffffffffffff1691506000808673ffffffffffffffffffffffffffffffffffffffff168973ffffffffffffffffffffffffffffffffffffffff161461201e578284612021565b83835b915091506120d1828a73ffffffffffffffffffffffffffffffffffffffff166370a082317f00000000000000000000000000000000000000000000000000000000000000006040518263ffffffff1660e01b8152600401612082919061321a565b602060405180830381865afa15801561209f573d6000803e3d6000fd5b505050506040513d601f19601f820116820180604052508101906120c3919061324a565b61226890919063ffffffff16565b95506120de8683836116f6565b9450505050506000808473ffffffffffffffffffffffffffffffffffffffff168773ffffffffffffffffffffffffffffffffffffffff161461212257826000612126565b6000835b91509150600060028b5161213a9190612fca565b89106121465789612168565b7f00000000000000000000000000000000000000000000000000000000000000005b90507f000000000000000000000000000000000000000000000000000000000000000073ffffffffffffffffffffffffffffffffffffffff1663022c0d9f848484600067ffffffffffffffff8111156121c4576121c36128e6565b5b6040519080825280601f01601f1916602001820160405280156121f65781602001600182028036833780820191505090505b506040518563ffffffff1660e01b815260040161221694939291906138e0565b600060405180830381600087803b15801561223057600080fd5b505af1158015612244573d6000803e3d6000fd5b505050505050505050505050808061225b90613810565b915050611eba565b505050565b600081836122769190612fca565b905092915050565b60008084116122c2576040517f08c379a00000000000000000000000000000000000000000000000000000000081526004016122b990613a83565b60405180910390fd5b6000831180156122d25750600082115b612311576040517f08c379a0000000000000000000000000000000000000000000000000000000008152600401612308906136ce565b60405180910390fd5b600061233a6103e861232c87876126de90919063ffffffff16565b6126de90919063ffffffff16565b905060006123656103e5612357888761226890919063ffffffff16565b6126de90919063ffffffff16565b905061238660018284612378919061371d565b6126f490919063ffffffff16565b925050509392505050565b6000808273ffffffffffffffffffffffffffffffffffffffff168473ffffffffffffffffffffffffffffffffffffffff1603612402576040517f08c379a00000000000000000000000000000000000000000000000000000000081526004016123f990613b15565b60405180910390fd5b8273ffffffffffffffffffffffffffffffffffffffff168473ffffffffffffffffffffffffffffffffffffffff161061243c57828461243f565b83835b8092508193505050600073ffffffffffffffffffffffffffffffffffffffff168273ffffffffffffffffffffffffffffffffffffffff16036124b6576040517f08c379a00000000000000000000000000000000000000000000000000000000081526004016124ad90613b81565b60405180910390fd5b9250929050565b6000806000806124ee7f00000000000000000000000000000000000000000000000000000000000000008b8b61270a565b915091506000821480156125025750600081145b1561251657878780945081955050506126d1565b600073__UniswapV2Library______________________63ad615dec8a85856040518463ffffffff1660e01b81526004016125539392919061342f565b602060405180830381865af4158015612570573d6000803e3d6000fd5b505050506040513d601f19601f82011682018060405250810190612594919061324a565b90508781116125ef57858110156125e0576040517f08c379a00000000000000000000000000000000000000000000000000000000081526004016125d7906135aa565b60405180910390fd5b888180955081965050506126cf565b600073__UniswapV2Library______________________63ad615dec8a85876040518463ffffffff1660e01b815260040161262c9392919061342f565b602060405180830381865af4158015612649573d6000803e3d6000fd5b505050506040513d601f19601f8201168201806040525081019061266d919061324a565b9050898111156126805761267f613ba1565b5b878110156126c3576040517f08c379a00000000000000000000000000000000000000000000000000000000081526004016126ba90613518565b60405180910390fd5b80898096508197505050505b505b5050965096945050505050565b600081836126ec91906131c0565b905092915050565b6000818361270291906137ba565b905092915050565b6000806000859050600061271e8686612391565b5090506000808373ffffffffffffffffffffffffffffffffffffffff16630902f1ac6040518163ffffffff1660e01b8152600401606060405180830381865afa15801561276f573d6000803e3d6000fd5b505050506040513d601f19601f8201168201806040525081019061279391906133cd565b506dffffffffffffffffffffffffffff1691506dffffffffffffffffffffffffffff1691508273ffffffffffffffffffffffffffffffffffffffff168873ffffffffffffffffffffffffffffffffffffffff16146127f25780826127f5565b81815b809650819750505050505050935093915050565b6000604051905090565b600080fd5b600080fd5b6000819050919050565b6128308161281d565b811461283b57600080fd5b50565b60008135905061284d81612827565b92915050565b60008060006060848603121561286c5761286b612813565b5b600061287a8682870161283e565b935050602061288b8682870161283e565b925050604061289c8682870161283e565b9150509250925092565b6128af8161281d565b82525050565b60006020820190506128ca60008301846128a6565b92915050565b600080fd5b6000601f19601f8301169050919050565b7f4e487b7100000000000000000000000000000000000000000000000000000000600052604160045260246000fd5b61291e826128d5565b810181811067ffffffffffffffff8211171561293d5761293c6128e6565b5b80604052505050565b6000612950612809565b905061295c8282612915565b919050565b600067ffffffffffffffff82111561297c5761297b6128e6565b5b602082029050602081019050919050565b600080fd5b600073ffffffffffffffffffffffffffffffffffffffff82169050919050565b60006129bd82612992565b9050919050565b6129cd816129b2565b81146129d857600080fd5b50565b6000813590506129ea816129c4565b92915050565b6000612a036129fe84612961565b612946565b90508083825260208201905060208402830185811115612a2657612a2561298d565b5b835b81811015612a4f5780612a3b88826129db565b845260208401935050602081019050612a28565b5050509392505050565b600082601f830112612a6e57612a6d6128d0565b5b8135612a7e8482602086016129f0565b91505092915050565b60008060408385031215612a9e57612a9d612813565b5b6000612aac8582860161283e565b925050602083013567ffffffffffffffff811115612acd57612acc612818565b5b612ad985828601612a59565b9150509250929050565b600081519050919050565b600082825260208201905092915050565b6000819050602082019050919050565b612b188161281d565b82525050565b6000612b2a8383612b0f565b60208301905092915050565b6000602082019050919050565b6000612b4e82612ae3565b612b588185612aee565b9350612b6383612aff565b8060005b83811015612b94578151612b7b8882612b1e565b9750612b8683612b36565b925050600181019050612b67565b5085935050505092915050565b60006020820190508181036000830152612bbb8184612b43565b905092915050565b600080fd5b60008083601f840112612bde57612bdd6128d0565b5b8235905067ffffffffffffffff811115612bfb57612bfa612bc3565b5b602083019150836020820283011115612c1757612c1661298d565b5b9250929050565b60008060008060008060a08789031215612c3b57612c3a612813565b5b6000612c4989828a0161283e565b9650506020612c5a89828a0161283e565b955050604087013567ffffffffffffffff811115612c7b57612c7a612818565b5b612c8789828a01612bc8565b94509450506060612c9a89828a016129db565b9250506080612cab89828a0161283e565b9150509295509295509295565b600060208284031215612cce57612ccd612813565b5b600082013567ffffffffffffffff811115612cec57612ceb612818565b5b612cf884828501612a59565b91505092915050565b6000819050919050565b6000612d26612d21612d1c84612992565b612d01565b612992565b9050919050565b6000612d3882612d0b565b9050919050565b6000612d4a82612d2d565b9050919050565b612d5a81612d3f565b82525050565b6000602082019050612d756000830184612d51565b92915050565b60008060008060008060c08789031215612d9857612d97612813565b5b6000612da689828a016129db565b9650506020612db789828a016129db565b9550506040612dc889828a0161283e565b9450506060612dd989828a0161283e565b9350506080612dea89828a0161283e565b92505060a0612dfb89828a016129db565b9150509295509295509295565b6000604082019050612e1d60008301856128a6565b612e2a60208301846128a6565b9392505050565b600080600080600080600080610100898b031215612e5257612e51612813565b5b6000612e608b828c016129db565b9850506020612e718b828c016129db565b9750506040612e828b828c0161283e565b9650506060612e938b828c0161283e565b9550506080612ea48b828c0161283e565b94505060a0612eb58b828c0161283e565b93505060c0612ec68b828c016129db565b92505060e0612ed78b828c0161283e565b9150509295985092959890939650565b6000606082019050612efc60008301866128a6565b612f0960208301856128a6565b612f1660408301846128a6565b949350505050565b600082825260208201905092915050565b7f556e69737761705632526f757465723a20455850495245440000000000000000600082015250565b6000612f65601883612f1e565b9150612f7082612f2f565b602082019050919050565b60006020820190508181036000830152612f9481612f58565b9050919050565b7f4e487b7100000000000000000000000000000000000000000000000000000000600052601160045260246000fd5b6000612fd58261281d565b9150612fe08361281d565b925082821015612ff357612ff2612f9b565b5b828203905092915050565b7f4e487b7100000000000000000000000000000000000000000000000000000000600052603260045260246000fd5b7f556e69737761705632526f757465723a20494e53554646494349454e545f4f5560008201527f545055545f414d4f554e54000000000000000000000000000000000000000000602082015250565b6000613089602b83612f1e565b91506130948261302d565b604082019050919050565b600060208201905081810360008301526130b88161307c565b9050919050565b6000602082840312156130d5576130d4612813565b5b60006130e3848285016129db565b91505092915050565b6130f5816129b2565b82525050565b600060608201905061311060008301866130ec565b61311d60208301856130ec565b61312a60408301846128a6565b949350505050565b60008115159050919050565b61314781613132565b811461315257600080fd5b50565b6000815190506131648161313e565b92915050565b6000602082840312156131805761317f612813565b5b600061318e84828501613155565b91505092915050565b60006131a28261281d565b9150600082036131b5576131b4612f9b565b5b600182039050919050565b60006131cb8261281d565b91506131d68361281d565b9250817fffffffffffffffffffffffffffffffffffffffffffffffffffffffffffffffff048311821515161561320f5761320e612f9b565b5b828202905092915050565b600060208201905061322f60008301846130ec565b92915050565b60008151905061324481612827565b92915050565b6000602082840312156132605761325f612813565b5b600061326e84828501613235565b91505092915050565b7f556e69737761705632526f757465723a204558434553534956455f494e50555460008201527f5f414d4f554e5400000000000000000000000000000000000000000000000000602082015250565b60006132d3602783612f1e565b91506132de82613277565b604082019050919050565b60006020820190508181036000830152613302816132c6565b9050919050565b600081519050613318816129c4565b92915050565b60006020828403121561333457613333612813565b5b600061334284828501613309565b91505092915050565b60006dffffffffffffffffffffffffffff82169050919050565b61336e8161334b565b811461337957600080fd5b50565b60008151905061338b81613365565b92915050565b600063ffffffff82169050919050565b6133aa81613391565b81146133b557600080fd5b50565b6000815190506133c7816133a1565b92915050565b6000806000606084860312156133e6576133e5612813565b5b60006133f48682870161337c565b93505060206134058682870161337c565b9250506040613416868287016133b8565b9150509250925092565b6134298161281d565b82525050565b60006060820190506134446000830186613420565b6134516020830185613420565b61345e6040830184613420565b949350505050565b6000806040838503121561347d5761347c612813565b5b600061348b85828601613235565b925050602061349c85828601613235565b9150509250929050565b7f556e69737761705632526f757465723a20494e53554646494349454e545f415f60008201527f414d4f554e540000000000000000000000000000000000000000000000000000602082015250565b6000613502602683612f1e565b915061350d826134a6565b604082019050919050565b60006020820190508181036000830152613531816134f5565b9050919050565b7f556e69737761705632526f757465723a20494e53554646494349454e545f425f60008201527f414d4f554e540000000000000000000000000000000000000000000000000000602082015250565b6000613594602683612f1e565b915061359f82613538565b604082019050919050565b600060208201905081810360008301526135c381613587565b9050919050565b7f556e697377617056324c6962726172793a20494e53554646494349454e545f4960008201527f4e5055545f414d4f554e54000000000000000000000000000000000000000000602082015250565b6000613626602b83612f1e565b9150613631826135ca565b604082019050919050565b6000602082019050818103600083015261365581613619565b9050919050565b7f556e697377617056324c6962726172793a20494e53554646494349454e545f4c60008201527f4951554944495459000000000000000000000000000000000000000000000000602082015250565b60006136b8602883612f1e565b91506136c38261365c565b604082019050919050565b600060208201905081810360008301526136e7816136ab565b9050919050565b7f4e487b7100000000000000000000000000000000000000000000000000000000600052601260045260246000fd5b60006137288261281d565b91506137338361281d565b925082613743576137426136ee565b5b828204905092915050565b7f556e697377617056324c6962726172793a20494e56414c49445f504154480000600082015250565b6000613784601e83612f1e565b915061378f8261374e565b602082019050919050565b600060208201905081810360008301526137b381613777565b9050919050565b60006137c58261281d565b91506137d08361281d565b9250827fffffffffffffffffffffffffffffffffffffffffffffffffffffffffffffffff0382111561380557613804612f9b565b5b828201905092915050565b600061381b8261281d565b91507fffffffffffffffffffffffffffffffffffffffffffffffffffffffffffffffff820361384d5761384c612f9b565b5b600182019050919050565b600081519050919050565b600082825260208201905092915050565b60005b83811015613892578082015181840152602081019050613877565b838111156138a1576000848401525b50505050565b60006138b282613858565b6138bc8185613863565b93506138cc818560208601613874565b6138d5816128d5565b840191505092915050565b60006080820190506138f560008301876128a6565b61390260208301866128a6565b61390f60408301856130ec565b818103606083015261392181846138a7565b905095945050505050565b600081905092915050565b600061394282613858565b61394c818561392c565b935061395c818560208601613874565b80840191505092915050565b60006139748284613937565b915081905092915050565b7f5472616e7366657248656c7065723a3a7472616e7366657246726f6d3a20747260008201527f616e7366657246726f6d206661696c6564000000000000000000000000000000602082015250565b60006139db603183612f1e565b91506139e68261397f565b604082019050919050565b60006020820190508181036000830152613a0a816139ce565b9050919050565b7f556e697377617056324c6962726172793a20494e53554646494349454e545f4f60008201527f55545055545f414d4f554e540000000000000000000000000000000000000000602082015250565b6000613a6d602c83612f1e565b9150613a7882613a11565b604082019050919050565b60006020820190508181036000830152613a9c81613a60565b9050919050565b7f556e697377617056324c6962726172793a204944454e544943414c5f4144445260008201527f4553534553000000000000000000000000000000000000000000000000000000602082015250565b6000613aff602583612f1e565b9150613b0a82613aa3565b604082019050919050565b60006020820190508181036000830152613b2e81613af2565b9050919050565b7f556e697377617056324c6962726172793a205a45524f5f414444524553530000600082015250565b6000613b6b601e83612f1e565b9150613b7682613b35565b602082019050919050565b60006020820190508181036000830152613b9a81613b5e565b9050919050565b7f4e487b7100000000000000000000000000000000000000000000000000000000600052600160045260246000fdfea26469706673582212209c0766e304c95d735678ad8b85f2f4d10ffe54d2e1230b0c900b8782f93a9d5264736f6c634300080f0033",
  "immutableReferences": {
    "6535": [
      {
        "length": 32,
        "start": 905
      },
      {
        "length": 32,
        "start": 1026
      },
      {
        "length": 32,
        "start": 1308
      },
      {
        "length": 32,
        "start": 1560
      },
      {
        "length": 32,
        "start": 1876
      },
      {
        "length": 32,
        "start": 2535
      },
      {
        "length": 32,
        "start": 2781
      },
      {
        "length": 32,
        "start": 2987
      },
      {
        "length": 32,
        "start": 3164
      },
      {
        "length": 32,
        "start": 3359
      },
      {
        "length": 32,
        "start": 3589
      },
      {
        "length": 32,
        "start": 3763
      },
      {
        "length": 32,
        "start": 3824
      },
      {
        "length": 32,
        "start": 3959
      },
      {
        "length": 32,
        "start": 4356
      },
      {
        "length": 32,
        "start": 4450
      },
      {
        "length": 32,
        "start": 4627
      },
      {
        "length": 32,
        "start": 4822
      },
      {
        "length": 32,
        "start": 5242
      },
      {
        "length": 32,
        "start": 5414
      },
      {
        "length": 32,
        "start": 5575
      },
      {
        "length": 32,
        "start": 5707
      },
      {
        "length": 32,
        "start": 7201
      },
      {
        "length": 32,
        "start": 7237
      },
      {
        "length": 32,
        "start": 7983
      },
      {
        "length": 32,
        "start": 8263
      },
      {
        "length": 32,
        "start": 8520
      },
      {
        "length": 32,
        "start": 8556
      },
      {
        "length": 32,
        "start": 9416
      }
    ]
  },
  "source": "//SPDX-License-Identifier: MIT\npragma solidity ^0.8.0;\n\nimport \"@uniswap/v2-periphery/contracts/interfaces/IUniswapV2Router02.sol\";\nimport \"@uniswap/v2-periphery/contracts/libraries/UniswapV2Library.sol\";\nimport \"@uniswap/v2-core/contracts/interfaces/IUniswapV2Pair.sol\";\nimport \"@openzeppelin/contracts/utils/math/Math.sol\";\nimport \"@uniswap/lib/contracts/libraries/TransferHelper.sol\";\nimport \"@openzeppelin/contracts/token/ERC20/ERC20.sol\";\n\ncontract Swap {\n    using SafeMath for uint256;\n\n    IUniswapV2Pair public immutable pair;\n    modifier ensure(uint256 deadline) {\n        require(deadline >= block.timestamp, \"UniswapV2Router: EXPIRED\");\n        _;\n    }\n\n    // 10,006311,143394,908693,384722\n    constructor(address _pair) {\n        pair = IUniswapV2Pair(_pair);\n    }\n\n    // **** ADD LIQUIDITY ****\n    function _addLiquidity(\n        address tokenA,\n        address tokenB,\n        uint256 amountADesired,\n        uint256 amountBDesired,\n        uint256 amountAMin,\n        uint256 amountBMin\n    ) internal view returns (uint256 amountA, uint256 amountB) {\n        (uint256 reserveA, uint256 reserveB) = UniswapV2Library.getReserves(\n            address(pair),\n            tokenA,\n            tokenB\n        );\n        if (reserveA == 0 && reserveB == 0) {\n            (amountA, amountB) = (amountADesired, amountBDesired);\n        } else {\n            uint256 amountBOptimal = UniswapV2Library.quote(\n                amountADesired,\n                reserveA,\n                reserveB\n            );\n            if (amountBOptimal <= amountBDesired) {\n                require(\n                    amountBOptimal >= amountBMin,\n                    \"UniswapV2Router: INSUFFICIENT_B_AMOUNT\"\n                );\n                (amountA, amountB) = (amountADesired, amountBOptimal);\n            } else {\n                uint256 amountAOptimal = UniswapV2Library.quote(\n                    amountBDesired,\n                    reserveB,\n                    reserveA\n                );\n                assert(amountAOptimal <= amountADesired);\n                require(\n                    amountAOptimal >= amountAMin,\n                    \"UniswapV2Router: INSUFFICIENT_A_AMOUNT\"\n                );\n                (amountA, amountB) = (amountAOptimal, amountBDesired);\n            }\n        }\n    }\n\n    function addLiquidity(\n        address tokenA,\n        address tokenB,\n        uint256 amountADesired,\n        uint256 amountBDesired,\n        uint256 amountAMin,\n        uint256 amountBMin,\n        address to,\n        uint256 deadlne\n    )\n        public\n        ensure(deadlne)\n        returns (\n            uint256 amountA,\n            uint256 amountB,\n            uint256 liquidity\n        )\n    {\n        (amountA, amountB) = _addLiquidity(\n            tokenA,\n            tokenB,\n            amountADesired,\n            amountBDesired,\n            amountAMin,\n            amountBMin\n        );\n        IERC20(tokenA).transferFrom(msg.sender, address(pair), amountA);\n        IERC20(tokenB).transferFrom(msg.sender, address(pair), amountB);\n        liquidity = IUniswapV2Pair(pair).mint(to);\n    }\n\n    // swap\n\n    function removeLiquidity(\n        address tokenA,\n        address tokenB,\n        uint256 liquidity,\n        uint256 amountAMin,\n        uint256 amountBMin,\n        address to\n    ) public returns (uint256 amountA, uint256 amountB) {\n        pair.transferFrom(msg.sender, address(pair), liquidity); // send liquidity to pair\n        (uint256 amount0, uint256 amount1) = pair.burn(to);\n        (address token0, ) = UniswapV2Library.sortTokens(tokenA, tokenB);\n        (amountA, amountB) = tokenA == token0\n            ? (amount0, amount1)\n            : (amount1, amount0);\n        require(\n            amountA >= amountAMin,\n            \"UniswapV2Router: INSUFFICIENT_A_AMOUNT\"\n        );\n        require(\n            amountB >= amountBMin,\n            \"UniswapV2Router: INSUFFICIENT_B_AMOUNT\"\n        );\n    }\n\n    // **** REMOVE LIQUIDITY (supporting fee-on-transfer tokens) ****\n\n    // **** SWAP ****\n    // requires the initial amount to have already been sent to the first pair\n    function _swap(\n        uint256[] memory amounts,\n        address[] memory path,\n        address _to\n    ) internal {\n        for (uint256 i; i < path.length - 1; i++) {\n            (address input, address output) = (path[i], path[i + 1]);\n            (address token0, ) = UniswapV2Library.sortTokens(input, output);\n            uint256 amountOut = amounts[i + 1];\n            (uint256 amount0Out, uint256 amount1Out) = input == token0\n                ? (uint256(0), amountOut)\n                : (amountOut, uint256(0));\n            address to = i < path.length - 2 ? address(pair) : _to;\n            IUniswapV2Pair(pair).swap(amount0Out, amount1Out, to, new bytes(0));\n        }\n    }\n\n    function swapExactTokensForTokens(\n        uint256 amountIn,\n        uint256 amountOutMin,\n        address[] calldata path,\n        address to,\n        uint256 deadline\n    ) external ensure(deadline) returns (uint256[] memory amounts) {\n        amounts = UniswapV2Library.getAmountsOut(address(pair), amountIn, path);\n        require(\n            amounts[amounts.length - 1] >= amountOutMin,\n            \"UniswapV2Router: INSUFFICIENT_OUTPUT_AMOUNT\"\n        );\n        IERC20(path[0]).transferFrom(msg.sender, address(pair), amounts[0]);\n        _swap(amounts, path, to);\n    }\n\n    function swapTokensForExactTokens(\n        uint256 amountOut,\n        uint256 amountInMax,\n        address[] calldata path,\n        address to,\n        uint256 deadline\n    ) external ensure(deadline) returns (uint256[] memory amounts) {\n        amounts = UniswapV2Library.getAmountsIn(address(pair), amountOut, path);\n        require(\n            amounts[0] <= amountInMax,\n            \"UniswapV2Router: EXCESSIVE_INPUT_AMOUNT\"\n        );\n        TransferHelper.safeTransferFrom(\n            path[0],\n            msg.sender,\n            address(pair),\n            amounts[0]\n        );\n        _swap(amounts, path, to);\n    }\n\n    // **** SWAP (supporting fee-on-transfer tokens) ****\n    // requires the initial amount to have already been sent to the first pair\n    function _swapSupportingFeeOnTransferTokens(\n        address[] memory path,\n        address _to\n    ) internal {\n        for (uint256 i; i < path.length - 1; i++) {\n            (address input, address output) = (path[i], path[i + 1]);\n            (address token0, ) = UniswapV2Library.sortTokens(input, output);\n\n            uint256 amountInput;\n            uint256 amountOutput;\n            {\n                // scope to avoid stack too deep errors\n                (uint256 reserve0, uint256 reserve1, ) = pair.getReserves();\n                (uint256 reserveInput, uint256 reserveOutput) = input == token0\n                    ? (reserve0, reserve1)\n                    : (reserve1, reserve0);\n                amountInput = IERC20(input).balanceOf(address(pair)).sub(\n                    reserveInput\n                );\n                amountOutput = UniswapV2Library.getAmountOut(\n                    amountInput,\n                    reserveInput,\n                    reserveOutput\n                );\n            }\n            (uint256 amount0Out, uint256 amount1Out) = input == token0\n                ? (uint256(0), amountOutput)\n                : (amountOutput, uint256(0));\n            address to = i < path.length - 2 ? address(pair) : _to;\n            pair.swap(amount0Out, amount1Out, to, new bytes(0));\n        }\n    }\n\n    function swapExactTokensForTokensSupportingFeeOnTransferTokens(\n        uint256 amountIn,\n        uint256 amountOutMin,\n        address[] calldata path,\n        address to,\n        uint256 deadline\n    ) external ensure(deadline) {\n        TransferHelper.safeTransferFrom(\n            path[0],\n            msg.sender,\n            address(pair),\n            amountIn\n        );\n        uint256 balanceBefore = IERC20(path[path.length - 1]).balanceOf(to);\n        _swapSupportingFeeOnTransferTokens(path, to);\n        require(\n            IERC20(path[path.length - 1]).balanceOf(to).sub(balanceBefore) >=\n                amountOutMin,\n            \"UniswapV2Router: INSUFFICIENT_OUTPUT_AMOUNT\"\n        );\n    }\n\n    // **** LIBRARY FUNCTIONS ****\n    function quote(\n        uint256 amountA,\n        uint256 reserveA,\n        uint256 reserveB\n    ) public pure returns (uint256 amountB) {\n        return UniswapV2Library.quote(amountA, reserveA, reserveB);\n    }\n\n    function getPrice(address[] memory path) public view returns (uint256) {\n        bool trueToken = pair.token0() == path[0];\n        uint256 reserve0;\n        uint256 reserve1;\n        if (trueToken) {\n            (reserve0, reserve1, ) = pair.getReserves();\n        } else {\n            (reserve1, reserve0, ) = pair.getReserves();\n        }\n        return Math.ceilDiv(reserve0 * 10**18, reserve1);\n    }\n\n    function getAmountOut(\n        uint256 amountIn,\n        uint256 reserveIn,\n        uint256 reserveOut\n    ) public pure returns (uint256 amountOut) {\n        return UniswapV2Library.getAmountOut(amountIn, reserveIn, reserveOut);\n    }\n\n    function getAmountIn(\n        uint256 amountOut,\n        uint256 reserveIn,\n        uint256 reserveOut\n    ) public pure returns (uint256 amountIn) {\n        return UniswapV2Library.getAmountIn(amountOut, reserveIn, reserveOut);\n    }\n\n    function tokenAPerTokenB(uint256 amountIn_, address[] memory path)\n        public\n        view\n        returns (uint256 price)\n    {\n        uint256[] memory amounts = UniswapV2Library.getAmountsOut(\n            address(pair),\n            amountIn_,\n            path\n        );\n        uint256 amountIn;\n        uint256 amountOut;\n        for (uint256 i = path.length - 1; i > 0; i--) {\n            amountOut = amounts[i];\n            amountIn = amounts[i - 1];\n        }\n        price = Math.ceilDiv(amountIn * 10**18, amountOut);\n    }\n\n    function priceImpact(uint256 amountIn_, address[] memory path)\n        public\n        view\n        returns (uint256 priceImpact_)\n    {\n        uint256[] memory amounts = UniswapV2Library.getAmountsOut(\n            address(pair),\n            amountIn_,\n            path\n        );\n        bool trueToken = pair.token0() == path[0];\n        uint256 reserve0;\n        uint256 reserve1;\n        if (trueToken) {\n            (reserve0, reserve1, ) = pair.getReserves();\n        } else {\n            (reserve1, reserve0, ) = pair.getReserves();\n        }\n        uint256 amountIn;\n        uint256 amountOut;\n\n        for (uint256 i = path.length - 1; i > 0; i--) {\n            amountIn = amounts[i];\n            amountOut = amounts[i - 1];\n        }\n        uint256 delta = tokenAPerTokenB(amountIn_, path) - getPrice(path);\n        priceImpact_ =\n            Math.ceilDiv(delta * 10**18, getPrice(path)) -\n            3 *\n            10**15; //sub fee\n    }\n\n    function getAmountsOut(uint256 amountIn, address[] memory path)\n        public\n        view\n        returns (uint256[] memory amounts)\n    {\n        return UniswapV2Library.getAmountsOut(address(pair), amountIn, path);\n    }\n\n    function getAmountsIn(uint256 amountOut, address[] memory path)\n        public\n        view\n        returns (uint256[] memory amounts)\n    {\n        return UniswapV2Library.getAmountsIn(address(pair), amountOut, path);\n    }\n}\n",
  "sourcePath": "F:\\EXACT PROJECT\\swapFinal\\contracts\\Swap.sol",
  "compiler": {
    "name": "solc",
    "version": "0.8.15+commit.e14f2714.Emscripten.clang"
  },
  "schemaVersion": "3.4.8",
  "updatedAt": "2022-07-28T16:49:24.330Z",
  "devdoc": {
    "kind": "dev",
    "methods": {},
    "version": 1
  },
  "userdoc": {
    "kind": "user",
    "methods": {},
    "version": 1
  }
}