{
  "contractName": "Swap",
  "abi": [
    {
      "inputs": [
        {
          "internalType": "address",
          "name": "_pair",
          "type": "address"
        }
      ],
      "stateMutability": "nonpayable",
      "type": "constructor"
    },
    {
      "inputs": [],
      "name": "pair",
      "outputs": [
        {
          "internalType": "contract IUniswapV2Pair",
          "name": "",
          "type": "address"
        }
      ],
      "stateMutability": "view",
      "type": "function",
      "constant": true
    },
    {
      "inputs": [
        {
          "internalType": "address",
          "name": "tokenA",
          "type": "address"
        },
        {
          "internalType": "address",
          "name": "tokenB",
          "type": "address"
        },
        {
          "internalType": "uint256",
          "name": "amountADesired",
          "type": "uint256"
        },
        {
          "internalType": "uint256",
          "name": "amountBDesired",
          "type": "uint256"
        },
        {
          "internalType": "uint256",
          "name": "amountAMin",
          "type": "uint256"
        },
        {
          "internalType": "uint256",
          "name": "amountBMin",
          "type": "uint256"
        },
        {
          "internalType": "address",
          "name": "to",
          "type": "address"
        },
        {
          "internalType": "uint256",
          "name": "deadlne",
          "type": "uint256"
        }
      ],
      "name": "addLiquidity",
      "outputs": [
        {
          "internalType": "uint256",
          "name": "amountA",
          "type": "uint256"
        },
        {
          "internalType": "uint256",
          "name": "amountB",
          "type": "uint256"
        },
        {
          "internalType": "uint256",
          "name": "liquidity",
          "type": "uint256"
        }
      ],
      "stateMutability": "nonpayable",
      "type": "function"
    },
    {
      "inputs": [
        {
          "internalType": "address",
          "name": "tokenA",
          "type": "address"
        },
        {
          "internalType": "address",
          "name": "tokenB",
          "type": "address"
        },
        {
          "internalType": "uint256",
          "name": "liquidity",
          "type": "uint256"
        },
        {
          "internalType": "uint256",
          "name": "amountAMin",
          "type": "uint256"
        },
        {
          "internalType": "uint256",
          "name": "amountBMin",
          "type": "uint256"
        },
        {
          "internalType": "address",
          "name": "to",
          "type": "address"
        }
      ],
      "name": "removeLiquidity",
      "outputs": [
        {
          "internalType": "uint256",
          "name": "amountA",
          "type": "uint256"
        },
        {
          "internalType": "uint256",
          "name": "amountB",
          "type": "uint256"
        }
      ],
      "stateMutability": "nonpayable",
      "type": "function"
    },
    {
      "inputs": [
        {
          "internalType": "uint256",
          "name": "amountIn",
          "type": "uint256"
        },
        {
          "internalType": "uint256",
          "name": "amountOutMin",
          "type": "uint256"
        },
        {
          "internalType": "address[]",
          "name": "path",
          "type": "address[]"
        },
        {
          "internalType": "address",
          "name": "to",
          "type": "address"
        },
        {
          "internalType": "uint256",
          "name": "deadline",
          "type": "uint256"
        }
      ],
      "name": "swapExactTokensForTokens",
      "outputs": [
        {
          "internalType": "uint256[]",
          "name": "amounts",
          "type": "uint256[]"
        }
      ],
      "stateMutability": "nonpayable",
      "type": "function"
    },
    {
      "inputs": [
        {
          "internalType": "uint256",
          "name": "amountOut",
          "type": "uint256"
        },
        {
          "internalType": "uint256",
          "name": "amountInMax",
          "type": "uint256"
        },
        {
          "internalType": "address[]",
          "name": "path",
          "type": "address[]"
        },
        {
          "internalType": "address",
          "name": "to",
          "type": "address"
        },
        {
          "internalType": "uint256",
          "name": "deadline",
          "type": "uint256"
        }
      ],
      "name": "swapTokensForExactTokens",
      "outputs": [
        {
          "internalType": "uint256[]",
          "name": "amounts",
          "type": "uint256[]"
        }
      ],
      "stateMutability": "nonpayable",
      "type": "function"
    },
    {
      "inputs": [
        {
          "internalType": "uint256",
          "name": "amountIn",
          "type": "uint256"
        },
        {
          "internalType": "uint256",
          "name": "amountOutMin",
          "type": "uint256"
        },
        {
          "internalType": "address[]",
          "name": "path",
          "type": "address[]"
        },
        {
          "internalType": "address",
          "name": "to",
          "type": "address"
        },
        {
          "internalType": "uint256",
          "name": "deadline",
          "type": "uint256"
        }
      ],
      "name": "swapExactTokensForTokensSupportingFeeOnTransferTokens",
      "outputs": [],
      "stateMutability": "nonpayable",
      "type": "function"
    },
    {
      "inputs": [
        {
          "internalType": "uint256",
          "name": "amountA",
          "type": "uint256"
        },
        {
          "internalType": "uint256",
          "name": "reserveA",
          "type": "uint256"
        },
        {
          "internalType": "uint256",
          "name": "reserveB",
          "type": "uint256"
        }
      ],
      "name": "quote",
      "outputs": [
        {
          "internalType": "uint256",
          "name": "amountB",
          "type": "uint256"
        }
      ],
      "stateMutability": "pure",
      "type": "function",
      "constant": true
    },
    {
      "inputs": [
        {
          "internalType": "uint256",
          "name": "amountIn",
          "type": "uint256"
        },
        {
          "internalType": "uint256",
          "name": "reserveIn",
          "type": "uint256"
        },
        {
          "internalType": "uint256",
          "name": "reserveOut",
          "type": "uint256"
        }
      ],
      "name": "getAmountOut",
      "outputs": [
        {
          "internalType": "uint256",
          "name": "amountOut",
          "type": "uint256"
        }
      ],
      "stateMutability": "pure",
      "type": "function",
      "constant": true
    },
    {
      "inputs": [
        {
          "internalType": "uint256",
          "name": "amountOut",
          "type": "uint256"
        },
        {
          "internalType": "uint256",
          "name": "reserveIn",
          "type": "uint256"
        },
        {
          "internalType": "uint256",
          "name": "reserveOut",
          "type": "uint256"
        }
      ],
      "name": "getAmountIn",
      "outputs": [
        {
          "internalType": "uint256",
          "name": "amountIn",
          "type": "uint256"
        }
      ],
      "stateMutability": "pure",
      "type": "function",
      "constant": true
    },
    {
      "inputs": [
        {
          "internalType": "uint256",
          "name": "amountIn",
          "type": "uint256"
        },
        {
          "internalType": "address[]",
          "name": "path",
          "type": "address[]"
        }
      ],
      "name": "getAmountsOut",
      "outputs": [
        {
          "internalType": "uint256[]",
          "name": "amounts",
          "type": "uint256[]"
        }
      ],
      "stateMutability": "view",
      "type": "function",
      "constant": true
    },
    {
      "inputs": [
        {
          "internalType": "uint256",
          "name": "amountOut",
          "type": "uint256"
        },
        {
          "internalType": "address[]",
          "name": "path",
          "type": "address[]"
        }
      ],
      "name": "getAmountsIn",
      "outputs": [
        {
          "internalType": "uint256[]",
          "name": "amounts",
          "type": "uint256[]"
        }
      ],
      "stateMutability": "view",
      "type": "function",
      "constant": true
    }
  ],
  "bytecode": "0x60a06040523480156200001157600080fd5b506040516200354c3803806200354c8339818101604052810190620000379190620000dc565b8073ffffffffffffffffffffffffffffffffffffffff1660808173ffffffffffffffffffffffffffffffffffffffff1681525050506200010e565b600080fd5b600073ffffffffffffffffffffffffffffffffffffffff82169050919050565b6000620000a48262000077565b9050919050565b620000b68162000097565b8114620000c257600080fd5b50565b600081519050620000d681620000ab565b92915050565b600060208284031215620000f557620000f462000072565b5b60006200010584828501620000c5565b91505092915050565b608051613396620001b6600039600081816102b8015281816103310152818161044b015281816105b2015281816108450152818161093b015281816109d401528181610a8201528181610abf01528181610b4601528181610cd201528181610d7e01528181610e1f01528181610ea3015281816114790152818161149d0152818161174a0152818161186201528181611963015281816119870152611ce301526133966000f3fe608060405234801561001057600080fd5b50600436106100a95760003560e01c80638803dbee116100715780638803dbee1461018a578063a8aa1b31146101ba578063ad615dec146101d8578063c0e3ee6b14610208578063d06ca61f14610239578063e8e3370014610269576100a9565b8063054d50d4146100ae5780631f00ca74146100de57806338ed17391461010e5780635c11d7951461013e57806385f8c2591461015a575b600080fd5b6100c860048036038101906100c3919061206e565b61029b565b6040516100d591906120d0565b60405180910390f35b6100f860048036038101906100f391906122a2565b6102b1565b60405161010591906123bc565b60405180910390f35b61012860048036038101906101239190612439565b6102e6565b60405161013591906123bc565b60405180910390f35b61015860048036038101906101539190612439565b61053f565b005b610174600480360381019061016f919061206e565b6107e4565b60405161018191906120d0565b60405180910390f35b6101a4600480360381019061019f9190612439565b6107fa565b6040516101b191906123bc565b60405180910390f35b6101c26109d2565b6040516101cf9190612532565b60405180910390f35b6101f260048036038101906101ed919061206e565b6109f6565b6040516101ff91906120d0565b60405180910390f35b610222600480360381019061021d919061254d565b610a7d565b6040516102309291906125da565b60405180910390f35b610253600480360381019061024e91906122a2565b610ccb565b60405161026091906123bc565b60405180910390f35b610283600480360381019061027e9190612603565b610d00565b604051610292939291906126b9565b60405180910390f35b60006102a8848484610f4e565b90509392505050565b60606102de7f00000000000000000000000000000000000000000000000000000000000000008484611054565b905092915050565b6060814281101561032c576040517f08c379a00000000000000000000000000000000000000000000000000000000081526004016103239061274d565b60405180910390fd5b6103987f000000000000000000000000000000000000000000000000000000000000000089888880806020026020016040519081016040528093929190818152602001838360200280828437600081840152601f19601f820116905080830192505050505050506111ef565b91508682600184516103aa919061279c565b815181106103bb576103ba6127d0565b5b60200260200101511015610404576040517f08c379a00000000000000000000000000000000000000000000000000000000081526004016103fb90612871565b60405180910390fd5b85856000818110610418576104176127d0565b5b905060200201602081019061042d9190612891565b73ffffffffffffffffffffffffffffffffffffffff166323b872dd337f00000000000000000000000000000000000000000000000000000000000000008560008151811061047e5761047d6127d0565b5b60200260200101516040518463ffffffff1660e01b81526004016104a4939291906128cd565b6020604051808303816000875af11580156104c3573d6000803e3d6000fd5b505050506040513d601f19601f820116820180604052508101906104e7919061293c565b5061053482878780806020026020016040519081016040528093929190818152602001838360200280828437600081840152601f19601f820116905080830192505050505050508661137a565b509695505050505050565b8042811015610583576040517f08c379a000000000000000000000000000000000000000000000000000000000815260040161057a9061274d565b60405180910390fd5b6105d78585600081811061059a576105996127d0565b5b90506020020160208101906105af9190612891565b337f00000000000000000000000000000000000000000000000000000000000000008a611599565b600085856001888890506105eb919061279c565b8181106105fb576105fa6127d0565b5b90506020020160208101906106109190612891565b73ffffffffffffffffffffffffffffffffffffffff166370a08231856040518263ffffffff1660e01b81526004016106489190612969565b602060405180830381865afa158015610665573d6000803e3d6000fd5b505050506040513d601f19601f820116820180604052508101906106899190612999565b90506106d6868680806020026020016040519081016040528093929190818152602001838360200280828437600081840152601f19601f82011690508083019250505050505050856116d2565b8661079982888860018b8b90506106ed919061279c565b8181106106fd576106fc6127d0565b5b90506020020160208101906107129190612891565b73ffffffffffffffffffffffffffffffffffffffff166370a08231886040518263ffffffff1660e01b815260040161074a9190612969565b602060405180830381865afa158015610767573d6000803e3d6000fd5b505050506040513d601f19601f8201168201806040525081019061078b9190612999565b611a8390919063ffffffff16565b10156107da576040517f08c379a00000000000000000000000000000000000000000000000000000000081526004016107d190612871565b60405180910390fd5b5050505050505050565b60006107f1848484611a99565b90509392505050565b60608142811015610840576040517f08c379a00000000000000000000000000000000000000000000000000000000081526004016108379061274d565b60405180910390fd5b6108ac7f000000000000000000000000000000000000000000000000000000000000000089888880806020026020016040519081016040528093929190818152602001838360200280828437600081840152601f19601f82011690508083019250505050505050611054565b915086826000815181106108c3576108c26127d0565b5b6020026020010151111561090c576040517f08c379a000000000000000000000000000000000000000000000000000000000815260040161090390612a38565b60405180910390fd5b61097b86866000818110610923576109226127d0565b5b90506020020160208101906109389190612891565b337f00000000000000000000000000000000000000000000000000000000000000008560008151811061096e5761096d6127d0565b5b6020026020010151611599565b6109c782878780806020026020016040519081016040528093929190818152602001838360200280828437600081840152601f19601f820116905080830192505050505050508661137a565b509695505050505050565b7f000000000000000000000000000000000000000000000000000000000000000081565b600073__UniswapV2Library______________________63ad615dec8585856040518463ffffffff1660e01b8152600401610a3393929190612a67565b602060405180830381865af4158015610a50573d6000803e3d6000fd5b505050506040513d601f19601f82011682018060405250810190610a749190612999565b90509392505050565b6000807f000000000000000000000000000000000000000000000000000000000000000073ffffffffffffffffffffffffffffffffffffffff166323b872dd337f0000000000000000000000000000000000000000000000000000000000000000896040518463ffffffff1660e01b8152600401610afd939291906128cd565b6020604051808303816000875af1158015610b1c573d6000803e3d6000fd5b505050506040513d601f19601f82011682018060405250810190610b40919061293c565b506000807f000000000000000000000000000000000000000000000000000000000000000073ffffffffffffffffffffffffffffffffffffffff166389afcb44866040518263ffffffff1660e01b8152600401610b9d9190612969565b60408051808303816000875af1158015610bbb573d6000803e3d6000fd5b505050506040513d601f19601f82011682018060405250810190610bdf9190612a9e565b915091506000610bef8b8b611bac565b5090508073ffffffffffffffffffffffffffffffffffffffff168b73ffffffffffffffffffffffffffffffffffffffff1614610c2c578183610c2f565b82825b809550819650505087851015610c7a576040517f08c379a0000000000000000000000000000000000000000000000000000000008152600401610c7190612b50565b60405180910390fd5b86841015610cbd576040517f08c379a0000000000000000000000000000000000000000000000000000000008152600401610cb490612be2565b60405180910390fd5b505050965096945050505050565b6060610cf87f000000000000000000000000000000000000000000000000000000000000000084846111ef565b905092915050565b60008060008342811015610d49576040517f08c379a0000000000000000000000000000000000000000000000000000000008152600401610d409061274d565b60405180910390fd5b610d578c8c8c8c8c8c611cd8565b80945081955050508b73ffffffffffffffffffffffffffffffffffffffff166323b872dd337f0000000000000000000000000000000000000000000000000000000000000000876040518463ffffffff1660e01b8152600401610dbc939291906128cd565b6020604051808303816000875af1158015610ddb573d6000803e3d6000fd5b505050506040513d601f19601f82011682018060405250810190610dff919061293c565b508a73ffffffffffffffffffffffffffffffffffffffff166323b872dd337f0000000000000000000000000000000000000000000000000000000000000000866040518463ffffffff1660e01b8152600401610e5d939291906128cd565b6020604051808303816000875af1158015610e7c573d6000803e3d6000fd5b505050506040513d601f19601f82011682018060405250810190610ea0919061293c565b507f000000000000000000000000000000000000000000000000000000000000000073ffffffffffffffffffffffffffffffffffffffff16636a627842876040518263ffffffff1660e01b8152600401610efa9190612969565b6020604051808303816000875af1158015610f19573d6000803e3d6000fd5b505050506040513d601f19601f82011682018060405250810190610f3d9190612999565b915050985098509895505050505050565b6000808411610f92576040517f08c379a0000000000000000000000000000000000000000000000000000000008152600401610f8990612c74565b60405180910390fd5b600083118015610fa25750600082115b610fe1576040517f08c379a0000000000000000000000000000000000000000000000000000000008152600401610fd890612d06565b60405180910390fd5b6000610ff86103e586611ef990919063ffffffff16565b9050600061100f8483611ef990919063ffffffff16565b9050600061103a8361102c6103e889611ef990919063ffffffff16565b611f0f90919063ffffffff16565b905080826110489190612d55565b93505050509392505050565b606060028251101561109b576040517f08c379a000000000000000000000000000000000000000000000000000000000815260040161109290612dd2565b60405180910390fd5b815167ffffffffffffffff8111156110b6576110b5612101565b5b6040519080825280602002602001820160405280156110e45781602001602082028036833780820191505090505b5090508281600183516110f7919061279c565b81518110611108576111076127d0565b5b602002602001018181525050600060018351611124919061279c565b90505b60008111156111e75760008061117e8786600186611145919061279c565b81518110611156576111556127d0565b5b6020026020010151878681518110611171576111706127d0565b5b6020026020010151611f25565b915091506111a7848481518110611198576111976127d0565b5b60200260200101518383611a99565b846001856111b5919061279c565b815181106111c6576111c56127d0565b5b602002602001018181525050505080806111df90612df2565b915050611127565b509392505050565b6060600282511015611236576040517f08c379a000000000000000000000000000000000000000000000000000000000815260040161122d90612dd2565b60405180910390fd5b815167ffffffffffffffff81111561125157611250612101565b5b60405190808252806020026020018201604052801561127f5781602001602082028036833780820191505090505b5090508281600081518110611297576112966127d0565b5b60200260200101818152505060005b600183516112b4919061279c565b81101561137257600080611309878685815181106112d5576112d46127d0565b5b6020026020010151876001876112eb9190612e1b565b815181106112fc576112fb6127d0565b5b6020026020010151611f25565b91509150611332848481518110611323576113226127d0565b5b60200260200101518383610f4e565b846001856113409190612e1b565b81518110611351576113506127d0565b5b6020026020010181815250505050808061136a90612e71565b9150506112a6565b509392505050565b60005b6001835161138b919061279c565b811015611593576000808483815181106113a8576113a76127d0565b5b6020026020010151856001856113be9190612e1b565b815181106113cf576113ce6127d0565b5b60200260200101519150915060006113e78383611bac565b5090506000876001866113fa9190612e1b565b8151811061140b5761140a6127d0565b5b602002602001015190506000808373ffffffffffffffffffffffffffffffffffffffff168673ffffffffffffffffffffffffffffffffffffffff161461145357826000611457565b6000835b91509150600060028a5161146b919061279c565b88106114775788611499565b7f00000000000000000000000000000000000000000000000000000000000000005b90507f000000000000000000000000000000000000000000000000000000000000000073ffffffffffffffffffffffffffffffffffffffff1663022c0d9f848484600067ffffffffffffffff8111156114f5576114f4612101565b5b6040519080825280601f01601f1916602001820160405280156115275781602001600182028036833780820191505090505b506040518563ffffffff1660e01b81526004016115479493929190612f41565b600060405180830381600087803b15801561156157600080fd5b505af1158015611575573d6000803e3d6000fd5b5050505050505050505050808061158b90612e71565b91505061137d565b50505050565b6000808573ffffffffffffffffffffffffffffffffffffffff166323b872dd8686866040516024016115cd939291906128cd565b6040516020818303038152906040529060e01b6020820180517bffffffffffffffffffffffffffffffffffffffffffffffffffffffff838183161783525050505060405161161b9190612fc9565b6000604051808303816000865af19150503d8060008114611658576040519150601f19603f3d011682016040523d82523d6000602084013e61165d565b606091505b509150915081801561168b575060008151148061168a575080806020019051810190611689919061293c565b5b5b6116ca576040517f08c379a00000000000000000000000000000000000000000000000000000000081526004016116c190613052565b60405180910390fd5b505050505050565b60005b600183516116e3919061279c565b811015611a7e57600080848381518110611700576116ff6127d0565b5b6020026020010151856001856117169190612e1b565b81518110611727576117266127d0565b5b602002602001015191509150600061173f8383611bac565b5090506000806000807f000000000000000000000000000000000000000000000000000000000000000073ffffffffffffffffffffffffffffffffffffffff16630902f1ac6040518163ffffffff1660e01b8152600401606060405180830381865afa1580156117b3573d6000803e3d6000fd5b505050506040513d601f19601f820116820180604052508101906117d791906130f4565b506dffffffffffffffffffffffffffff1691506dffffffffffffffffffffffffffff1691506000808673ffffffffffffffffffffffffffffffffffffffff168973ffffffffffffffffffffffffffffffffffffffff161461183957828461183c565b83835b915091506118ec828a73ffffffffffffffffffffffffffffffffffffffff166370a082317f00000000000000000000000000000000000000000000000000000000000000006040518263ffffffff1660e01b815260040161189d9190612969565b602060405180830381865afa1580156118ba573d6000803e3d6000fd5b505050506040513d601f19601f820116820180604052508101906118de9190612999565b611a8390919063ffffffff16565b95506118f9868383610f4e565b9450505050506000808473ffffffffffffffffffffffffffffffffffffffff168773ffffffffffffffffffffffffffffffffffffffff161461193d57826000611941565b6000835b91509150600060028b51611955919061279c565b89106119615789611983565b7f00000000000000000000000000000000000000000000000000000000000000005b90507f000000000000000000000000000000000000000000000000000000000000000073ffffffffffffffffffffffffffffffffffffffff1663022c0d9f848484600067ffffffffffffffff8111156119df576119de612101565b5b6040519080825280601f01601f191660200182016040528015611a115781602001600182028036833780820191505090505b506040518563ffffffff1660e01b8152600401611a319493929190612f41565b600060405180830381600087803b158015611a4b57600080fd5b505af1158015611a5f573d6000803e3d6000fd5b5050505050505050505050508080611a7690612e71565b9150506116d5565b505050565b60008183611a91919061279c565b905092915050565b6000808411611add576040517f08c379a0000000000000000000000000000000000000000000000000000000008152600401611ad4906131b9565b60405180910390fd5b600083118015611aed5750600082115b611b2c576040517f08c379a0000000000000000000000000000000000000000000000000000000008152600401611b2390612d06565b60405180910390fd5b6000611b556103e8611b478787611ef990919063ffffffff16565b611ef990919063ffffffff16565b90506000611b806103e5611b728887611a8390919063ffffffff16565b611ef990919063ffffffff16565b9050611ba160018284611b939190612d55565b611f0f90919063ffffffff16565b925050509392505050565b6000808273ffffffffffffffffffffffffffffffffffffffff168473ffffffffffffffffffffffffffffffffffffffff1603611c1d576040517f08c379a0000000000000000000000000000000000000000000000000000000008152600401611c149061324b565b60405180910390fd5b8273ffffffffffffffffffffffffffffffffffffffff168473ffffffffffffffffffffffffffffffffffffffff1610611c57578284611c5a565b83835b8092508193505050600073ffffffffffffffffffffffffffffffffffffffff168273ffffffffffffffffffffffffffffffffffffffff1603611cd1576040517f08c379a0000000000000000000000000000000000000000000000000000000008152600401611cc8906132b7565b60405180910390fd5b9250929050565b600080600080611d097f00000000000000000000000000000000000000000000000000000000000000008b8b611f25565b91509150600082148015611d1d5750600081145b15611d315787878094508195505050611eec565b600073__UniswapV2Library______________________63ad615dec8a85856040518463ffffffff1660e01b8152600401611d6e93929190612a67565b602060405180830381865af4158015611d8b573d6000803e3d6000fd5b505050506040513d601f19601f82011682018060405250810190611daf9190612999565b9050878111611e0a5785811015611dfb576040517f08c379a0000000000000000000000000000000000000000000000000000000008152600401611df290612be2565b60405180910390fd5b88818095508196505050611eea565b600073__UniswapV2Library______________________63ad615dec8a85876040518463ffffffff1660e01b8152600401611e4793929190612a67565b602060405180830381865af4158015611e64573d6000803e3d6000fd5b505050506040513d601f19601f82011682018060405250810190611e889190612999565b905089811115611e9b57611e9a6132d7565b5b87811015611ede576040517f08c379a0000000000000000000000000000000000000000000000000000000008152600401611ed590612b50565b60405180910390fd5b80898096508197505050505b505b5050965096945050505050565b60008183611f079190613306565b905092915050565b60008183611f1d9190612e1b565b905092915050565b60008060008590506000611f398686611bac565b5090506000808373ffffffffffffffffffffffffffffffffffffffff16630902f1ac6040518163ffffffff1660e01b8152600401606060405180830381865afa158015611f8a573d6000803e3d6000fd5b505050506040513d601f19601f82011682018060405250810190611fae91906130f4565b506dffffffffffffffffffffffffffff1691506dffffffffffffffffffffffffffff1691508273ffffffffffffffffffffffffffffffffffffffff168873ffffffffffffffffffffffffffffffffffffffff161461200d578082612010565b81815b809650819750505050505050935093915050565b6000604051905090565b600080fd5b600080fd5b6000819050919050565b61204b81612038565b811461205657600080fd5b50565b60008135905061206881612042565b92915050565b6000806000606084860312156120875761208661202e565b5b600061209586828701612059565b93505060206120a686828701612059565b92505060406120b786828701612059565b9150509250925092565b6120ca81612038565b82525050565b60006020820190506120e560008301846120c1565b92915050565b600080fd5b6000601f19601f8301169050919050565b7f4e487b7100000000000000000000000000000000000000000000000000000000600052604160045260246000fd5b612139826120f0565b810181811067ffffffffffffffff8211171561215857612157612101565b5b80604052505050565b600061216b612024565b90506121778282612130565b919050565b600067ffffffffffffffff82111561219757612196612101565b5b602082029050602081019050919050565b600080fd5b600073ffffffffffffffffffffffffffffffffffffffff82169050919050565b60006121d8826121ad565b9050919050565b6121e8816121cd565b81146121f357600080fd5b50565b600081359050612205816121df565b92915050565b600061221e6122198461217c565b612161565b90508083825260208201905060208402830185811115612241576122406121a8565b5b835b8181101561226a578061225688826121f6565b845260208401935050602081019050612243565b5050509392505050565b600082601f830112612289576122886120eb565b5b813561229984826020860161220b565b91505092915050565b600080604083850312156122b9576122b861202e565b5b60006122c785828601612059565b925050602083013567ffffffffffffffff8111156122e8576122e7612033565b5b6122f485828601612274565b9150509250929050565b600081519050919050565b600082825260208201905092915050565b6000819050602082019050919050565b61233381612038565b82525050565b6000612345838361232a565b60208301905092915050565b6000602082019050919050565b6000612369826122fe565b6123738185612309565b935061237e8361231a565b8060005b838110156123af5781516123968882612339565b97506123a183612351565b925050600181019050612382565b5085935050505092915050565b600060208201905081810360008301526123d6818461235e565b905092915050565b600080fd5b60008083601f8401126123f9576123f86120eb565b5b8235905067ffffffffffffffff811115612416576124156123de565b5b602083019150836020820283011115612432576124316121a8565b5b9250929050565b60008060008060008060a087890312156124565761245561202e565b5b600061246489828a01612059565b965050602061247589828a01612059565b955050604087013567ffffffffffffffff81111561249657612495612033565b5b6124a289828a016123e3565b945094505060606124b589828a016121f6565b92505060806124c689828a01612059565b9150509295509295509295565b6000819050919050565b60006124f86124f36124ee846121ad565b6124d3565b6121ad565b9050919050565b600061250a826124dd565b9050919050565b600061251c826124ff565b9050919050565b61252c81612511565b82525050565b60006020820190506125476000830184612523565b92915050565b60008060008060008060c0878903121561256a5761256961202e565b5b600061257889828a016121f6565b965050602061258989828a016121f6565b955050604061259a89828a01612059565b94505060606125ab89828a01612059565b93505060806125bc89828a01612059565b92505060a06125cd89828a016121f6565b9150509295509295509295565b60006040820190506125ef60008301856120c1565b6125fc60208301846120c1565b9392505050565b600080600080600080600080610100898b0312156126245761262361202e565b5b60006126328b828c016121f6565b98505060206126438b828c016121f6565b97505060406126548b828c01612059565b96505060606126658b828c01612059565b95505060806126768b828c01612059565b94505060a06126878b828c01612059565b93505060c06126988b828c016121f6565b92505060e06126a98b828c01612059565b9150509295985092959890939650565b60006060820190506126ce60008301866120c1565b6126db60208301856120c1565b6126e860408301846120c1565b949350505050565b600082825260208201905092915050565b7f556e69737761705632526f757465723a20455850495245440000000000000000600082015250565b60006127376018836126f0565b915061274282612701565b602082019050919050565b600060208201905081810360008301526127668161272a565b9050919050565b7f4e487b7100000000000000000000000000000000000000000000000000000000600052601160045260246000fd5b60006127a782612038565b91506127b283612038565b9250828210156127c5576127c461276d565b5b828203905092915050565b7f4e487b7100000000000000000000000000000000000000000000000000000000600052603260045260246000fd5b7f556e69737761705632526f757465723a20494e53554646494349454e545f4f5560008201527f545055545f414d4f554e54000000000000000000000000000000000000000000602082015250565b600061285b602b836126f0565b9150612866826127ff565b604082019050919050565b6000602082019050818103600083015261288a8161284e565b9050919050565b6000602082840312156128a7576128a661202e565b5b60006128b5848285016121f6565b91505092915050565b6128c7816121cd565b82525050565b60006060820190506128e260008301866128be565b6128ef60208301856128be565b6128fc60408301846120c1565b949350505050565b60008115159050919050565b61291981612904565b811461292457600080fd5b50565b60008151905061293681612910565b92915050565b6000602082840312156129525761295161202e565b5b600061296084828501612927565b91505092915050565b600060208201905061297e60008301846128be565b92915050565b60008151905061299381612042565b92915050565b6000602082840312156129af576129ae61202e565b5b60006129bd84828501612984565b91505092915050565b7f556e69737761705632526f757465723a204558434553534956455f494e50555460008201527f5f414d4f554e5400000000000000000000000000000000000000000000000000602082015250565b6000612a226027836126f0565b9150612a2d826129c6565b604082019050919050565b60006020820190508181036000830152612a5181612a15565b9050919050565b612a6181612038565b82525050565b6000606082019050612a7c6000830186612a58565b612a896020830185612a58565b612a966040830184612a58565b949350505050565b60008060408385031215612ab557612ab461202e565b5b6000612ac385828601612984565b9250506020612ad485828601612984565b9150509250929050565b7f556e69737761705632526f757465723a20494e53554646494349454e545f415f60008201527f414d4f554e540000000000000000000000000000000000000000000000000000602082015250565b6000612b3a6026836126f0565b9150612b4582612ade565b604082019050919050565b60006020820190508181036000830152612b6981612b2d565b9050919050565b7f556e69737761705632526f757465723a20494e53554646494349454e545f425f60008201527f414d4f554e540000000000000000000000000000000000000000000000000000602082015250565b6000612bcc6026836126f0565b9150612bd782612b70565b604082019050919050565b60006020820190508181036000830152612bfb81612bbf565b9050919050565b7f556e697377617056324c6962726172793a20494e53554646494349454e545f4960008201527f4e5055545f414d4f554e54000000000000000000000000000000000000000000602082015250565b6000612c5e602b836126f0565b9150612c6982612c02565b604082019050919050565b60006020820190508181036000830152612c8d81612c51565b9050919050565b7f556e697377617056324c6962726172793a20494e53554646494349454e545f4c60008201527f4951554944495459000000000000000000000000000000000000000000000000602082015250565b6000612cf06028836126f0565b9150612cfb82612c94565b604082019050919050565b60006020820190508181036000830152612d1f81612ce3565b9050919050565b7f4e487b7100000000000000000000000000000000000000000000000000000000600052601260045260246000fd5b6000612d6082612038565b9150612d6b83612038565b925082612d7b57612d7a612d26565b5b828204905092915050565b7f556e697377617056324c6962726172793a20494e56414c49445f504154480000600082015250565b6000612dbc601e836126f0565b9150612dc782612d86565b602082019050919050565b60006020820190508181036000830152612deb81612daf565b9050919050565b6000612dfd82612038565b915060008203612e1057612e0f61276d565b5b600182039050919050565b6000612e2682612038565b9150612e3183612038565b9250827fffffffffffffffffffffffffffffffffffffffffffffffffffffffffffffffff03821115612e6657612e6561276d565b5b828201905092915050565b6000612e7c82612038565b91507fffffffffffffffffffffffffffffffffffffffffffffffffffffffffffffffff8203612eae57612ead61276d565b5b600182019050919050565b600081519050919050565b600082825260208201905092915050565b60005b83811015612ef3578082015181840152602081019050612ed8565b83811115612f02576000848401525b50505050565b6000612f1382612eb9565b612f1d8185612ec4565b9350612f2d818560208601612ed5565b612f36816120f0565b840191505092915050565b6000608082019050612f5660008301876120c1565b612f6360208301866120c1565b612f7060408301856128be565b8181036060830152612f828184612f08565b905095945050505050565b600081905092915050565b6000612fa382612eb9565b612fad8185612f8d565b9350612fbd818560208601612ed5565b80840191505092915050565b6000612fd58284612f98565b915081905092915050565b7f5472616e7366657248656c7065723a3a7472616e7366657246726f6d3a20747260008201527f616e7366657246726f6d206661696c6564000000000000000000000000000000602082015250565b600061303c6031836126f0565b915061304782612fe0565b604082019050919050565b6000602082019050818103600083015261306b8161302f565b9050919050565b60006dffffffffffffffffffffffffffff82169050919050565b61309581613072565b81146130a057600080fd5b50565b6000815190506130b28161308c565b92915050565b600063ffffffff82169050919050565b6130d1816130b8565b81146130dc57600080fd5b50565b6000815190506130ee816130c8565b92915050565b60008060006060848603121561310d5761310c61202e565b5b600061311b868287016130a3565b935050602061312c868287016130a3565b925050604061313d868287016130df565b9150509250925092565b7f556e697377617056324c6962726172793a20494e53554646494349454e545f4f60008201527f55545055545f414d4f554e540000000000000000000000000000000000000000602082015250565b60006131a3602c836126f0565b91506131ae82613147565b604082019050919050565b600060208201905081810360008301526131d281613196565b9050919050565b7f556e697377617056324c6962726172793a204944454e544943414c5f4144445260008201527f4553534553000000000000000000000000000000000000000000000000000000602082015250565b60006132356025836126f0565b9150613240826131d9565b604082019050919050565b6000602082019050818103600083015261326481613228565b9050919050565b7f556e697377617056324c6962726172793a205a45524f5f414444524553530000600082015250565b60006132a1601e836126f0565b91506132ac8261326b565b602082019050919050565b600060208201905081810360008301526132d081613294565b9050919050565b7f4e487b7100000000000000000000000000000000000000000000000000000000600052600160045260246000fd5b600061331182612038565b915061331c83612038565b9250817fffffffffffffffffffffffffffffffffffffffffffffffffffffffffffffffff04831182151516156133555761335461276d565b5b82820290509291505056fea2646970667358221220103155efa6b26ae736b0673be2ff0ac4040d2f4001ba380bd7943b05a3bcacf064736f6c634300080f0033",
  "immutableReferences": {
    "4688": [
      {
        "length": 32,
        "start": 696
      },
      {
        "length": 32,
        "start": 817
      },
      {
        "length": 32,
        "start": 1099
      },
      {
        "length": 32,
        "start": 1458
      },
      {
        "length": 32,
        "start": 2117
      },
      {
        "length": 32,
        "start": 2363
      },
      {
        "length": 32,
        "start": 2516
      },
      {
        "length": 32,
        "start": 2690
      },
      {
        "length": 32,
        "start": 2751
      },
      {
        "length": 32,
        "start": 2886
      },
      {
        "length": 32,
        "start": 3282
      },
      {
        "length": 32,
        "start": 3454
      },
      {
        "length": 32,
        "start": 3615
      },
      {
        "length": 32,
        "start": 3747
      },
      {
        "length": 32,
        "start": 5241
      },
      {
        "length": 32,
        "start": 5277
      },
      {
        "length": 32,
        "start": 5962
      },
      {
        "length": 32,
        "start": 6242
      },
      {
        "length": 32,
        "start": 6499
      },
      {
        "length": 32,
        "start": 6535
      },
      {
        "length": 32,
        "start": 7395
      }
    ]
  },
  "source": "//SPDX-License-Identifier: MIT\npragma solidity ^0.8.0;\n\nimport \"@uniswap/v2-periphery/contracts/interfaces/IUniswapV2Router02.sol\";\nimport \"@uniswap/v2-periphery/contracts/libraries/UniswapV2Library.sol\";\nimport \"@uniswap/v2-core/contracts/interfaces/IUniswapV2Pair.sol\";\n// import \"@uniswap/v2-core/contracts/libraries/SafeMath.sol\";\nimport \"@uniswap/lib/contracts/libraries/TransferHelper.sol\";\nimport \"@openzeppelin/contracts/token/ERC20/ERC20.sol\";\n\ncontract Swap {\n    using SafeMath for uint256;\n    IUniswapV2Pair public immutable pair;\n    modifier ensure(uint256 deadline) {\n        require(deadline >= block.timestamp, \"UniswapV2Router: EXPIRED\");\n        _;\n    }\n\n    constructor(address _pair) {\n        pair = IUniswapV2Pair(_pair);\n    }\n\n    // **** ADD LIQUIDITY ****\n    function _addLiquidity(\n        address tokenA,\n        address tokenB,\n        uint256 amountADesired,\n        uint256 amountBDesired,\n        uint256 amountAMin,\n        uint256 amountBMin\n    ) internal view returns (uint256 amountA, uint256 amountB) {\n        (uint256 reserveA, uint256 reserveB) = UniswapV2Library.getReserves(\n            address(pair),\n            tokenA,\n            tokenB\n        );\n        if (reserveA == 0 && reserveB == 0) {\n            (amountA, amountB) = (amountADesired, amountBDesired);\n        } else {\n            uint256 amountBOptimal = UniswapV2Library.quote(\n                amountADesired,\n                reserveA,\n                reserveB\n            );\n            if (amountBOptimal <= amountBDesired) {\n                require(\n                    amountBOptimal >= amountBMin,\n                    \"UniswapV2Router: INSUFFICIENT_B_AMOUNT\"\n                );\n                (amountA, amountB) = (amountADesired, amountBOptimal);\n            } else {\n                uint256 amountAOptimal = UniswapV2Library.quote(\n                    amountBDesired,\n                    reserveB,\n                    reserveA\n                );\n                assert(amountAOptimal <= amountADesired);\n                require(\n                    amountAOptimal >= amountAMin,\n                    \"UniswapV2Router: INSUFFICIENT_A_AMOUNT\"\n                );\n                (amountA, amountB) = (amountAOptimal, amountBDesired);\n            }\n        }\n    }\n\n    function addLiquidity(\n        address tokenA,\n        address tokenB,\n        uint256 amountADesired,\n        uint256 amountBDesired,\n        uint256 amountAMin,\n        uint256 amountBMin,\n        address to,\n        uint256 deadlne\n    )\n        public\n        ensure(deadlne)\n        returns (\n            uint256 amountA,\n            uint256 amountB,\n            uint256 liquidity\n        )\n    {\n        (amountA, amountB) = _addLiquidity(\n            tokenA,\n            tokenB,\n            amountADesired,\n            amountBDesired,\n            amountAMin,\n            amountBMin\n        );\n        IERC20(tokenA).transferFrom(msg.sender, address(pair), amountA);\n        IERC20(tokenB).transferFrom(msg.sender, address(pair), amountB);\n        liquidity = IUniswapV2Pair(pair).mint(to);\n    }\n\n    // swap\n\n    function removeLiquidity(\n        address tokenA,\n        address tokenB,\n        uint256 liquidity,\n        uint256 amountAMin,\n        uint256 amountBMin,\n        address to\n    ) public returns (uint256 amountA, uint256 amountB) {\n        pair.transferFrom(msg.sender, address(pair), liquidity); // send liquidity to pair\n        (uint256 amount0, uint256 amount1) = pair.burn(to);\n        (address token0, ) = UniswapV2Library.sortTokens(tokenA, tokenB);\n        (amountA, amountB) = tokenA == token0\n            ? (amount0, amount1)\n            : (amount1, amount0);\n        require(\n            amountA >= amountAMin,\n            \"UniswapV2Router: INSUFFICIENT_A_AMOUNT\"\n        );\n        require(\n            amountB >= amountBMin,\n            \"UniswapV2Router: INSUFFICIENT_B_AMOUNT\"\n        );\n    }\n\n    // **** REMOVE LIQUIDITY (supporting fee-on-transfer tokens) ****\n\n    // **** SWAP ****\n    // requires the initial amount to have already been sent to the first pair\n    function _swap(\n        uint256[] memory amounts,\n        address[] memory path,\n        address _to\n    ) internal {\n        for (uint256 i; i < path.length - 1; i++) {\n            (address input, address output) = (path[i], path[i + 1]);\n            (address token0, ) = UniswapV2Library.sortTokens(input, output);\n            uint256 amountOut = amounts[i + 1];\n            (uint256 amount0Out, uint256 amount1Out) = input == token0\n                ? (uint256(0), amountOut)\n                : (amountOut, uint256(0));\n            address to = i < path.length - 2 ? address(pair) : _to;\n            IUniswapV2Pair(pair).swap(amount0Out, amount1Out, to, new bytes(0));\n        }\n    }\n\n    function swapExactTokensForTokens(\n        uint256 amountIn,\n        uint256 amountOutMin,\n        address[] calldata path,\n        address to,\n        uint256 deadline\n    ) external ensure(deadline) returns (uint256[] memory amounts) {\n        amounts = UniswapV2Library.getAmountsOut(address(pair), amountIn, path);\n        require(\n            amounts[amounts.length - 1] >= amountOutMin,\n            \"UniswapV2Router: INSUFFICIENT_OUTPUT_AMOUNT\"\n        );\n        IERC20(path[0]).transferFrom(msg.sender, address(pair), amounts[0]);\n        _swap(amounts, path, to);\n    }\n\n    function swapTokensForExactTokens(\n        uint256 amountOut,\n        uint256 amountInMax,\n        address[] calldata path,\n        address to,\n        uint256 deadline\n    ) external ensure(deadline) returns (uint256[] memory amounts) {\n        amounts = UniswapV2Library.getAmountsIn(address(pair), amountOut, path);\n        require(\n            amounts[0] <= amountInMax,\n            \"UniswapV2Router: EXCESSIVE_INPUT_AMOUNT\"\n        );\n        TransferHelper.safeTransferFrom(\n            path[0],\n            msg.sender,\n            address(pair),\n            amounts[0]\n        );\n        _swap(amounts, path, to);\n    }\n\n    // **** SWAP (supporting fee-on-transfer tokens) ****\n    // requires the initial amount to have already been sent to the first pair\n    function _swapSupportingFeeOnTransferTokens(\n        address[] memory path,\n        address _to\n    ) internal {\n        for (uint256 i; i < path.length - 1; i++) {\n            (address input, address output) = (path[i], path[i + 1]);\n            (address token0, ) = UniswapV2Library.sortTokens(input, output);\n\n            uint256 amountInput;\n            uint256 amountOutput;\n            {\n                // scope to avoid stack too deep errors\n                (uint256 reserve0, uint256 reserve1, ) = pair.getReserves();\n                (uint256 reserveInput, uint256 reserveOutput) = input == token0\n                    ? (reserve0, reserve1)\n                    : (reserve1, reserve0);\n                amountInput = IERC20(input).balanceOf(address(pair)).sub(\n                    reserveInput\n                );\n                amountOutput = UniswapV2Library.getAmountOut(\n                    amountInput,\n                    reserveInput,\n                    reserveOutput\n                );\n            }\n            (uint256 amount0Out, uint256 amount1Out) = input == token0\n                ? (uint256(0), amountOutput)\n                : (amountOutput, uint256(0));\n            address to = i < path.length - 2 ? address(pair) : _to;\n            pair.swap(amount0Out, amount1Out, to, new bytes(0));\n        }\n    }\n\n    function swapExactTokensForTokensSupportingFeeOnTransferTokens(\n        uint256 amountIn,\n        uint256 amountOutMin,\n        address[] calldata path,\n        address to,\n        uint256 deadline\n    ) external ensure(deadline) {\n        TransferHelper.safeTransferFrom(\n            path[0],\n            msg.sender,\n            address(pair),\n            amountIn\n        );\n        uint256 balanceBefore = IERC20(path[path.length - 1]).balanceOf(to);\n        _swapSupportingFeeOnTransferTokens(path, to);\n        require(\n            IERC20(path[path.length - 1]).balanceOf(to).sub(balanceBefore) >=\n                amountOutMin,\n            \"UniswapV2Router: INSUFFICIENT_OUTPUT_AMOUNT\"\n        );\n    }\n\n    // **** LIBRARY FUNCTIONS ****\n    function quote(\n        uint256 amountA,\n        uint256 reserveA,\n        uint256 reserveB\n    ) public pure returns (uint256 amountB) {\n        return UniswapV2Library.quote(amountA, reserveA, reserveB);\n    }\n\n    function getAmountOut(\n        uint256 amountIn,\n        uint256 reserveIn,\n        uint256 reserveOut\n    ) public pure returns (uint256 amountOut) {\n        return UniswapV2Library.getAmountOut(amountIn, reserveIn, reserveOut);\n    }\n\n    function getAmountIn(\n        uint256 amountOut,\n        uint256 reserveIn,\n        uint256 reserveOut\n    ) public pure returns (uint256 amountIn) {\n        return UniswapV2Library.getAmountIn(amountOut, reserveIn, reserveOut);\n    }\n\n    function getAmountsOut(uint256 amountIn, address[] memory path)\n        public\n        view\n        returns (uint256[] memory amounts)\n    {\n        return UniswapV2Library.getAmountsOut(address(pair), amountIn, path);\n    }\n\n    function getAmountsIn(uint256 amountOut, address[] memory path)\n        public\n        view\n        returns (uint256[] memory amounts)\n    {\n        return UniswapV2Library.getAmountsIn(address(pair), amountOut, path);\n    }\n}\n",
  "sourcePath": "/Users/istore/Downloads/swapFinal/contracts/Swap.sol",
  "compiler": {
    "name": "solc",
    "version": "0.8.15+commit.e14f2714.Emscripten.clang"
  },
  "schemaVersion": "3.4.3",
  "updatedAt": "2022-07-14T10:26:51.384Z",
  "networkType": "ethereum",
  "devdoc": {
    "kind": "dev",
    "methods": {},
    "version": 1
  },
  "userdoc": {
    "kind": "user",
    "methods": {},
    "version": 1
  }
}